:1000000000200010DD000000D700000031330000A8
:1000100000000000000000000000000021DFFFEFF2
:10002000000000000000000000000000D9000000F7
:100030000000000000000000DB00000021210000A3
:10004000D5000000D5000000D5000000D50000005C
:10005000D5000000D5000000D5000000D50000004C
:10006000D5000000D5000000D5000000D50000003C
:10007000D5000000D5000000D5000000D50000002C
:10008000D5000000392E0000D5000000D50000008A
:10009000D5000000D50000000000000000000000B6
:1000A000D5000000D5000000D500000000000000D1
:1000B000D5000000D5000000D5000000D5000000EC
:1000C00024580000000000107400000074000010AC
:1000D00024020000FEE7FEE7FEE7FEE7F0B55E4B18
:1000E0005E498BB08B4200D287E000205C498B4296
:1000F00000D290E004F052FB04F060FEFA210025EB
:10010000584B8900186804F08DFB02F09DFE564C98
:10011000564E574B0622200056493361356003F096
:100120003BF93269832113892000D28800F072FEE6
:100130003369271D1A68F86F0292598903680231E2
:100140009B6898472E22029B02990B3304934A43E3
:10015000336903905B89F86F9B18049A5B189200CF
:100160009B181A000D33059303680E325B680599DE
:1001700001929847300040222900143004F016FE06
:100180003369F86F3C4E5989029B736003689B6822
:100190009847F560B060029BAB4247DC300000F04E
:1001A000EBFC0023F06801270C269C46324D029A96
:1001B0009A4244DC00230893231DD86F01990368F9
:1001C0009B689847FA21890041432C4B05009942CE
:1001D0005ADD190008A800F0B3FC08A800F094FC50
:1001E000051E56D1244800F0C7FC204B1B691B6834
:1001F0009D4200D296E130BFEFE700221D685F68A4
:100200009868BE18AC18904201D80C336AE724688D
:1002100004323460F5E700221E685C68B518944229
:1002200001D8083363E728600432F7E7144BAA00CB
:100230001449D058013502F045FEEDB2ABE7390064
:10024000320099405A430140AA1851616146013376
:100250001161DBB2ABE7C046C0000000CC0000007B
:10026000D40000001C000010CC010010740000102D
:100270005457000062570000FC00001060EA0000C4
:10028000145200002810000008A800F059FC002DAE
:10029000A3D10434E06F0599036800275B68984791
:1002A0000123184006900197CB4EE06F336999897E
:1002B0000368C9195B689847FF2853D0742004F07D
:1002C000C3FD336905009E89019B06604360029B64
:1002D000F6198360E06F310003685B689847E86057
:1002E000E06F711C03685B6898472861E06FB11C80
:1002F000036803365B689847A9686B680B3149004F
:10030000C9182B686861E06F02334900C918036897
:10031000EE615B6898472B002A000021A86120331A
:10032000683202C39A42FCD10A230322A968490811
:1003300059436B685343C9184B1CEB668B1C2B67E6
:10034000069BA966002B09D0A44E0432F06B00F086
:100350001CFF0722E96EF06B00F017FF019AA04B1B
:100360009200D550019B01330193049BFF18019B20
:10037000042B99D19B4800F0FFFB00230193019AC5
:10038000029B934200D0D3E0944C236820009B68EA
:100390009847200000F045FD0028F5D08F4FFC6BFA
:1003A000236820005B699847051E00D155E3236848
:1003B00020001B6998470178002900D14DE37F2375
:1003C00000269C4666617308EA1801920120082203
:1003D000EB5C1A40064202D01A0060468243701C51
:1003E000002A00D133E305219343019A1370606121
:1003F000794C23691B6801934B43B34218DD3000ED
:1004000004F09AFA05235B4243439B19042B0FD156
:10041000800020184569002D0AD02B6831009B68A8
:10042000F86B029300F0C6FE029B0100280098477B
:10043000019B019ADB0F9B180A225B105A431300A1
:10044000170054340C33029203940593BE4202D039
:100450007B1C9E4240D1039B1C68002C3CD0A36EA9
:10046000B3421AD1604BE169D86FA3685B4DC918DC
:1004700063685B00C91803685B68984700280CD064
:10048000A368E86BA16E049300F094FE049D083508
:10049000AD006051200001F0DDF8E36EB3421BD1E6
:1004A000514BE169D86FA3684C4DC918636801319D
:1004B0005B00C91803685B68984700280CD0A368E4
:1004C000E86BE16E049300F075FE049D0935AD0004
:1004D0006051200001F0BEF8039B033704330393FF
:1004E000059BBB42B2D13C4A13691B79002B00D15A
:1004F00054E7029B0C33B34200DD4FE70199C91862
:10050000B14200DC4AE7F31A9B00D3185C69310062
:100510002368DD68314BD86B00F04CFE01002000F1
:10052000A8473BE7280009A901F00FFF01355CE669
:100530002E27294E0025336954365A89019B5F4383
:10054000294BD719D86F391D03689B68984709A9AB
:100550000400019801F0F9FEAB009859002803D07F
:100560002900099A01F0EAF80135042DF4D13B0085
:100570001D4D2433E86F0693036806995B6898471E
:1005800001230493002808D1E86F059903685B688C
:1005900098470123400803400493042C09D8601EA7
:1005A000032827D8002504F0C7FADE004F01930185
:1005B000B501802300255B009C4200D18CE00B4BF1
:1005C0009C4200D1D8E12C00019A094B9200D450F2
:1005D000019B0133D2E6C04674000010CC0100102C
:1005E000C8000010FC000010D0010010FF01000046
:1005F00088000010302004F027FC0023039AD54D1A
:10060000037182600361019AD34B0400C2600360EE
:10061000E86FB91D0368099E9B68984739006061BF
:10062000E86F083103685B6898473900E061E86F5C
:100630000C3103685B6898473900A061E86F22318C
:1006400003689B689847FA239B004343E86F236243
:10065000036806995B6898470323184060620C2082
:1006600063690521E26818400C2811D1BB4802409B
:100670005143049A481CA162E062002A11D1636AC6
:10068000002BA1D02000216A103000F059FA9BE71E
:100690005143049A481CA162E062002AEFD0052B66
:1006A00010D0052B0AD802229343012BE7D1AC4B83
:1006B00001000722D86B00F068FDE0E782225200BB
:1006C0009342DCD1A64BD86B002E03D0A26900F078
:1006D000A9FDD4E7E269FAE7342004F0B5FB39005C
:1006E000039B05718360019B0561C360994D9D4B20
:1006F00004000360E86F18310368994E5B689847FF
:1007000039006061E86F1B3103685B689847390006
:10071000A061E86F083103685B6898473900206280
:10072000E86F143103685B6898470522E368E0616D
:100730005343591C9A1C636203332363049BA162D5
:10074000E262002B00D13FE76369022B03D107224D
:10075000F06B00F01AFDA369022B00D034E70722EA
:10076000216BF06B6DE0382004F06EFB039B05718C
:100770008360019B0561C360764D7B4B0400036081
:10078000774BE86F07930368F91D5B68984703266A
:100790003040434258416061E86FF91D03685B686F
:1007A000984739003040A061E86F083103685B6802
:1007B00098473900E061E86F0C3103685B6898473F
:1007C00039002062E86F223103689B6898476062B5
:1007D000E86F069903685B6898470300334030422E
:1007E00000D1636200236269A3620521E368002AE5
:1007F0001AD15A481D0018404143E162013121637A
:100800000121494261630231A0690D400B4206D0CB
:100810000923E361884200D0D6E6A261D4E602282B
:1008200000D0D1E6A561CFE659434B1C2363049B5E
:10083000E16202316163002B00D1C5E60722079B0C
:10084000D86B00F0A2FCBFE62C2004F0FDFA039B5D
:1008500005718360019B0561C3603E4D434B0400FD
:100860000360E86F0737036839005B683C4E9847C0
:100870000123800818406061E86F390003685B68F5
:100880009847012340081840A061E86F39000368C9
:100890005B689847012362691840E168E0610433AE
:1008A000002A09D12D4A11404B4323620133636270
:1008B00001235B42A36287E659434B1C6362049B9E
:1008C00021620231A162002B00D17DE6072248E7B8
:1008D000202004F0B9FA039B05718360019B056138
:1008E000C3601C4D224B04000360E86FF91D0368D0
:1008F0005B6898470123390018406061E86F083150
:1009000003685B6898470523019AA061534302334B
:10091000E36159E6242004F097FA039B0571836094
:10092000019B0561C3600B4D124B04000360E86F2F
:10093000F91D03685B68984739006061E86F2131F1
:1009400003685B6898470523019AA06153432362BB
:100950000333DDE7D001001010530000FEFF00005C
:10096000CC010010285300004053000058530000F1
:100970007053000088530000182004F065FAC0216D
:10098000039B04008360019B574FC360574B057165
:100990000360019B05619B00F858C90102F092FABF
:1009A0001F220121E368524E9B00DB59F06F1A4071
:1009B00091400A004F495B11049103210B400499B7
:1009C0009B00CB181B6C9200D5500123E3754A4B5A
:1009D0004A4A1B691D689B89AD00ED182900036810
:1009E00006925B6839319847E36829001841012372
:1009F0001840A075F06F3A3103685B689847E66865
:100A000001233041184214D020006421103000F03E
:100A10008CF81F220121B300DB591A4091400A00D3
:100A200003215B110B4004999B00CB181B6C9100B8
:100A3000CA502900069B3B310433D86F03685B68BA
:100A40009847E3681841012318406075BCE586B2F9
:100A5000B14200D9B7E4012363610024284800F0C3
:100A60008BF8284B244D01932B691B689C420CD3B7
:100A700000242B691B689C422AD3B86A00F068F8EE
:100A8000002800D180E430BF7EE4200009A901F0F5
:100A90005CFC002801D10134E6E72B00A2001433EE
:100AA000D058002806D00379002B03D10368099998
:100AB0001B6898470026019AB3009858002803D075
:100AC0002100099A00F03AFE0136042EF3D1E2E744
:100AD0002B00A2001433D058002802D003685B68B2
:100AE00098470134C5E7C04614520000A0530000E7
:100AF000D00100101452000074000010CC0100104E
:100B0000FC000010C80000100300016800208142B2
:100B100006D0044A1268521A824201DB1860013082
:100B20007047C046740000107047044B1B6859188A
:100B3000002900D1013101607047C04674000010E7
:100B400010B5002901D1016010BDFFF7EEFFFBE7F2
:100B500002002C3211780300012903D00020127802
:100B6000824203D1D86C43425841C0B270474B1EF9
:100B70009941017170477047F7B51F2243680327F9
:100B800001939446002301250F4C019A934200D310
:100B9000F7BD66469A0011594A1131402E008E4029
:100BA000B1002E003A409200A218126C9E40895863
:100BB000C268002904D032430133C260DBB2E4E7EB
:100BC000024971400A40F7E714520000FFFF00009D
:100BD00070B5867D0124731A5A1E9341C26803754D
:100BE0000E4B9200D3581F221A40944000255B06FA
:100BF0000B4A9B0F9B00D218126CC575A3008E4246
:100C000002D1D550056170BDD450437D002BFAD080
:100C1000AF2110308900FFF788FFF4E7145200007D
:100C200014520000036970B50400002B25D00500A4
:100C300010352800FFF768FF00281ED01F20E2684B
:100C4000154B9200D358154918405B069B0F9B002B
:100C5000C918042301228340824018000B6C1B1822
:100C6000E07D196800280CD0002907D00022AF21B0
:100C70001A60C9002800FFF758FF70BD64211A6090
:100C8000F8E7607D0028F8D04842414149420A40D7
:100C9000AF211A608900EDE71452000014520000E1
:100CA0004B1E994100230171036170470069704731
:100CB00000690130704700690230704700690330F5
:100CC000704700690430704700690530704700695B
:100CD0000630704700690730704700690830704778
:100CE00000690930704700690A30704700690B30AD
:100CF000704700690C30704700690D30704700691B
:100D00000E30704700690F3070470069103070472F
:100D10000069113070470069123070470069133064
:100D200070470069143070470069153070470069DA
:100D300016307047006917307047006919307047E6
:100D40000069FF30704700696230704700696330A6
:100D500070476020704761207047062070470A2066
:100D60007047006915307047DC2300699B00C0188C
:100D70007047DF2300699B00C01870470069014B72
:100D8000C01870477E030000E02300699B00C01874
:100D900070470069014BC0187047C04682030000CD
:100DA000E12300699B00C0187047DE2300699B00A7
:100DB000C01870470069014BC01870477A030000E3
:100DC0000069014BC01870478A030000E4230069E2
:100DD0009B00C01870470069014BC0187047C0469F
:100DE000850300000069014BC018704786030000AE
:100DF000E22300699B00C01870470069014BC018CE
:100E00007047C0469A0300000048704778510000C0
:100E10002020704737B5002504680095E46CA04792
:100E200037BD10B503790400002B01D1002010BD9F
:100E3000C36F5B7D012BF9D10434E06F03688C3301
:100E40001B6898474378012BF0D1E06F03688C331F
:100E50001B6898478378012BE8D1E06F03688C33D7
:100E60001B689847C078013843425841C0B2DEE75A
:100E700070478182704700207047E0239B009942B1
:100E800002D101234C3003700020704717207047B7
:100E90000022836A9A607047BFF34F8F024B034A68
:100EA000DA60BFF34F8FFEE700ED00E00400FA05C3
:100EB00070B50500006D0C000368DB6898470028DA
:100EC00005D0286D036821001B68984770BD686BCA
:100ED00021000368DB6898470028F7D0686BF1E7CA
:100EE00037B51400F0220125C06B92000A406D4214
:100EF00001680095CD682100A84701203EBDC023B0
:100F0000F7B5089C05009B00994269D00BD880205A
:100F10000E00013BFF3B86439E4220D0803B99421E
:100F20000ED00020FEBD4B4B99426DD04A4B9942EA
:100F300000D185E0E0239B009942F2D14C356AE074
:100F40006421D379127A61716339A17141390B43FC
:100F5000E371002322726372A3720120E2E70F2380
:100F6000D679107A1E40537A1B020343A0205BBA45
:100F70009BB2019380002B6881421AD022002B681B
:100F800028005B6C01991F000A323300B847431EEA
:100F90009841404206403300633363710223A371DA
:100FA0003E333343E371019B1B0A2372019B63723F
:100FB000D3E71B6C28001F00019933000A32B847A1
:100FC0000028AED02B6828009B6B98471F28A8D913
:100FD000686B03685B69984703785B07A1D5CDE729
:100FE000D3799B069DD163236371603BA3713D332D
:100FF000E37103689B6B9847000A20722B682800F6
:101000009B6B98476072A8E7537A127A4C35072A8F
:1010100001D1FF2B02D001232B7082E7642363717F
:10102000613BA3719E33E37100232372637201332A
:10103000A3728023094A5B051A6002232B708CE798
:10104000622363715F3BA371CF33E371002323728B
:1010500083E7C04681030000D103000055B01F5E46
:10106000F0B51700274A85B00D000A9C914205D0C3
:10107000013291422ED0244A91423ED1BB7A397A34
:1010800003931E01FF231E40FB7A7A7A1E436523D9
:101090006371623BA371D333E37121726272BB7AD5
:1010A0000830A372FF7A039BE772174FC06F1B09CA
:1010B000BD420AD10568019400962D6BA84700280F
:1010C00000D1A072012005B0F0BD05680194009622
:1010D0006D6BF3E76825397A7A7ABB7A6571653D7D
:1010E000A571D63521726272A372E5710830C06FA6
:1010F00005680094AC6BA047E4E73A000094FFF762
:10110000FEFEE0E7D7030000D5030000010030B584
:101110006A310B889BB20361C36C002B0FD0002493
:101120008025C46402680B882B40551DEC77941D04
:10113000E57F012D10D15A4253415B00E377002334
:1011400001220B80427502000363836483636C3267
:101150006E301380037030BD0732D47F012CEED186
:101160005C4263415B00D377E9E7036870B59B6835
:1011700004000D00984743780020052B04D923680C
:10118000290020005B68984770BD036870B55B69F3
:101190000D0014009847002809D06B10C2180F21C9
:1011A000C35CED0704D50B4024012343137070BDCD
:1011B0008B43FAE7036870B505005B680E0098473B
:1011C0002B6804001B683100280098470219531E41
:1011D0001878A41A1A19002A00DC70BD013B1A788D
:1011E00000021043F6E7F7B50193036805001B689A
:1011F0000E0017009847041E0FD02B6831005B6863
:1012000028009847431C08D02018031B002B05DC3E
:1012100031002800019AFFF7B8FFF7BD27703F0A99
:101220000134F2E710B50323FFF7DDFF10BD0369BA
:1012300070B50400002B1BD0060010363000FFF7FD
:1012400063FC002814D0A369002B12D0E569636900
:10125000002B05D0616A002902D03000FFF770FC36
:10126000054B2A00D86B216BFFF7DCFF0123A3623B
:1012700070BD256AEBE7C046CC01001070B50400D4
:10128000002904D0A1681030FFF75AFC70BD036933
:10129000002B16D04369C2690C4D002B05D0816A22
:1012A000E86BFFF787FF42424241A369E86B002BDE
:1012B0000AD16369002B01D001235A40616AFFF70C
:1012C000B1FF00232361E1E7216AF8E7CC010010B8
:1012D000036970B50400002B1BD01030FFF714FC1D
:1012E000002816D06369E2690B4D002B05D0A16A76
:1012F000E86BFFF75FFF42424241A369E86B002BB6
:1013000008D06369002B01D001235A40616AFFF7BE
:1013100089FF70BD216AFAE7CC01001010B5040006
:10132000002904D0A1681030FFF70AFC10BD036942
:10133000002B05D0044B8269C169D86BFFF772FF9F
:1013400000232361F2E7C046CC010010036910B509
:101350000400002B0FD01030FFF7D6FB00280AD076
:101360006369002B07D08022A369E1691A43024B0D
:10137000D86BFFF757FF10BDCC01001070B50A0005
:1013800004004069002937D00D2815D803F0CAFBA6
:10139000191D3333332533332E073333074F0122DF
:1013A000636A002B02D12369002B24D1214BA16A4F
:1013B000D86BFFF737FF1EE004239843FC339842B5
:1013C00019D1A269531CEBD115E01A4BE16AD86B15
:1013D000FFF7F0FE42424241E2E7A569636A002B53
:1013E00002D0216A00291DD12A00EBE72000216AE2
:1013F0001030FFF7A5FB70BD09280AD80128FAD9DB
:1014000002380728F7D803F083FB09E0F60BF6F65D
:10141000CBF102230338FF389843ECD1E269D1E7DE
:10142000E569DBE720001030FFF78AFBDCE70022EC
:10143000B6E7C046CC010010036970B50400002B6C
:1014400020D0060010363000FFF75EFB002819D0D0
:101450006369082B17D0092B1DD0052B0BD10F4B1F
:10146000A16AD86BFFF7A6FE0500216A3000FFF7DE
:1014700067FB6B1C08D1636A002B03D03000216A24
:10148000FFF75EFB70BD0125044B2A00A16AD86BF3
:10149000FFF7C8FEEFE70025F6E7C046CC010010D5
:1014A00070B50A000400002904D0A1681030FFF7CD
:1014B00047FB70BD0369002BFBD04069032804D8AB
:1014C0000C4D03F02FFB0A1404112161F1E7A16A0E
:1014D000E86BFFF76FFE424242410023616AE86B0E
:1014E0002361FFF79FFEE4E7226AD2B2F5E701220B
:1014F000F3E7C046CC010010036970B50400002B6F
:1015000011D01030FFF700FB00280CD0A069032891
:1015100009D80B4D03F006FB0212080F0022E16A06
:10152000E86BFFF77FFE70BD216BE86BFFF742FEB3
:1015300042424241F3E7E269D2B2F0E70122EEE72C
:10154000CC010010F8B5154E05000F00C169F06B15
:10155000FFF730FE6B690400002B12D0012B13D073
:10156000022B10D101342000A969F66BEF6903F05A
:10157000DFF900290BD1220039003000FFF752FEBD
:1015800001E0002FEED1F8BD002FEBD0FBE70023E8
:10159000220039003000FFF726FEF4E7CC010010EE
:1015A00070B50A4D0400016AE86BFFF703FE0028DE
:1015B0000AD00023216A1A00E86BFFF714FE00220C
:1015C000E169E86BFFF72EFE70BDC046CC0100104C
:1015D000F8B50A000400002904D0A1681030FFF714
:1015E000AFFAF8BD866A002E0FD0194B8162016BED
:1015F000D86BFFF717FE6369002B03D0A3695A422B
:101600005341A36100232361EBE70369002BF9D069
:10161000436981690E4F002B11D0416BF86BFFF7C6
:10162000C9FD45424541616B33002A00F86BFFF765
:10163000DAFD2A00E16AF86BFFF7F4FDE2E7012327
:101640001D00C26895430029F3D01A401500F0E749
:10165000CC01001070B5C5680400002D2AD0012D02
:1016600046D000251AE0E269B118B34203D8616898
:101670004900891889192F4BD86F03685B68984710
:10168000002806D02200B3002032D3580138584039
:1016900005430136A3689A1CB242E4D86369002B63
:1016A00001D001235D402069032834D803F03AFAC1
:1016B000392227342E00EDE7E269B118B34203D88E
:1016C00061684900891889191A4BD86F03685B68EB
:1016D0009847002806D02200B3002032D3580138A2
:1016E000584005400136A3689A1CB242E4D8D5E7B9
:1016F0000026F8E72A00104B216FD86B09E00E4E48
:10170000216FF06BFFF756FDA84204D02A00216F2D
:10171000F06BFFF787FD70BD002DFCD0064BA26972
:10172000EAE7054800232A00216FC06BFFF75BFD45
:10173000F1E7C046D0010010CC01001070B50500E3
:101740000C00094BE969D86F6118036816005B68E3
:101750009847002807D0731E9E410834A400280033
:101760006651FFF777FF70BDD001001030B504005F
:101770000D0085B00A220C4901A803F04AFB23683A
:1017800029009B682000984743780120052B05DD40
:101790000F2B05DC01AAD318063B187805B030BD25
:1017A00001204042FAE7C0467D510000436810B571
:1017B0000400186D0368DB6D98470178081E06D099
:1017C0006068036D5B68C91889B2FFF771FB10BDD3
:1017D000036810B51B6904009847002803D04178BE
:1017E0006068FFF765FB10BD036810B51B690C004E
:1017F0009847002803D0032161430231401810BDEF
:1018000010B50400FFF7F0FF031E0BD05B780178E2
:1018100060689B0603D5036D5B68C91889B2FFF742
:1018200047FB0300180010BD10B5FFF7DDFF0130C6
:1018300010BD436810B504330400D86F03689033BB
:101840001B68984741780378090260681943FFF7DD
:101850002FFB10BD036870B504001B699847094948
:10186000A5684378421C8D4206D15178090219437C
:101870006068FFF71DFB70BD51780902194349BA32
:1018800089B2F5E7D2040000036810B51B690C00AB
:101890009847002803D0A4000334A4B2001910BD57
:1018A00070B50400FFF7F0FF0849A5680278437897
:1018B0008D4205D1190211436068FFF7F9FA70BD36
:1018C0001902114349BA89B2F6E7C046D2040000B2
:1018D00010B5FFF7D9FF023010BD0023421D437140
:1018E000D377821DD377C21DD37701225242028162
:1018F00002320271024AC380C3609380D380704772
:10190000740000100222431D10B5DA770F2381699D
:101910004A791A40036807329B6A984710BD10B590
:10192000436B1B7DDB0710D5C02905D080235B00EE
:1019300099420CD0002010BD517A137A0902194344
:10194000036849BADB6889B298470120F3E7431D71
:10195000DA7FD1B2002AFBD10132DA778369B02471
:10196000D9701971E1219A713F321C705971DA7185
:10197000FFF7C8FFE9E7F8B50C00411DCD7F002D4A
:10198000FCD140260135CD77170A8569D2B23442A1
:1019900003D0990021430E43F4B2B0232B70503B87
:1019A000EF702A716B71AC71FFF7ACFFF8BD0B4A99
:1019B00010B593880400013393804379002B01D044
:1019C0000023437181212000E2880023FFF7D3FF29
:1019D00023682000DB69984710BDC04674000010E2
:1019E0000023821D0730D377C377704700487047C4
:1019F000885100000048704701070000426803005A
:101A00000020914203D39B688B424041C0B2704793
:101A1000030010B50020914206D85C68A14203D3B0
:101A20009B6893424041C0B210BDB4307047100073
:101A30000378002B01D1180070478B42FCD0043092
:101A4000F6E7F8B505000C0016000020052909DCB2
:101A50002B6828005F68DB6B9847A4002258310090
:101A60002800B847F8BD1378072203201340013B34
:101A7000DBB2834201D8014AD05C70476452000057
:101A800070B5040015000320062B13DD567813787B
:101A900036021E4376BA02290DD0814211D00129A7
:101AA00008D163680433D86F0368A4331B68984770
:101AB0000680022070BD63680433D86F0368A833C2
:101AC000F4E7636896780433D86F03689B6B984794
:101AD00006706368EE780433D86F03681B6A984712
:101AE000067063682E790433D86F03685B6A984781
:101AF000067063686E790433D86F03689B6A9847F1
:101B000006706368AE790433D86F0368DB6A984760
:101B100006706368ED790433D86F03681B6B9847D0
:101B20000570C6E7F7B55478137824021C43D378C0
:101B300091781B020B430721527906000A40013AB3
:101B4000022A01D90320FEBD64BA5BBAA4B29BB2DB
:101B50001B195F1E009343682100D86F0368DB6880
:101B6000984773680500D86F39000368DB689847A9
:101B7000736801900433D86F21000368DB689847CD
:101B8000736805430433D86F39000368EDB2DB682E
:101B90009847019B0343DBB2019373685E6D321E6D
:101BA0000DD03368210030009B689847002800D092
:101BB00005003368390030009B68984702000B4BE2
:101BC000BB21E41800231800A1425841054303201B
:101BD000401B074D009CAC466444A1425B41019907
:101BE000C0B21943AFD1002AADD1ABE700F7FFFF78
:101BF000FFF6FFFF0220704770B554781378240277
:101C00001C43436806000433D86F1500036864BAA8
:101C10009C331B689847736804800433D86FAC7892
:101C20000368A0331B6898470470022070BD70B52C
:101C30001400E37892781B021343426806001100F7
:101C400088310D88002D01D15BBA9DB20432D06F6E
:101C5000036890331B6898470580657923792D02C6
:101C60001D4373686DBA0433D86F036894331B68DF
:101C700098470580A379E47924021C43736864BA09
:101C80000433D86F036898331B6898470480022098
:101C900070BDF7B51F000A3B04000E0000920193CF
:101CA000012B19D80368DB681D003B00A8470528F5
:101CB00013D1009B5878019B5A1E9341009A02331E
:101CC000D218FB1A0B2807D802F02CFF080E1114AB
:101CD000171A060606061D200320FEBD21684F695F
:101CE00031002000B847F8E721688F69F8E72168DC
:101CF0000F69F5E72168CF69F2E721680F6AEFE71E
:101D000021684F6AECE721688F6AE9E72168CF6AAA
:101D1000E6E77D30FF307047F7B555781378D47813
:101D20002D021D43937824021C435379072213404C
:101D3000013B0700022B01D90320FEBDCC373B68D5
:101D40006DBAD86FADB203682900DB6898473B686D
:101D5000060064BAD86FA4B203686419013C21007C
:101D6000DB6898473B6800900433D86F290003680C
:101D7000DB6898473B6806430433D86F210003684B
:101D8000F6B2DB6898473B6801905F6D002F12D078
:101D90003B68290038009B689847002800D006005F
:101DA0003B68210038009B689847002803D0032037
:101DB000801BC0B2C1E70320009B801BC0B2002B78
:101DC000BBD1019B002BB8D1B6E770B5060014005B
:101DD0000320062B15DD557813782D021D436DBAAF
:101DE000AAB202290ED0814213D0012909D1CC36E2
:101DF00033680433D86F0368A4331B6898470580A1
:101E0000022070BDCC3633680433D86F0368A83322
:101E1000F3E73500CC352B68190088310E88002E89
:101E200000D116000433D86F036890331B689847BD
:101E30002B6806800433D86F036890331B6898477B
:101E40002B68A6780433D86F03689B6B984706709D
:101E50002B68E6780433D86F03681B6A98470670CE
:101E60002B6826790433D86F03685B6A984706703D
:101E70002B6866790433D86F03689B6A98470670AD
:101E80002B68A6790433D86F0368DB6A984706701D
:101E90002B68E4790433D86F03681B6B9847047090
:101EA000AEE743680069C91A4018704742680300EA
:101EB000891AC2680020013A8A4201D31B69585C22
:101EC0007047426810B5891AC2684C1C013A030079
:101ED0000020944204D81A69535C105D1B02184319
:101EE00010BD024B1B6832338361704774000010D1
:101EF00070B50400006D0D000368DB6E984706782E
:101F0000206D36020368DB6E9847437833439D4269
:101F10000FD0206D0368DB6E98472B0A0370206D8D
:101F20000368DB6E984701234570206D0375FFF74A
:101F3000D8FFA58270BD70B50400251DFFF7D8FF3E
:101F4000E86F03688C331B6898474378022B0DD1E8
:101F5000A06B03685B689847A38A1B0A4370A38A37
:101F600083700123E86F0375FFF7BBFF70BD436803
:101F70000069C91A4018704742680300891AC2688C
:101F80000020013A8A4201D31B69585C70474268BD
:101F900010B5891AC2684C1C013A03000020944213
:101FA00004D81A69535C105D1B02184310BD10B5AC
:101FB000064B002A01D1984710BDBFF34F8FBFF3E6
:101FC0006F8F72B6984762B6F6E7C046F11FFF1FE3
:101FD000322330B58BB000930309019305000B0940
:101FE0000C000122684605A90293FFF7E0FF059B5C
:101FF000DBB20593002B0FD1FA213B330093084B42
:10200000890018680195029402F00CFC01220390EB
:1020100005A96846FFF7CBFF0598C0B20BB030BDED
:102020001C000010F0B5C3171B051B0DC3180400DE
:102030000E0015008BB01B13BFF34F8FBFF36F8FD4
:1020400072B632226846009205A9002201930293DB
:10205000FFF7ADFF059FFFB20597002F04D062B6D2
:102060000598C0B20BB0F0BD3323FA2100930D4B9D
:102070008900186801940296039502F0D3FB3A0098
:10208000049005A96846FFF792FF059A002AE6D159
:102090003823684605A90093019402960395FFF73B
:1020A00086FFDCE71C00001030B50C4D8BB0A86833
:1020B000002811D13523022400930122684605A986
:1020C00001940294FFF773FF059B072B02D00234A3
:1020D000802CF2D12003A8600BB030BD740000103A
:1020E000F8B50400FFF7E0FF0C4FC519FFF7DCFF60
:1020F000C7198020E6694001310002F093FB0138E6
:1021000070433818A84201D20020F8BDE368C31814
:10211000013B1B78FF2BF8D1801BF3E700F0FFFF9A
:10212000024A1368013313607047C0467400001000
:1021300010B501398018002A00DC10BD8C5C5342B8
:10214000C454013AF7E7F0B589B0079303680391E7
:102150001B68040016009847039905902000FFF7BC
:1021600004F802006368591DC87FC5B204950028B1
:10217000FAD10130C8779D69BC232B70B3B20693A6
:102180001B0AEB700F23111819402F3B0B436B7187
:10219000079B80272E71002B00D0403F002A1CD0C7
:1021A000280005990830FFF7C3FF0026049BAE7195
:1021B0003B43EB71039A2368009220008022DF6882
:1021C00006992B00B8476068FFF79CFB039BE36010
:1021D00063689B6A5E7509B0F0BD059B1B7804932C
:1021E000E3E7F0B587B0049343680400986B02916D
:1021F000036803929B689847636805780700986BAB
:10220000029903681B6898470190002806DB6B0061
:1022100005937E1C059AF31B9A4201DA07B0F0BDC4
:102220003378019A934233D175780C9B9D422FD01D
:10223000236829009B68200098474021039A03786F
:10224000403A8A432DD114321340934220D123685F
:10225000290020001B6898470090002818D029000A
:102260002000FEF782FF021E14DD04990098083159
:10227000FFF75EFF236820005B699847002807D0BE
:102280008022EB0700D4783A6D10435D1343435529
:102290000236BFE73F22049BDB791340009A13709C
:1022A000E8E7039A002AF3D10C3213409342EFD1AE
:1022B000012329002000029AFFF745FFE8E70368A1
:1022C00070B55B680C0098470300021E00D00278CE
:1022D000012021120333E4B2824202DA012040429B
:1022E00070BD1D788D4202D15D78A542F8D00130D5
:1022F0000233F1E7436810B504330400D86F036874
:10230000A4331B6898474178037809026068194331
:10231000FEF7CEFD10BD436810B504330400D86F3E
:102320000368A8331B6898474178037809026068FE
:102330001943FEF7BDFD10BD036810B55B689847F3
:10234000037840780002184310BDF7B5050001245A
:102350000C23AC40124A4343D668D31826409468F5
:102360009F69A4460F4C586924680191BE420CD065
:102370001C619E610C236B43D2185369019AC01AE9
:102380001360431E9841C0B2FEBD1F69002FF1D0FB
:102390006146641AE41BEDD400245E611C61E9E728
:1023A000FC000010740000100323594310B589B2DB
:1023B000DB18802A00D1043B07248C408B40826AC2
:1023C000A2438262826A1343836210BD032330B545
:1023D00007254B439D409A4044694900AC43446102
:1023E00044692243426130228A40C36B9343C363F2
:1023F000C36BC36330BD70B5836A1868808A040AF2
:102400004C708870FF24002085B2AA421FD88C54DB
:10241000D964BFF34F8FBFF36F8F72B61A002C329F
:102420001178C8B2012910D105311170DA1D9B69EC
:10243000D17F1C688A00230018339B181860032280
:102440002000FFF7C3FF0023A36062B670BD0D5CE0
:1024500001306C40D8E770B50400836981221D68A3
:10246000431DD97F2800FFF79FFFE31DDE7F280073
:1024700031000222FFF7AAFF1835084BB600AE194B
:102480003360A31DDB7F01229B00ED18044B2B6002
:1024900023002C331A700023A36270BDFEFF0000DE
:1024A000FFFF00001021F0B5431DDB7F82699940DA
:1024B00012680400106887B0014223D0980013000E
:1024C0002C331B181868E31DDD7F1300AD00183393
:1024D0005B19E5691E686F06BA4BBF0FBF00DB19B9
:1024E0001F6C1F231D401B3BAB401D00EB59002BF5
:1024F00002D0116007B0F0BD936898421BD81B1A38
:10250000022BF3D927002C373B78D8B20E2B01D9F8
:1025100000F085FC02F010FB110023002C003800B5
:1025200089013B026B02D102070316036503EE0328
:10253000110443045604F318E1E7A3691A68631D04
:10254000D87F102383401168194201D100F067FC45
:1025500000239360FF22A3691B681A60CAE7A3697E
:102560001B681A68631DD97F10238B401A42F1D073
:10257000220000236F322364073AD3711380FF22B5
:10258000A362013362662366631D0293DB7F0193BE
:10259000A36901981D6810231A008240296811421E
:1025A00000D015E1656E266C002D3BD1236E002B0B
:1025B0003ED10023A36206333B70236C012B00D075
:1025C000F0E023006C331A78002A00D1EAE0002200
:1025D0001A7022001021683213888B431380E26D39
:1025E000002A03D0636CCC2B00D1BCE0216B636B61
:1025F000994200DBB7E0A16BE36B994200DBB2E0EC
:102600002300200021006A336D306E31002A00D093
:10261000BBE004221D882A431A8000230370013383
:102620000B7035E02200683211880B431380C0E73D
:102630000623A5623B70072EBFDD2C22236D1B787D
:102640009343902B00D0ADE0206803685B6B984704
:10265000B042B2DB236D1979DA78090211435B7954
:1026600049BA226889B27F2B14D94E424E41906BF1
:10267000F6B2051E04D003681B689847C543ED0FEA
:10268000354323685B6B1B7D5B0706D5002D04D1AA
:102690004D4E46E0938A9942F3D12020216D0B786C
:1026A000034213D0A368002B4FD1CC22A262226C2C
:1026B000216D934252DBA2602200683213889BB2E4
:1026C000E360002313800133237515E062681578F9
:1026D0006B408343E6D1206C01380133834204DA36
:1026E000CE5CD55CAE42F8D0DCE78342DAD1A36899
:1026F000002B2AD1CC33A362236840215B6B1A7D67
:10270000012352089343226D12780A40134301D0EB
:102710000023A362A36A002BBAD00523B6263B7020
:10272000F600E31DDF7FA36939001D68032228003E
:10273000FFF74CFE029B2800BF0018358122D97F8D
:10274000ED19FFF731FE2E6004E700232200A3629B
:102750006832118840330B431380CDE7C95C62684F
:10276000D1540133A3E7226B636B9A4203DAA26B65
:10277000E36B9A4205DB220080236A3211880B4307
:1027800013802000FEF7C2FC82E7626CC02A00D0F2
:102790003FE71D88B03A2A431A8001230B4E03708D
:1027A0000B70BEE723006F331A78002A02D0002294
:1027B0001A706DE722008023683211880B43138062
:1027C00066E7C04614520000E8130000883C000091
:1027D000019BA8689A002B002C339B18E21DD17F27
:1027E0002A001B688E001832921983421AD2C31A2B
:1027F000022001261B1868606E60AB608F23DB002F
:10280000136028000322FFF7E1FD812228000199CF
:10281000FFF7CAFD04233B70002366656364A3656C
:10282000E66597E616688019E1E70121E51DE87F76
:10283000A36981401B681A680A40511E8A4104A995
:10284000D2B2CA70CA780331002A27D01833800068
:102850001B181B680593A36D059A1800443090421D
:102860007ADA6833A36580235B009C46059AA36DE2
:102870001000626D560001961E00443686425CDAF6
:10288000624511DC666C683332436264E26DA365B5
:1028900056427241019BE2656365E7E7621DD27FA4
:1028A0002C3392009B18D4E7059B019B63650B7842
:1028B000002B5FD0636C266CDAB26264002E08D104
:1028C0009B0706D022008023683211885B000B43EF
:1028D0001380206803685B6B9847864243DA236C59
:1028E000226D616C581C2064D154636E626C53403D
:1028F0006366E36D002B05D121000822683108884A
:1029000002430A80226E1340236603233B70A369AF
:10291000E97F1D688A002B0018339B189A22520009
:102920001A60343A2800FF3AFFF750FD631D8122F8
:102930002800D97FFFF738FD0CE6059E2133B3420E
:10294000B3DA80235B009A42AFDC2200683216883B
:10295000FC3B33431380A8E722000423683210882D
:1029600003431380A3E722002023683211880B431E
:102970001380BEE78223059ADB009A4200DCE9E57A
:1029800022000123683211880B431380E2E5A3691A
:102990001D68631DDB7F2A680193102301991600CF
:1029A0008B401E401A4203D00023A36202237AE127
:1029B0002A006821A664A31DDB7F18329B00D31870
:1029C0001960E31DD97F28008B00D2188B23136078
:1029D0000322FFF7FBFC812228000199FFF7E4FCAA
:1029E00023006A3326641E8007233B70B2E5651D11
:1029F000EB7F81220193A36901991E683000FFF7E4
:102A0000D3FC1023019932688B401A42CED1226B3D
:102A1000636B9A4203DAA26BE36B9A4208DB2200F3
:102A200080236A32118820000B431380FEF76EFB6F
:102A3000E16C002900D1F2E10F224B7913400833F9
:102A4000A36423006E331B78002B0BD020230A785D
:102A50001A4207D09A430A70A26CE16C013A885C72
:102A600043408B542422E36C1B781340934222D1C1
:102A7000D0235B000593A36905991E68A31D32004E
:102A8000DB7F18329B00D3181960E31DD97F0598AE
:102A90008B00D3182330186003223000FFF796FC18
:102AA00081223000E97FFFF77FFC220000236A3299
:102AB0002364138098E76823DCE71020631DDA7F26
:102AC000A36990401B6819001D68183105421BD08E
:102AD00092002C339B18A21DD27F186892008A188E
:102AE00011680739814202D9A16A002907D0196803
:102AF0001368103B8B4205D9A36A002B02D0CA4B46
:102B0000136053E7082370E71A68E31DD97F012398
:102B10008B401A4207D0082322003B706A3211888A
:102B200018330B431380A36A002B32D0A36A802191
:102B3000636401234900626CFF2B30DD0123636570
:102B400008333B7068238022616C05935200636DEB
:102B50005D0065650B4201D0934226DDA2698026A7
:102B60001068621DD17F0200059B1832B6000192E9
:102B7000682B1EDD0A2381223B70FFF715FCB5424E
:102B80001EDCA31DDB7F059A01999B00233ACB181D
:102B90001CE0236CE26C591C2164D35CC7E71A4229
:102BA00001D04A4062645B00C5E7059B683305932A
:102BB000CDE78022FFF7F8FBB542E2DD0B233B7047
:102BC000A31DDB7F019A9B00D318974A1A60A36963
:102BD000E21D1B68D27F0599183392009B1819607B
:102BE000B8E4631DD97FA3691D6810238B402A6850
:102BF0001A4279D08B0029002C31C9180E6868213F
:102C0000300001F095FE3D2900D8A3E4A11DCB7F43
:102C100018359B00ED182B68073BB34262D923009F
:102C2000012220006F331A7040236A3005882B433D
:102C300003802300002068331880FF236366A36AA3
:102C40002266E265834230D0A062A3691B680293CA
:102C500018330393CD7F6821AD005D1928682130BA
:102C6000801B01F0DFFD636D3200013003410A205B
:102C7000683AA265626C591E0A40636501926264FB
:102C80005B10002B23D1E31DD97F682343430398B6
:102C90008A009B198218136002980322FFF796FBA3
:102CA000614B2B6004233B702CE420006E300270DB
:102CB000226C013A2264226C9A42C6DDE26CD05C3E
:102CC000226DD054626E013342406266F3E7019A8E
:102CD0000138134204D0E16D0A0051425141E165CF
:102CE0005B10CEE7092380E60B23802228003B708F
:102CF000FFF75AFBA369216C1A68A36C183299423A
:102D000002DAA36A002B0AD00C233B7039330593F7
:102D1000E31DDB7F05999B00D21811601AE49C2308
:102D20005B000593313BFF3B3B70A31DDB7F0599A7
:102D30009B002339D3181960EAE7E21DD57FA36A07
:102D4000A2691668002B0CD00023A36206333B70E7
:102D5000364B0593059B1836AD0070190360FFF7DD
:102D6000F9FB230001226C331A70314B29000593C3
:102D70000D2330003B70FFF729FB23006E331B78D7
:102D8000002BE7D023006D331B78002B03D0A36BFF
:102D90000133A363DEE7236B01332363DAE70E23FA
:102DA0003B70A36981221D68631D2800D97FFFF74E
:102DB000FBFAE31DDB7F18359B00ED181D4B2B60E4
:102DC000FFF7C8FBA3691D68631DD97F10232A681C
:102DD0008B40100018401A4200D0E7E52300012282
:102DE0006E331A702200023B187008236A32108872
:102DF0000343138006233B70E31DDE7F2B00B200EC
:102E000018339B18094A28001A608122FFF7CCFA70
:102E1000032231002800FFF7D9FAFFF79BFB2000BF
:102E2000FFF719FBFFF796FBFFFF0000E813000018
:102E3000AF0500009A06000010B5024BD868FFF7F6
:102E400031FB10BD74000010802301385B049842F0
:102E50000DD2C021064A090650600648036A1B02CB
:102E60001B0A0B4303620023936007331360704710
:102E700010E000E000ED00E0802070B54004FFF7B6
:102E8000E3FF00F0B9F81F2101220B4B80241B68DF
:102E90000A4D19408A405B0609499B0F9B00C918DF
:102EA000096CE4039000AB6823405E4273415B42CF
:102EB00013404350F7E7C0461400001010E000E054
:102EC00014520000F0B5430685B09B0F424F0293A9
:102ED0009B00FB18F0221D6C1F23120203400A40C6
:102EE000090503930B0D019301231E000399802410
:102EF0008E40C021B6B2C90124028A4212D12B5998
:102F000033432B51C30507D401231F22441214401D
:102F1000A34253D1002333E00123802201991143BE
:102F20000191F2E7E021C9018A4206D12B593343CE
:102F30002B51C3053AD40623E7E72959B143295158
:102F40008024A401A2422BD1244A904203D1244BD5
:102F500000221A6004E0234A904203D1204A136001
:102F600002230DE0204A904201D1204BF0E7204A95
:102F7000904203D0C3051BD40723C6E71B4A136046
:102F80000C22029954374A43039952185200D25BDB
:102F900018495218019992000B43136005B0F0BD17
:102FA000C0240223A401A242ACD1AEE70623B4E7B9
:102FB0000723B2E70123E3E70323E1E78413144087
:102FC000A342F7D0C41414409C42C9D0001610404C
:102FD0008342F1D0FFF750FF1452000002C23A00C2
:102FE000C040044063823D0025423C00D040044084
:102FF00049C2010000100110C02110B5054CC901E3
:103000002068FFF75FFF802160684901FFF75AFFE2
:1030100010BDC0461400001010B543789B0614D5AF
:103020004388E0221C001805D201000D1440134211
:1030300005D08023DB019C4205D0FFF71DFF4B6BC1
:103040001B69181810BD0B6DFAE70230FAE7F7B5E7
:103050000193036804009B680E009847071E2DD05B
:1030600001234278C3560020834227DA1F23656874
:103070001A40290038000092FFF7CEFFAB6A009A91
:1030800059680C31002A1AD122689B6815680D3BDB
:103090000A0020003100A8476368C5B20433D86F26
:1030A00003688C331B689847099B85551D73012560
:1030B0000120099B099A5B795B195371FEBD009A47
:1030C0000E4B019D9B5C089A5D43013A5343C61821
:1030D0002A003000FFF72CF809982A0031000C3044
:1030E000FFF726F87B885B04E2D563680433D86F6A
:1030F00001230375FEF7F5FEDAE7C046C85200006B
:10310000F7B5089D019306000C00171E036812D046
:103110009B6898470400019BAB72002C03D0237876
:103120000193002B0FD1002318006F72EB722B73E9
:103130006B73AB73FEBDDB6B9847A400019B2458F7
:103140009B00E418E7E76022637813405F3A602B46
:1031500004D120007168FFF75FFF02786021019BB6
:103160006B7263786A738B43EB7200232B73627804
:1031700050337F2A00D9A1330120DAE7F0B50700E8
:103180000C008DB0B86AFDF7E3FC0028FAD0B86DEA
:10319000002803D0036821001B6898473D6D2B7DF4
:1031A000002B69D0BFF34F8FBFF36F8F72B628002B
:1031B000FEF796FF0400FEF777FF514BEE69C31848
:1031C000802031004001019301F02CFB0138704355
:1031D000019B181884423ED1FEF766FF484BC41885
:1031E000FEF762FF464BC018844238D13223E617FF
:1031F0003605360DA6193613012207A902A8029337
:1032000003960496FEF7D3FE079BDBB20793002BD1
:103210001BD1FA21343302933A4B89001868039684
:10322000049601F0FFFA0122059007A902A8FEF713
:10323000BEFE079B002B08D13533012207A902A847
:10324000029303960496FEF7B2FE079BDBB2002BB7
:1032500005D0FFF711FE002CBED0A419C0E7002650
:103260002B69EA689B18013B1E70EA68964235D3C9
:1032700000232B75AB6162B67C6D002C2BD0224DE8
:10328000635D002B0FD0A0680100FEF7A1FE0028AF
:10329000DFD180222100606852001431FEF7C2FEA7
:1032A0000028D6D16055194D635D002B13D08526BB
:1032B000B600A0590100FEF78BFE0028C9D12100FD
:1032C0008022A059153100025200FF31FEF7AAFEFC
:1032D0000028BED1605501200DB0F0BD8023921BA7
:1032E000DB009A4200DD1A002969A0198919FEF74E
:1032F00099FE0028ADD18023DB00F618B5E7C04663
:1033000000F0FFFF1C00001022020000210200005C
:10331000012110B5FFF732FFBFF34F8F024B034A75
:10332000DA60BFF34F8FFEE700ED00E00400FA051E
:10333000802070B54004FFF787FDFFF75DFE1F2179
:1033400001220B4B80241B680A4D19408A405B0602
:1033500009499B0F9B00C918096CA4039000AB6836
:1033600023405E4273415B4213404350F7E7C0463F
:103370001400001010E000E01452000010B504002A
:103380009C2101F05DFD200010BD10B504008C21D2
:1033900001F056FD200010BD70B5051DE86F14004A
:1033A00003680E000433DB6F9847844205DDE86F45
:1033B00003680433DB6F9847C4B2E86F0368B03327
:1033C0001B6898473100220001F023FD70BD10B545
:1033D0000400431DDA7F002AFCD10132DA770F2383
:1033E000E169A0694A791A40073201F012FD200014
:1033F000FEF788FA10BD70B503790400002B39D0B0
:103400004379002B36D01D4DC2682B689B1A1C4A8D
:10341000934201D9FEF7CBFA6379012B13D1A31D97
:10342000DA7F022A26D1DA7FD1B2022A22D10132F2
:1034300061712000DA77FFF7CAFF0023A3722B68BF
:1034400023612B68E3606379022B13D122692B6817
:103450009B1A0C4A93420DD90A23E3562000022BF3
:1034600009DCFFF7B4FFA37A0133A3722B68236151
:103470002B68E36070BDFEF79AFAFBE7740000105A
:103480006F170000B70B0000F0B5040085B0FFF720
:10349000B2FFA36A1A002C3299681078012802D072
:1034A0001278062A38D1DA6C002A35D1002933D0B7
:1034B000626B127D52072FD5C0205D689B682A7908
:1034C000DBB20293EB7812021A43AB79EE79190260
:1034D000800001400E43F021A02789003140BF0049
:1034E000B9420AD000DD72E0080080278138FF3839
:1034F000B84380B2002800D06CE08EB2002A00D021
:103500006AE023682A009F6931002000029BB847C7
:10351000236820005B6A9847E06A00283ED0C249D1
:10352000FFF7D0FCE16AC14D4B069B0F9B00EB18E7
:10353000186C1F230B40042199400958A06C4B1EA6
:103540009941BB4B626C1B68814200D185E12364C9
:10355000A164636C002B06D1002A04D0626B7F3B10
:10356000117D4B401375C021E06AC901FFF7AAFC29
:1035700001201F230100E26A13409940636B520649
:103580001B7D920F0340206B92001B1A581E834133
:10359000AD182A6C5B420B4089008B50A36ADB6C30
:1035A000002B12D122004C321278002A0DD0627901
:1035B000002A06D0E288002A03D081212000FEF7ED
:1035C000DAF9236820001B6B984705B0F0BD8142F3
:1035D00000D192E7B6B291E7697952BA92B27F29E7
:1035E00008D90299236800915F6931002B002000FF
:1035F000B8478DE7A18A914200D089E73C221800A4
:103600009043AA78697812020A4357BA42B2B9B213
:10361000002A00DB8FE0802816D081283AD0DA0714
:1036200065D46279012A00D872E7E2888A4200D024
:103630006EE708210F2061569B0803408B423DD066
:103640002000FEF7B4F963E76579002D12D0013D43
:10365000012D00D95CE7E3888B4200D158E7744A1A
:1036600020009388013393800A0000238121FEF714
:1036700082F94DE723682000DB6998476C4BE780AF
:103680001B682581E3606379012B00D140E70123AA
:1036900063713DE763792068013B012B00D937E76F
:1036A000E3888B4200D033E70023614A637193883B
:1036B00001339380C3692000984729E700265C4BBB
:1036C00001311B680140A71D2172E360E51DFE77F3
:1036D000EB7FB342DBD0216A4A7902400732E069CE
:1036E00001F097FBEB7FDBB2FB77EE77CBE7FF2BAD
:1036F00000D10DE76279002A00D109E708202056A1
:103700009B061B0F834200D002E7E3888B4200D068
:10371000FEE60A23E3562000022B92DC022A90D117
:10372000FFF755FEA37A0133A372414B1A681B6859
:103730002261E360ECE6032B21D8671DFB7F002BA1
:10374000FCD10C220133FB772878A36910405C3A46
:1037500002431A700A0A1971DA7022680093136A18
:1037600031009C462A0020006546029BA84700289D
:1037700003D02000FEF7C6F8CAE6F877C8E6E2886C
:103780008A4200D0C4E66179002900D1C0E69B08D6
:10379000092118000F27615638400300884249D19B
:1037A000C2212000FEF7E7F8637A01333B406372E1
:1037B0001F4B1B68E360A31DDB7F002B2DD1230073
:1037C000E769253303930123039A310013702368BB
:1037D00000971B6A2A009C4620006646029BB04761
:1037E00000281ED00C232A781A405C3B13433B7000
:1037F000E3881A0A3B710823FA70E269E35697429C
:1038000002D00F22013313403C21BA799B008A4336
:10381000134340221343BB717AE62300276A263301
:10382000D0E7039B187073E61010000014520000DC
:103830007400001001390F4D3940884208D1C2216F
:103840002000FEF798F8EB880133EB802B6870E7D7
:10385000C3212000FEF78FF8F8E7206C002800D184
:1038600077E61B1A322B00D573E6002361642364CC
:103870006FE6C04674000010F0B50379050087B00C
:10388000002B00D1DAE0FFF7FFFDAB6ADB6C002B09
:1038900000D0D3E02B005C331B78002B00D1B7E0C5
:1038A0002B682800DB6A9847002800D1B0E0674BFE
:1038B0006A6E1B689B1A2A6E934200D29CE0EC6BE6
:1038C000236820005B6998470090002800D193E0AE
:1038D000236820001B69984703780193002B00D1CF
:1038E0008AE02069190001F00DF921618FB2BBB2A5
:1038F0000393019BBAB2934203D823690133236136
:103900007AE0236839009B68200098470378029387
:103910006368986B03689B689847060003780136D4
:103920005B00C3180493049BB3421DD973789F4274
:103930001CD13378013305936368986B0368DB68A7
:103940009847059B834211D86368986B03685B684E
:10395000984733785B00C0188278437812021A4384
:1039600052BA92B2002A03D10137C0E70236DAE731
:103970004421029B0B408B42F6D10120039B00990E
:103980005B08C91802910099C95C039B034200D0EF
:103990000909CB439B07E7D104200B0003400142F8
:1039A0004ED06368591DC87FC6B20028FBD10130D4
:1039B000C877BC219B6919701A71110AE122D9706C
:1039C0005A719E71DE716068FDF79CFF6368E76065
:1039D0009B6A1E7504230721BA001A409140029B7E
:1039E00001371B788B4301219140029A0B431370DE
:1039F000164B27611B686B66FA21144A6B6E1268BE
:103A0000C900D21A8A4203D3FA2292009B186B662D
:103A10002B6D1B7D002B11D0AC6A2000FDF798F8B0
:103A200000280BD0A368002B08D16B79002B05D19F
:103A3000064B022128001B68FFF7A0FB07B0F0BD72
:103A400039002000FEF77FFBC4E7C0467400001079
:103A5000F8B51C00036805009B68079F9847021E85
:103A60001BD01F23467869681E40FFF7D5FA0D4B1F
:103A700001009B5D00225C430A2C0EDC3800069A94
:103A80000C30013A53432200C9180B2E07D8FEF719
:103A90004FFB01227B791B197B711000F8BD01F0EF
:103AA000B8F9F6E7C8520000F7B51F0003680D002B
:103AB000DB69040016009847A84204D1012F02D107
:103AC00033782375F7BD63682000ED1A2368DB693E
:103AD0009847A84208D37B19019323682000DB692B
:103AE00098477B19834210D220693A00310040196F
:103AF00001F08FF9E6E723682000DB699847337807
:103B0000A84206D1237501360135019BAB42F2D1A3
:103B1000D8E722695355F6E7F0B585B001930368FD
:103B20000E00DB69040017009847B04206D1019BE4
:103B3000012B03D1237D3B7005B0F0BD63682000ED
:103B4000F51A03932368DB699847A84209D3019BC0
:103B500020005B1902932368DB699847029B83422C
:103B600012D221693800019A491901F052F9E3E7AC
:103B700023682000DB699847A84209D1227D039B76
:103B80009B1BFB185A550135029BAB42F0D1D3E782
:103B900023695A5DF3E7F0B589B006000C001D00FB
:103BA000181E069251D04B1E5B19002004939942B7
:103BB0004BD8706D00280CD0036821009B68984793
:103BC0000590706D049903689B689847059B002BCE
:103BD0001DD1069B039301230593306D21000368DB
:103BE000049A1B699847002862D021003000049D88
:103BF000FDF75EF90E9B01351B782D1B2A00002B6B
:103C00004DD00100039801F004F901201DE00028C7
:103C10000BD127002B190793069B1B1BDB19039362
:103C2000079BBB4219D11C00D7E70E9A706D127822
:103C30000368002A0BD0002200925E6821002B004E
:103C4000069AB04743425841C0B209B0F0BD1E6861
:103C500021002B00069AB047F4E7706D3900036825
:103C60009B68984700280ED00E9A706D12780368F2
:103C7000002A0ED0002200925D6839000123039AC9
:103C8000A847002801D03C00A7E70023013705938F
:103C9000C2E71D6839000123039AA847F1E7039999
:103CA00001F0B7F80123306D0375FEF71AF9ACE7A0
:103CB000306D21000368DB689847002816D0336D0B
:103CC000210030009D68FDF7F3F80E9B01351B784D
:103CD0002F1B3A00002B1ED00100039801F099F829
:103CE000039B2C00DB19039300230593706B2100C9
:103CF0000368049A1B699847002815D00E9A049B04
:103D000012780133706B1B1B002A3BD12100039AF0
:103D1000FFF7CAFE79E7039901F07BF80123306DC4
:103D20000375FEF7DEF8DBE7706B0368DB69984725
:103D3000844206D1706B0368DB699847049B834219
:103D4000DCD0706B21000368DB689847002824D022
:103D5000706B85686B1C05931F1B0E9B1B78002BDB
:103D600015D03B002100039AFFF7D6FE039B059C6C
:103D7000DB190393049B5D1B049BA34213D3039B9A
:103D8000069316E72100039AFFF7C6FE3DE73B00C6
:103D90002100039AFFF788FEE8E7049B5D1C059B62
:103DA0002D1B002BE8D06B425D41E8B24DE730B5EA
:103DB0000F24002585B06C4425700094FFF7EBFEBE
:103DC00005B030BD70B504008220400081421AD198
:103DD000117800200D097F2914D821000831C86FFF
:103DE000043401680E682900B0470600E06F0368DC
:103DF0008C331B6898474655E06F01240475FEF725
:103E000070F8200070BD2000FFF7D1FFFAE730B551
:103E10000F24012585B06C4425700094FFF7BBFE8C
:103E200005B030BD70B51D000A4B1400CE18072E2A
:103E30000CD80430C06F03688C331B6898472A0085
:103E40008119200000F0E5FF012070BD2B00FFF775
:103E5000DEFFFAE71749FFFFF8B51400F722050067
:103E60009200914223D0334A91425FD1071DF86FEF
:103E70000368AC331B6898470600F86F0368DB6F74
:103E80009847020020003100083000F081FF002830
:103E900001D00020F8BDE17BA37B090219432B6808
:103EA00049BA2800DB6889B298470120F2E7061D6D
:103EB000F06F0368AC331B6898470700F06F036826
:103EC000DB6F9847020020003900083000F060FFE7
:103ED0000028DED16B1DDA7FD7B2002AFBD1013278
:103EE000DA77B023AC6923703B336371E83BA3718D
:103EF000DA33E7702771E371F06F0368DB6F98477F
:103F0000874208DB00232800A373E37323746374E0
:103F1000FDF7F8FCC9E7F06F0368AC331B689847FE
:103F2000C25DE31901371A72FFB2E5E72200FDF71F
:103F3000F6FCAFE7DE030000F0B5070085B0FDF743
:103F4000CCFC0323BC6A514E22006363E36300236D
:103F500068322100A360A362138001226F31E36005
:103F6000053922754B710B802361E3640B80627508
:103F700022002C322363A364A3634B800B71137064
:103F8000A3694349434A8B4263D1C421FF2089007E
:103F900072588243725001251A793F49C86F0392C3
:103FA000073295402A001D6800230243CA67012298
:103FB000EB636B61AB62A31DDB7F28000293029968
:103FC0006B6F8A40134301926B67631DD97F812217
:103FD000FEF7EAF901226B68304913436B60039BDB
:103FE0001E32103313401E3A9A402D4B326018682F
:103FF00000F018FC02222E000138E8606B681836C9
:1040000013436B606B68280093436B60E31DD97F9B
:10401000244A8B00F3181A600322FEF7D7F9029B9B
:104020009B00F618204B3360AB60EB6B019E019A4E
:104030001E401342F9D1E021206AC901FEF742FF78
:104040001A49E069FEF73EFF01233E647B6405B038
:10405000F0BD11006C318B4205D1C421890072582A
:104060001348024096E7110074318B4204D1C421F9
:10407000890072580F48F4E77C32934200D08AE7F7
:10408000C421890072581202120A83E700E100E09D
:10409000D8000010740000100480044040420F005B
:1040A0001C00001050140000FFFF00002020000042
:1040B000FF00FFFFFFFF00FF10B5838A0400002B05
:1040C00003D103680749DB6898472000FFF734FFF6
:1040D000230001225C331A70034B1B6863662323A1
:1040E000236610BDFFFF000074000010F7B50193B8
:1040F00003680400DB68006D009303681500DB6E45
:104100000E0098470778206D3F020368DB6E9847E2
:104110004178009B3943200098472E22636B00278B
:104120001A75606B03685B69984701220770636BBF
:104130005A75206D03689B6C9847FF230370206DB0
:1041400003685B6C98470770206D03681B6A98478B
:1041500033120370206D03685B6A98470670206D08
:1041600003689B6A98472B120370206D0368DB6A13
:1041700098470570206D03681B6B9847019B03707F
:10418000236D1F759F61F7BDF0B5050095B01AA8A6
:1041900006882800FFF7AAFFE86F002703682C1D98
:1041A0009B6998470770E06F036888331B689847DE
:1041B0000770E06F03688C331B6898474378022BC5
:1041C0000DD1A86B03685B68984781784378090232
:1041D00019432B6849BA2800DB6889B298472F0039
:1041E00088373E80002E13D0E06F036890331B6841
:1041F00098473E880388B3420AD0E06F0368903343
:104200001B68984701230680E06F0375FDF769FE80
:104210003A2301220FA90AA80A93FDF7C8FE10222B
:1042200010A906A800F0F5FD0F9EF6B2002E59D198
:10423000E06F0368AC331B6898470290E06F036837
:10424000DB6F98470300013B01900F2B4AD80822EF
:1042500006A904A800F0DDFD082208A90AA800F0BC
:10426000D8FD049805993B222E4B524200F07AFC6F
:104270000A980B9917003B2203935242294B00F0F6
:1042800071FC5740039A5A400392F2003800039998
:1042900000F05CFC029B9855019B0136B342F4D1BF
:1042A000E06F02270368C0331B6898470600E06F81
:1042B00003680833DB6F98473618023E3770E06FAB
:1042C0000368C0331B6898470600E06F0368083333
:1042D000DB6F98473618013E28003770FFF7ECFE79
:1042E00015B0F0BD362301220FA90AA80A93FDF7E5
:1042F0005EFE109BE06F049303680226AC331B68DC
:104300009847042204A900F084FDE06F0368AC33F1
:104310001B6898470671E06F0368AC331B689847C9
:104320004671BDE7FFFF000080B500AF014B1800EC
:10433000BD4680BD00000010F0B50025EB4AEC4BF7
:104340001571EC4A01215A661A006C321171EA4A61
:104350004918DA661A0074321171E84A01315A6755
:104360001A007C321171E64A8DB0DA67FFF7DCFF84
:10437000E44B58601C2000F067FDE34AE34B4260C9
:10438000020083600090E24BE2481360D060E24C90
:1043900000F06CFD0300DF4A82181D7001339A4261
:1043A000FBD1009B009A18619D8203239361DB4B34
:1043B0002020136000F048FDFC239B014360D84B94
:1043C00005008360C02050340001E8602C6000F0DC
:1043D0004DFDC02212018118030000221A70013322
:1043E0008B42FBD180235B0128612A75AA612800DA
:1043F000EB61FDF775FEEA68011E286900D1C6E190
:1044000000F007FD0024C74B2C75AC612B60182011
:1044100000F01AFDC44BC54E836001235B42C360AC
:10442000C34BC44F0360046144610190466008209F
:1044300000F00AFD39006831016002904660CA2030
:10444000400000F001FD01000400083103917837BD
:104450003900302246600398049700F0DAFC21000E
:10446000B54B383105911422190005980693B34FC6
:1044700000F0CFFC21004C3107911822B049079879
:1044800000F0C7FC2100643108912022AD49089852
:1044900000F0BFFC21007437843109910A9739007C
:1044A00027001822099800F0B4FCA74B9C3719008C
:1044B000182238000B9300F0ACFC2100B4310B0043
:1044C0000399302219602100B8310B000599196059
:1044D0002100BC310B00079919602100C0310B008D
:1044E000089919602100C4310B0009991960210055
:1044F000C8310F60954F39002C3121602100CC313B
:104500000E60043103910398049900F082FC601C52
:1045100014220699FF3000F07CFC21001531FF3198
:10452000049118228649049800F073FC21002D3173
:10453000FF31059120228349059800F06AFC210093
:104540004D31FF31069118220A99069800F061FC5E
:1045500021006531FF31079118220B99079800F06F
:1045600058FCBE2303995B00E150611C0433FF310A
:10457000E15004990433E15005990433E150069960
:104580000433E150079904330122E15000235242E1
:104590001720743773603281B372F3603361376010
:1045A00000F064FC0200030017320021197001338F
:1045B0009A42FAD1B061172000F058FC02000300C3
:1045C00000211732197001339342FBD1F06117209B
:1045D00000F04CFC02000300002117321970013377
:1045E0009342FBD1514F5A4B386270203B6000F030
:1045F0002BFC07600600172000F038FC01000300C8
:10460000002217311A7001339942FBD1514B70606F
:10461000B361514B3068F361504BB284336203682D
:104620005B6B9847070000F021FC00220300013F6C
:10463000002F00DBAEE003223065B31DDB7FF11DF0
:1046400002331340CB77330000272C3337481F70D9
:10465000434B44499C46C36201230363009B62466B
:104660004363029B8662836303004C331F70204BBD
:104670000A60DE601B68366A4366019B4E60C36356
:10468000802301005B00C3665C3190230F702321FF
:104690001B010166076405654765876587660767CF
:1046A0004367BC238367009B174AC367031DDD670D
:1046B00003000833DC672C4BC121036003008C33FB
:1046C0001A60030090331F6003008900943319605F
:1046D0000300032298331A602449254A00F092FB14
:1046E000244B254A1A601023244A49E0D8000010C0
:1046F0007400001000C00040000001400040014074
:1047000000800140F4000010FC05000002090000D8
:10471000B8530000070300009453000064560000E3
:10472000FF4A000090560000E1100000CC0100108C
:104730005C54000014540000BC5400009454000069
:10474000D0540000E854000020550000145500002B
:10475000BC550000E000001028C201002982690059
:1047600040825C0014000010FC550000290B000082
:1047700020000010FC000010585600000C01001032
:10478000013B17600C32002BFAD10DB0F0BD00F0E8
:104790000DFB37E61A70013F013349E78E212020D7
:1047A0001A4B89005A5882435A50002271391A62B2
:1047B000FF39C04601390029FBD101221A645A642D
:1047C00059645A64596C1142FCD023228E218020F6
:1047D0009A6089005A5882435A500122D96811427E
:1047E000FCD00321196700215A6759675A670122D3
:1047F000596F1142FCD09A670549064BD967064BA1
:104800001A60064B1A60064B1A607047008004401D
:104810005F000100048004409480044098800440BC
:104820009C800440002243088B4274D303098B42CE
:104830005FD3030A8B4244D3030B8B4228D3030C70
:104840008B420DD3FF22090212BA030C8B4202D312
:104850001212090265D0030B8B4219D300E0090A3A
:10486000C30B8B4201D3CB03C01A5241830B8B4243
:1048700001D38B03C01A5241430B8B4201D34B032C
:10488000C01A5241030B8B4201D30B03C01A524191
:10489000C30A8B4201D3CB02C01A5241830A8B4216
:1048A00001D38B02C01A5241430A8B4201D34B02FF
:1048B000C01A5241030A8B4201D30B02C01A524163
:1048C000CDD2C3098B4201D3CB01C01A5241830917
:1048D0008B4201D38B01C01A524143098B4201D351
:1048E0004B01C01A524103098B4201D30B01C01A7C
:1048F0005241C3088B4201D3CB00C01A52418308F6
:104900008B4201D38B00C01A524143088B4201D322
:104910004B00C01A5241411A00D201465241104682
:104920007047FFE701B5002000F0F0F802BDC04677
:104930000029F7D076E7704703460B437FD4002267
:1049400043088B4274D303098B425FD3030A8B4223
:1049500044D3030B8B4228D3030C8B420DD3FF228D
:10496000090212BA030C8B4202D31212090265D05B
:10497000030B8B4219D300E0090AC30B8B4201D30E
:10498000CB03C01A5241830B8B4201D38B03C01A55
:104990005241430B8B4201D34B03C01A5241030BCC
:1049A0008B4201D30B03C01A5241C30A8B4201D37D
:1049B000CB02C01A5241830A8B4201D38B02C01A28
:1049C0005241430A8B4201D34B02C01A5241030A9F
:1049D0008B4201D30B02C01A5241CDD2C3098B4284
:1049E00001D3CB01C01A524183098B4201D38B0101
:1049F000C01A524143098B4201D34B01C01A5241A4
:104A000003098B4201D30B01C01A5241C3088B42E8
:104A100001D3CB00C01A524183088B4201D38B00D3
:104A2000C01A524143088B4201D34B00C01A524175
:104A3000411A00D201465241104670475DE0CA0F4C
:104A400000D04942031000D34042534000229C460C
:104A500003098B422DD3030A8B4212D3FC22890116
:104A600012BA030A8B420CD3890192118B4208D3EC
:104A7000890192118B4204D389013AD0921100E04E
:104A80008909C3098B4201D3CB01C01A5241830962
:104A90008B4201D38B01C01A524143098B4201D38F
:104AA0004B01C01A524103098B4201D30B01C01ABA
:104AB0005241C3088B4201D3CB00C01A5241830834
:104AC0008B4201D38B00C01A5241D9D243088B428A
:104AD00001D34B00C01A5241411A00D2014663462D
:104AE00052415B10104601D34042002B00D5494291
:104AF000704763465B1000D3404201B5002000F0D0
:104B000005F802BD0029F8D016E770477047C04687
:104B100002B4714649084900095649008E4402BC56
:104B20007047C04602B4714649084900095C490013
:104B30008E4402BC7047C04603B471464908400029
:104B40004900095A49008E4403BC7047D0400B000D
:104B5000D1409C46203AD34018435242634693408A
:104B600018437047002B11D1002A0FD1002900D122
:104B7000002802D00021C943080007B4024802A15E
:104B80004018029003BDC04685FFFFFF03B468468E
:104B900001B5029800F006F8019B9E4602B00CBCDD
:104BA0007047C046F0B557464E464546DE46E0B52E
:104BB00004000D009246994683B08B4230D82DD028
:104BC0004946504600F0BAF829000600200000F0DF
:104BD000B5F8331A9846203B34D49B4653465A4680
:104BE000934042461F00534693401E00AF423BD8BD
:104BF000AF4200D179E05B46A41BBD41002B00DA37
:104C000076E0002200230092019301235A4693404C
:104C10000193012342469340009329E08242CFD979
:104C200000220023009201930C9B002B01D01C60FA
:104C30005D600098019903B0F0BCBB46B246A9463E
:104C4000A046F0BD42469B4620239B1A5246DA40BE
:104C5000414613004A468A40170042461F435346C6
:104C600093401E00AF42C3D900220023009201935B
:104C70004346002BD8D0FB0772081A4346467B08F0
:104C80000EE0AB4201D1A2420CD8A41A9D410120F2
:104C900024196D410021013E24184D41002E06D0FB
:104CA000AB42EED9013E24196D41002EF8D1009897
:104CB00001995B4600196941002B24DB2B005A4601
:104CC0004446D3402A00E2401C005B461500002BFE
:104CD0002ADB26009E40330026004746BE403200B5
:104CE000801A9941009001919EE7A342BCD882E7C7
:104CF0004246202300219B1A0022009101920122AA
:104D0000DA40019285E7424620239B1A2A00464654
:104D10009A402300F340444613432A00E2401C001B
:104D20005B461500002BD4DA42462F0020232600D4
:104D300097409B1ADE403B003343CDE710B5002976
:104D400003D100F007F8203002E0080000F002F87C
:104D500010BDC0461C2101231B04984201D3000C46
:104D600010391B0A984201D3000A08391B099842DE
:104D700001D30009043902A2105C40187047C046F4
:104D80000403020201010101000000000000000014
:104D900030B500240139A24201D1002005E0035DB5
:104DA00001340D5DAB42F6D0581B30BD03008218B4
:104DB000934200D1704719700133F9E770B50026AE
:104DC0000C4C0D4D641BA410A64209D1002600F026
:104DD00015FD0A4C0A4D641BA410A64205D170BDF6
:104DE000B300EB5898470136EEE7B300EB5898470D
:104DF0000136F2E70858000008580000105800007B
:104E000008580000030010B50800190000F00AF867
:104E100010BD002310B59A4200D110BDCC5CC45423
:104E20000133F8E710B5040004481300002804D04B
:104E30000A000220210000E000BF10BD00000000B9
:104E400010B500F017F810BD10B5041E00D10134E4
:104E5000200000F041F8002800D010BD00F00EF84E
:104E6000002801D100F010F88047F1E710B5FFF7F6
:104E7000EBFF10BD10B500F039F810BD014B1868FC
:104E80007047C04668020010FEE7FFFF064807496A
:104E9000091A8B10C90FC91810B5491003D0044B5B
:104EA000002B00D0984710BD740000107400001053
:104EB00000000000054B10B5002B03D00449054845
:104EC00000E000BFFFF7E2FF10BDC0460000000099
:104ED0006C0200102458000010B5034B0100186844
:104EE00000F030F810BDC0462400001010B5034B90
:104EF0000100186800F0C4F810BDC046240000107E
:104F000070B50F4E0D0031680400002902D100F089
:104F1000A3F830602900200000F09EF8431C03D164
:104F200001256D42280070BD0323C51C9D43A84286
:104F3000F8D0291A200000F08FF80130F2D1EFE705
:104F4000840200100323F7B5CD1C9D4308350600ED
:104F50000C2D34D20C25A94233D8300000F06CF867
:104F6000344F3B681C00002C2FD129003000FFF784
:104F7000C7FF0400431C58D13C682100002949D1D7
:104F8000002C4CD023683000E318019300F064F843
:104F9000019B834243D123683000ED1A2900FFF7BB
:104FA000AFFF01303BD023685B1923603B68002BC7
:104FB0003DD05A68A24230D100225A6012E0002D42
:104FC000C9DA0C2333600020FEBD2168491B1ED4C2
:104FD0000B2917D962192560A34211D13A60636881
:104FE00011605360300000F02FF8200007220B30D2
:104FF000231D9043C21A9842E6D01B1AA350E3E740
:105000005A60ECE76268A342D7D13A60EAE723002E
:105010006468A8E70C004968B0E71300C7E70C23F1
:105020003000336000F010F8CDE70560DAE75B6030
:10503000FFDEC0468802001010B5024800F01EF8DE
:1050400010BDC0468C02001010B5024800F017F8E1
:1050500010BDC0468C020010002370B5064D040040
:1050600008002B6000F056F8431C03D12B68002B7E
:1050700000D0236070BDC04690020010704770479A
:1050800070B505000C1E10D0043C2368002B00DA1C
:10509000E4182800FFF7D0FF1D4A1368002B05D144
:1050A000636014602800FFF7CFFF70BDA34208D9EA
:1050B000206821188B42F3D119685B6809182160B8
:1050C000EEE71A005B68002B01D0A342F9D9116802
:1050D0005018A0420BD12068091850181160834263
:1050E000E0D118685B68411811605360DAE7A042AC
:1050F00002D90C232B60D5E7206821188B4203D1FD
:1051000019685B680918216063605460CAE7C0468B
:105110008802001070B50D4D04002B68002B01D1E2
:105120000B4B2B6003232E6803349C43341920005F
:1051300000F010F8002802D12C60300070BD00F0A3
:1051400015F801260C2376420360F6E7940200105E
:105150009802001003000448002803D00022834274
:10516000524110007047C04600000000014B186813
:105170007047C0462400001042435532000101022E
:10518000030406080A0E0E0042494D313132004236
:10519000696E61727920696E7075742031366600AF
:1051A00042696E61727920696E707574203866008C
:1051B00042696E61727920696E7075742034660080
:1051C00042696E61727920696E7075742F4C454426
:1051D0002036660042696E61727920696E7075745E
:1051E0002F4C45442034660042696E617279206913
:1051F0006E7075742F4C45442032660042696E61B2
:10520000727920696E7075742032333056414320B4
:10521000326600FF42426500094233004B823B0088
:10522000214110066082341061C2340F6242350E93
:105230000542020049C20100080233002A83300CF3
:105240000B411006204110072241100643826D00D9
:1052500025423C00000000500000015000000250B8
:1052600000000350020105000300040007000B00CA
:105270000C000D0013001400180019001A001D0086
:105280001E001F00200024002500280029002A00FD
:1052900005000E001B00260002000A001700230074
:1052A00010001100000008000900150016001C0085
:1052B0002100220027002B000F0012000000000038
:1052C00000000000000000000101010202020303CF
:1052D000040404080A030508000102030405060784
:1052E00008090A0B0C0D0E0F101112131400000008
:1052F00000000000000000000206010102010100A0
:10530000000000000000000000000000000000009D
:105310007D13000039140000A10C0000770B000081
:105320000000000000000000A1140000F9140000BB
:10533000A10C0000770B000000000000000000003E
:10534000D11500002F120000A10C0000770B000007
:1053500000000000000000007D120000D1120000DB
:10536000A10C0000770B000000000000000000000E
:105370001D1300004D130000A10C0000770B00006E
:10538000000000000000000045150000A11500000D
:10539000A10C0000770B00000000000000000000DE
:1053A000770B0000250C00006F0B0000D10B0000F4
:1053B00000000000000000006F1F0000791F0000C7
:1053C0008F1F0000FD190000111A000000000000EE
:1053D00000000000000000000000000000000000CD
:1053E00000000000A31E0000AD1E0000C31E000050
:1053F000FD190000111A000000000000000000006C
:10540000000000000000000000000000000000009C
:10541000000000000000000000000000000000008C
:10542000000000000000000000000000000000007C
:10543000000000000000000000000000000000006C
:10544000000000000000000000000000000000005C
:10545000000000000000000000000000A118000093
:105460006D170000D1180000E32100003318000080
:10547000551800000000000000000000BF220000DE
:10548000F52200001723000039230000010400006A
:105490000EB1620005A0704308A48643090202020F
:1054A0000B368A430C3203400F3A9A4310226300B2
:1054B00011220C404EB69043000000000104010090
:1054C00005A07143076478431BB8A44300000000A3
:1054D0000104020005A0724307647A431794FF0099
:1054E0001BB8AC43000000000104030005A0734397
:1054F000062261000D35034007647C431BB8B443AA
:10550000CCBAC800000000000104040005A07443E8
:10551000076482430DF5CC431BB8BC430000000078
:105520000104050005A0754307647E430DF5D143D2
:105530001C1100000000000000000000000000003E
:10554000931C00002F1A0000431A0000671A000085
:10555000CB1D0000191D0000F51B0000F51B00000D
:10556000F91B00002F1C0000F51B0000F51B0000BC
:10557000513A00004F30000001310000131D0000BF
:10558000000000000000000000000000000000001B
:10559000F7330000730E0000DB180000000000006D
:1055A00000000000E1190000770E0000000000007C
:1055B00000000000000000000000000000000000EB
:1055C0000000000089340000730E0000393F000025
:1055D0000000000000000000E11900007B0E000048
:1055E000910E0000F723000000000000990E00005B
:1055F0008D0E00000000000000000000290B0000DC
:105600007D33000079380000371F0000B9400000EA
:10561000E10E0000593E0000E11900006110000099
:10562000910E0000F7230000230E0000113300004C
:105630008D0E0000F5190000ED190000C53D0000B9
:10564000253E0000150E000089410000993300003E
:105650000000000000000000790B000000000000C6
:10566000000000006F1F0000791F00008F1F000066
:10567000FD190000111A0000470D00004D0D00003B
:10568000530D0000570D0000000000000000000056
:10569000A31E0000AD1E0000C31E0000FD19000087
:1056A000111A0000AD0C0000B10C0000B70C000096
:1056B000BD0C0000C30C0000C90C0000CF0C0000A2
:1056C000D50C0000DB0C0000E10C0000E70C000032
:1056D000ED0C0000F30C0000F90C0000FF0C0000C2
:1056E000050D00000B0D0000110D0000170D00004E
:1056F0001D0D0000230D00002F0D0000350D0000D2
:10570000290D00003B0D0000410D00005B0D000065
:105710005F0D00005F0D0000630D0000690D0000CB
:10572000730D00007D0D0000890D0000930D000039
:10573000A10D0000AB0D0000B50D0000C10D000073
:10574000CD0D0000D70D0000E50D0000F10D0000AB
:10575000FB0D000010000000000030002000744528
:10576000684800000000001E8F5100000800000083
:10577000000031002000D444504600000000011E0B
:10578000A05100000400000000003200200084440A
:10579000444500000000011FB05100000600000059
:1057A00001002C001600E444024600000000061E22
:1057B000C05100000400000001002E001600AC449F
:1057C0006C4500000000041ED451000002000000DF
:1057D00001002F0016007444D64400000000021E91
:1057E000E85100000200000000002F011600744480
:1057F000D64400000000011EFC510000F8B5C04670
:10580000F8BC08BC9E46704739430000B54E000006
:0C581000F8B5C046F8BC08BC9E467047C6
:08581C0088F3FF7F010000008A
:105824002141565021403A5342696E31362020318D
:105834002E31310040825C0029826900006CDC0258
:10584400000000002800001000000000000000001C
:1058540068000000D000000000000000000000000C
:105864000000000000000000000000000000000034
:105874000000000000000000000000000000000024
:105884000000000000000000000000000000000014
:045894000000000010
:04000003000000DD1C
:00000001FF
