:1000000000200010DD000000D7000000752C00006B
:1000100000000000000000000000000021DFFFEFF2
:10002000000000000000000000000000D9000000F7
:100030000000000000000000DB000000E1120000F2
:10004000D5000000D5000000D5000000D50000005C
:10005000D5000000D5000000D5000000D50000004C
:10006000D5000000D5000000D5000000D50000003C
:10007000D5000000D5000000D5000000D50000002C
:10008000D500000061240000D5000000D50000006C
:10009000D5000000D50000000000000000000000B6
:1000A0005D060000D5000000D50000000000000043
:1000B000D5000000D5000000D5000000D5000000EC
:1000C00078560000000000107C0000007C0000104A
:1000D000F4030000FEE7FEE7FEE7FEE7F0B5D34BD2
:1000E000D34989B08B4244D30020D2498B424ED3AE
:1000F00004F028F804F0E8FEFA21CF4B89001868D4
:1001000004F064F801F0E8FBC021CC48C90101F01B
:100110001FFCC021CA48C90101F01AFC0022C94BCA
:10012000C9495A60C9480832C94C01F0A7FC0421EA
:10013000C84AC9480123C94D02F098FFC84BB435DD
:1001400050342B6002F010FB02F07EFE207802F0AB
:1001500055FC02F009FBC14BBF4C0193DB6D200045
:100160009B689847200000F0D1FB00284FD130BF9A
:10017000F1E700221D685F689868BE18AC189042CD
:1001800001D80C33AEE7246804323460F5E700226E
:100190001E685C68B518944201D80833A6E7286049
:1001A0000432F7E73100200002F088FDAD4BE20099
:1001B0009B185A6D002A1BD19B6D002B18D1013260
:1001C000A240EB6A1340002E51D0002B02D1EB6904
:1001D0001343EB61019F2100CC37386800F025FD07
:1001E000864205D0032332002100386800F036FD36
:1001F00020B201F0AFF80122AB699A402B6A013AB4
:100200001340EA699A4202D0642002F0B9FB019BD4
:10021000CC331D682B6828005B699847061E30D0D8
:100220002B6828001B6998470178002929D07F2373
:1002300000249C466C61082201206308F718F35CD7
:100240001A40044202D01A0060468243601C002A11
:1002500012D093433B70019B6861CC332100186836
:1002600000F0E3FC7A4D0600072CC1D89AE7002B7A
:10027000B0D1EB699343ACE784B2A142DBD8012350
:100280006B617948724D00F0C7F9002803D1EB6F1C
:10029000002B00D026E12B0060339B7CEF6E2A1DE3
:1002A0000120D46F029301223B41184013420DD02C
:1002B0000121BB001B591E321A405B0691409B0F67
:1002C0006A4A9B009B5800228900CA500322674B50
:1002D00004269C46696E60354B1113401C32114058
:1002E0008E4061469B005B5829689E190191E97C0C
:1002F00033680391002B35D00121BB001B59012528
:100300001A409140039A5B113A418C002A4200D175
:10031000D9E0574A127D501E824152420A400321C1
:100320000B4061469B00CB581A51524A537C117CBA
:10033000194200D1D1E08025AD003D438B4337E029
:100340009F420ED0990060580125010011408D4058
:1003500029000325401128406546800028588D005B
:100360002950013301998B42EAD1052002F0AAF904
:100370003368012005933E4B1B7D0693019B9B0038
:10038000E3180793394B049303239C46079BA3422E
:1003900074D1384B0598597C2D4A1B7C0028C4D158
:1003A0003D00194202D180256D003D4360320B4370
:1003B0005374274B01371A0018006032DF66117C36
:1003C0007C304900117401998F4200D088E00021EF
:1003D000D96601311174996F00F038F92648244C20
:1003E00000F01AF9002800D17FE0194B00211A6EA5
:1003F00003921A006032D27C0433DB6F0192227DBB
:1004000002931300581E83415B4201249C46039BC8
:10041000994200D0D2E0012315485A400C4B027596
:10042000996E183000F012F963E0C046C000000079
:10043000CC000000D400000024000010468201001F
:1004400063823D00FC0002507053000090010010D8
:100450007C01001060200000D80000107C0000101B
:1004600020000010FC000010F8010010A052000055
:10047000FC010010DC010010140200101F220125F5
:1004800023681A409540039A5B11AE0010420DD0CC
:1004900006994A1E914162461340049A9B00D35824
:1004A000494229409951400004346FE7029A0240C2
:1004B000511E8A4161460B4004999B00CB58524221
:1004C0002A409A51EFE7002800D008000322134089
:1004D00062469B00D358185127E701256D4268E713
:1004E000596F79E701256D4278E7A369002B00D1A8
:1004F0007BE7444C444F6B1C1BD0FF222B00802118
:1005000093431BB249008B4213D115400022EB00EC
:10051000FB185A659A650123AB40E26A134201D089
:100520009A43E262E16AE26919401A425DD0002909
:1005300060D02000303000F06FF8002803D0162281
:10054000324BDB6C1A6200255437381D00F064F81A
:100550000190380000F060F8019B0600002B01D1EB
:10056000002819D00122AA40E36A1340002E44D08B
:10057000002B02D1E3691343E361290024480323DC
:10058000320000680C3100F069FB2800310002F0F5
:1005900095FB28B200F0DEFE01350837082DD4D1D6
:1005A0000122A3699A40236A013A1340E2699A4200
:1005B00000D1DCE5642002F0E3F9D8E5019B1C42A0
:1005C00010D002988B00C3581F2001261840864087
:1005D000674630005B0637409B0F0E4E9B009B59D1
:1005E0008000C7500131640011E70029A1D11343F5
:1005F000E3619EE79A43E2619BE7002BBDD1E3698B
:100600009343B9E77C010010FC0000107C0000104F
:1006100048010010A0520000030001680020814240
:1006200006D0044A1268521A824201DB1860013077
:100630007047C0467C000010034B1B68C918002996
:1006400000D10131016070477C00001010B5002915
:1006500001D1016010BDFFF7EFFFFBE7012210B5EC
:10066000374CE36861689A400A43364904330A60AC
:100670009B005858002827DA430025D40004830D36
:1006800031483249584303F0A1FDE36B0133E36382
:10069000E36B012B02D9A36B18184008A063E36B2E
:1006A000632B11D9A26B236B9A4220DC0022626477
:1006B0002368216C206C904207D0994205D82368AA
:1006C000216CA06C904206D110BD4022204B5A6094
:1006D00023682364F8E75B1AE1698B42F4D3606A0C
:1006E000A2640028F0D003681B689847ECE7A26B6F
:1006F000636B9A42E8DD002323642268616C606CBE
:10070000984218D0914216D82368626CA16C0129D6
:10071000DAD09B1A226A9342D6D3A36CFF2B07D060
:100720000123606AA364002802D003685B689847CD
:100730000123A364C8E7064A536023686364C3E7E0
:100740007C00001000C001404D0D0000FF030000C0
:10075000FC000250194B70B50C0099422CDCDA23D6
:1007600000209B00994226DB0800484304F03AFB36
:10077000051C200004F036FB1149041C281C04F061
:100780002FF8211C04F02CF80E49061C281C04F03C
:1007900027F8011C301C03F099FE0B49051C201C96
:1007A00004F01EF8011C281C03F090FE074904F019
:1007B00055F904F0F7FA70BD0548FCE7660800003B
:1007C000DCE40F373198FEBCCCE43E42B9B75E465C
:1007D00030750000114B70B50C0099421BDC104BBA
:1007E0000020994216DD0800484304F0FBFA0D4949
:1007F00003F0F6FF051C200004F0F4FA0A4903F0A8
:10080000EFFF011C281C03F061FE084904F026F9E3
:1008100004F0C8FA70BD0648FCE7C046E775000062
:1008200045250000D8B80FB67B51163E99CAA9439A
:1008300066080000704710B51C30FFF7EDFE002879
:1008400003D01622014BDB6C1A6210BD7C00001035
:1008500000697047006901307047006902307047D5
:100860000069033070470069043070470069053043
:1008700070470069063070470069073070470069AB
:100880000830704700690930704700690A307047C6
:1008900000690B30704700690C30704700690D30FB
:1008A000704700690E30704700690F30704700696B
:1008B000103070470069113070470069123070477E
:1008C00000691330704700691430704700691530B3
:1008D000704700691630704700691730704700692B
:1008E000193070470069FF30704700696230704707
:1008F000006963307047602070476120704701488D
:100900007047C046905200001220704770B50379BE
:10091000002B01D1002070BD836EC06E1C7D5D7DFB
:1009200003689B6C9847092300781C40082CF1D180
:10093000012DEFD1FF3843425841C0B2EBE781822D
:10094000704700207047E02310B59B0099420DD1FD
:100950000300012248331A704379FA215A1E934149
:100960000200493213704C30FFF766FE002010BDC4
:10097000172070470022836A5A60704770B50400E0
:10098000006D0D000368DB6E98470678206D360217
:100990000368DB6E9847437833439D4211D0206D46
:1009A0000368DB6E98472B0A0370206D0368DB6ECB
:1009B000984701234570226D1375034B1B68323332
:1009C0009361A58270BDC0467C00001070B5050023
:1009D000006D0C000368DB689847002805D0286D7F
:1009E000036821001B68984770BD286B21000368CD
:1009F000DB6898470028F7D0286BF1E737B514007B
:100A0000F0220125806B92000A406D42016800953A
:100A1000CD682100A84701203EBDC023F7B5089C42
:100A200005009B00994200D177E00BD880200E0092
:100A3000013BFF3B86439E422DD0803B99421BD019
:100A40000020FEBD5D4B99427CD05D4B994200D1A8
:100A5000ABE0E0239B009942F2D10300012248332E
:100A60001A704379FA215A1E9341020049321370D9
:100A70004C30FFF7E1FDE3E76421D379127A61712D
:100A80006339A17141390B43E37100232272637210
:100A9000A3720120D5E70F23D679107A1E40537A2E
:100AA0001B020343A0205BBA9BB2019380002B681A
:100AB00081421AD022002B6828005B6C01991F002C
:100AC0000A323300B847431E984140420640330083
:100AD000633363710223A3713E333343E371019B9C
:100AE0001B0A2372019B6372D3E71B6C28001F0053
:100AF000019933000A32B8470028A1D02B6828009A
:100B00009B6B98471F289BD9286B03685B699847A4
:100B100003785B0700D493E7CCE7D3799B0600D03A
:100B20008EE763236371603BA3713D33E371036818
:100B30009B6B9847000A20722B6828009B6B984794
:100B40006072A6E7137A527A072B1FD1FF2A26D1AB
:100B50000021FC3A063B642021720021607161385B
:100B6000A0719E30E0716172A3728A4291D02B0015
:100B700048331A706B7928005A1E93412A00493273
:100B800013704C30FA31FFF757FD82E75A1E062AE0
:100B900007D802220021012BDDD0110003E0022240
:100BA000FBE7002202210023D5E7622363715F3B4C
:100BB000A371CF33E371002323726AE7810300003E
:100BC000D1030000C36A002B09D102005F32137801
:100BD0005A30013313704023028813430380704757
:100BE000036870B59B6804000D00984743780020A7
:100BF000052B04D92368290020005B68984770BD45
:100C0000036870B55B690D0014009847002809D08F
:100C10006B10C2180F21C35CED0704D50B402401F3
:100C20002343137070BD8B43FAE7036870B505006A
:100C30005B680E0098472B6804001B683100280091
:100C400098470219531E1878A41A1A19002A00DCB2
:100C500070BD013B1A7800021043F6E7F7B5019327
:100C6000036805001B680E0017009847041E0FD08C
:100C70002B6831005B6828009847431C08D0201877
:100C8000031B002B05DC31002800019AFFF7B8FF99
:100C9000F7BD27703F0A0134F2E730B504000D00BC
:100CA00085B00A220B4901A804F039F9236829000C
:100CB0009B682000984743780120052B05DD0F2B0A
:100CC00005DC01AAD318063B187805B030BD012019
:100CD0004042FAE795520000436810B50400186DD1
:100CE0000368DB6D98470178081E06D06068036DC5
:100CF0005B68C91889B2FFF769FE10BD036810B5BB
:100D00001B6904009847002803D041786068FFF70A
:100D10005DFE10BD036810B51B690C0098470028E4
:100D200003D0032161430231401810BD10B5040007
:100D3000FFF7F0FF031E0BD05B78017860689B061D
:100D400003D5036D5B68C91889B2FFF73FFE030046
:100D5000180010BD10B5FFF7DDFF013010BD0023F6
:100D6000421D4371D377821DD377C21DD3770122F1
:100D70005242028102320271034AC3801380034A45
:100D8000C36013807047C046D0000010D20000102E
:100D90000222431D10B5DA770F2381694A791A4080
:100DA000036807325B6A984710BD10B5036B1B7D63
:100DB000DB0710D5C02905D080235B0099420CD0F9
:100DC000002010BD517A137A09021943036849BA09
:100DD000DB6889B298470120F3E7431DDA7FD1B27F
:100DE000002AFBD10132DA778369B024D9701971F6
:100DF000E1219A713F321C705971DA71FFF7C8FF17
:100E0000E9E770B50500C36B04005A35002B13D019
:100E10000022C26380682B88411DCA77826992795B
:100E20007F2A09D91B060ED50B23C356022B0ADCD9
:100E30000133C372FFF7ACFF0023E3616362A36376
:100E40002B80E36570BD0023C372F5E7F0B585B074
:100E50000393036802911B680400170098470299E6
:100E600006002000FFF7BCFE63685A1DD17FCDB29B
:100E7000AC460029FAD10131D1779B69BC22B9B2C5
:100E80001F710F271A700A0ADA70421C17402022BD
:100E900052423A435A71039A8027002A00D0403FB9
:100EA00000281CD01A00013E0832002812DC002263
:100EB0009A7162463A43DA71029822680090D668C5
:100EC00020008022B0476068FFF762FF029BE3606A
:100ED00005B0F0BD355C013815700132E5E73278B8
:100EE0009446E4E7F0B589B0069343680400586B74
:100EF0000491036805929B689847636805780190A0
:100F0000586B049903681B6898470390002808DB16
:100F10006B000793019B5F1C019B079AFB1A9A4287
:100F200001DA09B0F0BD3B78039A934238D17D785D
:100F30000E9B9D4234D0236829009B68200098476F
:100F40004022059E0378403E964332D12C3A13400E
:100F5000934225D12368290020001B6898470290FE
:100F600000281DD029002000FFF73AFE002819DDD7
:100F7000069AC31DD31872429A5C02998A550136AB
:100F80008642F8D1236820005B699847002807D083
:100F90008022EB0700D4783A6D10435D134343552C
:100FA0000237B9E73F22069BDB791340029A1370A0
:100FB000E8E7059A002AF3D10C3213409342EFD1AF
:100FC000012329002000049AFFF740FFE8E7F8B565
:100FD0000C00411DCD7F002DFCD140260135CD7781
:100FE000170A8569D2B2344203D0990021430E43D7
:100FF000F4B2B0232B70503BEF702A716B71AC715F
:10100000FFF7C6FEF8BD0B4A10B513880400013384
:1010100013804379002B01D00023437181212000EC
:10102000E2880023FFF7D3FF236820009B6A9847DC
:1010300010BDC046D00000100023821D0730D377BA
:10104000C3777047426803000020914203D39B6836
:101050008B424041C0B27047030010B5002091425E
:1010600006D85C68A14203D39B6893424041C0B25A
:1010700010BD43680069C91A4018704742680300F0
:10108000891AC2680020013A8A4201D31B69585C60
:101090007047426810B5891AC2684C1C013A0300B7
:1010A0000020944204D81A69535C105D1B02184357
:1010B00010BD43680069C91A4018704742680300B0
:1010C000891AC2680020013A8A4201D31B69585C20
:1010D0007047426810B5891AC2684C1C013A030077
:1010E0000020944204D81A69535C105D1B02184317
:1010F00010BD10B5064B002A01D1984710BDBFF3B3
:101100004F8FBFF36F8F72B6984762B6F6E7C0464F
:10111000F11FFF1F322330B58BB0009303090193F9
:1011200005000B090C000122684605A90293FFF790
:10113000E0FF059BDBB20593002B0FD1FA213B3377
:101140000093084B890018680195029403F03EF85B
:101150000122039005A96846FFF7CBFF0598C0B2AE
:101160000BB030BD24000010F0B504000E001500D7
:101170008BB0BFF34F8FBFF36F8F72B632230093E4
:10118000C3171B051B0DC318013A82181B130193CB
:10119000D3171B051B0D9B181B130022684605A9BE
:1011A0000293FFF7A6FF059FFFB20597002F04D01B
:1011B00062B60598C0B20BB0F0BD3323FA2100939C
:1011C0000D4B8900186801940296039502F0FEFF0A
:1011D0003A00049005A96846FFF78BFF059A002A9C
:1011E000E6D13823684605A9009301940296039539
:1011F000FFF77FFFDCE7C0462400001030B50C4D40
:101200008BB0A86D002811D1352302240093012250
:10121000684605A901940294FFF76BFF059B072B15
:1012200002D00234802CF2D12003A8650BB030BD6F
:101230007C000010F8B50400FFF7E0FF0C4FC51963
:10124000FFF7DCFFC7198020E6694001310002F09A
:10125000BDFF013870433818A84201D20020F8BD04
:10126000E368C318013B1B78FF2BF8D1801BF3E721
:1012700000F0FFFF882292000300805C00280BD161
:101280000912FF2909D85B181B7DDB43DBB2012063
:101290000133984280414042704701235B42F6E7A8
:1012A000036870B59B68040015009847002804D0B7
:1012B0002368290020009B68984770BD01230279AC
:1012C000064907329340002210B5CC6F2343CB6709
:1012D0000368DA635A619A6210BDC0460480044014
:1012E000024A1368013313607047C0467C00001047
:1012F000036870B55B680C0098470300021E00D0BD
:101300000278012021120333E4B2824202DA012082
:10131000404270BD1D788D4202D15D78A542F8D063
:1013200001300233F1E7436810B5D86E03689B6E55
:10133000984710BD436810B5D86E036804699B6D6B
:1013400098470078201810BD036810B55B6898476F
:10135000007810BDF0B5050087B00B2816D8010045
:10136000994B0839186803681B68032910D8490885
:10137000D931FF319847012203782A409200134166
:101380000F221340013B0193082B02D907B0F0BD97
:101390000195002401278D4B8B4E04933068610822
:1013A0000368D9311B68FF319847220003783A401F
:1013B0009200134105920F221340019A013B0393BF
:1013C000934203D00134042CE8D1DFE7EE213068EA
:1013D000FF3103681B6898470378620013410322BA
:1013E0001A400292032213421DD0029B012B50D0BF
:1013F000029B022BCAD12100049E0831CC363068F2
:10140000FFF713FC029B184200D1B2E03900019BA8
:1014100099406F4BDA6A0A40384200D1A3E0002AB3
:10142000B4D1DA6973E0F7213068490003681B68BA
:1014300098470678630021001E410323049F08316A
:10144000CC3738681E40FFF7F0FB0199040038687C
:10145000FFF7EBFB03005A1E9341019A5D4DD2004A
:10146000DBB20292022E54D1621E94412340002B23
:1014700055D0029B039AED180023AB6501339340CE
:10148000534AD16A194200D080E7D1690B43D36136
:101490007CE7306865100368F035FF3529001B686C
:1014A0009847037830680393036829001B689847BE
:1014B000F22107783068FF3103681B689847057888
:1014C00021002541029B08311D40049BCC33186844
:1014D000FFF7ABFB019B029A029945409A403C4BB7
:1014E0000D4257D1D96A114200D14FE70598914377
:1014F000023007410320D9620740D043012F2BD08F
:10150000022F00D042E7114200D03FE7D9690A43D9
:1015100027E0032E13D0012EA9D12043A9D1029B8D
:10152000039AED1800236B6501339340284AD16A72
:10153000194200D02AE7D1699943D16126E7002CEE
:1015400095D12300220001993868FFF787FB029BA1
:10155000EB185C659C65E2E7114200D016E7DA699A
:101560000240DA6112E7002A00D00FE7DA698A4305
:10157000F7E7083DADB2032D00D907E701993068C0
:10158000FFF753FB3B00019A9340114AD16A0028B0
:10159000CED077E705980399014103200140012946
:1015A00009D1D96A114202D1D9699143D961D96A65
:1015B0000A43DA62EAE60229F9D1D96A1142F6D180
:1015C000D9691143F2E7C046440100107C000010C5
:1015D0007C010010FC00001030B50A4B74241A780E
:1015E00000200823012164420500554040080D42B7
:1015F00001D06040C0B2013BDBB25208002BF3D1F6
:1016000030BDC046CC010010036870B58B4218D9BC
:10161000036A8C00E45801231F251E002540AE40BC
:101620008B4064060949A40FA4006458857CDBB292
:10163000B100002A06D16250C27C9D439A43857452
:10164000C27470BD1D4366508574FAE7A052000055
:10165000F7B501278F40036982680E005A403A406F
:10166000CA40C16815004B403B40F34000210400D4
:101670009D4301919A424AD08D4209D055222C4B6C
:101680001431DB6C1C301A62FEF7D6FF0123019384
:10169000636BB2001F21D358012219405B068A40B8
:1016A0009B0F3AD0002D34D0636A13436362A06B62
:1016B000002805D06B1E9D413100EAB2FFF7A4FF60
:1016C000E3687B40E360236A002B02D1636A002B4E
:1016D00008D055222000164B1421DB6C1C301A62F6
:1016E000FEF7AAFFA020236A124AC0059B001A50E9
:1016F000636A11499B005A500023A26A63629200F8
:1017000023621350E26A92005350E362A36201988D
:10171000FEBDE36A1343E362C9E7002D03D0236AE9
:1017200013432362C3E7A36A1343A362BFE7C04620
:101730007C000010FFFF000000000250032359430B
:1017400010B589B20624802A00D1043C07228A40C1
:101750008C40836A93432343836210BD072370B593
:1017600003251E004D431340AE40AB404469490081
:10177000B44323433024250022408D408A404361F6
:10178000C36BAB431343C36370BD70B5836A986882
:10179000808A040A4C708870FF24002085B2AA4217
:1017A0001BD88C54D963BFF34F8FBFF36F8F72B6C2
:1017B000DA7E012A0FD10621D976D968086802217C
:1017C00041604260997E03008C0018331B191A6037
:1017D0000232FFF7C3FF62B670BD0D5C01306C4092
:1017E000DCE7020070B504005E32BFF34F8FBFF339
:1017F0006F8F72B6E37E012B09D0062B1ED1E36BEF
:10180000002B04D01378002B18D1002916D1E368DF
:10181000217E1D6880222800FFF790FFA67E280009
:1018200031000222FFF79AFFB600064B1835AD19BA
:101830002B600023E37662B630BF70BD62B630BF66
:10184000D3E7C046FEFF000010B504000121806A06
:101850004834FFF7C6FF2378032B08D1BFF34F8F1F
:10186000BFF36F8F72B68023054A5B051A60BFF322
:101870004F8F044B044ADA60BFF34F8FFEE7C04638
:1018800055B01F5E00ED00E00400FA0570B50500DC
:10189000C368017E1C6881222000FFF74FFFAE7EE7
:1018A000200031000122FFF759FF02236360013B52
:1018B0006360B600064B1834A61933606B7E9B003C
:1018C000E418044B23600023EB76EB6270BDC04646
:1018D00017110000FFFF0000802301385B049842CD
:1018E0000DD2C021064A090650600648036A1B0251
:1018F0001B0A0B4303620023936007331360704796
:1019000010E000E000ED00E0802070B54004FFF73B
:10191000E3FF00F0D7F81F2101220A4B80241B6847
:10192000094D19408A405B0608499B0F9B00595896
:10193000E4039000AB6823405E4273415B42134076
:101940004350F7E71400001010E000E0A052000040
:10195000F7B543069B0F0093404BC0279C46624659
:10196000009BFF019B009D581F230340019301230F
:101970001E00019CF022A640802412020A400905A4
:10198000090DB6B22402BA4210D12B5933432B5160
:10199000C30507D401231F2244121440A3424FD190
:1019A000002331E0012380221143F4E7E027FF0107
:1019B000BA4206D12B5933432B51C30538D40623E1
:1019C000E9E72F59B7432F518024A401A24229D11E
:1019D000234A904203D1234B00221A6004E0224A9A
:1019E000904203D11F4A136002230DE01F4A904228
:1019F00001D11F4BF0E71F4A904203D0C30519D411
:101A00000723C8E71A4A13600C2200980B4342438D
:101A10000198121852006244128A17481218920054
:101A20001360F7BDC0240223A401A242B0D1B2E7E3
:101A30000623B8E70723B6E70123E5E70323E3E737
:101A400084131440A342F7D0C41414409C42CBD05A
:101A5000001610408342F1D0FFF756FFA05200005D
:101A600002C23A00C040044063823D0025423C006F
:101A7000D040044049C2010000100110F8B5050033
:101A800000261F27416302632B6B9E4200D3F8BDE3
:101A9000C0210A4AB300D458C9012000FFF758FFFB
:101AA00022006406064BA40FA400E15804233A4028
:101AB0009340002201365A50E6E7C04670530000BA
:101AC000A0520000C02110B5054CC9012068FFF7E5
:101AD0003FFF802160684901FFF73AFF10BDC04613
:101AE000140000101021F0B5037EC26899400D006B
:101AF00012680400106885B005400095014226D0A8
:101B00009800130015002C331B181868A37E183595
:101B10009B00EB181E68637E9B00ED182B688342C8
:101B200015D92369B94D5F06BF0FBF007F591F2527
:101B30002B401B3D9D40EB59002B02D0116005B09E
:101B4000F0BD9368984217D81B1A032BF3D9E07E97
:101B50000D2801D900F078FC02F0AEFC1100340031
:101B6000370041008E012B025502F0022E0346037E
:101B7000F00312044604550401339B19E4E7E368BB
:101B8000A17E1D6801238B402A681A4206D10523D5
:101B9000AB60FF22E3681B681A60D0E72B008A0065
:101BA00018339B18A62252011A6028000322FFF75F
:101BB000D5FD0623217EE3760A338B402A681A423C
:101BC000C5D1E6E7009B002BE3D02200002358326A
:101BD00023631380FF22E362013362652365E368B8
:101BE000A17E1D688B002E001836F618884B3768CA
:101BF000032233602800FFF7B1FD009B002B00D0CB
:101C00001CE1636D256B002B35D1236D002B39D181
:101C10000023E3620633E37622002100256B5C3269
:101C2000583110780B88012D38D1002800D1F7E009
:101C30000020107010229343E26C0B80824202D08D
:101C4000636BCC2B13D0E169236A994209DA616A8C
:101C5000A36A994200DABAE0002A02D0636BCC2B67
:101C600005D0220080235A3211880B4313802000B4
:101C7000FFF7C7F818E022001023583211880B43F1
:101C80001380C5E7009BE3620623E376072DC3DDDF
:101C90002C22236C1B789343902B1FD0220080238F
:101CA000583211880B4313805A4E22005C3213784D
:101CB000002B05D0230001215E331970002313701F
:101CC000E36881221D68217E2800FFF737FDA27E90
:101CD00018359200013EA81806605AE7A06803680C
:101CE0005B6B9847A84297DB236C1979DA78090275
:101CF00011435B7949BAA26889B27F2B14D94D424E
:101D00004D41506B009BEDB2002804D003681B6866
:101D10009847C343DB0F1D43A3681B6B1B7D5B0709
:101D200006D5002DC0D003E0938A009D9942F3D1DF
:101D30002022206C037813420ED06368002B30D130
:101D4000CC22E262226B216C934233DB230062607F
:101D5000002258331A8015E021680D786B409343B8
:101D6000EBD1226B013A0133934204DAC65CCD5CBD
:101D7000AE42F8D0E1E79342DFD16368002B10D187
:101D8000CC33E362A36840211B6B1A7D0123520808
:101D90009343226C12780A40134310D00023E3626D
:101DA00082E700232200E3625832118840330B435C
:101DB0001380E7E7C95C2268D1540133C2E7E36AC4
:101DC000002B00D170E70523134EE3766DE7230067
:101DD000200021005A335D305E31002A0DD0626B45
:101DE000C02A01D0002A08D110221D880B4E2A4398
:101DF0001A80012303700B7057E704221D882A43C1
:101E00001A800023037001330B704DE7A0520000CD
:101E1000FEFF0000F0130000B3050000A13C00002D
:101E2000626BCC2A06D00C2A04D0C02A02D0002A29
:101E300000D033E7902293430B8035E72B00217EBF
:101E40002C3388001B18AA681B68934211D8D31A38
:101E50000233AB60CF4B812233602800FFF76EFC6A
:101E60000423E37600236363A36401336364E364C0
:101E70008FE60132D219EAE70120E368A27E1B68EF
:101E800090401D6829000140054259D01833920046
:101E90009B181B680133A26C1000443098426EDA24
:101EA00080266832A2647600A26C606C170044370A
:101EB00045009F4255DAB04248DD656400296CD088
:101EC000636B256BDAB26263002D08D19B0706D0E5
:101ED00022008023583211885B000B431380A068D6
:101EE00003685B6B9847854250DA236B226C616B09
:101EF000581C2063D154636D626B53406365E36C7F
:101F0000002B05D1210008225831088802430A809D
:101F1000226DA17E134023650323E376E3688A00E4
:101F20001D682B0018339B18ED2228001A60EC3A2C
:101F3000FFF714FC81222800217EFFF7FFFB28E633
:101F4000227E2C3392009B181B68A4E7676B6832D3
:101F500038436063E06CA264474278416564E064A2
:101F6000A2E721329A42A8DA802252009042A4DCF1
:101F7000200058300688FC3A324302809DE720005A
:101F80000422583005882A43028097E72200202344
:101F9000583211880B431380B1E78222D20093425A
:101FA00000DCF6E522000123583211880B43138030
:101FB000EFE5009B002B04D00023E3620223E376CD
:101FC000C5E5009B6821A363E3681D68637E2A0062
:101FD0009B001832D3181960A17E28008B00D318FB
:101FE0008A221A60873AFFF7B9FB81222800217EF6
:101FF000FFF7A4FB009B009A236323005A331A8047
:102000000723E376C5E5009B002BD7D126005E367B
:102010003378002B07D0E269236A9A4208DA626AB1
:10202000A36A9A4204DA23005F331B78032B08D992
:10203000220080235A32118820000B431380FEF7C0
:10204000E0FEE16B002960D00F224B79134008338A
:10205000A3633378002B0BD020230A781A4207D0D1
:102060009A430A70A26BE16B013A885C43408B543F
:10207000E36B216A1D7824231D40243D6B1E9D4186
:10208000454B6D421D40A2353378FF35002917DCE2
:10209000002B35D1E3681868637E02009B0018327C
:1020A000D3181D60A17E22358B00D3181D6003223A
:1020B000FFF754FB220000235A32236313809FE76B
:1020C000A26A002B1ED0D3179B1ADB0FE2690132E4
:1020D0009142DFDD626AA16A01328A42DADA002BBC
:1020E000D8D023005F331B78032BD3D083203A2131
:1020F0002A4BFF311B68584302F0EEF84D19C9E72F
:102100000023E3E7002AECDCC4E7E36881221D68D2
:10211000217E2800FFF712FBA67E28003100022254
:10212000FFF71CFB18351E4BB600AE193360637EFB
:102130009B00ED181B4B2B60012362E7E368A17E37
:10214000186801238B4002681A422DD10300227EB9
:102150002C3392009B180200657E1832AD00551991
:102160001B682E6837001E3F9F4208D9236B002B47
:1021700002D02000FEF726FD0A4B2B601EE79E4290
:1021800006D9806889000130223352182860136014
:10219000082336E777040000C7FEFFFF7C0000102D
:1021A000FEFF0000FFFF000008232200E3765A3202
:1021B000118818330B431380E36A002B04D1236B7F
:1021C000E26B591C2163D35C8021636301234900C6
:1021D000626B134201D04A4062635B00FF2BF7DD64
:1021E000012363640833E3760126E368A17E1D685A
:1021F00033002A688B401000184001901A4278D1B1
:102200002B00227E2C3392009B181F68022F00D8CF
:10221000BFE46821380002F05FF83D2906D82000AD
:10222000FEF7D0FC2000FFF731FBB2E4637E1835E7
:102230009B00ED182B68073BBB4200D8A9E42000A7
:10224000FEF7C0FC2300019A58331A80FF23636510
:10225000E36A2665E664002B31D0E262A37E682142
:102260000193E3681B681E000393019B18369D00D1
:10227000751928680238C01B01F0A8FF636C3A008A
:1022800001300341683AA264626B591E0A400A2178
:102290006364029262635B10002B1FD16833594361
:1022A0007B1ECB1803222B6001990398FFF756FA87
:1022B000637E664A9B00F3181A6004237FE6226B54
:1022C000013A2263226B9A42C8DDE26BD15C226C38
:1022D000D154626D01334A406265F3E7029A0139D5
:1022E000134204D0E06C020050425041E0645B10A5
:1022F000D2E78023626C9B009A421FDC8026993BC8
:10230000676BFF3B7600626C500060643A4201D01C
:10231000B2420EDD8026627E18359200AA18B60001
:10232000B04208DD494889001060013B6D182B6000
:102330002FE46833E7E718002338F4E7E368226BFB
:102340001868A36B050018359A4211DAE36A002B6E
:102350000ED18B220733E376637E52009B00EB188D
:102360001A603A23FF33A27E013B9200AD18DEE7EC
:102370000B238022E376217EFFF7E0F94523F2E785
:10238000E3681D68E36A002B11D00023E362063383
:10239000E37681222800217EFFF7D0F92C4BA27E24
:1023A00018359200013BA8180360FFF7F2FB2300E9
:1023B00001225C331A700C232800E376A17EFFF71C
:1023C000CDF923005E331B78002B07D023005D334B
:1023D0001B78002B04D0636A013363621D4BDEE778
:1023E000E3690133E361F9E70D23E376E3688122D2
:1023F0001D68217E2800FFF7A1F9A37E18359B00F8
:10240000ED18154B93E7009B002B00D0D6E5230079
:1024100001225E331A70009A023B1A7022000823D0
:102420005A3211880B4313800623E376E368A17EBA
:1024300018688A00030018339B18084A1A600322A0
:10244000FFF78CF9FFF7A5FBFFF75EFAFFFF00002F
:10245000F0130000B20500009C060000EF1300001E
:1024600010B5024B586DFFF73DFB10BD7C0100100D
:10247000F8B50025194E0400835DAB4212D0806888
:102480000100FEF747FEA84201D0FFF73DFA802287
:102490002100606852001431FEF766FE0028F4D176
:1024A000A55501250E4EA35D002B15D08527BF0035
:1024B000E0590100FEF72EFE0028E6D1210080221F
:1024C000E059153100025200FF31FEF74DFE0028A1
:1024D000DBD10223A0551D432800F8BD22020000D5
:1024E00021020000F0B507000C00806A00218DB0C9
:1024F000FFF777F9B86D002803D0036821001B6847
:1025000098473D6D2B7D002B69D0BFF34F8FBFF3F4
:102510006F8F72B62800FEF78DFE0400FEF76EFE88
:10252000404BEE69C318802031004001019301F057
:102530004DFE01387043019B181884423ED1FEF7CE
:102540005DFE384BC418FEF759FE364BC018844266
:1025500038D13223E6173605360DA6193613012277
:1025600007A902A8029303960496FEF7C2FD079BF3
:10257000DBB20793002B1BD1FA21343302932A4B91
:10258000890018680396049601F020FE0122059048
:1025900007A902A8FEF7ADFD079B002B08D1353334
:1025A000012207A902A8029303960496FEF7A1FD53
:1025B000079BDBB2002B05D0FFF7A6F9002CBED09D
:1025C000A419C0E700262B69EA689B18013B1E701E
:1025D000EA68964214D300232B75AB6162B6786D1E
:1025E000002801D0FFF744FFB86ABFF34F8FBFF355
:1025F0006F8F72B6FFF74AF962B601200DB0F0BDD9
:102600008023921BDB009A4200DD1A002969A01981
:102610008919FEF7A9FD0028CED18023DB00F6182A
:10262000D6E7C04600F0FFFF2400001010B50400FC
:102630000121FFF757FF2000FFF706F9F0B506006C
:10264000002587B004930CAB1B780391029205938D
:10265000049B9D4201DB00200CE0039B5F19029B61
:102660005B1901933B12FF2B06D900230120019A2D
:102670001370404207B0F0BDF3181C7D059BE44386
:10268000E4B2002B09D03000FFF7F2FE002C0BD192
:102690000023019A02201370EBE7002CF8D0852369
:1026A0009B00F3589C4204D0FF2324023B40E35C90
:1026B00004E0FF231F40F319FF335B7D029A53555B
:1026C0000135C5E770B50D4C0600A5680120ADB217
:1026D000022E06D90A4B0B49186801F077FD023E1D
:1026E0007043002800DC70BDA3689AB2AB1A01D514
:1026F00061685B181500C01AF3E7C04610E000E0FF
:102700002400001040420F00144B70B51A680400FA
:10271000D20704D41B689B0701D4FFF7F5F8104BD0
:102720005B68DB050ED0FA252D01042C05D8FA20B4
:1027300080006043FFF7C6FF70BD2800FFF7C2FFAF
:10274000043CF2E7074B1A68002CF5D01968914257
:1027500001D130BFFAE71A68013CF5E710E000E06C
:1027600000ED00E07C000010F7B5614B614C624D5C
:10277000A3600723E360614B614923611423E36194
:10278000604B614E2362614B2800A36200236161AC
:10279000E362A6616562FEF71DF831002063280040
:1027A000FEF718F88023C02259495B045200606389
:1027B0008B50BFF34F8FBFF36F8F564D5648EB676B
:1027C0001023B8328158554F0B438350FB6F544A46
:1027D000A66A1340FB67002E04D0012132685368BB
:1027E0008B4353603000FEF769FD1F2233791033AD
:1027F00013401E3A9A400023EA6735683222EB60A4
:10280000E36A280019000093FEF7A8FF424B996F76
:10281000444B1868019301F0D9FC216901F0D6FC02
:102820002A00009B18329B00D3180122400801386F
:1028300018606B6813436B6023004C339E4248D191
:10284000E56A6B1E9D41C0232D06DB04ED18C021F7
:10285000A0688901FFF77CF88E2210212E48920093
:1028600083588B4383508023FA6F9B011343FB678C
:10287000019B816F186801F0A9FC2B4901F0A6FCAF
:102880002A4B0138000218601A682A431A60E1686E
:102890005A680A1D9200D2581A68626001228A4062
:1028A0001868C62102431A6000231948E363A36332
:1028B00023646364FF33A364890042589A433F3B17
:1028C0001343435080235B040360A36C012B0AD1A4
:1028D000F7BD0E4B00259E42B9D1E56A6B1E9D41A6
:1028E00080232D06B1E70120FFF70EFFEDE7C0467C
:1028F0002B8338007C0000101C0000101027000003
:10290000C05D0000DC05000090650000D4010010EF
:1029100000E100E004E100E00080044004800440A5
:10292000FFDFFFFF24000010009F240000C00140D3
:10293000F8B504000E00002501276368AB4200D8FB
:10294000F8BD2368290020009B689847002815D00F
:102950003A0063689A40E368013A1340A2689A42D9
:102960000CD0142E0AD91420FFF7CEFE23682000C5
:102970005B68984730001438FFF7C6FE0135DCE786
:10298000F7B5012422001A4D0190AB69EF699A4016
:102990002B6A013A13409F4221D0F4215F40154B2E
:1029A000FF311868002603681B6898470378009376
:1029B0003C4210D00123B340EA691A40009B1C42FC
:1029C00013D1531E9A4131000B4803230068D2B241
:1029D0000C31FEF743F901366400082EE8D12800D7
:1029E00001991430FFF7A4FFF7BD53425A41EAE7BB
:1029F0007C0100104401001048010010F0B587B0C0
:102A000008228B4903908B488B4FFFF737F8FA2049
:102A10004000FFF779FE8E211020884B89005A581C
:102A2000874C82435A50802286499201C86FFF2604
:102A30000243CA67996F844B1868029301F0C6FB82
:102A4000824901F0C3FBC0210138000220608901E6
:102A50007F48FEF77DFF0A2300932368B34323607A
:102A6000636A22687B4B13432360636A002BFCDAA2
:102A70002268794900250A4022608022D20513424B
:102A800001D11B049D0D0A20FFF73EFE009B013B78
:102A90000093002BE1D180216D484901FEF758FFDA
:102AA000FA262800142101F017FC76007143009DDE
:102AB0000191019B694CAB4200D99EE00025F821B1
:102AC000674E25623068FF3103681B689847FB2119
:102AD000047830684900036824021B689847032281
:102AE0000678944601212800264304AB0195340062
:102AF0006A00D440220064462240012A00D087E0C8
:102B0000187001350133082DF1D1002404ABE25CCB
:102B1000544E013A53425A41210000233068013497
:102B2000514DFEF79BF8082CF0D1002321001A002C
:102B30003068FEF793F82100072230680134FEF771
:102B40005FF80C2CF1D12B00CC3300991868FEF7FC
:102B50006CF86B462E000020185EFEF7FBFB009B16
:102B60004C3601330093082BEDD12B00F921C833EB
:102B70001868490003681B689847E0210478C90178
:102B80003A48FEF7E5FE3000FEF798FB029B384915
:102B9000186801F01BFBED6C0138E860202228006A
:102BA0000221FEF7DBFD16232B626A6F123B1343F3
:102BB00028006B6702220321FEF7D0FD5523380061
:102BC0006B626A68543B134314216B603030FDF72D
:102BD00033FD009B019ABB61019B0020FB61FF2339
:102BE00053403B620A237B67BB673B0060337C62D8
:102BF000FB64FFF7C5FE07B0F0BD3000FFF784FDB2
:102C0000236AF5355A425341DB002362FF3550E712
:102C1000022A05D0039A18702A410A4200D170E7AF
:102C20000A00AA40019C19701443019469E7C04648
:102C300010530000900100107C010010008004403F
:102C400000C001400480044024000010009F2400C4
:102C50002483300020000001FFFFFFF80000035034
:102C600044010010480100107C0000106242350E43
:102C7000A0860100802070B54004FEF72DFEFEF70F
:102C800021FF1F2101220A4B80241B68094D194096
:102C90008A405B0608499B0F9B005958A40390008B
:102CA000AB6823405E4273415B4213404350F7E7F9
:102CB0001400001010E000E0A0520000F0B5040085
:102CC0000E0087B007284CD801278740574B584D36
:102CD000DB6928683B400293564B611C0493491002
:102CE0000368FA311B68FF319847F521037828689B
:102CF0000193036849001B689847EC210378286812
:102D00003B4003930368FF311B6898472100037819
:102D1000286805930368E3311B68FF319847210059
:102D20000378286800930368DB311B68FF319847FC
:102D3000012301781C4202D1019B1B0901930F233F
:102D400001983D4A18408300D218009B1569002B5A
:102D500009D100290FD1394BE4001C190023636508
:102D6000A36507B0F0BD039B002B1DD1002E10D032
:102D70000029F0D004E0039B002B31D1002EEAD0D3
:102D800000222E486943E40003199A655430001963
:102D900007E02A48E4000319180000995E656943BA
:102DA0005830FDF753FCDCE7002919D1029B002BBA
:102DB00039D1002ED5D01D4BDA6A3A4202D1DA69F8
:102DC0003A43DA6104980323CC30012221000068E1
:102DD000FDF744FF00991A4BE0006943C018E0E793
:102DE000029B002B19D0002EF4D1059B1F42B8D1B5
:102DF0000E4BDA6A3A4202D1DA69BA43DA610498D0
:102E00000323CC30002221000068FDF727FF0022B9
:102E10000A4BE4001B199A65A3E7002EA1D0694371
:102E20000848E400B3E7002E9BD1DEE77C010010E8
:102E3000440100107C00001020530000FC00001032
:102E4000540100105001001010B50C4A137DDB43F3
:102E5000DBB2181E10D0852189005158084A9942CA
:102E600000D01A02074B117854781970FEF7B4FBA2
:102E7000201A43425841C0B210BDC0461C02001087
:102E800030030010CC010010F7B50700FDF767FF15
:102E90000023BC6A6360E363E3616362A363A365C9
:102EA000E365E668324B9E4243D1C422FF2031499C
:102EB00092008B5883438B503000FEF7FFF90121BD
:102EC000637E356899400B006A6F2B4913430122DA
:102ED0006B676B6813436B60284B186801F076F9D9
:102EE0000138E8602000FEF7D1FC0122244BAB60E2
:102EF000637E9A4013001900EA6B1140019113425E
:102F0000F9D1E0216069C901FEF722FD1D49206960
:102F1000FEF71EFDFF231F222B6033791033134071
:102F20001E3A11009940134B1960019B3A64FB63F0
:102F3000F7BD154A154B964206D1C4220D499200A1
:102F40008B5813480340B6E7124A964205D1C42273
:102F5000084992008B581048F4E70C339E42ABD1DD
:102F6000C422044992008B581B021B0AA3E7C046E7
:102F7000C800001000E100E040420F0024000010F3
:102F8000FFFF00002020000000020010FC010010E4
:102F9000FF00FFFFD4010010FFFF00FF10B5838A80
:102FA0000400002B03D103680749DB689847200021
:102FB000FFF76AFF230001225C331A70034B1B6882
:102FC00063662323236610BDFFFF00007C00001012
:102FD000F7B5019303680400DB68006D0093036894
:102FE0001500DB6E0E0098470778206D3F020368DE
:102FF000DB6E98474178009B3943200098472E228A
:10300000236B00271A75206B03685B6998470122C0
:103010000770236B5A75206D03689B6C9847FF23DC
:103020000370206D03685B6C98470770206D036820
:103030001B6A984733120370206D03685B6A9847D8
:103040000670206D03689B6A98472B120370206DF1
:103050000368DB6A98470570206D03681B6B98470F
:10306000019B0370236D1F759F61F7BD10B50400B0
:10307000FFF7AEFF2000FFF791FF10BD10B5FFF77F
:10308000E3FE084C002802D12300503318700123BE
:103090000421054A05485034FFF7E8FF2078FFF780
:1030A000ADFC10BD7C01001060200000D8000010B5
:1030B00010B50400782101F049FF200010BD10B5C3
:1030C0000400431DDA7F002AFCD10132DA770F2396
:1030D000E169A0694A791A40073201F020FF200017
:1030E000FDF756FE10BD70B503790400002B3CD0EF
:1030F000431DDB7F002B38D14379002B35D01D4D8C
:10310000C2682B689B1A1C4A934201D9FDF77BFFCA
:103110006379012B12D1A31DDA7F012A25D1DA7F31
:10312000012A22D1013262712000DA77FFF7C7FF4E
:103130000023A3722B6823612B68E3606379022B61
:1031400013D122692B689B1A0C4A93420DD90A238A
:10315000E3562000022B09DCFFF7B1FFA37A01330D
:10316000A3722B6823612B68E36070BDFDF74BFFF2
:10317000FBE7C0467C0000106F170000B70B000093
:10318000F0B5040085B0FFF7AEFFA36A5A68002AC5
:1031900036D0DA6B002A33D1DA6A002A30D1226BBA
:1031A000127D52072CD5C0201D685B682A79DBB2DE
:1031B0000293EB7812021A43AB79EE791902800080
:1031C00001400E43F021A02789003140BF00B942E1
:1031D00008D069DC080080278138FF38B84380B206
:1031E000002863D18EB2002A62D123682A009F6929
:1031F00031002000029BB847236820001B6A9847D3
:10320000E06A002838D0BE49FEF7A2FBE26ABD4D55
:1032100053069B0F9B0058591F231A401B3B93409A
:103220001A58606C531E9A41B74B216C1B6882423E
:1032300000D182E1E3636264236C002B06D1002994
:1032400004D0226B7F3B117D4B401375C021E06A97
:10325000C901FEF77DFB01201F220100E36A1A402D
:103260009140226B5B06127D9B0F02409B00EB5846
:10327000013A0A408900CA50A36ADA6B002A11D1C8
:10328000DE6A002E0ED1230048331B78002B09D0B4
:10329000250049352B782000002B00D159E1FDF79E
:1032A000B2FE2E7005B0F0BD81429BD0B6B29AE757
:1032B000697952BA92B27F2908D90299236800919C
:1032C0005F6931002B002000B84795E7A18A914241
:1032D00000D091E73C2218009043AA786978120246
:1032E0000A4357BA42B2B9B2002A00DB8FE0802805
:1032F00016D081283AD0DA0765D46279012A00D83D
:103300007AE7E2888A4200D076E708210F206156EA
:103310009B0803408B423DD02000FDF774FE6BE715
:103320006579002D12D0013D012D00D964E7E388B5
:103330008B4200D160E7754A200013880133138067
:103340000A0000238121FDF742FE55E72368200093
:103350009B6A98476C4BE7801B682581E360637923
:10336000012B00D148E70123637145E763792068A9
:10337000013B012B00D93FE7E3888B4200D03BE7BC
:103380000023624A6371138801331380836A20002B
:10339000984731E700265C4B01311B680140A71DAF
:1033A0002172E360E51DFE77EB7FB342DBD0216A3B
:1033B0004A7902400732E06901F0B1FDEB7FDBB2F0
:1033C000FB77EE77CBE7FF2B00D115E76279002A78
:1033D00000D111E7082020569B061B0F834200D026
:1033E0000AE7E3888B4200D006E70A23E356200071
:1033F000022B92DC022A90D1FFF761FEA37A0133FF
:10340000A372414B1A681B682261E360F4E6032B48
:1034100021D8671DFB7F002BFCD10C220133FB77E9
:103420002878A36910405C3A02431A700A0A19719D
:10343000DA7022680093D36931009C462A0020008C
:103440006546029BA847002803D02000FDF7A0FC9A
:10345000D2E6F877D0E6E2888A4200D0CCE66179FD
:10346000002900D1C8E69B08092118000F276156E2
:103470003840030088424BD1C2212000FDF7A7FD50
:10348000637A01333B4063721F4B1B68E360A31DEB
:10349000DB7F002B2DD12300E76925330393012324
:1034A000039A3100137023680097DB692A009C4659
:1034B00020006646029BB04700281ED00C232A78C5
:1034C0001A405C3B13433B70E3881A0A3B710823A4
:1034D000FA70E269E356974202D00F22013313409B
:1034E0003C21BA799B008A43134340221343BB71AA
:1034F00082E62300276A2633D0E7039B18707BE619
:1035000010100000A05200007C000010D00000103D
:103510000139154D394088420AD1C2212000FDF7FA
:1035200056FD2A0056321388013313802B686CE74E
:10353000C3212000FDF74BFDF8E7E06B002800D128
:103540007AE61B1A322B00D576E600232264E36369
:1035500072E64C30FDF760F8002800D1A2E623683F
:1035600020001B6B98479DE67C000010F0B50379A6
:10357000050087B0002B00D1D3E0FFF701FEAB6A56
:10358000DA6B002A00D0CCE0DB6A002B00D0C8E068
:103590002B005C331B78002B00D1B5E02B68280092
:1035A000DB6A9847002800D1AEE0614B6A6E1B6869
:1035B0009B1A2A6E9A4200D99AE0AC6B23682000CD
:1035C0005B6998470190002800D191E023682000B2
:1035D0001B69984703780293002B00D188E01900FB
:1035E000206900F063FF21618BB200936B461B885A
:1035F0000393039A029B934203D823690133236107
:1036000076E0236800999B6820009847037804932C
:103610006368586B03689B68984706000378013617
:103620005B00C3180593059BB3421CD97378009ABD
:103630009A421BD163683778586B01370368DB689F
:103640009847874212D86368586B03685B6898474D
:1036500033785B00C0188278437812021A4352BA5A
:1036600092B2002A04D1009B0133BEE70236DAE7AA
:103670004421049B0B408B42F5D10120039B01990F
:103680005B08CE18C95C039B034200D00909CB43F9
:103690009B07E8D104200B000340014243D063683C
:1036A000581DC77FF9B2002FFBD10137C777BC2067
:1036B0009B6918701A71100AE122D8705A719971B9
:1036C000D9716068FDF764FB009BE360009B0721F4
:1036D0009A0004231A40914033788B430121914092
:1036E0000B433370009B01332361114B1B686B66E6
:1036F000FA210F4A6B6E1268C900D21A8A4203D3AC
:10370000FA2292009B186B662B6D1B7D002B08D054
:103710006B79002B05D1064B022128001B68FEF7B0
:10372000E1FE07B0F0BD20000099FDF78FFBCDE76B
:103730007C000010F7B51F0003680D00DB69040072
:1037400016009847A84204D1012F02D1337823757F
:10375000F7BD63682000ED1A2368DB699847A8422B
:1037600008D37B19019323682000DB6998477B19F4
:10377000834210D220693A003100401901F0CFFB9A
:10378000E6E723682000DB6998473378A84206D132
:10379000237501360135019BAB42F2D1D8E722698E
:1037A0005355F6E7F0B585B0019303680E00DB6969
:1037B000040017009847B04206D1019B012B03D1AA
:1037C000237D3B7005B0F0BD63682000F51A0393BC
:1037D0002368DB699847A84209D3019B20005B1945
:1037E00002932368DB699847029B834212D22169C6
:1037F0003800019A491901F092FBE3E723682000A1
:10380000DB699847A84209D1227D039B9B1BFB18CB
:103810005A550135029BAB42F0D1D3E723695A5D7B
:10382000F3E7F0B589B006000C001D00181E0692E3
:1038300051D04B1E5B190020049399424BD8706DF8
:1038400000280CD0036821009B6898470590706D94
:10385000049903689B689847059B002B1DD1069B24
:10386000039301230593306D21000368049A1B69BB
:103870009847002864D021003000049DFDF7A6F889
:103880000E9B01351B782D1B2A00002B4DD001000B
:10389000039801F044FB01201DE000280BD1270014
:1038A0002B190793069B1B1BDB190393079BBB423A
:1038B00019D11C00D7E70E9A706D12780368002AA0
:1038C0000BD0002200925E6821002B00069AB047C0
:1038D00043425841C0B209B0F0BD1E6821002B0020
:1038E000069AB047F4E7706D390003689B68984703
:1038F00000280ED00E9A706D12780368002A0ED040
:10390000002200925D6839000123039AA84700282D
:1039100001D03C00A7E7002301370593C2E71D68EB
:1039200039000123039AA847F1E7039901F0F7FA58
:103930000123326D1375434B1B6832339361AAE741
:10394000306D21000368DB689847002816D0336D7E
:10395000210030009D68FDF739F80E9B01351B787A
:103960002F1B3A00002B1ED00100039801F0D7FA5C
:10397000039B2C00DB19039300230593306B21007C
:103980000368049A1B699847002817D00E9A049B75
:1039900012780133306B1B1B002A3DD12100039AA2
:1039A000FFF7C8FE77E7039901F0B9FA0123326DFA
:1039B0001375244B1B6832339361D9E7306B03686E
:1039C000DB699847844206D1306B0368DB6998470E
:1039D000049B8342DAD0306B21000368DB68984790
:1039E000002824D0306B85686B1C05931F1B0E9B31
:1039F0001B78002B15D03B002100039AFFF7D2FE65
:103A0000039B059CDB190393049B5D1B049BA34252
:103A100013D3039B069312E72100039AFFF7C2FE1C
:103A200039E73B002100039AFFF784FEE8E7049B97
:103A30005D1C059B2D1B002BE8D06B425D41E8B25D
:103A400049E7C0467C00001030B50F24002585B042
:103A50006C4425700094FFF7E4FE05B030BD30B52E
:103A60000F24012585B06C4425700094FFF7D9FE22
:103A700005B030BD70B50D008621890043580400A3
:103A8000002B0DD1020015301432FF301378665828
:103A9000DB43DBB29E4200D2635001328242F5D159
:103AA0008621A0682269890082186358013A9342EE
:103AB00016D0002B11D1431C852620008022B60091
:103AC0001530A3510021FF30520001F0F5F9A35940
:103AD0000020DB4365192B7570BD01336350EBE7A4
:103AE00004204042F8E7F7B50400009101920E125D
:103AF000FF2E32D883191D7D8527ED43BF00C359A2
:103B0000EDB2AB4226D0FEF7B3FCE551002D0ED14D
:103B100088239B00E35C002B11D031002000FFF7CD
:103B2000A9FF002815D101220D4BE25407E0200027
:103B30008022153029025200FF3001F0F0F96B4667
:103B40001B78019AE318FF335A7501220020054BB8
:103B5000E254FEBD002BF2D1DAE701204042F8E743
:103B60002202000021020000002370B51A00012586
:103B7000154CE06929009140084200D00B43013206
:103B8000082AF7D122005032137000220F4D110085
:103B90002800FFF7A8FF2B7DDB43DBB2181E12D0F5
:103BA00085229200AA580A4E9A4200D01E02FDF7C2
:103BB00013FD50342378707033702800FEF758FCE2
:103BC000C317181AC00F70BD7C0100101C02001032
:103BD00030030010C02170B52048C901FDF7B8FEC0
:103BE00040231F4C6360FFF7BFFF012358400023B1
:103BF000C0B2800160601C001A4A01335460146036
:103C00000832082BF9D1C0211748C901FDF7A0FEE1
:103C10000422164B1A61164B1C611C611C611C614D
:103C20001C611C611C611C6100241248036E9C42D3
:103C30000DD3114D03212800104CFEF753FC002337
:103C400008340121E06F2B71FDF7CBFD70BD210021
:103C500000226030FDF7D8FC0134E6E7468201001F
:103C6000FC000250500100106242350E000003506B
:103C7000000002507C010010D80000107C000010F1
:103C800010B5012901D1FFF76FFF10BDF7B50E0088
:103C900017001D0000240190AC4201DB0020FEBD96
:103CA0003A5D01983119FFF71EFF0028F7D1013462
:103CB000F2E780B500AF024B1800BD4680BDC0469C
:103CC00000000010F0B50025E14BE24C1D71E24B05
:103CD0000220E3640123E14AE1491372E14B0871D8
:103CE0005360E149E14B85B0996503211174E049C6
:103CF0001A30D160DF4A9D615A61DD611D625D62EB
:103D0000DD621D6301F026F981235B000200836000
:103D1000456000900420D84BFF301360D060D74E30
:103D200001F02AF90300021DFF321D7001339A428F
:103D3000FBD1009B009A9D821861032393619368D5
:103D40002020033B9360D3688025033BD36033007E
:103D50003C33136001F0FEF8C94B6D006836836098
:103D60004560C56006600700280001F005F90022E3
:103D7000030041191A7001338B42FBD138613A7547
:103D8000BA613800FD61FDF755FAFA68011E38691D
:103D900000D155E101F0C3F80025BA4B18203B6073
:103DA0003D75BD6101F0D6F8B74BB84A8360012379
:103DB0005B42C360B64B42600360019005614561A0
:103DC0000820B44E01F0C6F8B34BB04AE365803624
:103DD000B24B426002900660172063662566A566B6
:103DE000E56601F0C9F80200030017321D700133C7
:103DF0009A42FBD16067172001F0BEF80200030071
:103E000000211732197001339A42FBD1A0671720A5
:103E100001F0B2F802000300002617321E700133D1
:103E20009A42FBD19E4BE0676020E36501F092F877
:103E30009C4B5C34C3609C4B846003619B4B06834A
:103E400043610500172001F097F8010003000022EC
:103E500017311A7001338B42FBD103216B7E28642A
:103E600002330B40A868AB76EA76914B6A69296207
:103E70005A600368A9625B6B9847040001F07CF804
:103E800000220300013C002C00DBDCE0714C894B7C
:103E90002200DD67884B88321360220000998C3243
:103EA00011602200029990321160220000219832A4
:103EB00011602200A43211802200A83211607C4AD5
:103EC0006A4E13602300AC331F602300B0331960C7
:103ED0002300B43319602300B83319702300232260
:103EE000BC331A6023002268C0331A602300019A91
:103EF00094331A60714B009A0393714B2860E36509
:103F00002300C4331A602300C8331F602300756583
:103F1000019ACC331A60230020000825029AD0337E
:103F20001A606849684A5C3000F0F2FF674B002273
:103F3000013D1A605A6008339542F8D10823336670
:103F4000634B039F7366FA235B00B366F43BFF3B4E
:103F5000336709337367B3675837331DF566F56701
:103F6000DF67336E9D4200D2CCE0706E1021FDF70A
:103F7000EFFCB16E5748394FFCF768FB039B564D79
:103F800080332B6080230026EE2180225B00EB60D3
:103F9000FF3B2B61ED33AB602B33FF33EE50043B23
:103FA000EE500C33EE524D4B0902EE544C4B520086
:103FB00018000093696000F0B2FF802332005B00BC
:103FC0000099895C002903D1002E00D0ADE00136B4
:103FD00001329A42F4D12B7DFF2B0DD10021280014
:103FE000FFF748FD00280AD101263E4B2800EE5479
:103FF000FEF73EFA394BEE542800FEF739FAFFF788
:1040000058FE394B394AA3600723E360384B2263DB
:104010002361384B384A6361384B6263A3611423D0
:10402000E361374BFF2223620023F861A3636362DD
:10403000E363E3622364BB616364A26405B0F0BD23
:1040400000F03AFFA8E61A70013C01331BE7C046B6
:10405000C80000107C00001000C00040FC010010EF
:10406000D401001000000140004001407C0100101C
:104070000080014098530000B0530000A05300009E
:10408000FF010000DC550000E1100000D800001026
:104090008054000020540000B8540000FFFF0000CE
:1040A000EC5400000002001028C2010029826900BF
:1040B000140000108400001040825C0020550000B5
:1040C0002C55000035080000280000105001001099
:1040D00043826D00140200101C0200102202000036
:1040E00030020010210200002B8338006F0700000F
:1040F00010270000204E0000CC07000008520000EE
:10410000DC050000C0213868C901FDF721FC1F2132
:1041100008CF0A4A19405B069B0F9B009A5804235C
:104120008B400021013599501BE70122044BFF21F0
:10413000EA540098FF3200F0BFFE4CE7A0520000A6
:10414000220200008E2120201A4B89005A588243F7
:104150005A50002271391A62FF39C04601390029CC
:10416000FBD101221A645A6459645A64596C114291
:10417000FCD023228E2180209A6089005A588243E5
:104180005A500122D9681142FCD00321196700213D
:104190005A6759675A670122596F1142FCD09A67D2
:1041A0000549064BD967064B1A60064B1A60064B49
:1041B0001A607047008004405F00010004800440E2
:1041C00094800440988004409C800440002243086E
:1041D0008B4274D303098B425FD3030A8B4244D3CF
:1041E000030B8B4228D3030C8B420DD3FF22090211
:1041F00012BA030C8B4202D31212090265D0030BD0
:104200008B4219D300E0090AC30B8B4201D3CB03C5
:10421000C01A5241830B8B4201D38B03C01A524107
:10422000430B8B4201D34B03C01A5241030B8B4209
:1042300001D30B03C01A5241C30A8B4201D3CB02F4
:10424000C01A5241830A8B4201D38B02C01A5241D9
:10425000430A8B4201D34B02C01A5241030A8B42DC
:1042600001D30B02C01A5241CDD2C3098B4201D3F4
:10427000CB01C01A524183098B4201D38B01C01A72
:10428000524143098B4201D34B01C01A52410309E9
:104290008B4201D30B01C01A5241C3088B4201D398
:1042A000CB00C01A524183088B4201D38B00C01A45
:1042B000524143088B4201D34B00C01A5241411A6C
:1042C00000D20146524110467047FFE701B5002079
:1042D00000F0F0F802BDC0460029F7D076E770473D
:1042E00003460B437FD4002243088B4274D3030957
:1042F0008B425FD3030A8B4244D3030B8B4228D3F8
:10430000030C8B420DD3FF22090212BA030C8B421D
:1043100002D31212090265D0030B8B4219D300E0BD
:10432000090AC30B8B4201D3CB03C01A5241830B42
:104330008B4201D38B03C01A5241430B8B4201D3F2
:104340004B03C01A5241030B8B4201D30B03C01A1B
:104350005241C30A8B4201D3CB02C01A5241830A95
:104360008B4201D38B02C01A5241430A8B4201D3C4
:104370004B02C01A5241030A8B4201D30B02C01AEE
:104380005241CDD2C3098B4201D3CB01C01A524155
:1043900083098B4201D38B01C01A524143098B42DE
:1043A00001D34B01C01A524103098B4201D30B01C7
:1043B000C01A5241C3088B4201D3CB00C01A5241EC
:1043C00083088B4201D38B00C01A524143088B42B1
:1043D00001D34B00C01A5241411A00D2014652414A
:1043E000104670475DE0CA0F00D04942031000D369
:1043F0004042534000229C4603098B422DD3030ABE
:104400008B4212D3FC22890112BA030A8B420CD3CD
:10441000890192118B4208D3890192118B4204D3F6
:1044200089013AD0921100E08909C3098B4201D376
:10443000CB01C01A524183098B4201D38B01C01AB0
:10444000524143098B4201D34B01C01A5241030927
:104450008B4201D30B01C01A5241C3088B4201D3D6
:10446000CB00C01A524183088B4201D38B00C01A83
:104470005241D9D243088B4201D34B00C01A52415A
:10448000411A00D20146634652415B10104601D3E7
:104490004042002B00D54942704763465B1000D371
:1044A000404201B5002000F005F802BD0029F8D017
:1044B00016E770477047C04603B47146490840008C
:1044C0004900095A49008E4403BC7047F8B5CE46EE
:1044D000474643025A0A4E024500C40F480091461F
:1044E0002D0E720A000E944680B59B09C90FB609BD
:1044F0002A1A8C4221D0002A0DDD00282DD1002E51
:1045000000D18DE0511E012A00D11DE1FF2A00D10A
:10451000ABE00A0027E0002A4DD0421B002D00D05E
:10452000CCE0002B00D179E0541E012A00D128E113
:10453000FF2A00D197E02200C5E0002A00DC96E0C7
:1045400000284FD0FF2D00D18FE08021C9040E43F9
:104550001B2A51DD2A00013318E0FF2D00D184E031
:104560008021C9040E4301211B2A08DC31002020D0
:10457000D140821A96403200501E824111435B1A8C
:104580005A0159D407212A00194049D00F21194056
:10459000042900D00433590142D5501CFE2A3AD0D8
:1045A0009B01C0B25B0AC0051843E4072043C0BCAE
:1045B000B946B046F8BDFE2080466F1C380047461D
:1045C000074200D08EE0002D00D0B4E0002B00D1D7
:1045D000DBE0002E6CD0981B450100D4F7E00C0006
:1045E000F31A3DE0002E1BD0511E012A00D182E0BB
:1045F000FF2A3AD00A00ABE731002020D140821ACE
:1046000096403200501E82410A439B185A01B9D588
:104610006A1CFE2D75D1FF200023C4E70C00330077
:10462000DB08FF2A46D1002BF5D08022D2031343AA
:104630005B02FF205B0AB6E79F01BF09380000F06C
:104640001DFC05388740854224DC3B002021421BAD
:104650000132D3408A1A97407A1E974100223B4389
:10466000590793D197E70C003300DB08DBE7002AFA
:1046700014D0421B002D4BD1002BD0D0511E012A4B
:1046800000D19EE0FF2AEFD00A001B2A5FDD020066
:10469000731C7BE7504B2A1A3B40E1E7FE216A1C62
:1046A00011423BD1002D5DD1002B7FD0002E7FD158
:1046B0000022DB085B025B0AD0B274E7FF28D2D08D
:1046C0008024E404234301241B2A07DC1C0020254A
:1046D000D440AA1A93405A1E93411C43331B050031
:1046E0000C004DE79F1B7A0122D4002FA6D1002495
:1046F0000020002357E79B1901250132590100D4FE
:1047000040E70121354819405B0803400B43A7E708
:10471000FF28A9D08021C9040B43B6E7FF2A00D1A6
:1047200079E79B195B08590700D02FE7DB08C1E741
:104730000C00F71A82E7002B2CD1002E93D1802396
:104740000024FF20DB032EE701259B1B18E719003F
:104750002025D140AA1A93405A1E93410B430500CD
:104760009B1953E7002B00D17EE7002E00D17CE798
:104770008022D203914502D3944500D23300DB0856
:1047800053E70C00F31A0135FAE6002EAFD00C0007
:1047900033008DE7002E00D167E78022D2039145D8
:1047A000EDD39445EBD20C003300E8E733007FE70C
:1047B0009B1900225901B9D5074A1340DB08012291
:1047C00078E79B190132013559019AD4DAE6031EC4
:1047D0008DD0DB086EE7C046FFFFFFFBFFFFFF7DCC
:1047E000F0B54F464646D64643025B0A4500C0B583
:1047F00099460F1C2D0EC60F002D00D188E0FF2D0D
:1048000000D18DE08022DB00D2041A4300239146C0
:1048100098469A467F3D7C027B00640A1B0EFF0F80
:10482000002B68D0FF2B21D08022E400D204144357
:1048300042467F3B5B1900215D1C0A2A2EDC7E402C
:104840004246022A23DC013A012A00D9BDE00229AE
:104850006ED001292CD100200022C005F60710439C
:104860003043E0BCBA46B146A846F0BD2B00FF334A
:10487000002C65D0032241461143320001358846A1
:104880007A40FF350A2900DDD8E0160003214046B2
:1048900001228240A620C000024220D05346022BB3
:1048A00046D0032B00D1BBE051464C460129D2D063
:1048B0002B007F33002B70DD620704D00F222240D3
:1048C000042A00D00434220103D5634B1C402B0082
:1048D0008033FE2B2CDCA201520AD8B2BDE7902017
:1048E0008000024227D1B938FF3810426DD03E0017
:1048F000A1468A46D2E7002C41D1012342461A4301
:1049000090462B00424601215D1C0A2A97DDC5E72F
:10491000002B26D104239846033B00259A467AE7CC
:10492000002B18D108239846063BFF259A4672E7CC
:10493000FF20002291E780220026FF20D2038CE78F
:1049400041460222013511438846FF350A29A5DC7C
:1049500002217E4074E70C239846093BFF259A46C6
:1049600059E7180000F08AFA4A46431F76259A4014
:1049700000236D42914698469A462D1A4BE7200037
:1049800000F07CFA4246431F9C402B1A763B0021E4
:104990005D1C0A2A00DC52E780E70122D31A1B2B98
:1049A00000DD58E79E352200AC40DA40631E9C4192
:1049B0002243530704D00F231340042B00D00432AA
:1049C000530137D50120002247E7210C4A46240431
:1049D000240C2700100C1204120C44435743484384
:1049E00051433A0C09195218944203D980214902C3
:1049F0008C4660443F0411043F0CC9198C01671EAA
:104A0000BC41120C890E12180C439201144312017E
:104A10000ED5012362081C40144349E73E00A1461D
:104A200080224B46D2031A435202FF20520A14E757
:104A30001D003DE792010020520A0EE70F29EDD13B
:104A400080224B46D2031342EAD01442E8D13E0002
:104A5000FF20224301E7C046FFFFFFF7F8B54746B6
:104A6000CE464E0243024500720AC40F480080B58C
:104A700094465F0A2D0E9B09000EC90FB609FF2848
:104A800024D0012251402A1A8C420FD0002A00DC87
:104A90006AE1002835D1002E00D1A2E0511E012A82
:104AA00000D124E1FF2A21D00A002FE0002A00DCF7
:104AB00067E100285ED0FF2D18D08021C9040E4385
:104AC0001B2A00DC76E02A00013332E02A00FF3A9C
:104AD0009146002E42D08C4255D04A46002A00D141
:104AE0009CE0002D00D177E00C003300DB08002BA8
:104AF00000D16EE08022D20313435B02FF205B0AE9
:104B000024E0FF2DF2D08021C9040E4301211B2A8D
:104B100008DC31002020D140821A96403200501E1D
:104B2000824111435B1A5A0160D407212A001940BF
:104B300057D00F211940042900D00433590150D512
:104B4000501CFE2A45D09B01C0B25B0AC005184329
:104B5000E4072043C0BCB946B046F8BD012251402D
:104B60008C42BAD14A46002A10D0002D00D198E0DC
:104B70000023BBE7002E34D0511E012A6ED0FF2A3D
:104B8000B4D00A009CE7002A00D088E0FE206A1C0E
:104B9000104200D092E0002D00D0A4E0002B00D104
:104BA000CBE0002E00D0CAE00022DB085B025B0AEB
:104BB000D0B2CBE731002020D140821A964032009B
:104BC000501E82410A439B185A01AED56A1CFE2D25
:104BD0004AD1FF200023B9E7FF22002B4BD10C0064
:104BE0003300DB08FF2A00D181E7DFE79F01BF091F
:104BF000380000F043F905388740854221DC3B004E
:104C00002021421B0132D3408A1A97407A1E9741D5
:104C100000223B43590700D08BE78FE7FE206A1C38
:104C2000104212D1002D52D1002B7CD0002EBBD0CF
:104C30009A1B500100D48BE001240022F31A0C408F
:104C4000E8E7564B2A1A3B40E4E79F1B7A0146D41B
:104C5000002FCDD100240020002377E79B190125E8
:104C60000132590100D460E701214D4819405B0829
:104C700003400B43CEE7571E012A5AD00C00FF2AEF
:104C800033D001221B2F07DC2021C91B1A008B40C7
:104C9000FA40591E8B411A430500B31A43E7002D11
:104CA00023D1FF22002B9BD0511E012AD6D0FF2AF0
:104CB0001BD01B292CDD0200731C3AE7FF2A88D089
:104CC0009B195B08590700D033E7DB086EE7002B20
:104CD00010D1002E43D0012433000C4006E70124FC
:104CE000F71A0C4084E7002B04D13300FEE60125BF
:104CF0009B1B18E7002E00D1F8E68022D2039742D2
:104D000004D3944502D2012433000C40DB08F1E6C1
:104D10001A002025CA40691A8B40591E8B41134343
:104D200005009B1950E7002E94D0012433000C405D
:104D30003AE70C000125F31AF5E6330034E79B1936
:104D400000225901C1D5154A1340DB0801222DE785
:104D5000002A00D17EE713000022DB0826E780232B
:104D60000024FF20DB03F1E6002A00D156E7471BB1
:104D70003A00002D00D130E78022D2040C0013430A
:104D80007FE7002A00D101E7411B002D01D10A0075
:104D900088E78022D20413438BE7C046FFFFFFFB66
:104DA000FFFFFF7D41024200C30F490A0020120E9F
:104DB0007E2A03DD9D2A02DD094A9818704780206B
:104DC00000040143952A07DC9620821AD14048420C
:104DD000002BF3D10800F1E7963A9140F7E7C0467F
:104DE000FFFFFF7F70B5002813D0C317C5185D40C3
:104DF000C40F280000F042F89E2301001B1A962BD6
:104E00000FDC082834D008398D406D026D0AD8B205
:104E100002E0002400200025C0052843E4072043C9
:104E200070BD992B16DC421F052800D095402A0042
:104E3000114802406E0709D00F263540042D05D0D9
:104E40000432550102D59F2302405B1A9201550A94
:104E5000D8B2E1E70522121A2800D040020008006B
:104E60001B3085402800451EA84102431500DEE79F
:104E70006D0296206D0ACFE7FFFFFFFB1C21012387
:104E80001B04984201D3000C10391B0A984201D32D
:104E9000000A08391B09984201D30009043902A20B
:104EA000105C40187047C046040302020101010172
:104EB000000000000000000003008218934200D1AF
:104EC000704719700133F9E770B500260C4C0D4D91
:104ED000641BA410A64209D1002600F0BDFB0A4CB9
:104EE0000A4D641BA410A64205D170BDB300EB5857
:104EF00098470136EEE7B300EB5898470136F2E7E2
:104F000064560000645600006C56000064560000B1
:104F1000030010B50800190000F00AF810BD0023C6
:104F200010B59A4200D110BDCC5CC4540133F8E7EF
:104F300010B5040004481300002804D00A00022021
:104F4000210000E000BF10BD0000000010B500F01F
:104F500017F810BD10B5041E00D10134200000F078
:104F600041F8002800D010BD00F00EF8002801D153
:104F700000F010F88047F1E710B5FFF7EBFF10BD28
:104F800010B500F039F810BD014B18687047C046E5
:104F900040040010FEE7FFFF06480749091A8B107E
:104FA000C90FC91810B5491003D0044B002B00D00D
:104FB000984710BD7C0000107C000010000000002D
:104FC000054B10B5002B03D00449054800E000BF95
:104FD000FFF7E2FF10BDC0460000000044040010CF
:104FE0007856000010B5034B0100186800F030F847
:104FF00010BDC0462C00001010B5034B010018680E
:1050000000F0CAF810BDC0462C00001070B50F4E5D
:105010000D0031680400002902D100F0A9F83060C9
:105020002900200000F0A4F8431C03D101256D42A3
:10503000280070BD0323C51C9D43A842F8D0291A3F
:10504000200000F095F80130F2D1EFE75C04001089
:10505000F7B50322CB1C9343083305001F000C2B2C
:1050600034D20C27B94233D8280000F071F8374EFB
:1050700033681C00002C2FD139002800FFF7C6FF31
:105080000400431C5FD134680094009B002B4AD17C
:10509000002C52D023682800E3180099019300F0F7
:1050A00067F8019B834248D123682800FF1A390022
:1050B000FFF7ACFF013040D02368DB192360336871
:1050C0005A68002A33D1009B336019E0002BC9DAFB
:1050D0000C232B600020FEBD2168C91B20D40B29A6
:1050E0000AD9E2192760A34204D1326063681160D3
:1050F000536005E05A60F9E76268A3420ED132605E
:10510000280000F02DF8200007220B30231D9043CB
:10511000C21A9842DFD01B1AA350DCE75A60EFE7AF
:1051200023006468A6E7009C63680093ADE71A005B
:105130005B68A342FBD10023DAE70C2328002B6035
:1051400000F00EF8C6E70760DAE7C046600400101A
:1051500010B5024800F01EF810BDC04664040010EF
:1051600010B5024800F017F810BDC04664040010E6
:10517000002370B5064D040008002B6000F056F8BF
:10518000431C03D12B68002B00D0236070BDC046A8
:10519000680400107047704770B505000C1E10D0F1
:1051A000043C2368002B00DAE4182800FFF7D0FF46
:1051B0001D4A1368002B05D1636014602800FFF7B7
:1051C000CFFF70BDA34208D9206821188B42F3D1CC
:1051D00019685B6809182160EEE71A005B68002B0C
:1051E00001D0A342F9D911685018A0420BD1206810
:1051F0000918501811608342E0D118685B684118A3
:1052000011605360DAE7A04202D90C232B60D5E786
:10521000206821188B4203D119685B680918216046
:1052200063605460CAE7C0466004001070B50D4D5D
:1052300004002B68002B01D10B4B2B6003232E683D
:1052400003349C433419200000F010F8002802D1E8
:105250002C60300070BD00F015F801260C2376425A
:105260000360F6E76C0400107004001003000448AB
:10527000002803D000228342524110007047C046EC
:1052800000000000014B18687047C0462C00001059
:105290004243553100010102030406080A0E0E00C4
:1052A00000000050000001500000025000000350B8
:1052B0000300040007000B000C000D001300140095
:1052C000180019001A001D001E001F0020002400F5
:1052D0002500280029002A0005000E001B002600DA
:1052E00002000A001700230010001100000008004F
:1052F0000900150016001C002100220027002B00C9
:105300000F0012000000000000000000000000007C
:1053100042426500070205004A02000049C201003E
:1053200002C23A0008023300094233004B823B00BC
:1053300082000000040100000802000010040000C8
:105340002008000040100000802000000041000004
:1053500000820000000401000008020000100400A8
:1053600000200800004010000080200000004100E4
:1053700042426500070205004A02000049C20100DE
:1053800002C23A0008023300094233004B823B005C
:1053900000000000000000007D1A00003708000037
:1053A000511600003129000000000000000000003C
:1053B000B3100000BD100000D31000004510000025
:1053C0005910000000000000000000000000000074
:1053D000000000000000000000000000B31000000A
:1053E000BD100000D310000045100000591000004F
:1053F000EB080000F1080000F7080000FB080000BF
:105400000000000000000000731000007D1000008C
:10541000931000004510000059100000000000002B
:10542000000000000000000000000000000000007C
:10543000000000000000000000000000000000006C
:10544000000000000000000000000000000000005C
:10545000000000000000000000000000000000004C
:10546000000000000000000000000000000000003C
:10547000000000000000000000000000000000002C
:105480002D0D00009B0C0000550D0000E50E0000E6
:10549000D90C0000FD0C000000000000000000001E
:1054A000F11200002713000035130000491300001B
:1054B00000000000000000000000000000000000EC
:1054C000E73000003F0900005F0D00000000000011
:1054D0000000000043090000000000000000000080
:1054E0003910000000000000000000000000000073
:1054F00000000000813100003F090000892E0000FB
:1055000000000000000000004709000075090000CD
:105510008B1700003910000000000000491800003F
:1055200071090000000000000000000035080000C4
:10553000B13000006D3500007D0900009D2F000096
:10554000FD090000AB0D00001B0A000075090000FA
:105550008B170000391000000D0900002D260000F7
:105560007109000009090000FF080000493A000025
:105570005F3A00006D30000041C274000302000079
:10558000448259004582010065C2810064C27900ED
:105590002A83300C0B4110060000000000000000C0
:1055A0008D3C00003D26000075120000A112000095
:1055B0000000000000000000813C0000000000002E
:1055C00000000000D53B00007D30000055070000C2
:1055D000D50700000000000000000000731000006C
:1055E0007D100000931000004510000059100000CD
:1055F00051080000550800005B0800006108000029
:10560000670800006D0800007308000079080000BA
:105610007F080000850800008B080000910800004A
:10562000970800009D080000A3080000A9080000DA
:10563000AF080000B5080000BB080000C10800006A
:10564000C7080000D3080000D9080000CD080000FA
:10565000DF080000E5080000F8B5C046F8BC08BC4B
:105660009E467047C53C0000C14F0000F8B5C046DB
:08567000F8BC08BC9E4670471F
:105678002141565021403A4F30382E3130202035C4
:105688002E31320040825C0029826900C455000036
:10569800B8550000006CDC0200000000300000106B
:1056A800000000000000000068000000D0000000BA
:1056B80000000000000000000000000000000000E2
:1056C80000000000000000000000000000000000D2
:1056D80000000000000000000000000000000000C2
:0C56E800000000000000000000000000B6
:04000003000000DD1C
:00000001FF
