:1000000000200010DD000000D7000000692800007B
:1000100000000000000000000000000021DFFFEFF2
:10002000000000000000000000000000D9000000F7
:100030000000000000000000DB00000019150000B7
:10004000D5000000D5000000D5000000D50000005C
:10005000D5000000D5000000D5000000D50000004C
:10006000D5000000D5000000D5000000D50000003C
:10007000D5000000D5000000D5000000D50000002C
:10008000D5000000E9260000D5000000D5000000E2
:10009000D5000000D50000000000000000000000B6
:1000A00095080000D5000000D50000000000000009
:1000B000D5000000D5000000D5000000D5000000EC
:1000C000EC440000000000107400000074000010F8
:1000D000CC010000FEE7FEE7FEE7FEE7F0B5B24B1D
:1000E000B2498BB08B4200D239E10020B0498B423B
:1000F00000D242E103F074FC03F03EFEFA21AD4B66
:1001000089001868029303F0AFFC01F04FFCC02196
:10011000A948C90101F086FCC021A848C90101F025
:1001200081FC0022A64DA74B28005A60A649083240
:10013000A64CA74F01F00CFDA64B0421A648A74AE8
:100140000093012302F072FD2100082228005031A3
:1001500001F0FEFCFA20400002F0F0FA8E2110209F
:100160009F4B89005A589F4C82435A5080229E4987
:100170009201C86F0A250243CA67996F029B1868EB
:1001800003F072FC994903F06FFCC02101380002B2
:1001900020608901964801F045FCFF2223689343C3
:1001A0002360636A2268934B13432360636A002BC6
:1001B000FCDA2268904900260A4022608022D2059B
:1001C000134201D11B049E0D0A20013D02F0B6FA34
:1001D000002DE2D180218648490101F023FCFA2458
:1001E0001421300003F0C6FC640061430191019BBF
:1001F000824EAB4200D9CBE00024F8213462009E4D
:10020000FF31C836306803681B689847FB210578C2
:1002100030684900036826001B68984703220121C3
:10022000944603782D021D43019408AB2800620018
:10023000D040020060460240022A00D003E30A00D8
:10024000A240019819701043019001340133082C29
:10025000ECD1002408ABE25C009D013ACC3553425E
:100260005A41210000232868013400F037FE082C91
:10027000F0D1002321001A00286800F02FFE210091
:1002800007222868013400F0FBFD0C2CF1D100247A
:10029000009B2100CC33009E186800F006FE20B2BF
:1002A000013401F073F94C36082CF1D1F921009B8F
:1002B0004900C833186803681B689847E02105782F
:1002C000C9014F4801F0AEFB300001F013F9029B69
:1002D0004C49186803F0C8FB009B0138DE6C2022F3
:1002E0000221F060300001F0A3FA16233362726F2E
:1002F000123B1343032102223000736701F098FA86
:10030000552301223800736273681421134373600C
:10031000303000F0ADFA019B019AFB61FF2353409E
:100320003B620A233A1DD3673A000832D3673B0089
:1003300000206C33BC617D62FB6402F057FA0794C5
:10034000244B254C0093DB6D20009B6898472000D0
:1003500000F01CFC002800D08BE030BFF0E700224A
:100360001D685F689868BE18AC18904201D80C33BD
:10037000B8E6246804323460F5E700221E685C6841
:10038000B518944201D80833B1E628600432F7E783
:10039000200002F0D3F9336AF5355A425341DB00AD
:1003A0003362FF3523E7C046C0000000CC000000E8
:1003B000D40000001C0000104682010063823D0052
:1003C00088010010FC00025000420000D0410000F3
:1003D0007401001074000010D000001060200000B4
:1003E0000080044000C0014004800440009F2400BD
:1003F0002483300020000001FFFFFFF800000350BD
:100400006242350EA08601003100200002F050FA51
:10041000D54BE2009B185A6D002A1BD19B6D002B17
:1004200018D10132A240EB6A1340002E51D0002BAC
:1004300002D1EB691343EB61009F2100CC37386890
:1004400000F033FD864205D00323320021003868D6
:1004500000F044FD20B201F099F80122AB699A4006
:100460002B6A013A1340EA699A4202D0642002F0F2
:10047000BDF9009BCC331D682B6828005B69984749
:10048000061E30D02B6828001B6998470178002988
:1004900029D07F2300249C466C6101206308079AC1
:1004A000F718F35C1A40044202D01A0060468243F7
:1004B000601C002A12D093433B70009B6861CC33D0
:1004C0002100186800F0F1FCA84D0600072CC1D8E7
:1004D0009AE7002BB0D1EB699343ACE784B2A14219
:1004E000DBD801236B61A24CA04D200000F0B0F9D5
:1004F000002803D12368002B00D07BE12B002A00C9
:100500006C339B7CAF6F8C32012014680193012205
:100510003B41184013420DD00121BB001B591E3234
:100520001A405B0691409B0F924A9B009B58002209
:100530008900CA5003228F4B04269C46296F6C35D4
:100540004B1113401C3211408E4061469B005B589A
:1005500029689E190091E97C33680291002B35D0FF
:100560000121BB001B5901251A409140029A5B11E1
:100570003A418C002A4200D12DE17F4A127C501E64
:10058000824152420A4003210B4061469B00CB58F6
:100590001A517A4A537C117C194200D125E18025F9
:1005A000AD003D438B4338E09F420ED09900605828
:1005B0000125010011408D402900032540112840EC
:1005C0006546800028588D002950013300998B42E0
:1005D000EAD1052002F090F8336801200593664BBC
:1005E0001B7C0693009B9B00E3180493614B0393D1
:1005F00003239C46049BA34200D0C7E05F490598B3
:100600004B7C5A4A097C0028C3D13D00194202D1D3
:1006100080256D003D436C320B435374534B0137BF
:100620001A0018006C329F67117C883049001174E1
:1006300000998F4200D0DBE00021996701311174ED
:100640000833D96F00F01EF94D484B4C00F000F90B
:10065000002802D16369002B1ED1444B0021DA6EC1
:1006600002921A006C32D27C8C331B680092227C7E
:1006700001931300581E83415B4201249C46029B58
:10068000994200D0B9E001233B485A40374B0274ED
:10069000596F143000F0F6F8344C334F6B1C1DD0FA
:1006A000FF222B00802193431BB249008B4215D1BE
:1006B00015400022EB00FB185A659A650123AB40F8
:1006C000E26A134201D09A43E262E16AE2691940A8
:1006D0001A4200D1A8E0002900D1ABE02000303060
:1006E00000F0B6F8002803D01622264BDB6C1A6205
:1006F00000255437381D00F0ABF80090380000F0AA
:10070000A7F8009B0600002B01D100281AD0012277
:10071000AA40E36A1340002E00D18EE0002B02D1E4
:10072000E3691343E361290017480323320000689B
:100730000C3100F0D3FB2800310002F0B9F828B2E8
:1007400000F024FF01350837082DD3D10122A36919
:100750009A40236A013A1340E2699A4200D1FCE5CB
:10076000642002F043F8F8E5F40000107401001072
:10077000FC01001050410000F4010010E0010010E5
:100780000802001074000010400100101F22012513
:1007900023681A409540029A5B11AE0010420DD0BA
:1007A00006994A1E914162461340039A9B00D35812
:1007B000494229409951400004341BE7019A024004
:1007C000511E8A4161460B4003999B00CB5852420F
:1007D0002A409A51EFE7002800D008000322134076
:1007E00062469B00D3581851D3E601256D4215E7A8
:1007F000043326E701256D4226E7009B1C4210D0FA
:1008000001988B00C3581F20012618408640674678
:1008100030005B0637409B0F0C4E9B009B598000BD
:10082000C750013164002AE7002900D056E713437E
:10083000E36153E79A43E26150E7002B00D072E78F
:10084000E36993436EE71E70FFE4C0465041000029
:10085000030001680020814206D0044A1268521A3F
:10086000824201DB186001307047C04674000010FE
:10087000034B1B68C918002900D101310160704782
:100880007400001010B5002901D1016010BDFFF700
:10089000EFFFFBE7012210B5374CE36861689A402F
:1008A0000A43364904330A609B005858002827DA67
:1008B000430025D40004830D31483249584303F0E6
:1008C000D3F8E36B0133E363E36B012B02D9A36B32
:1008D00018184008A063E36B632B11D9A26B236B3C
:1008E0009A4220DC002262642368216C206C9042D2
:1008F00007D0994205D82368216CA06C904206D19C
:1009000010BD4022204B5A6023682364F8E75B1A2D
:10091000E1698B42F4D3606AA2640028F0D00368D6
:100920001B689847ECE7A26B636B9A42E8DD0023F3
:1009300023642268616C606C984218D0914216D88A
:100940002368626CA16C0129DAD09B1A226A934257
:10095000D6D3A36CFF2B07D00123606AA3640028C1
:1009600002D003685B6898470123A364C8E7064A7E
:10097000536023686364C3E77400001000C0014043
:100980004D0D0000FF030000FC000250704710B541
:100990001C30FFF75DFF002803D01622014BDB6CF3
:1009A0001A6210BD74000010F7B501273B008B40A0
:1009B0000D0000938268036900995A400A40EA409A
:1009C000C16816004B40009904000B40EB40002129
:1009D0009E4301919A425FD08E4208D05522384BF7
:1009E0001431DB6C1C301A62FFF742FF01971F20A5
:1009F0000122636BA9005B5818405B0682409B0F85
:100A0000206A4FD0002E49D0636A13436362A36B00
:100A1000002B19D01A68954216D21A6A012752582B
:100A20001F21114052068F40920F264992005558BF
:100A300069469A7C0978B800002E3CD12E508A4332
:100A40009A74DA7C8A43DA74E368009A5340E3606C
:100A5000236A002B02D1636A002B08D055222000A4
:100A6000174B1421DB6C1C301A62FFF701FFA0202A
:100A7000236A154AC0059B001A50636A13499B00FC
:100A80005A500023A26A6362920023621350E26A02
:100A900092005350E362A3620198FEBDE36A1343E0
:100AA000E362B4E7002E02D010432062AFE7A36AEE
:100AB0001343A362ABE70A432F509A74C4E7C046BE
:100AC0007400001050410000FFFF000000000250C1
:100AD0000069704700690130704700690230704753
:100AE00000690330704700690430704700690530C1
:100AF0007047006906307047006907307047006929
:100B00000830704700690930704700690A30704743
:100B100000690B30704700690C30704700690D3078
:100B2000704700690E30704700690F3070470069E8
:100B300010307047006911307047006912307047FB
:100B40000069133070470069143070470069153030
:100B500070470069163070470069173070470069A8
:100B6000193070470069FF30704700696230704784
:100B7000006963307047602070476120704701480A
:100B80007047C046404100001220704770B503799D
:100B9000002B01D1002070BD836EC06E1C7D5D7D79
:100BA00003689B6C9847092300781C40082CF1D1FE
:100BB000012DEFD1FF3843425841C0B2EBE78182AB
:100BC000704700207047E02310B59B0099420DD17B
:100BD0000300012248331A704379FA215A1E9341C7
:100BE0000200493213704C30FFF742FE002010BD66
:100BF000172070470022836A5A60704770B504005E
:100C0000006D0D000368DB6E98470678206D360294
:100C10000368DB6E9847437833439D4211D0206DC3
:100C20000368DB6E98472B0A0370206D0368DB6E48
:100C3000984701234570226D1375034B1B683233AF
:100C40009361A58270BDC0467400001070B50500A8
:100C5000006D0C000368DB689847002805D0286DFC
:100C6000036821001B68984770BD286B210003684A
:100C7000DB6898470028F7D0286BF1E737B51400F8
:100C8000F0220125806B92000A406D4201680095B8
:100C9000CD682100A84701203EBDC023F7B5089CC0
:100CA00005009B00994200D177E00BD880200E0010
:100CB000013BFF3B86439E422DD0803B99421BD097
:100CC0000020FEBD5D4B99427CD05D4B994200D126
:100CD000ABE0E0239B009942F2D1030001224833AC
:100CE0001A704379FA215A1E934102004932137057
:100CF0004C30FFF7BDFDE3E76421D379127A6171CF
:100D00006339A17141390B43E3710023227263728D
:100D1000A3720120D5E70F23D679107A1E40537AAB
:100D20001B020343A0205BBA9BB2019380002B6897
:100D300081421AD022002B6828005B6C01991F00A9
:100D40000A323300B847431E984140420640330000
:100D5000633363710223A3713E333343E371019B19
:100D60001B0A2372019B6372D3E71B6C28001F00D0
:100D7000019933000A32B8470028A1D02B68280017
:100D80009B6B98471F289BD9286B03685B69984722
:100D900003785B0700D493E7CCE7D3799B0600D0B8
:100DA0008EE763236371603BA3713D33E371036896
:100DB0009B6B9847000A20722B6828009B6B984712
:100DC0006072A6E7137A527A072B1FD1FF2A26D129
:100DD0000021FC3A063B64202172002160716138D9
:100DE000A0719E30E0716172A3728A4291D02B0093
:100DF00048331A706B7928005A1E93412A004932F1
:100E000013704C30FA31FFF733FD82E75A1E062A81
:100E100007D802220021012BDDD0110003E00222BD
:100E2000FBE7002202210023D5E7622363715F3BC9
:100E3000A371CF33E371002323726AE781030000BB
:100E4000D1030000C36A002B09D102005F3213787E
:100E50005A300133137040230288134303807047D4
:100E6000036870B59B6804000D0098474378002024
:100E7000052B04D92368290020005B68984770BDC2
:100E8000036870B55B690D0014009847002809D00D
:100E90006B10C2180F21C35CED0704D50B40240171
:100EA0002343137070BD8B43FAE7036870B50500E8
:100EB0005B680E0098472B6804001B68310028000F
:100EC00098470219531E1878A41A1A19002A00DC30
:100ED00070BD013B1A7800021043F6E7F7B50193A5
:100EE000036805001B680E0017009847041E0FD00A
:100EF0002B6831005B6828009847431C08D02018F5
:100F0000031B002B05DC31002800019AFFF7B8FF16
:100F1000F7BD27703F0A0134F2E730B504000D0039
:100F200085B00A220B4901A802F051FF236829006D
:100F30009B682000984743780120052B05DD0F2B87
:100F400005DC01AAD318063B187805B030BD012096
:100F50004042FAE745410000436810B50400186DAF
:100F60000368DB6D98470178081E06D06068036D42
:100F70005B68C91889B2FFF769FE10BD036810B538
:100F80001B6904009847002803D041786068FFF788
:100F90005DFE10BD036810B51B690C009847002862
:100FA00003D0032161430231401810BD10B5040085
:100FB000FFF7F0FF031E0BD05B78017860689B069B
:100FC00003D5036D5B68C91889B2FFF73FFE0300C4
:100FD000180010BD10B5FFF7DDFF013010BD002374
:100FE000421D4371D377821DD377C21DD37701226F
:100FF0005242028102320271034AC3801380034AC3
:10100000C36013807047C046C8000010CA000010BB
:101010000222431D10B5DA770F2381694A791A40FD
:10102000036807325B6A984710BD10B5036B1B7DE0
:10103000DB0710D5C02905D080235B0099420CD076
:10104000002010BD517A137A09021943036849BA86
:10105000DB6889B298470120F3E7431DDA7FD1B2FC
:10106000002AFBD10132DA778369B024D970197173
:10107000E1219A713F321C705971DA71FFF7C8FF94
:10108000E9E770B50500C36B04005A35002B13D097
:101090000022C26380682B88411DCA7782699279D9
:1010A0007F2A09D91B060ED50B23C356022B0ADC57
:1010B0000133C372FFF7ACFF0023E3616362A363F4
:1010C0002B80E36570BD0023C372F5E7F0B585B0F2
:1010D0000393036802911B68040017009847029964
:1010E00006002000FFF7BCFE63685A1DD17FCDB219
:1010F000AC460029FAD10131D1779B69BC22B9B243
:101100001F710F271A700A0ADA70421C174020223A
:1011100052423A435A71039A8027002A00D0403F36
:1011200000281CD01A00013E0832002812DC0022E0
:101130009A7162463A43DA71029822680090D66842
:1011400020008022B0476068FFF762FF029BE360E7
:1011500005B0F0BD355C013815700132E5E7327835
:101160009446E4E7F0B589B0069343680400586BF1
:101170000491036805929B6898476368057801901D
:10118000586B049903681B6898470390002808DB94
:101190006B000793019B5F1C019B079AFB1A9A4205
:1011A00001DA09B0F0BD3B78039A934238D17D78DB
:1011B0000E9B9D4234D0236829009B6820009847ED
:1011C0004022059E0378403E964332D12C3A13408C
:1011D000934225D12368290020001B68984702907C
:1011E00000281DD029002000FFF73AFE002819DD55
:1011F000069AC31DD31872429A5C02998A55013629
:101200008642F8D1236820005B699847002807D000
:101210008022EB0700D4783A6D10435D13434355A9
:101220000237B9E73F22069BDB791340029A13701D
:10123000E8E7059A002AF3D10C3213409342EFD12C
:10124000012329002000049AFFF740FFE8E7F8B5E2
:101250000C00411DCD7F002DFCD140260135CD77FE
:10126000170A8569D2B2344203D0990021430E4354
:10127000F4B2B0232B70503BEF702A716B71AC71DC
:10128000FFF7C6FEF8BD0B4A10B513880400013302
:1012900013804379002B01D000234371812120006A
:1012A000E2880023FFF7D3FF236820009B6A98475A
:1012B00010BDC046C80000100023821D0730D37740
:1012C000C3777047426803000020914203D39B68B4
:1012D0008B424041C0B27047030010B500209142DC
:1012E00006D85C68A14203D39B6893424041C0B2D8
:1012F00010BD43680069C91A40187047426803006E
:10130000891AC2680020013A8A4201D31B69585CDD
:101310007047426810B5891AC2684C1C013A030034
:101320000020944204D81A69535C105D1B021843D4
:1013300010BD43680069C91A40187047426803002D
:10134000891AC2680020013A8A4201D31B69585C9D
:101350007047426810B5891AC2684C1C013A0300F4
:101360000020944204D81A69535C105D1B02184394
:1013700010BD10B5064B002A01D1984710BDBFF330
:101380004F8FBFF36F8F72B6984762B6F6E7C046CD
:10139000F11FFF1F322330B58BB000930309019377
:1013A00005000B090C000122684605A90293FFF70E
:1013B000E0FF059BDBB20593002B0FD1FA213B33F5
:1013C0000093084B890018680195029402F04CFBC9
:1013D0000122039005A96846FFF7CBFF0598C0B22C
:1013E0000BB030BD1C000010F0B504000E0015005D
:1013F0008BB0BFF34F8FBFF36F8F72B63223009362
:10140000C3171B051B0DC318013A82181B13019348
:10141000D3171B051B0D9B181B130022684605A93B
:101420000293FFF7A6FF059FFFB20597002F04D098
:1014300062B60598C0B20BB0F0BD3323FA21009319
:101440000D4B8900186801940296039502F00CFB7D
:101450003A00049005A96846FFF78BFF059A002A19
:10146000E6D13823684605A90093019402960395B6
:10147000FFF77FFFDCE7C0461C00001030B50C4DC5
:101480008BB0A86D002811D13523022400930122CE
:10149000684605A901940294FFF76BFF059B072B93
:1014A00002D00234802CF2D12003A8650BB030BDED
:1014B00074000010F8B50400FFF7E0FF0C4FC519E9
:1014C000FFF7DCFFC7198020E6694001310002F018
:1014D000CBFA013870433818A84201D20020F8BD79
:1014E000E368C318013B1B78FF2BF8D1801BF3E79F
:1014F00000F0FFFF012302790649073293400022E2
:1015000010B5CC6F2343CB670368DA635A619A62E4
:1015100010BDC04604800440024A136801331360C2
:101520007047C04674000010036870B55B680C001B
:1015300098470300021E00D00278012021120333D5
:10154000E4B2824202DA0120404270BD1D788D4231
:1015500002D15D78A542F8D001300233F1E743684B
:1015600010B5D86E03689B6E984710BD436810B5E0
:10157000D86E036804699B6D98470078201810BDE9
:10158000036810B55B689847007810BDF0B505009A
:1015900087B00B2816D80100994B083918680368E2
:1015A0001B68032910D84908D931FF319847012217
:1015B00003782A40920013410F221340013B01930C
:1015C000082B02D907B0F0BD0195002401278D4BEF
:1015D0008B4E0493306861080368D9311B68FF3172
:1015E0009847220003783A409200134105920F2257
:1015F0001340019A013B0393934203D00134042C1E
:10160000E8D1DFE7EE213068FF3103681B689847B7
:1016100003786200134103221A400292032213420C
:101620001DD0029B012B50D0029B022BCAD121005E
:10163000049E0831CC363068FFF737FC029B184215
:1016400000D1B2E03900019B99406F4BDA6A0A4041
:10165000384200D1A3E0002AB4D1DA6973E0F7215F
:101660003068490003681B689847067863002100CA
:101670001E410323049F0831CC3738681E40FFF712
:1016800014FC019904003868FFF70FFC03005A1E90
:101690009341019A5D4DD200DBB20292022E54D1E9
:1016A000621E94412340002B55D0029B039AED18F3
:1016B0000023AB6501339340534AD16A194200D0ED
:1016C00080E7D1690B43D3617CE73068651003681C
:1016D000F035FF3529001B6898470378306803937D
:1016E000036829001B689847F22107783068FF31AA
:1016F00003681B689847057821002541029B083143
:101700001D40049BCC331868FFF7CFFB019B029A66
:10171000029945409A403C4B0D4257D1D96A11423B
:1017200000D14FE705989143023007410320D96269
:101730000740D043012F2BD0022F00D042E71142A7
:1017400000D03FE7D9690A4327E0032E13D0012ECA
:10175000A9D12043A9D1029B039AED1800236B6500
:1017600001339340284AD16A194200D02AE7D1694F
:101770009943D16126E7002C95D1230022000199DD
:101780003868FFF7ABFB029BEB185C659C65E2E7F2
:10179000114200D016E7DA690240DA6112E7002A46
:1017A00000D00FE7DA698A43F7E7083DADB2032DB1
:1017B00000D907E701993068FFF777FB3B00019AF2
:1017C0009340114AD16A0028CED077E70598039953
:1017D000014103200140012909D1D96A114202D1F6
:1017E000D9699143D961D96A0A43DA62EAE60229E2
:1017F000F9D1D96A1142F6D1D9691143F2E7C0464D
:101800003C0100107400001074010010F40000107E
:101810000323594310B589B20624802A00D1043C21
:1018200007228A408C40836A93432343836210BD1E
:10183000072370B503251E004D431340AE40AB4057
:1018400044694900B44323433024250022408D409D
:101850008A404361C36BAB431343C36370BD70B530
:10186000836A9868808A040A4C708870FF2400207C
:1018700085B2AA421BD88C54D963BFF34F8FBFF3F4
:101880006F8F72B6DA7E012A0FD10621D976D96818
:101890000868022141604260997E03008C00183381
:1018A0001B191A600232FFF7C3FF62B670BD0D5CF0
:1018B00001306C40DCE7020070B504005E32BFF31B
:1018C0004F8FBFF36F8F72B6E37E012B09D0062BCB
:1018D0001ED1E36B002B04D01378002B18D1002904
:1018E00016D1E368217E1D6880222800FFF790FF53
:1018F000A67E280031000222FFF79AFFB600064BB1
:101900001835AD192B600023E37662B630BF70BD89
:1019100062B630BFD3E7C046FEFF000010B504003A
:101920000121806A4834FFF7C6FF2378032B08D1D2
:10193000BFF34F8FBFF36F8F72B68023054A5B05ED
:101940001A60BFF34F8F044B044ADA60BFF34F8F26
:10195000FEE7C04655B01F5E00ED00E00400FA054A
:1019600070B50500C368017E1C6881222000FFF766
:101970004FFFAE7E200031000122FFF759FF022306
:101980006360013B6360B600064B1834A6193360F0
:101990006B7E9B00E418044B23600023EB76EB6224
:1019A00070BDC04617110000FFFF00008023013802
:1019B0005B0498420DD2C021064A090650600648D1
:1019C000036A1B021B0A0B43036200239360073365
:1019D0001360704710E000E000ED00E0802070B57B
:1019E0004004FFF7E3FF00F0D7F81F2101220A4B64
:1019F00080241B68094D19408A405B0608499B0FEB
:101A00009B005958E4039000AB6823405E42734149
:101A10005B4213404350F7E71400001010E000E071
:101A200050410000F7B543069B0F0093404BC02781
:101A30009C466246009BFF019B009D581F2303406C
:101A4000019301231E00019CF022A6408024120273
:101A50000A400905090DB6B22402BA4210D12B5929
:101A600033432B51C30507D401231F2244121440D2
:101A7000A3424FD1002331E0012380221143F4E738
:101A8000E027FF01BA4206D12B5933432B51C3053E
:101A900038D40623E9E72F59B7432F518024A401F6
:101AA000A24229D1234A904203D1234B00221A603B
:101AB00004E0224A904203D11F4A136002230DE042
:101AC0001F4A904201D11F4BF0E71F4A904203D0BA
:101AD000C30519D40723C8E71A4A13600C220098DB
:101AE0000B4342430198121852006244128A17486D
:101AF000121892001360F7BDC0240223A401A24271
:101B0000B0D1B2E70623B8E70723B6E70123E5E73C
:101B10000323E3E784131440A342F7D0C414144012
:101B20009C42CBD0001610408342F1D0FFF756FF05
:101B30005041000002C23A00C040044063823D00B0
:101B400025423C00D040044049C201000010011071
:101B5000F8B5050000261F27416302632B6B9E42E8
:101B600000D3F8BDC0210A4AB300D458C9012000EF
:101B7000FFF758FF22006406064BA40FA400E158AB
:101B800004233A409340002201365A50E6E7C0460B
:101B90000042000050410000C02110B5054CC901B1
:101BA0002068FFF73FFF802160684901FFF73AFF97
:101BB00010BDC04614000010F0B507000C00806A8C
:101BC00000218DB0FFF777FEB86D002803D00368C1
:101BD00021001B6898473D6D2B7D002B69D0BFF31A
:101BE0004F8FBFF36F8F72B62800FFF763FC0400BE
:101BF000FFF744FC554BEE69C318802031004001CB
:101C0000019301F031FF01387043019B18188442A1
:101C10003ED1FFF733FC4D4BC418FFF72FFC4B4B65
:101C2000C018844238D13223E6173605360DA6197E
:101C30003613012207A902A8029303960496FFF720
:101C400098FB079BDBB20793002B1BD1FA2134339F
:101C500002933F4B890018680396049601F004FF35
:101C60000122059007A902A8FFF783FB079B002B21
:101C700008D13533012207A902A8029303960496DE
:101C8000FFF777FB079BDBB2002B05D0FFF7A6FE23
:101C9000002CBED0A419C0E700262B69EA689B1867
:101CA000013B1E70EA6896423ED300232B75AB6160
:101CB00062B67C6D002C2BD0264D635D002B0FD0BF
:101CC000A0680100FFF766FB0028DFD18022210019
:101CD000606852001431FFF787FB0028D6D16055A9
:101CE0001D4D635D002B13D08526B600A059010061
:101CF000FFF750FB0028C9D121008022A0591531DF
:101D000000025200FF31FFF76FFB0028BED1605583
:101D1000B86ABFF34F8FBFF36F8F72B6FFF720FE25
:101D200062B601200DB0F0BD8023921BDB009A4209
:101D300000DD1A002969A0198919FFF755FB002851
:101D4000A4D18023DB00F618ACE7C04600F0FFFF0B
:101D50001C000010220200002102000010B5040047
:101D60000121FFF729FF2000FFF7D8FD1021F0B572
:101D7000037EC26899400D0012680400106885B0A7
:101D800005400095014226D09800130015002C3321
:101D90001B181868A37E18359B00EB181E68637E1D
:101DA0009B00ED182B68834215D92369B94D5F0656
:101DB000BF0FBF007F591F252B401B3D9D40EB5996
:101DC000002B02D0116005B0F0BD9368984217D87F
:101DD0001B1A032BF3D9E07E0D2801D900F078FC03
:101DE00001F0B8FF11003400370041008E012B02D2
:101DF0005502F0022E034603F00312044604550474
:101E000001339B19E4E7E368A17E1D6801238B4041
:101E10002A681A4206D10523AB60FF22E3681B68DB
:101E20001A60D0E72B008A0018339B18A6225201B3
:101E30001A6028000322FFF7FBFC0623217EE376CD
:101E40000A338B402A681A42C5D1E6E7009B002B73
:101E5000E3D022000023583223631380FF22E36281
:101E6000013362652365E368A17E1D688B002E0047
:101E70001836F618884B3768032233602800FFF7BE
:101E8000D7FC009B002B00D01CE1636D256B002B61
:101E900035D1236D002B39D10023E3620633E3767D
:101EA00022002100256B5C32583110780B88012DFF
:101EB00038D1002800D1F7E00020107010229343A1
:101EC000E26C0B80824202D0636BCC2B13D0E169B1
:101ED000236A994209DA616AA36A994200DABAE090
:101EE000002A02D0636BCC2B05D0220080235A320B
:101EF00011880B4313802000FFF7C3F818E022007D
:101F00001023583211880B431380C5E7009BE3620E
:101F10000623E376072DC3DD2C22236C1B78934325
:101F2000902B1FD022008023583211880B4313803E
:101F30005A4E22005C321378002B05D02300012179
:101F40005E33197000231370E36881221D68217EBF
:101F50002800FFF75DFCA27E18359200013EA8180C
:101F600006605AE7A06803685B6B9847A84297DB56
:101F7000236C1979DA78090211435B7949BAA268AE
:101F800089B27F2B14D94D424D41506B009BEDB26D
:101F9000002804D003681B689847C343DB0F1D4328
:101FA000A3681B6B1B7D5B0706D5002DC0D003E02B
:101FB000938A009D9942F3D12022206C037813422A
:101FC0000ED06368002B30D1CC22E262226B216CF0
:101FD000934233DB23006260002258331A8015E0FD
:101FE00021680D786B409343EBD1226B013A0133AA
:101FF000934204DAC65CCD5CAE42F8D0E1E793428E
:10200000DFD16368002B10D1CC33E362A368402199
:102010001B6B1A7D012352089343226C12780A40ED
:10202000134310D00023E36282E700232200E3621F
:102030005832118840330B431380E7E7C95C2268AC
:10204000D1540133C2E7E36A002B00D170E70523C6
:10205000134EE3766DE72300200021005A335D30F4
:102060005E31002A0DD0626BC02A01D0002A08D14F
:1020700010221D880B4E2A431A80012303700B7017
:1020800057E704221D882A431A8000230370013376
:102090000B704DE750410000FEFF0000F013000000
:1020A000B3050000A13C0000626BCC2A06D00C2ACC
:1020B00004D0C02A02D0002A00D033E790229343F4
:1020C0000B8035E72B00217E2C3388001B18AA6873
:1020D0001B68934211D8D31A0233AB60CF4B8122D5
:1020E00033602800FFF794FB0423E3760023636347
:1020F000A36401336364E3648FE60132D219EAE733
:102100000120E368A27E1B6890401D682900014001
:10211000054259D0183392009B181B680133A26CFA
:102120001000443098426EDA80266832A26476004D
:10213000A26C606C1700443745009F4255DAB042EC
:1021400048DD656400296CD0636B256BDAB262638D
:10215000002D08D19B0706D0220080235832118819
:102160005B000B431380A06803685B6B9847854254
:1021700050DA236B226C616B581C2063D154636D61
:10218000626B53406365E36C002B05D1210008228C
:102190005831088802430A80226DA17E13402365CE
:1021A0000323E376E3688A001D682B0018339B182D
:1021B000ED2228001A60EC3AFFF73AFB8122280052
:1021C000217EFFF725FB28E6227E2C3392009B1808
:1021D0001B68A4E7676B683238436063E06CA264F5
:1021E000474278416564E064A2E721329A42A8DA66
:1021F000802252009042A4DC200058300688FC3A2D
:10220000324302809DE720000422583005882A438B
:10221000028097E722002023583211880B43138055
:10222000B1E78222D200934200DCF6E522000123CE
:10223000583211880B431380EFE5009B002B04D02C
:102240000023E3620223E376C5E5009B6821A363D4
:10225000E3681D68637E2A009B001832D31819605A
:10226000A17E28008B00D3188A221A60873AFFF7D4
:10227000DFFA81222800217EFFF7CAFA009B009A2C
:10228000236323005A331A800723E376C5E5009BB6
:10229000002BD7D126005E363378002B07D0E269B9
:1022A000236A9A4208DA626AA36A9A4204DA23002D
:1022B0005F331B78032B08D9220080235A32118800
:1022C00020000B431380FEF7DCFEE16B002960D099
:1022D0000F224B7913400833A3633378002B0BD0C4
:1022E00020230A781A4207D09A430A70A26BE16B46
:1022F000013A885C43408B54E36B216A1D782423A8
:102300001D40243D6B1E9D41454B6D421D40A23535
:102310003378FF35002917DC002B35D1E3681868C6
:10232000637E02009B001832D3181D60A17E223507
:102330008B00D3181D600322FFF77AFA22000023D6
:102340005A32236313809FE7A26A002B1ED0D31753
:102350009B1ADB0FE26901329142DFDD626AA16AFA
:1023600001328A42DADA002BD8D023005F331B789F
:10237000032BD3D083203A212A4BFF311B685843CB
:1023800001F0F8FB4D19C9E70023E3E7002AECDC74
:10239000C4E7E36881221D68217E2800FFF738FA30
:1023A000A67E280031000222FFF742FA18351E4BA4
:1023B000B600AE193360637E9B00ED181B4B2B609B
:1023C000012362E7E368A17E186801238B4002685D
:1023D0001A422DD10300227E2C3392009B1802005A
:1023E000657E1832AD0055191B682E6837001E3FF8
:1023F0009F4208D9236B002B02D02000FEF722FD5C
:102400000A4B2B601EE79E4206D980688900013086
:102410002233521828601360082336E7770400003F
:10242000C7FEFFFF74000010FEFF0000FFFF00006A
:1024300008232200E3765A32118818330B431380A5
:10244000E36A002B04D1236BE26B591C2163D35C3C
:102450008021636301234900626B134201D04A402B
:1024600062635B00FF2BF7DD012363640833E376CF
:102470000126E368A17E1D6833002A688B401000A6
:10248000184001901A4278D12B00227E2C33920002
:102490009B181F68022F00D8BFE46821380001F0A4
:1024A00069FB3D2906D82000FEF7CCFC2000FFF791
:1024B00057FAB2E4637E18359B00ED182B68073B92
:1024C000BB4200D8A9E42000FEF7BCFC2300019A1F
:1024D00058331A80FF236365E36A2665E664002BA0
:1024E00031D0E262A37E68210193E3681B681E007D
:1024F0000393019B18369D00751928680238C01B8C
:1025000001F0B2FA636C3A0001300341683AA26408
:10251000626B591E0A400A216364029262635B1077
:10252000002B1FD1683359437B1ECB1803222B602D
:1025300001990398FFF77CF9637E664A9B00F318C4
:102540001A6004237FE6226B013A2263226B9A42CF
:10255000C8DDE26BD15C226CD154626D01334A401C
:102560006265F3E7029A0139134204D0E06C02007D
:1025700050425041E0645B10D2E78023626C9B00C4
:102580009A421FDC8026993B676BFF3B7600626CAA
:10259000500060643A4201D0B2420EDD8026627E75
:1025A00018359200AA18B600B04208DD49488900E3
:1025B0001060013B6D182B602FE46833E7E71800CB
:1025C0002338F4E7E368226B1868A36B050018351D
:1025D0009A4211DAE36A002B0ED18B220733E3769D
:1025E000637E52009B00EB181A603A23FF33A27EF1
:1025F000013B9200AD18DEE70B238022E376217EBB
:10260000FFF706F94523F2E7E3681D68E36A002B4C
:1026100011D00023E3620633E37681222800217E75
:10262000FFF7F6F82C4BA27E18359200013BA81854
:102630000360FFF7F2FB230001225C331A700C23C6
:102640002800E376A17EFFF7F3F823005E331B78C2
:10265000002B07D023005D331B78002B04D0636A66
:10266000013363621D4BDEE7E3690133E361F9E7A0
:102670000D23E376E36881221D68217E2800FFF7A1
:10268000C7F8A37E18359B00ED18154B93E7009B08
:10269000002B00D0D6E5230001225E331A70009A89
:1026A000023B1A70220008235A3211880B43138010
:1026B0000623E376E368A17E18688A0003001833D6
:1026C0009B18084A1A600322FFF7B2F8FFF7A5FB30
:1026D000FFF784F9FFFF0000F0130000B2050000CF
:1026E0009C060000EF13000010B5024B186DFFF7B9
:1026F0003DFB10BD7401001070B50D4C0600A568BF
:102700000120ADB2022E06D90A4B0B49186801F020
:10271000ABF9023E7043002800DC70BDA3689AB29A
:10272000AB1A01D561685B181500C01AF3E7C04603
:1027300010E000E01C00001040420F00144B70B588
:102740001A680400D20704D41B689B0701D4FFF762
:1027500045F9104B5B68DB050ED0FA252D01042CE2
:1027600005D8FA2080006043FFF7C6FF70BD28003F
:10277000FFF7C2FF043CF2E7074B1A68002CF5D0C4
:102780001968914201D130BFFAE71A68013CF5E7B8
:1027900010E000E000ED00E074000010F8B5040067
:1027A0000E00002501276368AB4200D8F8BD2368FE
:1027B000290020009B689847002815D03A006368DC
:1027C0009A40E368013A1340A2689A420CD0142E52
:1027D0000AD91420FFF7B2FF236820005B689847EE
:1027E00030001438FFF7AAFF0135DCE7F7B5012404
:1027F00022001A4D0190AB69EF699A402B6A013AA9
:1028000013409F4221D0F4215F40154BFF311868DF
:10281000002603681B689847037800933C4210D059
:102820000123B340EA691A40009B1C4213D1531E96
:102830009A4131000B4803230068D2B20C31FEF7F5
:102840004DFB01366400082EE8D1280001991430B0
:10285000FFF7A4FFF7BD53425A41EAE774010010A5
:102860003C01001040010010802070B54004FFF7CB
:102870009DF8FFF791F91F2101220A4B80241B6864
:10288000094D19408A405B0608499B0F9B00595827
:10289000A4039000AB6823405E4273415B42134047
:1028A0004350F7E71400001010E000E05041000032
:1028B000F0B504000E0087B007284CD801278740E8
:1028C000574B584DDB6928683B400293564B611CBF
:1028D000049349100368FA311B68FF319847F521CA
:1028E000037828680193036849001B689847EC2126
:1028F000037828683B4003930368FF311B689847BF
:1029000021000378286805930368E3311B68FF31D1
:10291000984721000378286800930368DB311B681F
:10292000FF319847012301781C4202D1019B1B090A
:1029300001930F2301983D4A18408300D218009B51
:10294000156F002B09D100290FD1394BE4001C1958
:1029500000236365A36507B0F0BD039B002B1DD169
:10296000002E10D00029F0D004E0039B002B31D1C1
:10297000002EEAD000222E486943E40003199A652C
:102980005430001907E02A48E400031918000099A0
:102990005E6569435830FDF775FFDCE7002919D102
:1029A000029B002B39D1002ED5D01D4BDA6A3A425A
:1029B00002D1DA693A43DA6104980323CC30012268
:1029C00021000068FEF78AFA00991A4BE00069437B
:1029D000C018E0E7029B002B19D0002EF4D1059B14
:1029E0001F42B8D10E4BDA6A3A4202D1DA69BA43D1
:1029F000DA6104980323CC30002221000068FEF73E
:102A00006DFA00220A4BE4001B199A65A3E7002E19
:102A1000A1D069430848E400B3E7002E9BD1DEE76C
:102A2000740100103C0100107400001050410000BF
:102A3000F40000104C0100104801001010B5040013
:102A4000782101F0DBF9200010BDF7B50700FEF793
:102A5000C6FA0023BC6A6360E363E3616362A36355
:102A6000A365E365E668334B9E4243D1C422FF2051
:102A7000314992008B5883438B503000FEF73AFD6A
:102A80000121637E356899400B006A6F2B4913431F
:102A900001226B676B6813436B60294B186800F069
:102AA000E3FF0138E8602000FEF75AFF0122254BC2
:102AB000AB60637E9A4013001900EA6B11400191EC
:102AC0001342F9D1E0216069C901FEF7ABFF1E494D
:102AD0002069FEF7A7FFFF231F222B6033791033F5
:102AE00013401E3A11009940134B1960019B3A6440
:102AF000FB63F7BD154A164B964206D1C4220E4918
:102B000092008B5813480340B6E71A005C32964295
:102B100005D1C422084992008B580F48F3E764336B
:102B20009E42AAD1C422044992008B581B021B0A60
:102B3000A2E7C046C000001000E100E040420F00E4
:102B40001C000010FFFF000020200000C801001042
:102B500074010010FF00FFFFFFFF00FF10B5838A24
:102B60000400002B03D103680749DB689847200065
:102B7000FFF76BFF230001225C331A70034B1B68C5
:102B800063662323236610BDFFFF0000740000105E
:102B9000F7B5019303680400DB68006D00930368D8
:102BA0001500DB6E0E0098470778206D3F02036822
:102BB000DB6E98474178009B3943200098472E22CE
:102BC000236B00271A75206B03685B699847012205
:102BD0000770236B5A75206D03689B6C9847FF2321
:102BE0000370206D03685B6C98470770206D036865
:102BF0001B6A984733120370206D03685B6A98471D
:102C00000670206D03689B6A98472B120370206D35
:102C10000368DB6A98470570206D03681B6B984753
:102C2000019B0370236D1F759F61F7BD10B50400F4
:102C3000FFF7AEFF2000FFF791FF10BD10B50400B5
:102C4000431DDA7F002AFCD10132DA770F23E169D4
:102C5000A0694A791A40073201F0B9F82000FEF75E
:102C6000D7F910BD70B503790400002B3CD0431D8B
:102C7000DB7F002B38D14379002B35D01C4DC26847
:102C80002B689B1A1B4A934201D9FEF7FCFA637921
:102C9000012B12D1A31DDA7F012A25D1DA7F012A67
:102CA00022D1013262712000DA77FFF7C7FF0023DB
:102CB000A3722B6823612B68E3606379022B13D125
:102CC00022692B689B1A0C4A93420DD90A23E356BA
:102CD0002000022B09DCFFF7B1FFA37A0133A372B6
:102CE0002B6823612B68E36070BDFEF7CCFAFBE72D
:102CF000740000106F170000B70B0000F0B504005F
:102D000085B0FFF7AFFFA36A5A68002A36D0DA6BA6
:102D1000002A33D1DA6A002A30D1226B127D5207A1
:102D20002CD5C0201D685B682A79DBB20293EB7852
:102D300012021A43AB79EE791902800001400E436A
:102D4000F021A02789003140BF00B94208D069DCDA
:102D5000080080278138FF38B84380B2002863D14B
:102D60008EB2002A62D123682A009F6931002000B8
:102D7000029BB847236820001B6A9847E06A002836
:102D800038D0BE49FEF74EFEE26ABD4D53069B0F9A
:102D90009B0058591F231A401B3B93401A58606CE4
:102DA000531E9A41B74B216C1B68824200D182E1CD
:102DB000E3636264236C002B06D1002904D0226BEC
:102DC0007F3B117D4B401375C021E06AC901FEF7BE
:102DD00029FE01201F220100E36A1A409140226B64
:102DE0005B06127D9B0F02409B00EB58013A0A40A4
:102DF0008900CA50A36ADA6B002A11D1DE6A002E5C
:102E00000ED1230048331B78002B09D0250049350B
:102E10002B782000002B00D159E1FEF734FA2E70F8
:102E200005B0F0BD81429BD0B6B29AE7697952BA3B
:102E300092B27F2908D90299236800915F69310015
:102E40002B002000B84795E7A18A914200D091E776
:102E50003C2218009043AA78697812020A4357BAB4
:102E600042B2B9B2002A00DB8FE0802816D0812858
:102E70003AD0DA0765D46279012A00D87AE7E28885
:102E80008A4200D076E708210F2061569B08034054
:102E90008B423DD02000FEF7F6F96BE76579002DF7
:102EA00012D0013D012D00D964E7E3888B4200D1A7
:102EB00060E7754A20001388013313800A0000235D
:102EC0008121FEF7C4F955E7236820009B6A9847E3
:102ED0006C4BE7801B682581E3606379012B00D18F
:102EE00048E70123637145E763792068013B012BC3
:102EF00000D93FE7E3888B4200D03BE70023624ADA
:102F00006371138801331380836A2000984731E787
:102F100000265C4B01311B680140A71D2172E36054
:102F2000E51DFE77EB7FB342DBD0216A4A79024090
:102F30000732E06900F04BFFEB7FDBB2FB77EE7707
:102F4000CBE7FF2B00D115E76279002A00D111E70A
:102F5000082020569B061B0F834200D00AE7E38817
:102F60008B4200D006E70A23E3562000022B92DCB6
:102F7000022A90D1FFF762FEA37A0133A372414B7C
:102F80001A681B682261E360F4E6032B21D8671DF1
:102F9000FB7F002BFCD10C220133FB772878A3693F
:102FA00010405C3A02431A700A0A1971DA702268FA
:102FB0000093D36931009C462A0020006546029B9D
:102FC000A847002803D02000FEF722F8D2E6F877C1
:102FD000D0E6E2888A4200D0CCE66179002900D1AF
:102FE000C8E69B08092118000F27615638400300E6
:102FF00088424BD1C2212000FEF729F9637A0133C0
:103000003B4063721F4B1B68E360A31DDB7F002BFB
:103010002DD12300E769253303930123039A31005F
:10302000137023680097DB692A009C4620006646DF
:10303000029BB04700281ED00C232A781A405C3B24
:1030400013433B70E3881A0A3B710823FA70E26964
:10305000E356974202D00F22013313403C21BA7944
:103060009B008A43134340221343BB7182E6230033
:10307000276A2633D0E7039B18707BE61010000008
:103080005041000074000010C80000100139154DB7
:10309000394088420AD1C2212000FEF7D8F82A0020
:1030A00056321388013313802B686CE7C32120004C
:1030B000FEF7CDF8F8E7E06B002800D17AE61B1A9E
:1030C000322B00D576E600232264E36372E64C30AF
:1030D000FDF7BEFB002800D1A2E6236820001B6B91
:1030E00098479DE674000010F0B50379050087B09D
:1030F000002B00D1D3E0FFF701FEAB6ADA6B002AA8
:1031000000D0CCE0DB6A002B00D0C8E02B005C33A1
:103110001B78002B00D1B5E02B682800DB6A9847AC
:10312000002800D1AEE0614B6A6E1B689B1A2A6EC4
:103130009A4200D99AE0AC6B236820005B699847FB
:103140000190002800D191E0236820001B69984776
:1031500003780293002B00D188E01900206900F069
:10316000F3FD21618BB200936B461B880393039A96
:10317000029B934203D823690133236176E02368DD
:1031800000999B6820009847037804936368586B04
:1031900003689B6898470600037801365B00C318F4
:1031A0000593059BB3421CD97378009A9A421BD1B0
:1031B00063683778586B01370368DB689847874244
:1031C00012D86368586B03685B68984733785B0074
:1031D000C0188278437812021A4352BA92B2002A77
:1031E00004D1009B0133BEE70236DAE74421049B99
:1031F0000B408B42F5D10120039B01995B08CE184F
:10320000C95C039B034200D00909CB439B07E8D16B
:1032100004200B000340014243D06368581DC77F60
:10322000F9B2002FFBD10137C777BC209B6918701A
:103230001A71100AE122D8705A719971D9716068B7
:10324000FDF7E6FE009BE360009B07219A00042344
:103250001A40914033788B43012191400B433370E6
:10326000009B01332361114B1B686B66FA210F4AE7
:103270006B6E1268C900D21A8A4203D3FA229200F6
:103280009B186B662B6D1B7D002B08D06B79002B78
:1032900005D1064B022128001B68FEF78DFC07B004
:1032A000F0BD20000099FDF711FFCDE7740000107C
:1032B000F7B51F0003680D00DB690400160098478E
:1032C000A84204D1012F02D133782375F7BD63687A
:1032D0002000ED1A2368DB699847A84208D37B19C0
:1032E000019323682000DB6998477B19834210D241
:1032F00020693A003100401900F069FDE6E72368D3
:103300002000DB6998473378A84206D1237501363F
:103310000135019BAB42F2D1D8E722695355F6E75C
:10332000F0B585B0019303680E00DB690400170057
:103330009847B04206D1019B012B03D1237D3B70FE
:1033400005B0F0BD63682000F51A03932368DB69BC
:103350009847A84209D3019B20005B190293236878
:10336000DB699847029B834212D221693800019A97
:10337000491900F02CFDE3E723682000DB6998473A
:10338000A84209D1227D039B9B1BFB185A5501358E
:10339000029BAB42F0D1D3E723695A5DF3E7F0B566
:1033A00089B006000C001D00181E069251D04B1E5D
:1033B0005B190020049399424BD8706D00280CD003
:1033C000036821009B6898470590706D0499036815
:1033D0009B689847059B002B1DD1069B03930123F7
:1033E0000593306D21000368049A1B6998470028F3
:1033F00064D021003000049DFDF728FC0E9B0135B0
:103400001B782D1B2A00002B4DD00100039800F0E3
:10341000DEFC01201DE000280BD127002B190793AB
:10342000069B1B1BDB190393079BBB4219D11C0096
:10343000D7E70E9A706D12780368002A0BD000222D
:1034400000925E6821002B00069AB0474342584123
:10345000C0B209B0F0BD1E6821002B00069AB0472B
:10346000F4E7706D390003689B68984700280ED018
:103470000E9A706D12780368002A0ED00022009216
:103480005D6839000123039AA847002801D03C0059
:10349000A7E7002301370593C2E71D683900012320
:1034A000039AA847F1E7039900F091FC0123326DDC
:1034B0001375434B1B6832339361AAE7306D2100CB
:1034C0000368DB689847002816D0336D2100300070
:1034D0009D68FDF7BBFB0E9B01351B782F1B3A0047
:1034E000002B1ED00100039800F071FC039B2C0000
:1034F000DB19039300230593306B21000368049AC2
:103500001B699847002817D00E9A049B1278013344
:10351000306B1B1B002A3DD12100039AFFF7C8FE28
:1035200077E7039900F053FC0123326D1375244BA8
:103530001B6832339361D9E7306B0368DB699847C6
:10354000844206D1306B0368DB699847049B834251
:10355000DAD0306B21000368DB689847002824D05C
:10356000306B85686B1C05931F1B0E9B1B78002B13
:1035700015D03B002100039AFFF7D2FE039B059C68
:10358000DB190393049B5D1B049BA34213D3039B92
:10359000069312E72100039AFFF7C2FE39E73B00CA
:1035A0002100039AFFF784FEE8E7049B5D1C059B5E
:1035B0002D1B002BE8D06B425D41E8B249E7C046C5
:1035C0007400001030B50F24002585B06C442570C0
:1035D0000094FFF7E4FE05B030BD30B50F2401259F
:1035E00085B06C4425700094FFF7D9FE05B030BD5E
:1035F00080B500AF014B1800BD4680BD0000001033
:10360000F0B500250121CE4BCE4ACF4C1D71CF4BDA
:103610001171E364CE4ACF4B49185A651A005C32E7
:103620001171CD4A0131DA651A0064321171CB4A49
:1036300085B05A66CA4A1C205A619D61DD611D62CF
:103640005D62DD621D6300F0DDFB81235B00020033
:103650008360456000900420C24BFF301360D0604F
:10366000C14F00F0E1FB0300021DFF321D7001336A
:103670009342FBD1009B009A9D82186103239361C2
:1036800093682020033B9360D3688025033BD3607D
:103690003B003C33136000F0B5FBB44B6D0083601E
:1036A0003B00683303604560C5600600280000F0F9
:1036B000BBFB0022030041191A7001338B42FBD17E
:1036C00030613275B2613000F561FDF7F3FEF268EA
:1036D000011E306900D119E100F079FB0025A44BEF
:1036E000182033603575B56100F08CFBA14B2700C5
:1036F000836001235B42C3609F4B5C370360019092
:10370000476005614561082000F07CFB9B4B0290FF
:10371000803303609A4B4760E3659A4B17206366DA
:103720002566A566E56600F07FFB02000300173200
:103730001D7001339A42FBD16067172000F074FBC3
:103740000200030000211732197001339342FBD1AC
:10375000A067172000F068FB020003000027173263
:103760001F7001339A42FBD1874BE0676020E3650D
:1037700000F048FB734B5C34C360844B846003618E
:10378000834B078343610500172000F04DFB0100C8
:103790000300002217311A7001338B42FBD1032141
:1037A0006B7E286402330B40A868AB76EA76794BCF
:1037B0006A6929625A600368A9625B6B98470400D2
:1037C00000F032FB00220300013C002C00DBA0E0F3
:1037D0005D4C714B2200DD67704B88321360220014
:1037E00000998C32116022000299903211602200FF
:1037F0000021983211602200A43211802200A832E8
:103800001160644A534F13602300AC331E602300E1
:10381000B03319602300B43319602300B833197032
:1038200023002322BC331A6023002268C0331A60AD
:103830002300019A94331A60594B009A0393594B11
:103840002860E3652300C4331A602300C8331E6078
:1038500023003D65019ACC331A602300200008251F
:10386000029AD0331A605049504A5C3000F0A8FAEE
:103870004F4B0022013D1A605A6008339542F8D13F
:103880000823FB664B4B3A1D3B67FA235B007B67C3
:10389000F43BFF3BFB670933D3673A000832D36739
:1038A0003B0088331D603B00039E8C335836BD6758
:1038B0001E60FB6E9D4230D3386F1021FEF7B2F8C8
:1038C000796F3D483D4DFCF7DDFFFFF791FE3C4B26
:1038D0003C4AA3600723E3603B4B226323613B4BDD
:1038E0003B4A63613B4B6263A3611423E3613A4B40
:1038F000FF2223620023A861A3636362E363E362A0
:1039000023646B616364A26405B0F0BD00F02CFA1F
:10391000E4E61A70013C013357E7C0213068C90161
:10392000FEF780F81F2108CE2C4A19405B069B0F3A
:103930009B009A5804238B40002101359950B8E729
:10394000C0000010C80100107400001000C000404A
:10395000000001407401001000400140008001405F
:10396000484200006042000050420000FF01000099
:1039700050440000E110000030430000D04200003D
:1039800068430000FFFF00009C43000028C20100C4
:1039900029826900140000107C00001040825C0045
:1039A000D0430000DC4300008D090000200000101F
:1039B0004801001043826D0008020010F40100105D
:1039C0002B8338006F07000010270000204E0000F6
:1039D000CC07000008520000DC0500005041000048
:1039E0008E2120201A4B89005A5882435A500022B7
:1039F00071391A62FF39C04601390029FBD1012211
:103A00001A645A6459645A64596C1142FCD02322D6
:103A10008E2180209A6089005A5882435A50012290
:103A2000D9681142FCD00321196700215A675967F0
:103A30005A670122596F1142FCD09A670549064B1B
:103A4000D967064B1A60064B1A60064B1A6070471E
:103A5000008004405F000100048004409480044022
:103A6000988004409C800440002243088B4274D319
:103A700003098B425FD3030A8B4244D3030B8B426F
:103A800028D3030C8B420DD3FF22090212BA030C78
:103A90008B4202D31212090265D0030B8B4219D359
:103AA00000E0090AC30B8B4201D3CB03C01A524179
:103AB000830B8B4201D38B03C01A5241430B8B42C1
:103AC00001D34B03C01A5241030B8B4201D30B03AA
:103AD000C01A5241C30A8B4201D3CB02C01A5241D1
:103AE000830A8B4201D38B02C01A5241430A8B4294
:103AF00001D34B02C01A5241030A8B4201D30B027D
:103B0000C01A5241CDD2C3098B4201D3CB01C01A96
:103B1000524183098B4201D38B01C01A52414309A0
:103B20008B4201D34B01C01A524103098B4201D38E
:103B30000B01C01A5241C3088B4201D3CB00C01AFB
:103B4000524183088B4201D38B00C01A5241430873
:103B50008B4201D34B00C01A5241411A00D2014698
:103B6000524110467047FFE701B5002000F0F0F821
:103B700002BDC0460029F7D076E7704703460B43E5
:103B80007FD4002243088B4274D303098B425FD356
:103B9000030A8B4244D3030B8B4228D3030C8B4282
:103BA0000DD3FF22090212BA030C8B4202D3121268
:103BB000090265D0030B8B4219D300E0090AC30B3D
:103BC0008B4201D3CB03C01A5241830B8B4201D3EA
:103BD0008B03C01A5241430B8B4201D34B03C01AD3
:103BE0005241030B8B4201D30B03C01A5241C30A4B
:103BF0008B4201D3CB02C01A5241830A8B4201D3BC
:103C00008B02C01A5241430A8B4201D34B02C01AA5
:103C10005241030A8B4201D30B02C01A5241CDD24A
:103C2000C3098B4201D3CB01C01A524183098B4295
:103C300001D38B01C01A524143098B4201D34B017E
:103C4000C01A524103098B4201D30B01C01A5241E1
:103C5000C3088B4201D3CB00C01A524183088B4268
:103C600001D38B00C01A524143088B4201D34B0051
:103C7000C01A5241411A00D20146524110467047C3
:103C80005DE0CA0F00D04942031000D340425340C8
:103C900000229C4603098B422DD3030A8B4212D388
:103CA000FC22890112BA030A8B420CD389019211BA
:103CB0008B4208D3890192118B4204D389013AD0F7
:103CC000921100E08909C3098B4201D3CB01C01ACC
:103CD000524183098B4201D38B01C01A52414309DF
:103CE0008B4201D34B01C01A524103098B4201D3CD
:103CF0000B01C01A5241C3088B4201D3CB00C01A3A
:103D0000524183088B4201D38B00C01A5241D9D251
:103D100043088B4201D34B00C01A5241411A00D2D2
:103D20000146634652415B10104601D34042002BCE
:103D300000D54942704763465B1000D3404201B54D
:103D4000002000F005F802BD0029F8D016E7704702
:103D50007047C04603B47146490840004900095AFB
:103D600049008E4403BC704703008218934200D17F
:103D7000704719700133F9E770B500260C4C0D4DF2
:103D8000641BA410A64209D1002600F09FFB0A4C38
:103D90000A4D641BA410A64205D170BDB300EB58B8
:103DA00098470136EEE7B300EB5898470136F2E743
:103DB000D8440000D8440000E0440000D84400008B
:103DC000030010B50800190000F00AF810BD002328
:103DD00010B59A4200D110BDCC5CC4540133F8E751
:103DE00010B5040004481300002804D00A00022083
:103DF000210000E000BF10BD0000000010B500F081
:103E000017F810BD10B5041E00D10134200000F0D9
:103E100041F8002800D010BD00F00EF8002801D1B4
:103E200000F010F88047F1E710B5FFF7EBFF10BD89
:103E300010B500F039F810BD014B18687047C04646
:103E400010020010FEE7FFFF06480749091A8B1011
:103E5000C90FC91810B5491003D0044B002B00D06E
:103E6000984710BD7400001074000010000000009E
:103E7000054B10B5002B03D00449054800E000BFF6
:103E8000FFF7E2FF10BDC046000000001402001062
:103E9000EC44000010B5034B0100186800F030F846
:103EA00010BDC0462400001010B5034B0100186877
:103EB00000F0CAF810BDC0462400001070B50F4EC7
:103EC0000D0031680400002902D100F0A9F830602B
:103ED0002900200000F0A4F8431C03D101256D4205
:103EE000280070BD0323C51C9D43A842F8D0291AA1
:103EF000200000F095F80130F2D1EFE72C0200101D
:103F0000F7B50322CB1C9343083305001F000C2B8D
:103F100034D20C27B94233D8280000F071F8374E5C
:103F200033681C00002C2FD139002800FFF7C6FF92
:103F30000400431C5FD134680094009B002B4AD1DD
:103F4000002C52D023682800E3180099019300F058
:103F500067F8019B834248D123682800FF1A390083
:103F6000FFF7ACFF013040D02368DB1923603368D2
:103F70005A68002A33D1009B336019E0002BC9DA5C
:103F80000C232B600020FEBD2168C91B20D40B2907
:103F90000AD9E2192760A34204D132606368116034
:103FA000536005E05A60F9E76268A3420ED13260BF
:103FB000280000F02DF8200007220B30231D90432D
:103FC000C21A9842DFD01B1AA350DCE75A60EFE711
:103FD00023006468A6E7009C63680093ADE71A00BD
:103FE0005B68A342FBD10023DAE70C2328002B6097
:103FF00000F00EF8C6E70760DAE7C04630020010AE
:1040000010B5024800F01EF810BDC0463402001082
:1040100010B5024800F017F810BDC0463402001079
:10402000002370B5064D040008002B6000F056F820
:10403000431C03D12B68002B00D0236070BDC04609
:10404000380200107047704770B505000C1E10D084
:10405000043C2368002B00DAE4182800FFF7D0FFA7
:104060001D4A1368002B05D1636014602800FFF718
:10407000CFFF70BDA34208D9206821188B42F3D12D
:1040800019685B6809182160EEE71A005B68002B6D
:1040900001D0A342F9D911685018A0420BD1206871
:1040A0000918501811608342E0D118685B68411804
:1040B00011605360DAE7A04202D90C232B60D5E7E8
:1040C000206821188B4203D119685B6809182160A8
:1040D00063605460CAE7C0463002001070B50D4DF1
:1040E00004002B68002B01D10B4B2B6003232E689F
:1040F00003349C433419200000F010F8002802D14A
:104100002C60300070BD00F015F801260C237642BB
:104110000360F6E73C020010400200100300044870
:10412000002803D000228342524110007047C0464D
:1041300000000000014B18687047C04624000010C2
:104140004243553100010102030406080A0E0E0025
:104150000000005000000150000002500000035019
:104160000300040007000B000C000D0013001400F6
:10417000180019001A001D001E001F002000240056
:104180002500280029002A0005000E001B0026003B
:1041900002000A00170023001000110000000800B0
:1041A0000900150016001C002100220027002B002A
:1041B0000F001200000000000000000000000000DE
:1041C000820000000401000008020000100400004A
:1041D0002008000040100000802000000041000086
:1041E000008200000004010000080200001004002A
:1041F0000020080000401000008020000000410066
:1042000042426500070205004A02000049C201005F
:1042100002C23A0008023300094233004B823B00DD
:1042200042426500070205004A02000049C201003F
:1042300002C23A0008023300094233004B823B00BD
:104240000000000000000000511B00008F0900006A
:10425000A90900009D2700000000000000000000E8
:10426000331300003D13000053130000C51200007B
:10427000D912000000000000000000000000000053
:1042800000000000000000000000000033130000E8
:104290003D13000053130000C5120000D9120000A6
:1042A0006B0B0000710B0000770B00007B0B000014
:1042B0000000000000000000F3120000FD120000EA
:1042C00013130000C5120000D91200000000000006
:1042D00000000000000000000000000000000000DE
:1042E00000000000000000000000000000000000CE
:1042F00000000000000000000000000000000000BE
:1043000000000000000000000000000000000000AD
:10431000000000000000000000000000000000009D
:10432000000000000000000000000000000000008D
:10433000AD0F00001B0F0000D50F0000651100003D
:10434000590F00007D0F0000000000000000000079
:10435000291500005F1500006D1500008115000093
:10436000000000000000000000000000000000004D
:10437000652C0000BF0B0000DF0F000000000000F4
:1043800000000000C30B000000000000000000005F
:10439000B912000000000000000000000000000052
:1043A00000000000FD2C0000BF0B00004B2A0000A5
:1043B0000000000000000000C70B0000F50B00002B
:1043C0005F180000B9120000000000001D19000075
:1043D000F10B000000000000000000008D0900004B
:1043E0003D2A0000E9300000FD0B00005D2B0000BD
:1043F0007D0C00002B1000009B0C0000F50B000052
:104400005F180000B91200008D0B00005D1D000058
:10441000F10B0000890B00007F0B0000C535000088
:10442000DB3500002D2C000041C2740003020000A7
:10443000448259004582010065C2810064C279004E
:104440002A83300C0B411006000000000000000021
:10445000F3120000FD12000013130000C51200004B
:10446000D9120000D10A0000D50A0000DB0A0000C2
:10447000E10A0000E70A0000ED0A0000F30A00006C
:10448000F90A0000FF0A0000050B00000B0B0000FA
:10449000110B0000170B00001D0B0000230B000088
:1044A000290B00002F0B0000350B00003B0B000018
:1044B000410B0000470B0000530B0000590B00009C
:1044C0004D0B00005F0B0000650B0000F8B5C04607
:1044D000F8BC08BC9E46704701360000713E0000E3
:0C44E000F8B5C046F8BC08BC9E4670470A
:1044EC002141565021403A4F30382E313020203562
:1044FC002E31320040825C0029826900006CDC02A3
:10450C000000000028000010000000000000000067
:10451C0068000000D0000000000000000000000057
:10452C00000000000000000000000000000000007F
:10453C00000000000000000000000000000000006F
:10454C00000000000000000000000000000000005F
:04455C00000000005B
:04000003000000DD1C
:00000001FF
