:100000000020001003010000D5000000D700000010
:1000100000000000000000000000000000000000E0
:10002000000000000000000000000000D9000000F7
:100030000000000000000000DB000000C9260000F6
:10004000DF000000DF000000DF000000DF00000034
:10005000DF000000DF000000DF000000DF00000024
:10006000DF000000DF000000DF000000DF00000014
:10007000DF000000DF000000DF000000DF00000004
:10008000DF000000B9160000E90B0000DF000000EF
:10009000DF000000DF0000000000000000000000A2
:1000A000DF000000DF000000DF00000000000000B3
:1000B000DF000000DF000000DF000000B90B0000DF
:1000C0009C2C00000001001004000000040100103E
:1000D000A0030000FEE7FEE7FEE7FEE7FEE7FEE71F
:1000E000002310B5934203D21C585C500433F9E747
:1000F00010BD00231A008B4202D21A500433FAE7D3
:10010000704710B50D4C0E4B9C4206D2A268616838
:100110002068FFF7E5FF0C34F5E70A4B9C4205D257
:1001200061682068FFF7E5FF0834F6E700F0BCFDE2
:1001300002F0EEFB02F0BAF9FEE7C046C000000094
:10014000CC000000D4000000F8B500240123060014
:100150001F270460037144718471C4718460C021DD
:10016000114BC901E5580434280000F0FBFD2A00BA
:100170006D060E4BAD0FAD00E95804233A40934095
:1001800000225A50202CEAD1094B0A4A1B68190058
:10019000F531FF31002901D0116002E0F633FF3361
:1001A00013603000F8BDC046142B0000182C00006E
:1001B0006404001004010010F7B582680400544E76
:1001C000002A04D033689B1A69D400238360514FFE
:1001D0000121BB68032500931B6A5A1E9341DBB2C1
:1001E000019323684C4A9B009B581F221A40914060
:1001F0005B112B409B00DB590A00890059180868E5
:10020000434243415B4213400B600A2002F0FAF97B
:10021000009B4149186A431E9841236800909A0048
:100220008A581F21012011408840844652111540F0
:10023000AD007959820089180868424242416046FF
:1002400052420240009D01980A60627921798542FC
:1002500007D01800114202D18020400018430A4301
:1002600005E0114205D08020800018438A43627166
:1002700001E0012040420133490023602171082B35
:1002800003D1002323600133237133681A000A323B
:10029000002A01D0A26004E00B33A36001E001203A
:1002A00040421E4A1168002931D033685B1A2ED4AF
:1002B00033681900F531FF31002901D0116002E0E7
:1002C000F633FF33136000210126154B1A78009393
:1002D000E379334214D01F2537000F4BCB581D4014
:1002E000AF403D0003275B113B400A4F9B00DB59A9
:1002F0009C4600239A4200D02B006746AD00EB518C
:1003000004312029E4D101235A40009B1A70FEBD1C
:1003100064040010182C0000142B000004010010CD
:100320000801001070B501252C00134E8C40890087
:1003300089591F260E404906B540890F0F4E890086
:100340008E5900218A4200D02900AD00A95181793F
:10035000002A08D0E4B221438171002B0AD0C2796F
:100360001443C47106E0E343C279DBB21940134081
:100370008171C37170BDC046142B0000182C0000A1
:1003800010B50348FFF7E0FE0022024B1A6010BDD3
:100390000C01001004010010F8B51D4A01230421CE
:1003A0001C4801F0A7F9C0211B48C90100F0DAFC84
:1003B000C02100251F27C901184800F0D3FC184EA2
:1003C000F3681D62C021174BC901EC5804352000A9
:1003D00000F0C8FC220004233A4093400022640647
:1003E000A40FA40031595A50202DEBD100F08EFA01
:1003F00080210D48490100F093FD80220B4B12062D
:100400001A6031680A4A8B581D438D50F8BDC046AA
:1004100060200000840100104682010063823D00DC
:10042000182C0000382B00000542020000E100E01B
:100430001080000010B501F0B5FE002802DB00F0CE
:10044000B3FAF8E700F0F6F9054B1A0034321278E7
:10045000002A03D1DB6C002B00D130BF10BDC04699
:100460001801001013B50A4C64220021200002F08C
:10047000B1FA200001F028F9064B074A2360002357
:100480000649019300930648064B01F089F913BD14
:1004900084010010302C000028C2010080040010EC
:1004A0001801001029826900F0B589B000900C0095
:1004B000072819DD01007B4A083912684B10D31850
:1004C00000920122D8331B780A40920013410F2278
:1004D000134000D1E3E0082B00DDE0E0013B180011
:1004E000009301F013FD040001231E00009A002771
:1004F0009640F24301926B4A079312680692079A5C
:100500007B083A4092000392069AD3180593D83399
:10051000039A1B7813410F221340009A0132934231
:1005200000D0B8E07B000293069BED331D787B0082
:100530001D4103231D403B0008331800049301F0C4
:10054000E5FC0290012D3AD0002D02D0022D77D08B
:10055000A1E0069B7A00EE331B781341032213407F
:10056000022B06D0934207D0012B18D1029B1C43CB
:1005700015E0029B1C4012E0029BBD001C404A4B50
:10058000EB580393002B07D0029B002B04D10822C9
:100590002100009801F002FD434B029A5A51434B4F
:1005A0005A69002C04D0324275D15A68324304E0B3
:1005B000324270D1019A59680A405A606BE004983F
:1005C00001F0A4FC3A4B009A1B68D3405840374BCB
:1005D0005969284217D00E4232D1059A0398EF325A
:1005E0001278024103200240012A04D0022A06D1D7
:1005F0005A68324302E0019A586802405A602B4B15
:10060000314359611CE00E421AD0019A03981140FF
:10061000059A5961EF3212780230024103200240FC
:10062000012A02D0022A06D00AE0314208D1019AFA
:1006300059680A4003E0314202D15A6832435A6095
:10064000049801F063FC0223BA0004000292164DE4
:10065000184207D0079A154B104201D05A690DE095
:100660005A6910E0BA00AA5802921A4211D00098B2
:1006700001F04CFC0D4B5A69002804D0324208D1DD
:100680005A68324304E0324203D1019A59680A4061
:100690005A60BB00EC500137042F00D02FE709B09F
:1006A000F0BDC046682C0000080200101C020010BB
:1006B00018020010002904D0044B1B68C918002937
:1006C00001D0016001E00123036070476404001061
:1006D00010B5032201F062FC10BDFFFFF7B5012544
:1006E0002B00344A8340176804003A00EA3212783B
:1006F0001A4001923A181000E23006782E48DA3299
:1007000040681278009018408446601928413818D3
:10071000F93000782C4200D100090F252840274DE0
:10072000800045590198002807D16346002B29D045
:1007300000293DD1002E3BD01CE0002A10D162469A
:10074000002A24D1002933D01B4A5169194202D111
:1007500000990B43536001212000FFF7B9FF09E026
:100760006046002804D1002922D02900514303E02B
:1007700000290ED0290071431148A4000019FFF789
:1007800099FF15E0002913D0002A11D0EDE70029C8
:100790000ED1EB373A7813420AD1074A5169194210
:1007A00002D100999943516000212000FFF790FF8A
:1007B000F7BDC046682C00001C020010582B00003A
:1007C000E8010010F7B5124EB76873685F401ED09D
:1007D000012500240F4B1B68F3331B7801933D4226
:1007E00011D00121A14073681940019B1D4203D122
:1007F0000A00531E9A4101E04A424A41200011007A
:100800000C30FFF765FF01346D00082CE7D1F7BD10
:100810001C020010682C00000022054B1A605A6070
:100820009A60DA601A615A619A61DA617047C0466B
:10083000E8010010F8B53048FFF7BEFC2F4C431C10
:100840000ED0C3050CD501221300C0B283406168ED
:100850000B4242D062691A4202D199430B00636095
:10086000A269002A09D0264B1B689B1A05D40023D5
:10087000A522A361234B1B681A6200260127224A86
:10088000B000815800291BD01D4B1B685B1A17D480
:100890003B000021B34081506268134222D0656959
:1008A0001D4026D19A43626029003000FFF710FFF7
:1008B00029003000FFF712FF29003000FFF7F4FD98
:1008C0000136082EDBD16368A268934213D0FFF78C
:1008D00079FF200000F0B2F80DE062691A42BFD142
:1008E0000B43BCE76169194201D1134363600125E1
:1008F000DAE70D00D8E7F8BD0C0100101C0200106B
:100900006404001078040010E8010010234BF7B5D0
:100910001D68234C2B00F2331A780021200000F0D0
:10092000D1F82B00F1331A781E4BF6351A600127E7
:100930002A786B7800251B0213430193019A6B0000
:10094000DA401300032200261340012B04D0023B9F
:100950005E1EB3415E423E4331002800FFF7B8FE01
:10096000280031000C30FFF7B3FE731C0FD03B00A2
:100970006269AB40002E04D01A4208D1626813436A
:1009800004E01A4203D162689A43130063600135A0
:10099000082DD3D1200000F051F8F7BD682C0000DD
:1009A0001C0200101802001070B5050001F0AEFA2C
:1009B000174C0600072D1CDC01002800FFF78EFEF7
:1009C000144BAA00D358002B13D10133AB406269FA
:1009D000002E04D01A4208D16268134304E01A4280
:1009E00003D162689A431300636031002800FFF767
:1009F0006FFE31002800FFF757FD6368A26893423D
:100A000004D0FFF7DFFE200000F018F870BDC046EC
:100A10001C020010E80100108269002A09D0054B71
:100A20001B689B1A05D40023A5228361024B1B6817
:100A30001A6270476404001078040010F7B50126AC
:100A40000400002537004368C2685A40009282685B
:100A50005A400192019B1E4227D01849AB00C95849
:100A60001F2338000B409840009A4906324003008B
:100A7000890F09D0002A03D0216A0B4323620CE0BE
:100A8000A16A0B43A36208E0002A03D0E1690B438B
:100A9000E36102E0616A0B436362531E9A412900DD
:100AA000D2B200230648FFF73DFC01357600082D41
:100AB000D0D16368A3600123E362F7BD382B000047
:100AC0000C010010F7B50E00E0210427C901040055
:100AD0003148019200F046F9304D280001F0B0FD98
:100AE0002B682022DF600221280001F0BBFDA52237
:100AF0002B6803211A625A6F280017435F6702228E
:100B000001F0B0FDFA2201212B6852005A625A68A6
:100B10000A435A60224B1B681A001132002A01D086
:100B2000A26101E01233A36100256660F643019BD8
:100B3000A660E562A56225626562E561E360194C25
:100B4000200001F07DFD184B1849186801F054FE93
:100B500023680138D86006222000032101F082FDBD
:100B600029002000012201F07DFD0122200011005A
:100B700001F078FD8022236892009A614032DA61A8
:100B80000B4A5A621F23227910321A401E3B9340AF
:100B9000084A1360F7BDC0466242350E7804001063
:100BA000640400106804001000010010A086010019
:100BB0004102000000E100E02021074B1A68074BCA
:100BC000D150074B1F391A6853680B4353600022FA
:100BD000044BDA627047C046182C00001C800000ED
:100BE000680400101C020010214B37B51868036818
:100BF000DB0725D51F4BDA69002A02D1196A0029C3
:100C00000ED0FA241C49640009680C621B4909686B
:100C10000C001134002C01D09C6101E0123199616B
:100C2000174C920021680191019D16495151A2680B
:100C300001921A6A019C9200115100221A62DA6133
:100C400003689B0710D50E4C23680193094B019D47
:100C50005A6A910000224A51A1680191996A019C47
:100C600089000A519A625A62FF23036037BDC04669
:100C7000680400101C0200107804001064040010C6
:100C8000182C0000FFFF0000054A064B08321A60CE
:100C900000225A609A60DA605A619A617047C046D1
:100CA000982B00001C0200108E2120201D4B890073
:100CB0005A5810B582435A50002271391A62FF39CE
:100CC000C04601390029FBD101221A645A645964D3
:100CD0005A64586C13491042FBD023228E20802482
:100CE00080008A600A58A2430A500120DC680D493E
:100CF00001220442FAD00320086700204A674867AF
:100D00004A67586F01211042FBD0064B064A99678B
:100D1000064BDA67064B1960064B1960064B1960E3
:100D200010BDC046008004405F0001000480044004
:100D300094800440988004409C800440002310B5B7
:100D40001CB2944206DAA4006458844205D00133F0
:100D50009BB2F5E701F0F0FC014B18B210BDC046A4
:100D6000FFFF0000F8B504004306554A9B0F9B00A7
:100D700098581F25230001222B4094469A408FB299
:100D80000E05130089143A0B1203360D0D4000D1E5
:100D9000654680217F0B09021B04032F08D14758A9
:100DA0001B0C3B434350E023DB019A422ED183E0EE
:100DB00047581B0C9F43802347509B019A4217D1F1
:100DC000404B00229C4203D03F4B9C4202D1012267
:100DD0003E4B04E03E4B9C4204D100223D4B1A6046
:100DE00007255AE03C4B072501229C424FD1F5E7ED
:100DF000C0239B019A4261D00F2D07D104223749AD
:100E00002000FFF79BFF364B186040E02BB20C2B05
:100E10000AD1344B00229C4203D0334B9C4236D142
:100E20000122324B1A6032E00D2B09D1304B0022E7
:100E30009C4203D02F4B9C4229D101222E4BF1E73B
:100E40000E2B18D12D4B00229C4207D02C4B012297
:100E50009C4203D02B4B9C4202D102222A4BE1E759
:100E60002A4B9C4202D10022294BDBE7294B01226D
:100E70009C420CD1F8E70B2B09D11A4B00229C4263
:100E800003D0254B9C4202D10122244B9A61E305F9
:100E900003D5022D01D080231E4329B2200001F08A
:100EA000EFFA002801DB064301E001F045FC2000D9
:100EB00000F07CF80660F8BD0625E8E70225E6E7C5
:100EC000182C000002C23A0063823D00C04004407A
:100ED00025423C00D040044049C20100A82B00003C
:100EE000D4400440424265002A83300CC84004408C
:100EF00043826D0029826900CC4004400A4A700692
:100F00004B823B0006027000B040044041C27400B6
:100F1000C44004406242350E4482590000400440FF
:100F200043061D4A9B0F9B0070B59D581F2201234D
:100F300002400E008021934049011C00FFF712FF80
:100F40008020164A400023043040A9581C0C002879
:100F500001D0214300E0A143A950114AF10603D575
:100F6000A9581C0C214302E0A9581C0CA143A9500C
:100F70000C490D4A002806D068581B0C18436850CD
:100F8000A9580B4306E01B0CDB4368581840685017
:100F9000A9580B40AB5070BD182C00000480000015
:100FA000088000000C800000108000000C221F232D
:100FB0004106890F4A430340D018034B4000C05AF2
:100FC000024B8000C0187047B82B0000004004405E
:100FD00010B5040001F028F92300012258331A70DB
:100FE000024B1B6823660023E36510BD64040010F8
:100FF00070B54B0602D53C231A4011430C230D4C0F
:101000000500227838351340502252421343020023
:101010002B70436B3B3253701E120300167060221C
:101020003D331A705970593A2900200000F0E1FE52
:1010300070BDC0461801001003000020814209D194
:1010400063225A72203A9A72033ADA722E3A18736D
:101050005A7301307047FFFFF0B50400B64887B0FF
:10106000437882781B021343626B0390934200D053
:101070005FE1837900220493B04B80201B68A27249
:101080006364F0239B000B40800083421AD011DC84
:101090008038834200D094E0039BD879197A642386
:1010A0006372233BA372813B0343E3722173627338
:1010B000A27335E1A0229200934203D08032934282
:1010C00075D07EE0039AD6790F221640039A1589CF
:1010D000A0226DBAADB29200934224D1206D0028B7
:1010E00005D0290001F081FA002800D0CDE0681E6B
:1010F000FF38FF280CD8924B3200C018914901F0FC
:101100002BFC0122904B1A700022904B1A60EBE0EE
:101110008F4B1868854200DA05E10300FF339D42DA
:1011200000DCBBE0FFE080229200934200D0FDE0B3
:10113000691EFF39FF2905D82000814B3200C918EC
:101140000E3010E0824B19688D421BDB0B00FF3321
:101150009D4217DC200037000E30691A602905D93E
:1011600032007C4BC91801F0F7FB0BE072185F2AC4
:10117000F6D9794A401A12680592FF329446013F27
:1011800000D3B3E0206D002805D0290001F02DFA2E
:10119000002800D0B8E03300633363724223A372A7
:1011A000023B1E432B12E67223736573B8E03F23A4
:1011B00020001940FFF740FFC321002800D1B3E011
:1011C000AEE0E0239B00994232DB644B99420BDD99
:1011D000634B99422CD1622363721F3BA3728F33FE
:1011E000E372002323739BE0CB070BD5039A039B89
:1011F000127A5B7A002A05D1FF2B03D18023594A4A
:101200005B051A60606D002803D0036801211B682C
:10121000984701F01FF8206D002801D001F098F9DF
:10122000BFF34F8F504A514BDA60BFF34F8FFEE749
:101230000025C3213C26049A20003240FFF7D8FE47
:10124000002D76D0039B21001A780C2313405022E6
:10125000524213432371636B48311A12E2714022E8
:101260002372A37A1A4006D0226CB3431343A372AD
:1012700001230B7000E00A700F23627A211D1A40CF
:1012800007322D4800F0B5FD53E0206D2D4A03686C
:1012900029001B681F003300B84728E731002D1ACA
:1012A000602D0DD84B195F2B0AD92A4B2A009C467A
:1012B000294B214E1B681800FF30059307000DE0F5
:1012C0002448320028181F4901F046FB0CE0531B4C
:1012D000F3189B7A602A04D17B7001320139F6D26F
:1012E00002E060468354F8E700251AE0602906D141
:1012F00062465278130002006032137002E0154B10
:101300005A5C425401313AE70022206D29000368FB
:10131000009222005B680E321F003300B8473AE7A4
:101320000125C22186E7C221002583E70023383446
:10133000237007B0F0BDC04618010010640400100F
:1013400054020010220100105B040010540300102E
:101350005C04001058030010642C0000810300009E
:10136000D103000055B01F5E0400FA0500ED00E057
:1013700070B5254A0400537890781B02034340203F
:10138000084026D0C320250001404835C22911D18C
:10139000297800291AD0616B8B4217D193793C22AE
:1013A000E16C13408B4211D0216CE36404310A409C
:1013B00022640BE0C32909D1626B934206D100225B
:1013C00042392000FFF714FE0023636301232B70D2
:1013D00018E080290FD1616B002913D163632300CA
:1013E0000A484833006821646064197001235B4235
:1013F000E364116306E0812904D1616B8B4201D162
:101400006063106370BDC0461801001064040010D2
:10141000F7B52C4CE57823792D021D43C023A17923
:101420009B000A021340E27913439EB2002D28D19B
:10143000254A12680192FF325178012211423ED0B2
:101440001BB2C02B05D1218949BA89B200F092F9AB
:1014500035E0802149008B4231D10C232178C571C0
:101460000B40502149420B430371E1234372A13BDE
:1014700005728272C372011D0822200000F0B9FCBF
:101480001DE03C220F0097433A0067797F2F0CD86C
:10149000E66AB54213D152B2002A02DAFFF768FFBA
:1014A0000DE019B2FFF7D8FD09E0002A07D1F023BB
:1014B00031009B0019402200280000F0A2FD00230B
:1014C000A361F7BD18010010642C000010B50400E2
:1014D000406D002803D0036803211B689847200053
:1014E00000F07EF800F0B6FE206D002801D001F07B
:1014F0002FF810BD030070B530331B780400002BAB
:1015000061D000F073F8230058331B78002B1AD0F9
:101510002D4BDB6C002B16D12C4D226E2B689B1AA9
:10152000E26D934205D300F0EDFD002801D02B6859
:101530002366236E2A682649D21A8A4203D9FA22E0
:1015400092009B182366636B002B06D01F4B626CC6
:101550001B689B1A1F4A93420DD81F4B1B78002B08
:1015600031D0194B1A0034321278002A2BD1DA6CA0
:10157000002A28D107E0002281212000FFF738FD52
:1015800000236363E9E79B69002B1CD1636B002B8D
:1015900019D1124A0D4910680B68002811D01B1A86
:1015A000002B10DD606D002803D0036802211B684A
:1015B000984700F04FFE206D002804D000F0C8FFCF
:1015C00001E03233136070BD180100106404001094
:1015D000CF070000701700005B04001054030010D8
:1015E00000233030037070477047FFFF0300F7B5EA
:1015F00030331B780400002B54D02B4B9A69002AFF
:1016000009D0DB6C002B06D1284B1B680193FF33FC
:101610005B785B073AD4E069002843D02449FFF7A0
:10162000A1FBE169234D4B069B0F9B001F225859DC
:1016300004230A409340195820004B1E994132223E
:101640002430A76A00F050FE184E002801D1002F68
:1016500020D1C021E069C901FFF784FB0121326874
:101660000E000192FF3250781F22E36901401A40B8
:1016700096405B069B0F206A9B00ED5832000023CA
:10168000814200D03300920053510BE003685B6845
:101690009847C0E7812233680193FF3359784A4065
:1016A0005A70D6E7F7BDC04618010010642C000040
:1016B00010100000182C000010B5024800F0A0F92E
:1016C00010BDC0461801001010B50400074B0833C8
:1016D0000360243000F004FE054B0022E361012387
:1016E00023622300303320001A7010BD402C00000C
:1016F00040825C00F7B50400019303680092DB6848
:101700000F00984723000025383325711D7025648C
:101710001D74144B01221B682E2019000126FF3175
:1017200052426233E264656348701D700E4B8E70E6
:101730001B680E485A733A12DA70009A1D7312121F
:101740005A716A4612781F719A716A461279DA7173
:10175000074B1D60230030331E7000F037F8A6627F
:101760006562F7BD642C0000682C000018010010B1
:1017700054030010064B0A121B68DA750122197611
:10178000044B1A700022044B1A60044BD962704754
:10179000682C00005B0400105403001018010010B6
:1017A0004362030030B503AC257804AC24782833B9
:1017B0000262C1611D705C70032302341C4003008F
:1017C00000222A331C709A7230BDFFFFF7B5314BEF
:1017D00004001A680125D37D127E1B021343020008
:1017E000C362002334328361137004220363C26333
:1017F00002006832C36403651370C06900F020FF03
:1018000021002E00293101910978E0698E4002689B
:10181000536F33435367230028331978812200F034
:101820003DFF1F22E7691C493E6873682B437360C4
:101830003B79103313402A009A40184B1A60184B1A
:10184000186800F0D9FF23000138F0602A331978B6
:1018500018368B00F618134B02223360380000F064
:1018600001FF019B1978E3698D401B688A0018000D
:10187000183082180C4810609860DA6B1542FCD161
:10188000E021606AC901FFF76DFA0849206AFFF795
:1018900069FAF7BD682C000040420F0000E100E04B
:1018A00000010010FEFF0000FFFF000020200000EC
:1018B00070B5040003002500283319782A358122E9
:1018C000C06900F0EBFE29780222E06900F0CAFE50
:1018D000E3692A781B689200183319009A18074B9D
:1018E0001360230029331B78054A9B00CB181A602C
:1018F0002200002334321370236370BDFEFF00000A
:10190000FFFF00000023C26C1370026D8363C2648A
:10191000036583647047FFFF73B50023050003630D
:1019200068352E7804009E423FD1026C072A27DDDD
:10193000994237D0C07823790002184363797F2B0E
:1019400006D9002850D000F021FF00284CDA04E02E
:10195000E36AC01A42424241D6B2264B1B68019349
:10196000FF335A78520705D4226CA2615B789B073B
:101970001BD503E0002E18D0236CA361CC2313E009
:10198000012A0FD1436CDBB24364CC2B03D0826BB2
:10199000C36B9A4209DDE36C002B06D0A36B002BCE
:1019A00024DC02E0A3610C23236323002A3319788B
:1019B000236BE069002B01D10F4E00E00F4E02684F
:1019C0008B001832D3181E60032200F04BFE230058
:1019D00028331978E069812200F060FE0023343456
:1019E0002B700333237073BD0126B6E72000FFF789
:1019F00089FFDAE7642C0000E813000031040000DE
:101A0000F7B5040010220227250034352878C0B22B
:101A1000092800D9C9E100F0E5FE0A004B001F00CB
:101A20009E00F40010012D017A01B5019901E369CE
:101A30001B681A6823002833197810238B401A4238
:101A400000D1B5E122000023683223641370FF2225
:101A50002363013362662366210028310E7810214A
:101A6000B140E06903681A6811400AD1236E002B67
:101A700003D0616E4B425941C9B22000FFF74CFFC1
:101A800096E122001E002A32117818368A00B21818
:101A9000CC4E1660012602225A605E60921900F058
:101AA000E1FD00232E706364A3656665E6657FE152
:101AB00023002A331B7801229C4660468240E76956
:101AC0003B6819680A40019208D12C3319002300A1
:101AD00028331B789B00CB181E6800E0B94EA36D1D
:101AE000190044318E4219DD6833A365A16D636D21
:101AF0000800443086420FDD8020400083420BDC2A
:101B0000606CE26D184360645042504168315B0084
:101B1000E065A1656365E9E75B006365019B002BF8
:101B200000D145E1226EE36D1340226C2366172A33
:101B300006DC531C2364636CA354626E53406366DB
:101B4000022362462B703B68920018339B18D02208
:101B500052001A602CE126001100E36928361B6848
:101B60001868337899400B00034001D0002327E127
:101B7000226B002A02D0A364682326E0A26BE36BE9
:101B80009A4202DD2000FFF7BDFEE26C002A00D180
:101B90000BE16821137850791B079B0F01334B43EE
:101BA000593901400831A164A16B01290DD12020D0
:101BB000117881431170A26CE16C013A8A18117896
:101BC00041401170A26B0132A2632200E069293208
:101BD0000768127818379200BA18136022002A3268
:101BE000117823338A00BF183B60032200F03AFDCE
:101BF00031788122E06900F051FD00232364043331
:101C0000BEE02000110028300078E36981401B68A5
:101C10001E680E4210D02600293636789868B60025
:101C200018339B191E680A3E864203D9664818601D
:101C30002F70E9E60523A3E01B68236B002B01D07E
:101C4000236B05E0236C5A1C2264E26CD3181B78CA
:101C500063648021012349006365636DFF2B07DC0A
:101C6000626C1A4201D04A4062645B006365F4E72B
:101C70000123636580206826616C4000626D53001B
:101C800063650A4203D0824201DC6836F6E7062229
:101C9000682E00D007222A708022920093420BDD2A
:101CA000236CA26C3936FF36934203DA236B002B88
:101CB00000D182E009232B7023002A782833197879
:101CC000072A01D17A3200E08022E06900F0E6FCC8
:101CD00023002978E2692933092906D111681B7884
:101CE00018319B00CB18384906E011681B78183171
:101CF0009B00CB18310023391960136818331A0080
:101D000023002A331B789B00D3181E6050E0E36940
:101D100022001B682832190012782C3192008A1890
:101D2000183311681A00230029331B789B00D3183D
:101D30001A68453A8A4207D9234A1A6022000123C9
:101D400068322B70137033E0062319E02300E0693A
:101D50002A3302681B7818329B00D3181B4A1A607A
:101D6000230028331978812200F098FC236B002B84
:101D700002D00023236302E0A36B0133A363082393
:101D80002B7015E02300160028331B78E0699E4075
:101D900000680168314212D093212C309B00C31897
:101DA0001B68C9008B420AD802E02000FFF780FDC3
:101DB000FF22E3691B681A60F7BD05237BE7032355
:101DC0002B7021E642040000FFFF000050140000C9
:101DD000C36A10B51B124B70C36AFF208B700023BF
:101DE0009CB2A24203D9CC5C01336040F8E788542E
:101DF00010BD70B504000D00FFF7EAFF236D002B46
:101E0000FDD1E36C002B01D1E56400E0256572B6DD
:101E1000230034331D78EDB2002D10D10322E06988
:101E2000A5630A3B9A72197806688B001836F31876
:101E300001261E6000F016FCE3691B689D6062B617
:101E400070BD70B5050000F0C3FC0378441C5B0056
:101E5000C3189C420FD26278AA420AD100F0B2FCA9
:101E600023785B000133C31818785B7800021843AD
:101E700002E00234EDE7002070BDFFFFBC22094BF9
:101E800010B51B6808481A710A12DA71E1225A72F9
:101E9000002219729A72DA72191D0832FFF7A9FF2F
:101EA00010BDC046342B000018010010024B1B6807
:101EB000987C024BC0187047682C00005402001038
:101EC00010B50400FFF7F2FF032363430233C01889
:101ED000427803780248920600D40248C01810BD28
:101EE000540200105803001010B50400FFF7DEFF85
:101EF00003236343C01803790120052B03DD024A45
:101F0000D318063B187810BD582C000070B505009A
:101F1000FFF7EAFF04002800FFF7D2FF0219531E63
:101F20001878A41A1A19002A04DD013B1A78000255
:101F30001043F7E770BDFFFF10B50400FFF7B6FFD1
:101F400003236343C01803790020052B03DD024AF5
:101F5000D318063B187810BD582C0000044B054AD6
:101F60001B689B7CD3185878034BC0187047C04639
:101F7000682C0000540200105803001070B50400D3
:101F80000D00FFF7EBFF002807D0E30700D52D0178
:101F90006410001903781D43057070BDF8B5040086
:101FA0000D001600FFF78CFF07002000FFF79CFFD5
:101FB000002F0BD03B00002804DD1D7001382D0AD6
:101FC0000133F8E731002000FFF7D8FFF8BD70B506
:101FD00005000C00FFF774FF06002800FFF7ACFFB8
:101FE000021E05DD21003000083100F09BFB03E0FC
:101FF0003F23E2791340337028000821FFF7BEFF2A
:1020000070BDF0B585B00F0003920600FFF74EFFDC
:10201000019000F0DDFB037805005B0030000293C7
:1020200000F0B4FB0090002827DB6C1C029A631BB5
:102030009A4222DB2378009A9A421CD103236078CB
:10204000019A4343D3183A004021403ADB788A434F
:1020500007D11432134093420DD10399FFF7B7FF14
:1020600009E0002F07D10C221340934203D10B3A11
:10207000310000F005F80234D8E705B0F0BDFFFFED
:10208000F7B50E0004000192FFF71AFF07002000C9
:10209000FFF752FF194B421C1C68BC2323713312FB
:1020A000E3710F2313402022524213436372002333
:1020B000A372019B050026724021002B00D1491814
:1020C000E172002D06D020002A000C30390000F00B
:1020D00029FB04E03F223B7813400B43E3720434B6
:1020E000300022008021FFF78CFF2A00083292B2D4
:1020F00021000348FFF77DFEF7BDC046342B0000EA
:1021000018010010F0B585B0FFF7D0FE0700FFF70B
:1021100025FF061E42D00322214D3B782C680293F6
:10212000631C5343FB1801930392029B9C4233DAD6
:1021300001276210B21813782740009301D01911BB
:102140000091009803990840032820D13021002FE6
:1021500000D101008B431370019B20001F78FFF713
:1021600070FE011E13D00422174210D0009B1340B2
:102170001A1E03D02000FFF781FE04E07B0606D57F
:102180002000FFF77DFF01342C60012006E0019B59
:10219000013403330193C8E70020286005B0F0BD87
:1021A00050020010F7B5FFF7D9FE041E21D0FFF74B
:1021B0007DFE7F2208279446037801930E4B186812
:1021C000019A904213DA411061180A78012615002D
:1021D0003D40304202D015006646B543461C002DF6
:1021E00003D0AA430A701E6005E03000E8E7002231
:1021F0001A6001204042FEBD4C02001010B500F0F4
:1022000023F9084BC41800F01FF90138FF38A04229
:1022100005D30300FF331B78FF2BF6D000E000202E
:1022200010BDC04600F0FFFF10B5FFF7E7FF8022AA
:10223000010052000548002902D000F08DFB01E0AA
:1022400000F0C8FB0022024B1A7010BD54020010AF
:102250005B04001070B51E4D2B78002B37D01D4B42
:10226000DA6C1900343109780029FAD1002AF8D142
:1022700072B6FFF7C3FF040000F0E6F80138FF383C
:1022800084420CD100F0E0F8134BC01800F0D6F8EF
:1022900000F056F8002807D000F04EFA04E0002CB9
:1022A00002D0601CFF3003E000F0CEF80A4BC018EB
:1022B0000A4980220B000024FF3352001C7000F0FA
:1022C0008BF8A04201D000F037FA62B62C7070BDD6
:1022D0005B0400101801001000F0FFFF5402001012
:1022E000002303607047FFFF10B5094B84681B682B
:1022F0008C4202D00360816008E00168002905D0AB
:102300005B1A9A1A02D4002344600360406810BD2F
:102310006404001010B572B6014B984762B610BD48
:10232000F11FFF1F322300B58BB00190029005A969
:1023300068460093FFF7EEFF0598C0B20BB000BDF2
:1023400010B58CB00400FFF7EDFF079000281AD1FC
:102350003423FA2102930E4B8900186803940494E5
:1023600000F04AFA07A9059002A8FFF7D3FF079BE0
:102370000193002B07D1353307A902A802930394D8
:102380000494FFF7C7FF0798C0B20CB010BDC04659
:10239000000100100F2310B50400C01718400019E9
:1023A0008AB00011FFF7BEFF059000280ED13B2335
:1023B000FA210093074B890018680194029400F0F9
:1023C0001BFA05A903906846FFF7A4FF0598C0B261
:1023D0000AB010BD0001001070B50400C017000560
:1023E000000D20188CB000130E001500FFF79AFFA7
:1023F000079000281CD13323FA2102930E4B890049
:10240000186803940496059500F0F6F907A906905C
:1024100002A8FFF77FFF079B0193002B08D13833F9
:1024200007A902A80293039404960595FFF772FF8B
:102430000798C0B20CB070BD00010010C3171B0597
:102440001B0DC0180013704730B50C4B8BB01868CB
:102450001D00002810D135230224009305A96846E9
:1024600001940294FFF756FF059B072B02D002341C
:10247000802CF3D1200328600BB030BD6004001025
:1024800000231F2210B54012040014408C4201D1D9
:102490009BB204E001334011042BF5D1014B18B27B
:1024A00010BDC046FFFF000030BF704737B5FA21AE
:1024B0001F4B8900186800F09FF91E4B01389842A5
:1024C0000DD81D4A1D495060C0200B6A00061B0232
:1024D0001B0A03430B62002393600733136000223F
:1024E0000925174B1A60FDF757FF164B1C68236828
:1024F00020009B689847230030331B78002B13D0B3
:10250000114B1B680193FF335A782A40082A0BD1DC
:102510009B78012B08D10D4B1B6801935B7BFF2B34
:1025200002D1FDF787FFE2E7FFF7BEFFDFE7C04616
:1025300000010010FFFFFF0010E000E000ED00E0F0
:1025400064040010342B0000642C0000682C000090
:10255000F8B500251D4B0400C25C1E00AA4214D031
:102560008068FFF717FFA84201D000F0E5F880224D
:102570002100520014316068FFF72EFF002801D0BF
:1025800000F0DAF800230125A355114EA35D002BBE
:1025900019D08527BF00E059FFF7FCFE002801D0C5
:1025A00000F0CAF821008022E059153100025200E3
:1025B000FF31FFF711FF002801D000F0BDF8002324
:1025C000A35502331D432800F8BDC0462202000077
:1025D000210200000912FF2904D84118087DC043D8
:1025E000C0B201E001204042704710B50400FFF77F
:1025F000F1FF0123002802DC88239B00E35C180024
:1026000010BDFFFF0B4B70B50B490500186800F0BB
:10261000F3F80A4E023D32006843B468002807DD33
:10262000B368E41A01D551686418001B1C00F5E773
:1026300070BDC0460001001040420F0010E000E0F5
:102640000123017910B507318B40054CE26F13432C
:102650000022E3670368DA635A619A6210BDC046DC
:102660000480044070B50724032526004D43AE4086
:102670001440AC40036849005869B0435861586938
:102680000443302005008D40104088405C61DC6BC5
:10269000AC43DC63DC6B2043D86370BD0323594338
:1026A00010B5941189B22340D20701D504221343F7
:1026B000072409B28C408B400268906AA043906264
:1026C000906A0343936210BD024A1368013313609A
:1026D0007047C0466404001000220A4B1A710A4A6F
:1026E0001A600122094B1A71094A1A600222094B29
:1026F0001A71094A1A600322084B1A71084A1A60B3
:102700007047C0467804001000C0004080040010EC
:1027100000000140680400100040014070040010F7
:10272000008001400139002A04DD8B5C013A03700E
:102730000130F8E77047FFFFC0210F48C90110B50D
:10274000FEF710FBC0200D4A0D4B0E4953600B6A7B
:1027500000061B021B0A03430B62002380209360C8
:1027600007331360084B0004D968936803405C4248
:102770006341DB000B62F8E763823D0010E000E09C
:10278000FFFFFF0000ED00E0182C00000C4B30B5FF
:102790001B681A001632111E00D0997D0412C2B2B5
:1027A00001201933814208DB1D78AC4202D15D78EB
:1027B000AA4204D001300233F4E70120404230BD88
:1027C000682C0000014B186816307047682C000018
:1027D000024B1B68587C024BC0187047682C0000E5
:1027E0005402001003B47146490840004900095AD8
:1027F00049008E4403BC7047002243088B4274D3C7
:1028000003098B425FD3030A8B4244D3030B8B42F1
:1028100028D3030C8B420DD3FF22090212BA030CFA
:102820008B4202D31212090265D0030B8B4219D3DB
:1028300000E0090AC30B8B4201D3CB03C01A5241FB
:10284000830B8B4201D38B03C01A5241430B8B4243
:1028500001D34B03C01A5241030B8B4201D30B032C
:10286000C01A5241C30A8B4201D3CB02C01A524153
:10287000830A8B4201D38B02C01A5241430A8B4216
:1028800001D34B02C01A5241030A8B4201D30B02FF
:10289000C01A5241CDD2C3098B4201D3CB01C01A19
:1028A000524183098B4201D38B01C01A5241430923
:1028B0008B4201D34B01C01A524103098B4201D311
:1028C0000B01C01A5241C3088B4201D3CB00C01A7E
:1028D000524183088B4201D38B00C01A52414308F6
:1028E0008B4201D34B00C01A5241411A00D201461B
:1028F000524110467047FFE701B5002000F006F88E
:1029000002BDC0460029F7D076E770477047C04641
:1029100070B50D4E0D4D0024AD1BAD1005D0A300BC
:10292000F35801349847A542F9D100F09FF9084EB9
:10293000084D0024AD1BAD1005D0A300F3580134A1
:102940009847A542F9D170BD782C0000782C000082
:10295000782C0000902C000070B50F2A32D90C00A2
:1029600004430B00A40731D115000400103D2D09CC
:1029700001352D0149191E6826605E6866609E68F3
:10298000A660DE681033E66010349942F3D10F235D
:1029900045191340032B1BD91C1F0023A408013425
:1029A000A400CE58EE5004339C42FAD103232D19D3
:1029B00009191A4005D00023CC5CEC5401339A422B
:1029C000FAD170BD0500002AF5D1FAE70500F2E75B
:1029D0001A00F8E770B583073FD0541E002A3BD099
:1029E000CEB20300032503E0621E002C34D0140095
:1029F00001335A1E16702B42F6D1032C24D9FF2521
:102A00000D402A0215432A0415430F2C11D9260024
:102A1000103E3609013636011A009B1915605560C3
:102A20009560D56010329342F8D10F221440032CE8
:102A30000AD9261FB6080136B6001A009B1920C213
:102A40009342FCD103221440002C05D0C9B21C19BA
:102A5000197001339C42FBD170BD14000300CCE718
:102A6000054B0648033310B51B1A062B03D9044B3C
:102A7000002B00D0984710BD040100100401001085
:102A8000000000000648074910B5091A8910CB0F4D
:102A90005918491003D0044B002B00D0984710BDA3
:102AA00004010010040100100000000010B5074CE4
:102AB0002378002B09D1FFF7D3FF054B002B02D061
:102AC000044800E000BF0123237010BD88040010FB
:102AD000000000009C2C0000094B10B5002B03D017
:102AE0000849094800E000BF08480368002B02D1EC
:102AF000FFF7C8FF10BD064B002BF9D09847F7E74A
:102B0000000000008C0400109C2C00000401001048
:102B10000000000065C2810064C2790041C27400F7
:102B20000302000044825900458201002A83300CD0
:102B30000B411006840100104242650007020500A7
:102B40004A02000049C2010002C23A0008023300F2
:102B5000094233004B823B00820000000401000068
:102B600008020000100400002008000040100000CF
:102B700080200000004100000082000000040100ED
:102B800000080200001004000020080000401000AF
:102B90000080200000004100000000000000000054
:102BA000190A00003D0A000026C23300478279005E
:102BB00061C2340F64C279000300040007000B00F7
:102BC0000C000D0013001400180019001A001D005D
:102BD0001E001F00200024002500280029002A00D4
:102BE00005000E001B00260002000A00170023004B
:102BF00010001100000008000900150016001C005C
:102C00002100220027002B000F001200000000000E
:102C10000000000000000000000000500000015013
:102C200000000250000003500000000000000000FF
:102C3000CD14000011140000F5140000D10F0000A5
:102C40000000000000000000E1150000E915000090
:102C5000ED150000E9150000010102030406080A51
:102C60000E0FFFFF5803001054020010F8B5C046C5
:102C7000F8BC08BC9E467047810300006504000054
:102C800019080000890C0000D9260000D92A00008C
:0C2C9000F8B5C046F8BC08BC9E46704772
:042C9C00006CDC02EA
:0400000300000103F5
:00000001FF
