:1000000000200010DD000000D70000008D2A000055
:1000100000000000000000000000000021DFFFEFF2
:10002000000000000000000000000000D9000000F7
:100030000000000000000000DB0000008919000043
:10004000D5000000D5000000D5000000D50000005C
:10005000D5000000D5000000D5000000D50000004C
:10006000D5000000D5000000D5000000D50000003C
:10007000D5000000D5000000D5000000D50000002C
:10008000D50000007D2A0000D5000000D50000004A
:10009000D5000000D50000000000000000000000B6
:1000A000D5000000D5000000D500000000000000D1
:1000B000D5000000D5000000D5000000D5000000EC
:1000C000785900000000001070000000700000105F
:1000D000D8030000FEE7FEE7FEE7FEE7F0B5E74BDA
:1000E000E74987B08B4201D200F04AFE0020E54983
:1000F0008B4201D200F066FE03F022FC05F0BCF951
:10010000FA21E14E8900306803F05EFC01F008FE40
:10011000872206234C21DD48D200DD4C02F0DAFDB7
:10012000C022DC4D00219200280005F08BF98E21C1
:100130001020D94B89005A5882435A508022D749FF
:100140009201C86F0243CA67996F306803F03CFCA4
:10015000D34903F039FCB821D24B013800021860B2
:10016000206FFF31036803261B68984703783342EA
:1001700000D14DE1B821206FFF3103681B6898471B
:10018000B8210778206FFF31036837401B68984714
:10019000BC210678206FFF31036876061B689847FC
:1001A000002100230191C356F60F00933A0033005B
:1001B000280001F087FE002800D129E1B421206F3A
:1001C000FF3103687F261B689847B4210378206FAE
:1001D000DB0903930368FF311B689847CC21037840
:1001E000206F334004930368FF311B689847CC218C
:1001F0000378206FDB0905930368FF311B6898477C
:10020000D4210778206FFF31036837401B68984777
:100210000F220378039913402800049A0193009752
:10022000059B00F085FEC421206FFF3103681B6829
:100230009847C4210778206FFF310368FF091B68C6
:100240009847002F0DD00078304004F067FF964BA0
:10025000964A04F06DFC04F085FFFA239B002865A4
:10026000AB65DC218A4CFF31206F03681B6898471F
:100270000F220378134200D1CAE0D921206F490030
:1002800003687F261B6898470323E4210778206FC3
:100290001F400368FF311B6898470378206FD90916
:1002A0000391B2210368FF311B6898470378206FE0
:1002B000190031400491E4210368FF311B6898471D
:1002C000EE210578206F4900036835401B68984788
:1002D0000378704E1B09039A390030000193009592
:1002E000049B00F047FED821206FFF3103681B6894
:1002F00098470323E8210578206F1D400368FF31EC
:100300001B689847F4210778206F490003683F0273
:100310001B689847DC210378206F1F430368FF3177
:100320001B68984708230F2201930378002113408C
:1003300030002A0000933B0001F056F8DC21206FCA
:10034000FF3103681B68984703781B0960D0D821E8
:10035000206FFF3103681B6898470323EA21057863
:10036000206FAD081D400368FF311B689847F521D9
:100370000778206F490003683F021B689847DC211B
:100380000378206F1F430368FF311B6898470923D8
:10039000019303782A001B090121300000933B00E0
:1003A00001F022F8EE21206F490003681B6898478E
:1003B0000F22037813422BD0D821206FFF3103681E
:1003C0001B6898470323EC210578206F2D091D40F9
:1003D0000368FF311B689847F6210778206F4900B2
:1003E00003683F021B689847EE210378206F1F4384
:1003F000036849001B6898470A230F22019303787A
:100400000221134000932A003B00300000F0ECFF73
:10041000DC211F4C4900206F032503681B689847A7
:1004200003782B4200D170E1DC21206F4900036882
:1004300001271B689847DC210678206F4900036874
:100440002E401B689847BE210578206FFF31036856
:10045000AD091B689847164B3D4003930223019357
:100460000023C3563200009339002B00039801F09B
:1004700029FD002800D148E11CE0C046C000000072
:10048000CC000000D40000001C000010740000101C
:10049000700000101C010010008004400480044023
:1004A000009F240000C001409999B93F9A999999F9
:1004B000DC010010DA21206F490003687F251B68EA
:1004C0009847DA210778206F49000368FF091B6805
:1004D0009847CE210378206F2B4004930368FF31A7
:1004E0001B689847CE210378206FDB0905930368CA
:1004F000FF311B689847EA210678206F490003689E
:100500002E401B6898470F22037839001340039848
:10051000049A01930096059B00F00AFDC621206F06
:10052000FF3103681B689847C6210678206FFF31AA
:100530000368F6091B689847002E0ED00078F34C2C
:10054000284004F0EBFDF24BF24A04F0F1FA04F01B
:1005500009FEFA239B006061E361DE21EE4CFF316E
:10056000206F03681B6898470F220378134200D15D
:10057000CBE0D921206F490003687F261B6898478C
:100580000323F2210778206FBF081F40036849004A
:100590001B6898470378206FD9090391B22103683B
:1005A000FF311B6898470378206F19003140049190
:1005B000F221036849001B689847EF210578206FF6
:1005C0004900036835401B6898470378D34E1B09E0
:1005D000039A3900300001930095049B00F0CAFC97
:1005E000EC21206F490003681B6898470323EE2124
:1005F0000578206F1D400368FF311B689847F7217D
:100600000778206F490003683F021B689847DE2186
:100610000378206F1F430368FF311B6898470B2343
:100620000F22019303780021134030002A00009329
:100630003B0000F0D9FEDE21206FFF3103681B680C
:10064000984703781B0960D0EC21206F49000368AC
:100650001B6898470323F0210578206FAD081D40E3
:100660000368FF311B689847F8210778206F49001D
:1006700003683F021B689847DE210378206F1F4301
:100680000368FF311B6898470C23019303782A0005
:100690001B090121300000933B0000F0A5FEEF2173
:1006A000206F490003681B6898470F2203781342A4
:1006B0002BD0EC21206F490003681B689847032367
:1006C000F2210578206F2D091D400368FF311B685A
:1006D0009847F9210778206F490003683F021B689B
:1006E0009847EF210378206F1F43036849001B6878
:1006F00098470D230F2201930378022113400093A2
:100700002A003B00300000F06FFEBA21824CFF311E
:10071000206F032503681B68984703782B4200D19C
:1007200063E1BA21206FFF3103681B689847BA2143
:100730000678206FFF3103682E401B689847C02160
:100740000578206FFF3103686D061B689847042306
:1007500001930023724FC356ED0F009332002B001C
:100760000221380001F0AEFB002800D13DE1B621A6
:10077000206FFF3103687F251B689847B6210378F7
:10078000206FDB0903930368FF311B689847D02172
:100790000378206F2B4004930368FF311B68984750
:1007A000D0210378206FDB0905930368FF311B68B4
:1007B0009847D6210678206FFF3103682E401B68CA
:1007C00098470F220378039913403800049A019345
:1007D0000096059B00F0ACFBC821206FFF31036839
:1007E0001B689847C8210678206FFF310368F60917
:1007F0001B689847002E11D000784A4C284004F01E
:100800008DFC444A424B04F093F904F0ABFCE8221F
:10081000FA215200A05089000832A150E0213E4C3C
:10082000FF31206F03681B6898470F22037813423B
:1008300000D1DAE0D921206F490003687F261B68C8
:1008400098470323E6210778206F3F091F4003687C
:10085000FF311B6898470378206FD9090391B221B3
:100860000368FF311B6898470378206F19003140F7
:100870000491E6210368FF311B689847F021057851
:10088000206F4900036835401B6898470378244E61
:100890001B09039A3900300001930095049B00F076
:1008A00069FBDA21206FFF3103681B689847032337
:1008B000F4210578206F1D400368FF311B689847BD
:1008C000FA210778206F490003683F021B689847A8
:1008D000E0210378206F1F430368FF311B689847AE
:1008E0000E230F22019303780021134030002A00C9
:1008F00000933B0000F078FDE021206FFF3103689A
:100900001B68984703781B096FD00DE01802001090
:100910009999B93F9A99999970000010DC010010DB
:100920009C0200101C010010DA21206FFF310368C7
:100930001B6898470323F6210578206FAD081D40FA
:100940000368FF311B689847FB210778206F490037
:1009500003683F021B689847E0210378206F1F431C
:100960000368FF311B6898470F22019203782A0021
:100970001B090121300000933B0000F035FDF02100
:10098000206F490003681B6898470F2203781342C1
:100990002BD0DA21206FFF3103681B6898470323AF
:1009A000F8210578206F2D091D400368FF311B6871
:1009B0009847FC210778206F490003683F021B68B5
:1009C0009847F0210378206F1F43036849001B6894
:1009D000984710230F2201930378022113400093BC
:1009E0002A003B00300000F0FFFCDD21EC4C490008
:1009F000206F032603681B6898470378334200D1B1
:100A000051E1DD21206F490003681B689847DD2113
:100A10000778206F4900036837401B689847C22158
:100A20000578206FFF3103686D061B689847DD4B22
:100A3000ED0F0393062301930023C3563A0000935E
:100A400031002B00039801F03DFA002800D12AE183
:100A5000DB21206F490003687F251B689847DB2155
:100A60000778206F49000368FF091B689847D22167
:100A70000378206F2B4004930368FF311B6898476D
:100A8000D2210378206FDB0905930368FF311B68CF
:100A90009847EB210678206F490003682E401B68B9
:100AA00098470F220378390013400398049A019362
:100AB0000096059B00F03CFACA21206FFF310368C5
:100AC0001B689847CA210678206FFF310368F60932
:100AD0001B689847002E11D00078B34C284004F0D2
:100AE0001DFBB24AB24B04F023F804F03BFBA422F6
:100AF000FA219200A05089000832A150E221A84CAE
:100B0000FF31206F03681B6898470F220378134258
:100B100000D1C8E0D921206F490003687F251B68F8
:100B20009847F3210678206F49000368B6091B68CF
:100B30009847B2210378206FDB0903930368FF31E4
:100B40001B689847F3210378206F2B4004930368B8
:100B500049001B689847F1210778206F4900036816
:100B60002F401B68984703788E4D1B09039A31006C
:100B7000280001930097049B00F0FCF9ED21206F01
:100B80004900036803261B689847FA210378206F01
:100B9000334003930368FF311B689847FD210778B2
:100BA000206F490003683F021B689847E2210378E1
:100BB000206F1F430368FF311B68984711230F22E2
:100BC00001930378002113402800039A00933B000F
:100BD00000F00AFCE221206FFF3103681B68984790
:100BE00003781B095FD0ED21206F490003681B6863
:100BF0009847FC210378206F9B08334003930368D8
:100C0000FF311B689847FE210778206F4900036871
:100C10003F021B689847E2210378206F1F43036857
:100C2000FF311B689847122301930378039A1B092D
:100C30000121280000933B0000F0D6FBF121206F3A
:100C4000490003681B6898470F22037813422AD093
:100C5000ED21206F490003681B689847FE21037847
:100C6000206F1B091E400368FF311B689847FF2156
:100C70000778206F490003683F021B689847F121FD
:100C80000378206F1F43036849001B6898471323AC
:100C90000F220193037802211340009332003B009E
:100CA000280000F0A1FB3E4B424C04935B682000FF
:100CB0009B689847200000F0D1F90028F3D03A4C07
:100CC000A368002B00D1D7E0049B1B680393039A11
:100CD000636E934220D81300FF22374DC8336366FA
:100CE00061682B6893438A002B60521913690123B2
:100CF0008B4080212868490403430B432B6015690E
:100D0000002DFCDA2C492D4A0B6813400B606B0058
:100D100064D501235B42A3642949E06C02F0E0FF43
:100D2000002800D0A8E0049B1D68236E002B0ED085
:100D3000AB420CD2200000F0E9FEE16D002900D1A9
:100D4000DEE028004E1902F0C5FE761A2666636FB3
:100D5000002B00D190E0AB4200D38DE02600783626
:100D60002300C0339E4200D0CCE0216F002900D187
:100D7000CFE028004E1902F0ADFE761A66677BE0E0
:100D800000221D685F689868BE18AC18904202D8AF
:100D90000C33FFF7A7F9246804323460F4E7C04647
:100DA000700000105C0300101C0100109A999999C2
:100DB0009999B93F7400001000C00140FFFFFFF88F
:100DC00000C079C400221E685C68B518944202D83D
:100DD0000833FFF78DF928600432F6E72D044E4BF7
:100DE000AD0DA5649D4297D0A66BE76B731CEF1900
:100DF0000593002E47D1256138000599E76302F07D
:100E00006DFE059B0500A3632064606C04F058F937
:100E1000060028000F0004F053F902000B00300018
:100E2000390003F085FE00223C4B03F081FE0022D6
:100E30003B4B03F063FB00223A4B03F079FE04F0D6
:100E400091F9276D061CE0640021381C02F048FF70
:100E5000002807D1656D3449281C02F041FF0028A5
:100E60001FD066653049E06C02F03AFF002830D0B0
:100E7000A368002B00D04FE72C4BC0349C4200D01D
:100E80001EE730BF0FE70A21300002F00DFF890096
:100E9000611808690D61092EAEDD381A0A21E06378
:100EA000ADE7291C301C03F065F90021051C02F098
:100EB00031FF002802D180231B06ED18291C381CA5
:100EC00002F014FF0028CDD02000666500F01EFE61
:100ED000C8E7626F002A06D0FA2189008C46039B7E
:100EE00063449A42C4D3250078352300C0339D4221
:100EF000BED028000022E16C00F09BFD1835F4E71D
:100F0000216624E730000122E16C00F092FD1836E2
:100F100026E76167B0E7C046FF0300000000E03F3E
:100F200000208C4000408F4000C079C41C04001099
:100F3000F7B57D260192099A040096400C4A00916B
:100F40001568012B08D108997143C16528004F1914
:100F500002F0C0FD7F1A2766009B012B07D1019983
:100F6000280071434E1902F0B5FD761A2666F7BDCA
:100F70007000001030B57D24049DAC4002290BD1D7
:100F80006343C366C36E002B00D04367012A02D1BE
:100F9000039B5C43046730BD0129F3D1C166F1E7CF
:100FA000704700697047006901307047006902307E
:100FB000704700690330704700690430704700696A
:100FC0000530704700690630704700690730704788
:100FD00000690830704700690930704700690A30BD
:100FE000704700690B30704700690C30704700692A
:100FF0000D30704700690E30704700690F30704740
:101000000069103070470069113070470069123074
:1010100070470069133070470069143070470069E9
:1010200015307047006916307047006917307047F7
:101030000069193070470069FF30704700696230FD
:1010400070470069633070476020704761207047C7
:1010500000487047245600001220704770B503798D
:10106000002B01D1002070BD836EC06E1C7D5D7DA4
:1010700003689B6C9847092300781C40082CF1D129
:10108000012DEFD1FF3843425841C0B2EBE78182D6
:10109000704700207047172070470022836A5A600B
:1010A000704703004833197043795A1E9341020078
:1010B00049321370044B1B681A00FA32FA3300D11C
:1010C0000122C2647047C04670000010E02310B5D2
:1010D0009B00994202D10121FFF7E3FF002010BDE0
:1010E00070B50400006D0D000368DB6E984706784C
:1010F000206D36020368DB6E9847437833439D4288
:1011000011D0206D0368DB6E98472B0A0370206DA9
:101110000368DB6E984701234570226D1375034BFE
:101120001B6832339361A58270BDC0467000001009
:1011300070B50500006D0C000368DB689847002857
:1011400005D0286D036821001B68984770BD286B87
:1011500021000368DB6898470028F7D0286BF1E787
:1011600037B51400F0220125806B92000A406D42D1
:1011700001680095CD682100A84701203EBDC0232D
:10118000F7B5089C05009B00994200D16BE00BD895
:1011900080200E00013BFF3B86439E4222D0803BD5
:1011A000994210D00020FEBD514B99426FD0514B57
:1011B000994200D192E0E0239B009942F2D10121B3
:1011C000FFF76FFFEEE76421D379127A617163391B
:1011D000A17141390B43E371002322726372A37240
:1011E0000120E0E70F23D679107A1E40537A1B02C4
:1011F0000343A0205BBA9BB2019380002B6881421D
:101200001AD022002B6828005B6C01991F000A325B
:101210003300B847431E98414042064033006333D1
:1012200063710223A3713E333343E371019B1B0AB5
:101230002372019B6372D3E71B6C28001F00019986
:1012400033000A32B8470028ACD02B6828009B6BCB
:1012500098471F28A6D9286B03685B6998470378CD
:101260005B079FD5CDE7D3799B069BD16323637141
:10127000603BA3713D33E37103689B6B9847000AA1
:1012800020722B6828009B6B98476072A8E7137A3E
:10129000527A072B15D10221FF2A19D103210022EE
:1012A000063B64202272002260716138A0719E307A
:1012B000E0716272A372914292D02800FFF7F1FEB2
:1012C0008EE75A1E062A05D802210022012BE8D0FB
:1012D0000A0001E0002102220023E2E76223637199
:1012E0005F3BA371CF33E3710023237278E7C046DD
:1012F00081030000D1030000C36A002B09D1020062
:101300005F3213785A30013313704023028813433D
:1013100003807047036870B59B6804000D00984710
:1013200043780020052B04D92368290020005B683E
:10133000984770BD036870B55B690C00150098474D
:10134000002806D0E30700D52D016410035D2B4370
:10135000035570BD30B504000D0085B00A220C495C
:1013600001A804F0AFF8236829009B682000984783
:1013700043780120052B05DD0F2B05DC01AAD318CE
:10138000063B187805B030BD01204042FAE7C04660
:1013900029560000436810B50400186D0368DB6D22
:1013A00098470178081E06D06068036D5B68C9180D
:1013B00089B2FFF7BDFE10BD036810B51B690400BC
:1013C0009847002803D041786068FFF7B1FE10BD50
:1013D000036810B51B690C009847002803D003214F
:1013E00061430231401810BD70B504AC060018000E
:1013F00008CC2578FA24A400B46518244C430131A4
:1014000034193668E16721008031A6670A7022002E
:101410008832137003F082FE0B4A0C4B03F088FBFA
:1014200003F0A0FE2600230008368C33F0671D6011
:10143000074B2900586FFFF7CBFF00236D0089345D
:101440000570237070BDC0469A9999999999B93FD2
:101450007000001010B50400FFF7BAFF031E0BD098
:101460005B78017860689B0603D5036D5B68C918DB
:1014700089B2FFF75DFE0300180010BD10B5FFF73D
:10148000A7FF013010BD0023421D4371D377821D99
:10149000D377C21DD37701225242028102320271F8
:1014A000034AC3801380034AC36013807047C04659
:1014B000EC000010EE0000100222431D10B5DA7798
:1014C0000F2381694A791A40036807325B6A98479B
:1014D00010BD10B5036B1B7DDB0710D5C02905D0EF
:1014E00080235B0099420CD0002010BD517A137A02
:1014F00009021943036849BADB6889B29847012099
:10150000F3E7431DDA7FD1B2002AFBD10132DA774B
:101510008369B024D9701971E1219A713F321C702E
:101520005971DA71FFF7C8FFE9E770B50500C36BC1
:1015300004005A35002B13D00022C26380682B8828
:10154000411DCA77826992797F2A09D91B060ED577
:101550000B23C356022B0ADC0133C372FFF7ACFF27
:101560000023E3616362A3632B80E36570BD002306
:10157000C372F5E7F0B585B00393036802911B6869
:10158000040017009847029906002000FFF7C2FEEA
:1015900063685A1DD17FCDB2AC460029FAD1013122
:1015A000D1779B69BC22B9B21F710F271A700A0A42
:1015B000DA70421C1740202252423A435A71039A71
:1015C0008027002A00D0403F00281CD01A00013E8E
:1015D0000832002812DC00229A7162463A43DA711E
:1015E000029822680090D66820008022B047606888
:1015F000FFF762FF029BE36005B0F0BD355C013888
:1016000015700132E5E732789446E4E7F0B589B029
:10161000069343680400586B0491036805929B6825
:101620009847636805780190586B049903681B68B4
:1016300098470390002808DB6B000793019B5F1C11
:10164000019B079AFB1A9A4201DA09B0F0BD3B7878
:10165000039A93422FD17E780E9B9E422BD0236813
:1016600031009B68200098474022059D0378403D4B
:10167000954329D12C3A134093421CD12368310061
:1016800020001B6898470290002814D031002000E9
:10169000FFF740FE002810DD069AC31DD3186A42EA
:1016A0009A5C02994A5501358542F8D108223100E9
:1016B0002000FFF73FFE0237C2E73F22069BDB799F
:1016C0001340029A1370F1E7059A002AF3D10C3205
:1016D00013409342EFD1012331002000049AFFF719
:1016E00049FFE8E7F8B50C00411DCD7F002DFCD186
:1016F00040260135CD77170A8569D2B2344203D02E
:10170000990021430E43F4B2B0232B70503BEF708D
:101710002A716B71AC71FFF7CFFEF8BD0A4A10B5A4
:1017200013880400013313804379002B01D0002378
:10173000437181212000E2880023FFF7D3FF236853
:1017400020009B6A984710BDEC0000100023821D0A
:101750000730D377C3777047426803000020914277
:1017600003D39B688B424041C0B27047030010B561
:101770000020914206D85C68A14203D39B68934243
:101780004041C0B210BD43680069C91A4018704793
:1017900042680300891AC2680020013A8A4201D3D4
:1017A0001B69585C7047426810B5891AC2684C1CA6
:1017B000013A03000020944204D81A69535C105D7A
:1017C0001B02184310BD43680069C91A40187047CE
:1017D00042680300891AC2680020013A8A4201D394
:1017E0001B69585C7047426810B5891AC2684C1C66
:1017F000013A03000020944204D81A69535C105D3A
:101800001B02184310BD10B5064B002A01D19847A2
:1018100010BDBFF34F8FBFF36F8F72B6984762B69C
:10182000F6E7C046F11FFF1F322330B58BB000939F
:101830000309019305000B090C000122684605A964
:101840000293FFF7E0FF059BDBB20593002B0FD15E
:10185000FA213B330093084B8900186801950294E4
:1018600002F0B2F80122039005A96846FFF7CBFF0A
:101870000598C0B20BB030BD1C000010F0B50400DC
:101880000E0015008BB0BFF34F8FBFF36F8F72B692
:1018900032230093C3171B051B0DC318013A82188E
:1018A0001B130193D3171B051B0D9B181B13002241
:1018B000684605A90293FFF7A6FF059FFFB20597AB
:1018C000002F04D062B60598C0B20BB0F0BD332330
:1018D000FA2100930D4B8900186801940296039534
:1018E00002F072F83A00049005A96846FFF78BFFF2
:1018F000059A002AE6D13823684605A90093019489
:1019000002960395FFF77FFFDCE7C0461C0000103E
:1019100030B50C4D8BB02868002811D13523022436
:1019200000930122684605A901940294FFF76BFF1A
:10193000059B072B02D00234802CF2D120032860B3
:101940000BB030BDF0000010F8B50400FFF7E0FF69
:101950000C4FC519FFF7DCFFC7198020E66940016D
:10196000310002F031F8013870433818A84201D232
:101970000020F8BDE368C318013B1B78FF2BF8D1AA
:10198000801BF3E700F0FFFF024A13680133136086
:101990007047C04670000010036870B55B680C00AB
:1019A00098470300021E00D0027801202112033361
:1019B000E4B2824202DA0120404270BD1D788D42BD
:1019C00002D15D78A542F8D001300233F1E74368D7
:1019D00010B5D86E03689B6E984710BD436810B56C
:1019E000D86E036804699B6D98470078201810BD75
:1019F000036810B55B689847007810BDF8B50368B8
:101A000004001B680D0017009847236806005B68F8
:101A10002900200098470023C21A002A05DC29006B
:101A200003222000FFF786FCF8BDFA5CF254013374
:101A3000F2E7F0B585B00191057C04001600002D99
:101A400018D0C768381C02F051F9002814D02B07B1
:101A500012D502AB6D07DA1DED0F1570637C042BF8
:101A600001D1002E04D0124B6169586FFFF7C6FFF9
:101A70000423637405B0F0BD0199381C02F04AF9E3
:101A8000002812D0AB0710D502ABDA1D01231D4090
:101A90001570637C012B01D1002E04D0044B6169C9
:101AA000586FFFF7ABFF0123E3E70023E1E7C046F0
:101AB00070000010F8B5036804001B680D001600E4
:101AC0009847071E1AD0236829005B6820009847B2
:101AD000431C13D03818C21B002A10DC23682000D6
:101AE0005B699847002809D06B10C1180F22C35CAE
:101AF000ED0708D51340213213430B70F8BD3E703B
:101B0000360A0137E7E793430322F5E770B51A4B2E
:101B1000C468866E5D6FC06C002C29D1174902F035
:101B2000EBF902F0CBFC8023DB04C218144B9A4281
:101B30001CD800280EDA134B984211DB4005400DEB
:101B4000E402114A2043024392B231002800FFF719
:101B5000B1FF70BD80231B01984204DAE202F2E774
:101B600040100134E8E740100134F5E7074AECE79C
:101B700002F0E4F8C2B2E8E7700000100000C842CA
:101B80000080FF0700F8FFFF0080FFFFFF7F0000DD
:101B90000323594310B589B20624802A00D1043C9E
:101BA00007228A408C40836A93432343836210BD9B
:101BB00030B5032407254C43A540A24043694900A2
:101BC000AB43134330228A404361C36B9343C363E7
:101BD00030BD70B5836A9868808A040A4C7088703A
:101BE000FF24002085B2AA421BD88C54D963BFF3CE
:101BF0004F8FBFF36F8F72B6DA7E012A0FD10621A5
:101C0000D976D9680868022141604260997E030054
:101C10008C0018331B191A600232FFF7C9FF62B635
:101C200070BD0D5C01306C40DCE7020070B5040053
:101C30005E32BFF34F8FBFF36F8F72B6E37E012B1F
:101C400009D0062B1ED1E36B002B04D01378002B98
:101C500018D1002916D1E368217E1D688022280052
:101C6000FFF796FFA67E280031000222FFF7A0FFB3
:101C7000B600064B1835AD192B600023E37662B62B
:101C800030BF70BD62B630BFD3E7C046FEFF000074
:101C900010B504000121806A4834FFF7C6FF23789D
:101CA000032B08D1BFF34F8FBFF36F8F72B6802322
:101CB000054A5B051A60BFF34F8F044B044ADA6094
:101CC000BFF34F8FFEE7C04655B01F5E00ED00E04A
:101CD0000400FA0570B50500C368017E1C68812206
:101CE0002000FFF755FFAE7E200031000122FFF7F4
:101CF0005FFF02236360013B6360B600064B18344C
:101D0000A61933606B7E9B00E418044B236000230C
:101D1000EB76EB6270BDC04617110000FFFF0000BC
:101D2000802301385B0498420DD2C021064A09067F
:101D300050600648036A1B021B0A0B430362002320
:101D4000936007331360704710E000E000ED00E09F
:101D5000802070B54004FFF7E3FF00F0E7F81F2193
:101D600001220A4B80241B68094D19408A405B06FA
:101D700008499B0F9B005958E4039000AB6823402F
:101D80005E4273415B4213404350F7E7140000107A
:101D900010E000E034560000F7B543069B0F0093B7
:101DA000404BC0279C466246009BFF019B009D580C
:101DB0001F230340019301231E00019CF022A64033
:101DC000802412020A400905090DB6B22402BA4263
:101DD00010D12B5933432B51C30507D401231F22A4
:101DE00044121440A3424FD1002331E0012380224A
:101DF0001143F4E7E027FF01BA4206D12B593343E0
:101E00002B51C30538D40623E9E72F59B7432F5187
:101E10008024A401A24229D1234A904203D1234B1A
:101E200000221A6004E0224A904203D11F4A136044
:101E300002230DE01F4A904201D11F4BF0E71F4AD9
:101E4000904203D0C30519D40723C8E71A4A136088
:101E50000C2200980B43424301981218520062442E
:101E6000128A1748121892001360F7BDC02402238B
:101E7000A401A242B0D1B2E70623B8E70723B6E730
:101E80000123E5E70323E3E784131440A342F7D0DB
:101E9000C41414409C42CBD0001610408342F1D0B1
:101EA000FFF756FF3456000002C23A00C04004401B
:101EB00063823D0025423C00D040044049C20100FD
:101EC00000100110F7B51F0008AB1B7804005BB2CF
:101ED000019309AB1E784B1C036015000020012AFA
:101EE0001AD1A2608A00C0210C4B89019B181B6F7C
:101EF00063600B4BD058FFF74FFF019B31006364C9
:101F0000084BA6666365E364074BE760586FFFF70D
:101F10005FFA760006702800FEBDC0463456000009
:101F2000B456000000C079C470000010C02110B584
:101F3000054CC9012068FFF72FFF80216068490127
:101F4000FFF72AFF10BDC04614000010F0B50700CF
:101F50000C00806A00218DB0FFF767FEB86D002885
:101F600003D0036821001B6898473D6D2B7D002B33
:101F700069D0BFF34F8FBFF36F8F72B62800FFF7A2
:101F8000E3FC0400FFF7C4FC554BEE69C318802046
:101F900031004001019301F017FD01387043019BAE
:101FA000181884423ED1FFF7B3FC4D4BC418FFF71D
:101FB000AFFC4B4BC018844238D13223E6173605AC
:101FC000360DA6193613012207A902A8029303961B
:101FD0000496FFF718FC079BDBB20793002B1BD17D
:101FE000FA21343302933F4B890018680396049614
:101FF00001F0EAFC0122059007A902A8FFF703FC03
:10200000079B002B08D13533012207A902A80293B0
:1020100003960496FFF7F7FB079BDBB2002B05D076
:10202000FFF796FE002CBED0A419C0E700262B694E
:10203000EA689B18013B1E70EA6896423ED3002373
:102040002B75AB6162B67C6D002C2BD0264D635D89
:10205000002B0FD0A0680100FFF7E6FB0028DFD1BE
:1020600080222100606852001431FFF707FC00282D
:10207000D6D160551D4D635D002B13D08526B6006B
:10208000A0590100FFF7D0FB0028C9D12100802210
:10209000A059153100025200FF31FFF7EFFB002875
:1020A000BED16055B86ABFF34F8FBFF36F8F72B662
:1020B000FFF710FE62B601200DB0F0BD8023921B29
:1020C000DB009A4200DD1A002969A0198919FFF77F
:1020D000D5FB0028A4D18023DB00F618ACE7C0466E
:1020E00000F0FFFF1C00001022020000210200008F
:1020F00010B504000121FFF729FF2000FFF7C8FDFC
:102100001021F0B5037EC26899400D0012680400EA
:10211000106885B005400095014226D09800130054
:1021200015002C331B181868A37E18359B00EB187C
:102130001E68637E9B00ED182B68834215D92369C6
:10214000B94D5F06BF0FBF007F591F252B401B3DB8
:102150009D40EB59002B02D0116005B0F0BD936893
:10216000984217D81B1A032BF3D9E07E0D2801D90A
:1021700000F078FC01F09EFD1100340037004100B2
:102180008E012B025502F0022E034603F0031204C7
:102190004604550401339B19E4E7E368A17E1D68FA
:1021A00001238B402A681A4206D10523AB60FF2227
:1021B000E3681B681A60D0E72B008A0018339B186D
:1021C000A62252011A6028000322FFF7F1FC062321
:1021D000217EE3760A338B402A681A42C5D1E6E7AE
:1021E000009B002BE3D0220000235832236313808E
:1021F000FF22E362013362652365E368A17E1D6807
:102200008B002E001836F618884B3768032233608F
:102210002800FFF7CDFC009B002B00D01CE1636D74
:10222000256B002B35D1236D002B39D10023E362C0
:102230000633E37622002100256B5C32583110789A
:102240000B88012D38D1002800D1F7E00020107054
:1022500010229343E26C0B80824202D0636BCC2B42
:1022600013D0E169236A994209DA616AA36A994243
:1022700000DABAE0002A02D0636BCC2B05D0220032
:1022800080235A3211880B4313802000FFF74DF949
:1022900018E022001023583211880B431380C5E741
:1022A000009BE3620623E376072DC3DD2C22236C1B
:1022B0001B789343902B1FD0220080235832118823
:1022C0000B4313805A4E22005C321378002B05D04A
:1022D000230001215E33197000231370E36881220B
:1022E0001D68217E2800FFF753FCA27E183592005E
:1022F000013EA81806605AE7A06803685B6B984720
:10230000A84297DB236C1979DA78090211435B79CB
:1023100049BAA26889B27F2B14D94D424D41506B06
:10232000009BEDB2002804D003681B689847C343A4
:10233000DB0F1D43A3681B6B1B7D5B0706D5002DC0
:10234000C0D003E0938A009D9942F3D12022206CF3
:10235000037813420ED06368002B30D1CC22E262A6
:10236000226B216C934233DB2300626000225833DE
:102370001A8015E021680D786B409343EBD1226BF6
:10238000013A0133934204DAC65CCD5CAE42F8D028
:10239000E1E79342DFD16368002B10D1CC33E362D5
:1023A000A36840211B6B1A7D012352089343226CC2
:1023B00012780A40134310D00023E36282E700231F
:1023C0002200E3625832118840330B431380E7E761
:1023D000C95C2268D1540133C2E7E36A002B00D103
:1023E00070E70523134EE3766DE7230020002100FC
:1023F0005A335D305E31002A0DD0626BC02A01D0A5
:10240000002A08D110221D880B4E2A431A8001236E
:1024100003700B7057E704221D882A431A8000239B
:10242000037001330B704DE734560000FEFF0000CF
:10243000F0130000B3050000A13C0000626BCC2A41
:1024400006D00C2A04D0C02A02D0002A00D033E7DC
:10245000902293430B8035E72B00217E2C3388009C
:102460001B18AA681B68934211D8D31A0233AB60B9
:10247000CF4B812233602800FFF78AFB0423E376E9
:1024800000236363A36401336364E3648FE6013272
:10249000D219EAE70120E368A27E1B6890401D681C
:1024A00029000140054259D0183392009B181B683F
:1024B0000133A26C1000443098426EDA80266832F4
:1024C000A2647600A26C606C1700443745009F42FE
:1024D00055DAB04248DD656400296CD0636B256B2A
:1024E000DAB26263002D08D19B0706D02200802358
:1024F000583211885B000B431380A06803685B6B44
:102500009847854250DA236B226C616B581C20631C
:10251000D154636D626B53406365E36C002B05D14E
:10252000210008225831088802430A80226DA17ECA
:10253000134023650323E376E3688A001D682B00BC
:1025400018339B18ED2228001A60EC3AFFF730FB95
:1025500081222800217EFFF71BFB28E6227E2C33F8
:1025600092009B181B68A4E7676B6832384360636E
:10257000E06CA264474278416564E064A2E72132DE
:102580009A42A8DA802252009042A4DC20005830FF
:102590000688FC3A324302809DE72000042258302E
:1025A00005882A43028097E72200202358321188A9
:1025B0000B431380B1E78222D200934200DCF6E5A0
:1025C00022000123583211880B431380EFE5009B52
:1025D000002B04D00023E3620223E376C5E5009BD1
:1025E0006821A363E3681D68637E2A009B0018329C
:1025F000D3181960A17E28008B00D3188A221A6094
:10260000873AFFF7D5FA81222800217EFFF7C0FA2A
:10261000009B009A236323005A331A800723E37632
:10262000C5E5009B002BD7D126005E363378002B02
:1026300007D0E269236A9A4208DA626AA36A9A4278
:1026400004DA23005F331B78032B08D92200802390
:102650005A32118820000B431380FEF766FFE16BAE
:10266000002960D00F224B7913400833A3633378DD
:10267000002B0BD020230A781A4207D09A430A7005
:10268000A26BE16B013A885C43408B54E36B216A97
:102690001D7824231D40243D6B1E9D41454B6D42FA
:1026A0001D40A2353378FF35002917DC002B35D1CA
:1026B000E3681868637E02009B001832D3181D601F
:1026C000A17E22358B00D3181D600322FFF770FA1C
:1026D000220000235A32236313809FE7A26A002B53
:1026E0001ED0D3179B1ADB0FE26901329142DFDD66
:1026F000626AA16A01328A42DADA002BD8D023005A
:102700005F331B78032BD3D083203A212A4BFF3130
:102710001B68584301F0DEF94D19C9E70023E3E7D0
:10272000002AECDCC4E7E36881221D68217E2800D2
:10273000FFF72EFAA67E280031000222FFF738FAB2
:1027400018351E4BB600AE193360637E9B00ED1842
:102750001B4B2B60012362E7E368A17E186801230D
:102760008B4002681A422DD10300227E2C33920046
:102770009B180200657E1832AD0055191B682E6843
:1027800037001E3F9F4208D9236B002B02D0200048
:10279000FEF7B2FD0A4B2B601EE79E4206D9806809
:1027A000890001302233521828601360082336E76D
:1027B00077040000C7FEFFFF70000010FEFF00005E
:1027C000FFFF000008232200E3765A3211881833F5
:1027D0000B431380E36A002B04D1236BE26B591C7B
:1027E0002163D35C8021636301234900626B134240
:1027F00001D04A4062635B00FF2BF7DD0123636475
:102800000833E3760126E368A17E1D6833002A6859
:102810008B401000184001901A4278D12B00227E84
:102820002C3392009B181F68022F00D8BFE4682148
:10283000380001F04FF93D2906D82000FEF75CFD75
:102840002000FFF747FAB2E4637E18359B00ED18CD
:102850002B68073BBB4200D8A9E42000FEF74CFDE3
:102860002300019A58331A80FF236365E36A2665C3
:10287000E664002B31D0E262A37E68210193E36815
:102880001B681E000393019B18369D00751928686C
:102890000238C01B01F098F8636C3A000130034124
:1028A000683AA264626B591E0A400A21636402926C
:1028B00062635B10002B1FD1683359437B1ECB181A
:1028C00003222B6001990398FFF772F9637E664A31
:1028D0009B00F3181A6004237FE6226B013A2263FF
:1028E000226B9A42C8DDE26BD15C226CD154626DDE
:1028F00001334A406265F3E7029A0139134204D07A
:10290000E06C020050425041E0645B10D2E780234B
:10291000626C9B009A421FDC8026993B676BFF3BF1
:102920007600626C500060643A4201D0B2420EDD23
:102930008026627E18359200AA18B600B04208DDE3
:10294000494889001060013B6D182B602FE4683303
:10295000E7E718002338F4E7E368226B1868A36BF5
:10296000050018359A4211DAE36A002B0ED18B224A
:102970000733E376637E52009B00EB181A603A231C
:10298000FF33A27E013B9200AD18DEE70B238022CD
:10299000E376217EFFF7FCF84523F2E7E3681D6844
:1029A000E36A002B11D00023E3620633E376812231
:1029B0002800217EFFF7ECF82C4BA27E1835920000
:1029C000013BA8180360FFF7F2FB230001225C33F0
:1029D0001A700C232800E376A17EFFF7E9F82300A4
:1029E0005E331B78002B07D023005D331B78002B50
:1029F00004D0636A013363621D4BDEE7E369013390
:102A0000E361F9E70D23E376E36881221D68217E07
:102A10002800FFF7BDF8A37E18359B00ED18154B75
:102A200093E7009B002B00D0D6E5230001225E3304
:102A30001A70009A023B1A70220008235A32118839
:102A40000B4313800623E376E368A17E18688A00AF
:102A5000030018339B18084A1A600322FFF7A8F8EE
:102A6000FFF7A5FBFFF774F9FFFF0000F01300006C
:102A7000B20500009C060000EF13000010B5024BE9
:102A80005868FFF73DFB10BDF0000010802070B5C6
:102A90004004FFF745F9FFF749FA1F2101220A4BCD
:102AA00080241B68094D19408A405B0608499B0F2A
:102AB0009B005958A4039000AB6823405E427341C9
:102AC0005B4213404350F7E71400001010E000E0B1
:102AD0003456000010B50400782102F047FD2000B4
:102AE00010BDF7B50700FEF7CEFC0023BC6A3B49DA
:102AF0006360E363E3616362A363A365E365E36823
:102B0000374A8B424BD1C421FF25364889004258B1
:102B1000AA434250012635001A793349C86F019201
:102B2000073295402A001D6800230243CA6731001E
:102B3000EB636B61AB62637E6A6F99400B0013437A
:102B40006B676B68294933436B60294B186800F049
:102B50003BFF0138E8602000FFF7BCF8254BAB6075
:102B6000637E9E4033001E00EA6B16401342FAD18A
:102B7000E0216069C901FFF70FF91F492069FFF7DC
:102B80000BF9FF231F222B60019B103313401E3AC9
:102B900011009940134B1960FE633A64F7BD1100B0
:102BA00010318B4206D1C4210E4889004258134D82
:102BB0002A40AEE7110018318B4205D1C4210948E3
:102BC000890042580E4DF3E720329342A2D1C4212E
:102BD0000448890042581202120A9AE7F8000010CD
:102BE000F000001000E100E00480044040420F00CB
:102BF0001C000010FFFF000020200000FF00FFFF6E
:102C0000FFFF00FF10B5838A0400002B03D1036887
:102C10000749DB6898472000FFF763FF2300012284
:102C20005C331A70034B1B6863662323236610BD55
:102C3000FFFF000070000010F7B501930368040067
:102C4000DB68006D009303681500DB6E0E0098478B
:102C50000778206D3F020368DB6E98474178009B40
:102C60003943200098472E22236B00271A75206BCA
:102C700003685B69984701220770236B5A75206DC2
:102C800003689B6C9847FF230370206D03685B6C9F
:102C900098470770206D03681B6A984733120370CA
:102CA000206D03685B6A98470670206D03689B6A15
:102CB00098472B120370206D0368DB6A98470570F4
:102CC000206D03681B6B9847019B0370236D1F7574
:102CD0009F61F7BD10B50400FFF7AEFF2000FFF7BE
:102CE00091FF10BD10B50400431DDA7F002AFCD10E
:102CF0000132DA770F23E169A0694A791A40073275
:102D000002F0E0FB2000FEF7D7FB10BD70B50379A1
:102D10000400002B3CD0431DDB7F002B38D14379CE
:102D2000002B35D01C4DC2682B689B1A1B4A93425E
:102D300001D9FEF7F3FC6379012B12D1A31DDA7FD1
:102D4000012A25D1DA7F012A22D1013262712000C5
:102D5000DA77FFF7C7FF0023A3722B6823612B6884
:102D6000E3606379022B13D122692B689B1A0C4A0A
:102D700093420DD90A23E3562000022B09DCFFF70A
:102D8000B1FFA37A0133A3722B6823612B68E36040
:102D900070BDFEF7C3FCFBE7700000106F1700006A
:102DA000B70B0000F0B5040085B0FFF7AFFFA36AD2
:102DB0005A68002A36D0DA6B002A33D1DA6A002A40
:102DC00030D1226B127D52072CD5C0201D685B6864
:102DD0002A79DBB20293EB7812021A43AB79EE79CF
:102DE0001902800001400E43F021A02789003140E4
:102DF000BF00B94208D069DC080080278138FF385D
:102E0000B84380B2002863D18EB2002A62D1236811
:102E10002A009F6931002000029BB84723682000E8
:102E20001B6A9847E06A002838D0BE49FEF7B4FF15
:102E3000E26ABD4D53069B0F9B0058591F231A4051
:102E40001B3B93401A58606C531E9A41B74B216C40
:102E50001B68824200D182E1E3636264236C002B31
:102E600006D1002904D0226B7F3B117D4B401375A6
:102E7000C021E06AC901FEF78FFF01201F22010077
:102E8000E36A1A409140226B5B06127D9B0F024061
:102E90009B00EB58013A0A408900CA50A36ADA6BDA
:102EA000002A11D1DE6A002E0ED1230048331B7890
:102EB000002B09D0250049352A78002A00D15AE193
:102EC0002000FEF72BFC2E7005B0F0BD81429BD098
:102ED000B6B29AE7697952BA92B27F2908D90299B3
:102EE000236800915F6931002B002000B84795E707
:102EF000A18A914200D091E73C2218009043AA7821
:102F0000697812020A4357BA42B2B9B2002A00DB0A
:102F10008FE0802816D081283AD0DA0765D462790C
:102F2000012A00D87AE7E2888A4200D076E70821B1
:102F30000F2061569B0803408B423DD02000FEF7D6
:102F4000EDFB6BE76579002D12D0013D012D00D915
:102F500064E7E3888B4200D160E7754A200013885C
:102F6000013313800A0000238121FEF7BBFB55E7E4
:102F7000236820009B6A98476C4BE7801B6825817B
:102F8000E3606379012B00D148E70123637145E7D2
:102F900063792068013B012B00D93FE7E3888B422E
:102FA00000D03BE70023624A63711388013313802A
:102FB000836A2000984731E700265C4B01311B688B
:102FC0000140A71D2172E360E51DFE77EB7FB34250
:102FD000DBD0216A4A7902400732E06902F072FAD6
:102FE000EB7FDBB2FB77EE77CBE7FF2B00D115E76A
:102FF0006279002A00D111E7082020569B061B0F9A
:10300000834200D00AE7E3888B4200D006E70A2318
:10301000E3562000022B92DC022A90D1FFF762FED9
:10302000A37A0133A372414B1A681B682261E360E3
:10303000F4E6032B21D8671DFB7F002BFCD10C226B
:103040000133FB772878A36910405C3A02431A7079
:103050000A0A1971DA7022680093D36931009C461C
:103060002A0020006546029BA847002803D02000C4
:10307000FEF722FAD2E6F877D0E6E2888A4200D05C
:10308000CCE66179002900D1C8E69B080921180027
:103090000F2761563840030088424BD1C2212000DF
:1030A000FEF720FB637A01333B4063721F4B1B68C2
:1030B000E360A31DDB7F002B2DD12300E7692533BF
:1030C00003930123039A3100137023680097DB698F
:1030D0002A009C4620006646029BB04700281ED06E
:1030E0000C232A781A405C3B13433B70E3881A0A8E
:1030F0003B710823FA70E269E356974202D00F222F
:10310000013313403C21BA799B008A431343402288
:103110001343BB7182E62300276A2633D0E7039B63
:1031200018707BE61010000034560000700000108C
:10313000EC0000100139174D394088420AD1C221F4
:103140002000FEF7CFFA2A007E3213880133138065
:103150002B686CE7C3212000FEF7C4FAF8E7E06BA8
:10316000002800D17AE61B1A322B00D576E6002320
:103170002264E36372E6E16C002900D1A4E6054B0A
:103180001B685B1A00D59FE6236820001B6BE26476
:10319000984799E670000010F0B50379050087B0F4
:1031A000002B00D1D3E0FFF7FDFDAB6ADA6B002AFC
:1031B00000D0CCE0DB6A002B00D0C8E02B005C33F1
:1031C0001B78002B00D1B5E02B682800DB6A9847FC
:1031D000002800D1AEE0614B6A6E1B689B1A2A6E14
:1031E0009A4200D99AE0AC6B236820005B6998474B
:1031F0000190002800D191E0236820001B699847C6
:1032000003780293002B00D188E01900206900F0B8
:103210004BFD21618BB200936B461B880393039A8D
:10322000029B934203D823690133236176E023682C
:1032300000999B6820009847037804936368586B53
:1032400003689B6898470600037801365B00C31843
:103250000593059BB3421CD97378009A9A421BD1FF
:1032600063683778586B01370368DB689847874293
:1032700012D86368586B03685B68984733785B00C3
:10328000C0188278437812021A4352BA92B2002AC6
:1032900004D1009B0133BEE70236DAE74421049BE8
:1032A0000B408B42F5D10120039B01995B08CE189E
:1032B000C95C039B034200D00909CB439B07E8D1BB
:1032C00004200B000340014243D06368581DC77FB0
:1032D000F9B2002FFBD10137C777BC209B6918706A
:1032E0001A71100AE122D8705A719971D971606807
:1032F000FEF7E2F8009BE360009B07219A0004239D
:103300001A40914033788B43012191400B43337035
:10331000009B01332361114B1B686B66FA210F4A36
:103320006B6E1268C900D21A8A4203D3FA22920045
:103330009B186B662B6D1B7D002B08D06B79002BC7
:1033400005D1064B022128001B68FEF7FFFD07B0E0
:10335000F0BD20000099FEF70DF9CDE770000010D8
:10336000F7B51F0003680D00DB69040016009847DD
:10337000A84204D1012F02D133782375F7BD6368C9
:103380002000ED1A2368DB699847A84208D37B190F
:10339000019323682000DB6998477B19834210D290
:1033A00020693A003100401902F08CF8E6E7236802
:1033B0002000DB6998473378A84206D1237501368F
:1033C0000135019BAB42F2D1D8E722695355F6E7AC
:1033D000F0B585B0019303680E00DB6904001700A7
:1033E0009847B04206D1019B012B03D1237D3B704E
:1033F00005B0F0BD63682000F51A03932368DB690C
:103400009847A84209D3019B20005B1902932368C7
:10341000DB699847029B834212D221693800019AE6
:10342000491902F04FF8E3E723682000DB69984769
:10343000A84209D1227D039B9B1BFB185A550135DD
:10344000029BAB42F0D1D3E723695A5DF3E7F0B5B5
:1034500089B006000C001D00181E069251D04B1EAC
:103460005B190020049399424BD8706D00280CD052
:10347000036821009B6898470590706D0499036864
:103480009B689847059B002B1DD1069B0393012346
:103490000593306D21000368049A1B699847002842
:1034A00064D021003000049DFDF742FE0E9B0135E3
:1034B0001B782D1B2A00002B4DD00100039802F031
:1034C00001F801201DE000280BD127002B190793DC
:1034D000069B1B1BDB190393079BBB4219D11C00E6
:1034E000D7E70E9A706D12780368002A0BD000227D
:1034F00000925E6821002B00069AB0474342584173
:10350000C0B209B0F0BD1E6821002B00069AB0477A
:10351000F4E7706D390003689B68984700280ED067
:103520000E9A706D12780368002A0ED00022009265
:103530005D6839000123039AA847002801D03C00A8
:10354000A7E7002301370593C2E71D68390001236F
:10355000039AA847F1E7039901F0B4FF0123326D04
:103560001375434B1B6832339361AAE7306D21001A
:103570000368DB689847002816D0336D21003000BF
:103580009D68FDF7D5FD0E9B01351B782F1B3A007A
:10359000002B1ED00100039801F094FF039B2C0028
:1035A000DB19039300230593306B21000368049A11
:1035B0001B699847002817D00E9A049B1278013394
:1035C000306B1B1B002A3DD12100039AFFF7C8FE78
:1035D00077E7039901F076FF0123326D1375244BD1
:1035E0001B6832339361D9E7306B0368DB69984716
:1035F000844206D1306B0368DB699847049B8342A1
:10360000DAD0306B21000368DB689847002824D0AB
:10361000306B85686B1C05931F1B0E9B1B78002B62
:1036200015D03B002100039AFFF7D2FE039B059CB7
:10363000DB190393049B5D1B049BA34213D3039BE1
:10364000069312E72100039AFFF7C2FE39E73B0019
:103650002100039AFFF784FEE8E7049B5D1C059BAD
:103660002D1B002BE8D06B425D41E8B249E7C04614
:103670007000001030B50F24002585B06C44257013
:103680000094FFF7E4FE05B030BD30B50F240125EE
:1036900085B06C4425700094FFF7D9FE05B030BDAD
:1036A00010B501F013FE10BD80B500AF014B18003E
:1036B000BD4680BD00000010894B8A4AF0B59A6073
:1036C00001221A75884A03211A61022200241A77FE
:1036D000864A85B09A615A1DD177854A1C201A62A4
:1036E0001C7301F0E9FD81235B00836044600600E8
:1036F0000420804BFF303360F0607F4F01F0DCFD31
:103700000300021DFF321C7001339A42FBD10323D8
:10371000B361B3683061033BB360F368B482033BC9
:10372000F3603B00443333602020802501F0C4FD6A
:10373000724B6D00703783604560C56007600400A0
:10374000280001F0B9FD0022030041191A7001336D
:103750008B42FBD120612275A2612000E561FEF75A
:10376000F3F8E268011E206900D1B1E001F0AAFE81
:103770000025634B182023602575A56101F09CFD91
:10378000604B01900393604B039A836001235B427B
:10379000C3605E4B426003600561456108205C4F79
:1037A00001F08AFD5B4B039A03605B4B42607B60D8
:1037B0005A4B02901720FB60BD603D617D6101F0B6
:1037C0007BFD0200030017321D7001339A42FBD1CA
:1037D000F861172001F070FD02000300002117328C
:1037E000197001339342FBD13862172001F064FD58
:1037F0000200030017320021197001339342FAD1FD
:10380000474B786260207B6001F056FD454B0437E2
:10381000C360454B87600361444B0500436100234F
:103820000383172001F048FD010003000022173137
:103830001A7001339942FBD103216B7E2864023355
:103840000B40A868AB76EA76394B6A6929625A6000
:103850000368A9625B6B9847070001F02DFD002209
:103860000300013F002F36DA294B029A2860180026
:103870009A6300224C302F4902802D481963016061
:10388000190060310A70232159661968144F99662E
:103890000199DD62D96328495E63596001991A6410
:1038A000596702991A65996704215C659A65DA651A
:1038B000DE661C67214B7D6001399A63DA631A6406
:1038C000C0330029F8D1FFF7EFFEB86205B0F0BDB4
:1038D00001F0B8FD4CE71A70013F0133C2E7C04662
:1038E000F000001000C00040000001400040014016
:1038F00000800140CC560000B4560000FF010000DB
:103900009C58000074000010E11000009C5700005B
:1039100070000010BC570000D4570000FFFF0000EB
:10392000085800000001001028C201002982690027
:103930001400001040825C00485800001C01001078
:103940008E2120201A4B89005A5882435A50002257
:1039500071391A62FF39C04601390029FBD10122B1
:103960001A645A6459645A64596C1142FCD0232277
:103970008E2180209A6089005A5882435A50012231
:10398000D9681142FCD00321196700215A67596791
:103990005A670122596F1142FCD09A670549064BBC
:1039A000D967064B1A60064B1A60064B1A607047BF
:1039B000008004405F0001000480044094800440C3
:1039C000988004409C800440002243088B4274D3BA
:1039D00003098B425FD3030A8B4244D3030B8B4210
:1039E00028D3030C8B420DD3FF22090212BA030C19
:1039F0008B4202D31212090265D0030B8B4219D3FA
:103A000000E0090AC30B8B4201D3CB03C01A524119
:103A1000830B8B4201D38B03C01A5241430B8B4261
:103A200001D34B03C01A5241030B8B4201D30B034A
:103A3000C01A5241C30A8B4201D3CB02C01A524171
:103A4000830A8B4201D38B02C01A5241430A8B4234
:103A500001D34B02C01A5241030A8B4201D30B021D
:103A6000C01A5241CDD2C3098B4201D3CB01C01A37
:103A7000524183098B4201D38B01C01A5241430941
:103A80008B4201D34B01C01A524103098B4201D32F
:103A90000B01C01A5241C3088B4201D3CB00C01A9C
:103AA000524183088B4201D38B00C01A5241430814
:103AB0008B4201D34B00C01A5241411A00D2014639
:103AC000524110467047FFE701B5002000F0F0F8C2
:103AD00002BDC0460029F7D076E7704703460B4386
:103AE0007FD4002243088B4274D303098B425FD3F7
:103AF000030A8B4244D3030B8B4228D3030C8B4223
:103B00000DD3FF22090212BA030C8B4202D3121208
:103B1000090265D0030B8B4219D300E0090AC30BDD
:103B20008B4201D3CB03C01A5241830B8B4201D38A
:103B30008B03C01A5241430B8B4201D34B03C01A73
:103B40005241030B8B4201D30B03C01A5241C30AEB
:103B50008B4201D3CB02C01A5241830A8B4201D35C
:103B60008B02C01A5241430A8B4201D34B02C01A46
:103B70005241030A8B4201D30B02C01A5241CDD2EB
:103B8000C3098B4201D3CB01C01A524183098B4236
:103B900001D38B01C01A524143098B4201D34B011F
:103BA000C01A524103098B4201D30B01C01A524182
:103BB000C3088B4201D3CB00C01A524183088B4209
:103BC00001D38B00C01A524143088B4201D34B00F2
:103BD000C01A5241411A00D2014652411046704764
:103BE0005DE0CA0F00D04942031000D34042534069
:103BF00000229C4603098B422DD3030A8B4212D329
:103C0000FC22890112BA030A8B420CD3890192115A
:103C10008B4208D3890192118B4204D389013AD097
:103C2000921100E08909C3098B4201D3CB01C01A6C
:103C3000524183098B4201D38B01C01A524143097F
:103C40008B4201D34B01C01A524103098B4201D36D
:103C50000B01C01A5241C3088B4201D3CB00C01ADA
:103C6000524183088B4201D38B00C01A5241D9D2F2
:103C700043088B4201D34B00C01A5241411A00D273
:103C80000146634652415B10104601D34042002B6F
:103C900000D54942704763465B1000D3404201B5EE
:103CA000002000F005F802BD0029F8D016E77047A3
:103CB0007047C04603B47146490840004900095A9C
:103CC00049008E4403BC7047844608006146FFE704
:103CD0001FB500F0C3F8002801D40021C8421FBD61
:103CE00010B500F043F84042013010BD10B500F0AF
:103CF000B5F8002801DB002010BD012010BDC04632
:103D000010B500F0ABF8002801DD002010BD012047
:103D100010BDC04610B500F051F8002801DC0020AD
:103D200010BD012010BDC04610B500F047F80028B6
:103D300001DA002010BD012010BDC0469E2110B543
:103D4000C905041CFFF7F0FF002803D1201C00F078
:103D5000B5FB10BD9E21201CC90500F00BFA00F038
:103D6000ADFB80231B069C466044F2E770B5420021
:103D70004E024C0045026D0A120EC30F760A240E45
:103D8000C90FFF2A10D0FF2C0CD00120A2420AD16B
:103D9000B54208D18B420FD0002A04D12800431E1F
:103DA000984100E0012070BD0120FF2CFBD135437C
:103DB000F9D14B401800F6E70020F4E730B5420097
:103DC00044024D02C30F4800640A120E6D0A000E31
:103DD000C90FFF2A19D0FF280BD0002A1ED10028B6
:103DE0000BD1002D27D0002C34D100292FD0080072
:103DF00030BD002D28D1002A01D1002CF5D08B42F6
:103E000007D1002B23D01800F2E7002C1CD1FF288B
:103E100014D0581E022318400138E9E70028F8D0D2
:103E20008B42F6D18242F4DCEBDBAC42F1D80020CD
:103E3000AC42DDD2E5E7002CDAD0EAE7002D03D171
:103E40008B42E6D10020D3E702204042D0E7012098
:103E50004042CDE78B42E8D0DBE7C04630B54200B8
:103E600044024D02C30F4800640A120E6D0A000E90
:103E7000C90FFF2A1AD0FF280ED0002A1ED1002811
:103E80000ED1002D2AD0002C0CD08B421DD0581EF4
:103E900002231840013810E0002D0DD1002A20D156
:103EA000002C1ED1002923D0080006E0002C03D1ED
:103EB000FF28ECD1002D17D0022030BD0028E6D01D
:103EC0008B42E4D18242E2DC04DBAC42DFD800204A
:103ED000AC42F2D2002B0BD01800EEE7002CECD055
:103EE000D5E78B42D3D1F5E700208B42E5D0CEE772
:103EF00001204042E1E7C046F0B54F464646D6466F
:103F000043025B0A4500C0B599460F1C2D0EC60F33
:103F1000002D00D188E0FF2D00D18DE08022DB0054
:103F2000D2041A430023914698469A467F3D7C026C
:103F30007B00640A1B0EFF0F002B68D0FF2B21D0E3
:103F40008022E400D204144342467F3B5B190021E7
:103F50005D1C0A2A2EDC7E404246022A23DC013AFE
:103F6000012A00D9BDE002296ED001292CD1002000
:103F70000022C005F60710433043E0BCBA46B14604
:103F8000A846F0BD2B00FF33002C65D0032241462C
:103F900011433200013588467A40FF350A2900DD99
:103FA000D8E016000321404601228240A620C0002E
:103FB000024220D05346022B46D0032B00D1BBE057
:103FC00051464C460129D2D02B007F33002B70DDA7
:103FD000620704D00F222240042A00D004342201B8
:103FE00003D5634B1C402B008033FE2B2CDCA2013D
:103FF000520AD8B2BDE790208000024227D1B938DA
:10400000FF3810426DD03E00A1468A46D2E7002C10
:1040100041D1012342461A4390462B0042460121DA
:104020005D1C0A2A97DDC5E7002B26D1042398469C
:10403000033B00259A467AE7002B18D108239846BF
:10404000063BFF259A4672E7FF20002291E7802277
:104050000026FF20D2038CE741460222013511439E
:104060008846FF350A29A5DC02217E4074E70C232F
:104070009846093BFF259A4659E7180001F0FEF8DB
:104080004A46431F76259A4000236D429146984642
:104090009A462D1A4BE7200001F0F0F84246431FE4
:1040A0009C402B1A763B00215D1C0A2A00DC52E75B
:1040B00080E70122D31A1B2B00DD58E79E35220032
:1040C000AC40DA40631E9C412243530704D00F23C7
:1040D0001340042B00D00432530137D501200022B5
:1040E00047E7210C4A462404240C2700100C120434
:1040F000120C44435743484351433A0C0919521890
:10410000944203D9802149028C4660443F04110443
:104110003F0CC9198C01671EBC41120C890E121884
:104120000C439201144312010ED5012362081C4076
:10413000144349E73E00A14680224B46D2031A436E
:104140005202FF20520A14E71D003DE792010020B1
:10415000520A0EE70F29EDD180224B46D2031342BB
:10416000EAD01442E8D13E00FF20224301E7C046D6
:10417000FFFFFFF7F8B54746CE464E024302450023
:10418000720AC40F480080B594465F0A2D0E9B0941
:10419000000EC90FB609FF2824D0012251402A1A67
:1041A0008C420FD0002A00DC6AE1002835D1002EB5
:1041B00000D1A2E0511E012A00D124E1FF2A21D022
:1041C0000A002FE0002A00DC67E100285ED0FF2D06
:1041D00018D08021C9040E431B2A00DC76E02A0097
:1041E000013332E02A00FF3A9146002E42D08C4241
:1041F00055D04A46002A00D19CE0002D00D177E03E
:104200000C003300DB08002B00D16EE08022D203CB
:1042100013435B02FF205B0A24E0FF2DF2D08021D4
:10422000C9040E4301211B2A08DC31002020D140A3
:10423000821A96403200501E824111435B1A5A0185
:1042400060D407212A00194057D00F2119400429B2
:1042500000D00433590150D5501CFE2A45D09B0193
:10426000C0B25B0AC0051843E4072043C0BCB9468E
:10427000B046F8BD012251408C42BAD14A46002ACC
:1042800010D0002D00D198E00023BBE7002E34D0E1
:10429000511E012A6ED0FF2AB4D00A009CE7002AE2
:1042A00000D088E0FE206A1C104200D092E0002D71
:1042B00000D0A4E0002B00D1CBE0002E00D0CAE05B
:1042C0000022DB085B025B0AD0B2CBE73100202082
:1042D000D140821A96403200501E82410A439B18F8
:1042E0005A01AED56A1CFE2D4AD1FF200023B9E742
:1042F000FF22002B4BD10C003300DB08FF2A00D13A
:1043000081E7DFE79F01BF09380000F0B7FF0538FC
:104310008740854221DC3B002021421B0132D340F3
:104320008A1A97407A1E974100223B43590700D0D2
:104330008BE78FE7FE206A1C104212D1002D52D16C
:10434000002B7CD0002EBBD09A1B500100D48BE0F8
:1043500001240022F31A0C40E8E7564B2A1A3B408E
:10436000E4E79F1B7A0146D4002FCDD10024002022
:10437000002377E79B1901250132590100D460E73A
:1043800001214D4819405B0803400B43CEE7571EFF
:10439000012A5AD00C00FF2A33D001221B2F07DC40
:1043A0002021C91B1A008B40FA40591E8B411A4329
:1043B0000500B31A43E7002D23D1FF22002B9BD029
:1043C000511E012AD6D0FF2A1BD01B292CDD02004A
:1043D000731C3AE7FF2A88D09B195B08590700D065
:1043E00033E7DB086EE7002B10D1002E43D0012409
:1043F00033000C4006E70124F71A0C4084E7002B39
:1044000004D13300FEE601259B1B18E7002E00D1E6
:10441000F8E68022D203974204D3944502D20124C5
:1044200033000C40DB08F1E61A002025CA40691A67
:104430008B40591E8B41134305009B1950E7002EFA
:1044400094D0012433000C403AE70C000125F31A04
:10445000F5E6330034E79B1900225901C1D5154A0E
:104460001340DB0801222DE7002A00D17EE713006C
:104470000022DB0826E780230024FF20DB03F1E68F
:10448000002A00D156E7471B3A00002D00D130E743
:104490008022D2040C0013437FE7002A00D101E7F9
:1044A000411B002D01D10A0088E78022D20413436A
:1044B0008BE7C046FFFFFFFBFFFFFF7D410242008D
:1044C000C30F490A0020120E7E2A03DD9D2A02DD59
:1044D000094A98187047802000040143952A07DC98
:1044E0009620821AD1404842002BF3D10800F1E710
:1044F000963A9140F7E7C046FFFFFF7FF0B5DE46F2
:10450000454657464E46E0B587B0009201930B03EF
:104510001B0B9B46CA0F4B00040080465B0D0292AA
:1045200000D16AE1D44A934200D18CE15946420F4E
:10453000C9000A43802109041143C2009046CF4AB2
:10454000894692469A44002300240393009E019FCB
:104550003B031B0B9B467B0030005B0DFD0F002BCC
:1045600000D128E1C44A934200D177E15946720F45
:10457000C9000A438021090411438B46BF49F20058
:104580008C4651466344CB1A9A460023029E6E40E5
:104590000F2C27D8BA49A40009598F46CB4642466A
:1045A000029E039B022B16D0032B00D1A6E2012B07
:1045B00000D0DFE000220023002490461B052343A7
:1045C000F60733434046190007B0F0BCBB46B2467D
:1045D000A946A046F0BD002200249046A64BEDE778
:1045E0002E00DFE7CB4500D2D4E100D1CFE101239B
:1045F0005B429C46444648460027E2445B46150E13
:104600001B021D43190C2B04120200951D0C914630
:1046100002910395FFF75EFA02006A430B04210C36
:10462000804619438A4209D9009D0123AC465B426A
:1046300061449C46E0448D4200D8FBE1881A02990F
:10464000FFF748FA039A240442430904240C0300A8
:104650000C43A24206D90099013B8C466444A14216
:1046600000D8E1E1A01A424612041A4393464B4691
:1046700059461B0C1D0004930B0449460904090C00
:104680000C001B0C5C43120C6B43884651436A437D
:10469000250CAC465B186344994203D9802149023A
:1046A0008C466244190C24041B04240C8A181C191F
:1046B000904202D316D1A74214D25B46009D013B23
:1046C0004F4405934F459B41AC465B426344C01841
:1046D000854200D3A1E1824200D9F6E100D1F1E1A7
:1046E000059B9B463C1BA742BF41009D801A7F4211
:1046F000C01B854200D1D0E10299FFF7EBF9039A84
:104700000B044243210C070019438A4200D978E187
:10471000881A0299FFF7DEF9039A24044243090438
:10472000240C03000C43A24200D95DE14146A41AC7
:104730003A041A43049D13041B0C594347466B4328
:104740009C46100C47430B0CBC44634468439F4297
:1047500003D980256D02AC4660441F0C09041B047C
:10476000090C3F185B18BC4200D202E100D1FDE009
:1047700001231A43434B5344002B00DCAEE05107A6
:1047800000D098E15946C90106D559463E4B19401B
:1047900080238B46DB0053443C498B4200DD1AE703
:1047A0005946D208490711435A465B0554028846C8
:1047B000240B5B0D02E75A46009B1A4300D17EE0B2
:1047C0005B46002B00D100E1584600F057FD020087
:1047D00003000B3A1D27009EBA1A19005846D6400E
:1047E00008398840320002439346009A8A4028499B
:1047F00053448A469A440023C8E65B4603439946DD
:1048000056D05B46002B00D1CDE0584600F036FD77
:104810000B235B429C460200844466461D239B1B7F
:10482000260011005846DE40083988403300034313
:10483000994623008B409846164B00249B1A9A46B3
:104840000023039382E65A46024391462AD100226E
:104850009A46022390460824039377E65A46009B23
:104860001A430D4B9C46E244002A17D102231C43F5
:1048700000239B46023389E6FF07000001FCFFFF8F
:1048800018590000FF030000FFFFFFFEFE070000B5
:10489000F30300000DFCFFFF01F8FFFF03233200CC
:1048A0001C4373E69A460323D9460C2403934DE632
:1048B000002398469A4601330424039346E60123D5
:1048C0001C4300239B46013360E600238024984666
:1048D0000026924B240371E6012252420121C91A9B
:1048E000382900DD66E61F2900DCABE01F204042CE
:1048F000C31A5846D8400300202904D05846884996
:10490000514488400243511E8A411A43072319002B
:104910000024114013420CD00F231340042B00D16C
:10492000F9E0111D91429B410A005B4259075B026D
:104930001C0BD2080A43904600233FE680244B46D6
:104940002403234209D05B46234206D11C4324039F
:104950002E009046714B240B30E680244B462403F6
:104960001C432403029E6D4B240B27E6002B00D131
:1049700000E70098511E84466444844200D284E0DB
:10498000BC4200D2AEE000D1C1E00A00F0E64245F0
:1049900000D92CE64B46DC07580843465B081C430D
:1049A0004346DF072AE600F069FC15239C46844451
:1049B0000200634620321C2B00DC2EE7230008385F
:1049C000834099460023984636E700F057FC0200E2
:1049D0000300153220331C2A00DCFBE6009908385E
:1049E000814000228B4602E70099013B8C466444DB
:1049F000A14200D99AE6A24200D897E6831E6444F9
:104A000094E6AC466144013F8D4200D980E68A427B
:104A100000D87DE6871E61447AE6854200D05FE6D5
:104A2000B94500D95CE656E6A24200D81AE6831ED4
:104A3000644417E68A4200D800E6AC46831E9846D6
:104A40006144FBE537481400504482405B46170040
:104A50008340CC407A1E974123433B431A005B4678
:104A6000CB40510709D00F211140042905D0111D59
:104A70009142924152429B180A00190200D455E714
:104A8000002201230024904698E50A00BC4200D091
:104A90006EE64B4500D06BE66CE6234B234A53444D
:104AA000924500DA18E7012149420A1D8A428941EC
:104AB00049428B4466E60F211140042900D161E68A
:104AC0001100F2E7BC4200D80AE602235B429C4692
:104AD00000994F444F459B41E3448C465B426344FD
:104AE000C018FFE54946009D480048458941AC464D
:104AF000494261448146023A6418C7E780245B4614
:104B000024031C4324039046044B240B56E599458B
:104B1000E8D30A00BDE7002308E7C046FF0700000E
:104B20003E0400001E040000FF03000002FCFFFF23
:104B3000F0B55746DE464E464546E0B51F000B032E
:104B40001B0B16009A46CA0F4B000400934687B011
:104B50005B0D00D1D5E0BB4A934200D1F8E051464D
:104B6000420FC9000A43802109041143C200914643
:104B7000B54A8A469D180023984602933C037B0061
:104B8000FA0F3000240B5B0D009200D196E0AD4A85
:104B9000934231D0720FE400224380242404144352
:104BA000A94AF000944663445B195A1C019242469C
:104BB00000260A2A42DC5A4600994A409346424659
:104BC000022A32DC013A012A00D949E1022E00D141
:104BD000CAE0012E3DD100230024002210005A46D5
:104BE0001B052343D2071343190007B0F0BCBB4693
:104BF000B246A946A046F0BD924B2643EB18002EC4
:104C000000D1BBE00322414611435A468846009931
:104C10004A40802109018C462900614401914146A6
:104C20000A2900DD33E293460326424601279740D6
:104C3000A6213A00C9000A400F4231D0029E022E3E
:104C400000D135E2032E00D1D2E154464846012E70
:104C5000C1D0019A7D4B94466344002B00DCC0E038
:104C6000420709D00F220240042A05D0021D8242C9
:104C70008041404224181000E20106D5744B019A8D
:104C80001C4080239446DB006344724A93426BDCF1
:104C90006207C00864025B050243240B5B0D9DE7BD
:104CA000902189000F4263D188223A4200D1D7E097
:104CB000009BA2469B4681460296BFE723003343F2
:104CC00000D17FE0002C00D1ADE1200000F0D6FA49
:104CD000020003000B3A1D201900821A3000083927
:104CE000D0408C400443300088405B4AEB1A944625
:104CF00063445A1C0192424600260A2A00DC5AE705
:104D00009CE753460343994654D05346002B00D1A9
:104D100077E1504600F0B2FA0B235B429C4602005A
:104D2000844411005046083988401D23804660465F
:104D30001B1A2000D8400300404603439A46230034
:104D40008B4099460023444D9846AD1A029315E7CF
:104D500052460243914626D100221D00022392466C
:104D600008329046029309E700240022354B35E7CC
:104D7000002380249B462403324B2FE70222414626
:104D800011438022120194462A006244884601920F
:104D90000A2900DD52E75A460020009904004A40E3
:104DA000934602260BE70C221D0003238146904602
:104DB0000293E3E600239A4604339846033B00251A
:104DC0000293DBE6424601331A432B0090465A1CFD
:104DD000019242460024002001260A2A00DCEAE66D
:104DE0002CE70122D21A382A00DDF4E61F2A00DC63
:104DF0002AE11F214942CB1A2100D9400B00202A69
:104E000005D0164A019D94466544AC402043421E9D
:104E100090411843072319000024014003420CD09D
:104E20000F230340042B00D140E1031D8342A44122
:104E30001800644261076402240BC20800230A437D
:104E4000CCE6C046FF07000001FCFFFFFF030000A7
:104E5000FFFFFFFEFE0700000DFCFFFF3E04000009
:104E600049464A460904090C0D00160C020C0004C0
:104E7000000C4543AC4605007543A84615000F00DD
:104E80007543009202952A00009D6F4365462D0CE4
:104E9000A94647444F44B84505D91500802252021F
:104EA0009046454402953D0C039565462D043F040C
:104EB0002D0CAC463D0065440495250C2404240CBF
:104EC000AC4625007543A84665460F00694341443A
:104ED00089466743390C49446E43884503D980228B
:104EE0005202904646440D0CA846350045440595AF
:104EF000039D3F04A8463F0C0904C9198844454650
:104F0000039555462E04360C2F0C35004543784347
:104F100081463800A8462D0CAA46009A5043724399
:104F20004A445244914503D980256D02A94648441C
:104F3000150CA94645462D042D0CA84665467D4313
:104F4000120448449044A9463200654662436E43C9
:104F50007C43170C3619BF19BC4203D98024640264
:104F6000A446E144029C039EA446059D66448E42ED
:104F70008941AC4612043C04120CA2186244494216
:104F800054184644A4464645A44182466442A0467D
:104F9000AA4292418C458941E244D044494252425E
:104FA0000A43A045A44182458941644249420C43D9
:104FB00041463F0CD2191219CC0D049970020843D6
:104FC000411E884141464A44F60D5202304349028F
:104FD00014430843D20135D501224308024013434C
:104FE000E0071843640834E6009BA2469B468146CE
:104FF0008024534624031C4324034A462E4B240B8F
:10500000ECE500F03BF915239C468444020063461E
:1050100020321C2B00DC84E600239946230008384C
:1050200083409A468EE600F029F90200030015320B
:1050300020331C2A00DC4EE602003400083A00202F
:10504000944052E6019304E61C4B21009C46030069
:10505000019DD3406544A94019430300AB40581E4D
:10506000834119430800D4404B0709D00F230B405C
:10507000042B05D00B1D8B428041404224181800A0
:10508000230200D4D6E6012300240022A6E50F293E
:10509000AAD1802352461B031A42A9D01C42A7D191
:1050A0001C43009B02009B46034B97E50024C1E68E
:1050B0000024014B220091E5FF0700001E040000C0
:1050C00070B5002816D0C317C5185D40C40F28005E
:1050D00000F0D4F8104B1B1A5B055B0D0A2814DC9A
:1050E00002002E00153296400B22121AD5402D03D5
:1050F0002D0B03E000240023002500261B052B4375
:10510000E40723433000190070BD0B3885402D03A0
:1051100000262D0BF2E7C0461E04000010B5041E49
:1051200010D000F0ABF80E4B1B1A5B055B0D0A2884
:105130000FDC0B222100121AD14015300A038440E3
:10514000120B01E0002300221B051343200019006D
:1051500010BD22000B38824012030024120BF3E72B
:105160001E040000F0B54B000F035B0D3F4C450FD4
:1051700083B07F0A5E1C2F4300900191CA0FC500C7
:1051800026420BD03A495C18FE2C13DDFF20002389
:10519000C0051843D207104303B0F0BD002B02D165
:1051A00000200023F4E73D43F0D08023DB03FF2001
:1051B0003B43EDE7002C14DD009BFF009B01581ED4
:1051C0008341690F3B430B43590741D00F211940DD
:1051D000042947D00433590142D501340023E0B2F9
:1051E000D6E721001731DBDB80211E20090439437B
:1051F000001B1F281BDD02267642341B0E00E640F2
:105200003400202804D01B488446634499400D4351
:105210006B1E9D4125436B071DD00F2100242940A3
:10522000EB0804291BD15B025B0AE0B2B0E7124C29
:105230001C192B00A540C340A140681E854129438D
:105240000B4300245907C1D19B0100205B0A9FE753
:10525000DB08E0B29CE7AD0100206B0A98E72B1D4C
:10526000DB08E0E79B015B0AE0B291E7FE07000084
:1052700080FCFFFFA2FCFFFF82FCFFFF1C2101233B
:105280001B04984201D3000C10391B0A984201D329
:10529000000A08391B09984201D30009043902A207
:1052A000105C40187047C04604030202010101016E
:1052B000000000000000000010B5034B010018685A
:1052C00000F030F810BDC0462000001010B5034BB0
:1052D0000100186800F000F910BDC0462000001061
:1052E00070B50F4E0D0031680400002902D100F0A6
:1052F000B1F830602900200000F0ACF8431C03D165
:1053000001256D42280070BD0323C51C9D43A842A2
:10531000F8D0291A200000F09DF80130F2D1EFE713
:105320001C040010F7B50322CB1C9343083305007F
:105330001F000C2B34D20C27B94233D8280000F0C0
:1053400071F8374E33681C00002C2FD1390028002B
:10535000FFF7C6FF0400431C5FD134680094009B34
:10536000002B4AD1002C52D023682800E318009962
:10537000019300F06FF8019B834248D12368280015
:10538000FF1A3900FFF7ACFF013040D02368DB196A
:10539000236033685A68002A33D1009B336019E0D8
:1053A000002BC9DA0C232B600020FEBD2168C91B2D
:1053B00020D40B290AD9E2192760A34204D1326014
:1053C00063681160536005E05A60F9E76268A342C0
:1053D0000ED13260280000F02DF8200007220B309B
:1053E000231D9043C21A9842DFD01B1AA350DCE75A
:1053F0005A60EFE723006468A6E7009C63680093A7
:10540000ADE71A005B68A342FBD10023DAE70C2367
:1054100028002B6000F00EF8C6E70760DAE7C04608
:105420002004001010B5024800F04AF810BDC04634
:105430002404001010B5024800F043F810BDC04627
:105440002404001003008218934200D170471970A1
:105450000133F9E7002370B5064D040008002B6006
:1054600000F088F8431C03D12B68002B00D0236088
:1054700070BDC0462804001070B500260C4C0D4DC0
:10548000641BA410A64209D1002600F065FA0A4C5C
:105490000A4D641BA410A64205D170BDB300EB58A1
:1054A00098470136EEE7B300EB5898470136F2E72C
:1054B00064590000645900006C59000064590000F0
:1054C00070477047002310B59A4200D110BDCC5CE4
:1054D000C4540133F8E7FFFF70B505000C1E10D06F
:1054E000043C2368002B00DAE4182800FFF79AFF39
:1054F0001D4A1368002B05D1636014602800FFF774
:1055000099FF70BDA34208D9206821188B42F3D1BE
:1055100019685B6809182160EEE71A005B68002BC8
:1055200001D0A342F9D911685018A0420BD12068CC
:105530000918501811608342E0D118685B6841185F
:1055400011605360DAE7A04202D90C232B60D5E743
:10555000206821188B4203D119685B680918216003
:1055600063605460CAE7C0462004001010B5FEF71F
:1055700097F810BD70B50D4D04002B68002B01D1BC
:105580000B4B2B6003232E6803349C4334192000FB
:1055900000F010F8002802D12C60300070BD00F03F
:1055A0003BF801260C2376420360F6E72C0400103A
:1055B0004804001003000448002803D0002283425E
:1055C000524110007047C0460000000006480749DD
:1055D000091A8B10C90FC91810B5491003D0044B14
:1055E000002B00D0984710BD700000107000001014
:1055F00000000000054B10B5002B03D004490548FE
:1056000000E000BFFFF7E2FF10BDC0460000000051
:105610003004001078590000014B18687047C046EC
:105620002000001042435531000101020304060826
:105630000A0E0E0000000050000001500000025051
:10564000000003500300040007000B000C000D00D5
:1056500013001400180019001A001D001E001F007E
:10566000200024002500280029002A0005000E0043
:105670001B00260002000A00170023001000110082
:10568000000008000900150016001C00210022007F
:1056900027002B000F001200000000000000000097
:1056A00000000000060000000000000001000000F3
:1056B000030000002A83300C0B4110062041100724
:1056C000224110060000000000000000C717000083
:1056D000D1170000E7170000591700006D170000F0
:1056E00000000000000000000000000000000000BA
:1056F0000000000000000000C7170000D1170000E4
:10570000E7170000591700006D1700003D1000005A
:1057100043100000491000004D1000000000000080
:10572000000000008717000091170000A717000075
:10573000591700006D170000000000000000000075
:105740000000000000000000000000000000000059
:105750000000000000000000000000000000000049
:105760000000000000000000000000000000000039
:105770000000000000000000000000000000000029
:105780000000000000000000000000000000000019
:1057900000000000000000000000000055140000A0
:1057A000551300007D1400000D1600009513000035
:1057B000B91300000000000000000000991900006B
:1057C000CF190000DD190000F119000000000000F1
:1057D0000000000000000000000000000D2D00008F
:1057E0008F1000008714000000000000000000007F
:1057F0009310000000000000000000004D170000A2
:105800000000000000000000000000000000000098
:10581000A52D00008F100000E32A0000000000000A
:1058200000000000CD1000009B100000D31B000002
:105830004D17000000000000911C000097100000B0
:105840000000000000000000A10F0000D52A0000A9
:1058500099310000E1100000052C000061110000EA
:10586000D31400007F1100009B100000D31B000028
:105870004D1700005D100000F1200000971000009F
:105880005910000051100000753600008B360000E2
:10589000D52C000000000000000000008717000069
:1058A00091170000A7170000591700006D1700009E
:1058B000A30F0000A70F0000AD0F0000B30F000002
:1058C000B90F0000BF0F0000C50F0000CB0F000094
:1058D000D10F0000D70F0000DD0F0000E30F000024
:1058E000E90F0000EF0F0000F50F0000FB0F0000B4
:1058F00001100000071000000D1000001310000040
:1059000019100000251000002B1000001F100000CF
:105910003110000037100000E4450000D6450000BB
:10592000B4450000E0450000B4450000CA4800004E
:10593000B4450000E0450000D6450000D645000013
:10594000CA480000E04500009C4500009C4500005E
:105950009C4500003C490000F8B5C046F8BC08BCB6
:105960009E467047B9360000F5550000F8B5C046B0
:08597000F8BC08BC9E4670471C
:105978002141565021403A534234766F6C7420319D
:105988002E31300040825C0029826900006CDC0204
:105998002400001000000000000000006800000063
:1059A800D00000000000000000000000000000001F
:1059B80000000000000000000000000000000000DF
:1059C80000000000000000000000000000000000CF
:1059D80000000000000000000000000000000000BF
:04000003000000DD1C
:00000001FF
