:1030000000200010DD300000D7300000A96B000068
:1030100000000000000000000000000021AFFFEFF2
:10302000000000000000000000000000D930000097
:103030000000000000000000DB300000A953000089
:10304000D5300000D5300000D5300000D53000006C
:10305000D5300000D5300000D5300000D53000005C
:10306000D5300000D5300000D5300000D53000004C
:10307000D5300000D5300000995300003D4F0000CE
:10308000D5300000D9660000D5300000D5300000F2
:1030900081530000D5300000000000000000000057
:1030A000D5300000D5300000D53000000000000011
:1030B000D5300000D5300000D5300000D5300000FC
:1030C000A0AE0000C00000108C0000004C010010F9
:1030D00040030000FEE7FEE7FEE7FEE7F0B5F04B39
:1030E000F04995B08B4200D2A1E20020EE498B421C
:1030F00000D2AAE205F06AFF06F068FAFA21EB4E68
:103100008900306805F0A6FF02F046FDE84C062273
:103110002000E84904F09AFE9D21012203232000AB
:10312000490000F093FFC021E34BE448C901DC6192
:103130005C6002F06DFD0122E14B60255A600023C6
:10314000E04A525DFF2A0DD1DF4F2900380005F01B
:1031500047FC002811D10122DC4B3800FA5403F05F
:10316000FDFB012301356F2DEAD1D748002B02D09A
:103170000122D74BC25403F0F1FBA06BD24D036880
:1031800065651B699847002803D006234370BF3349
:1031900083700A23902108AA04349B18E06FCD4A5B
:1031A000C9011A8003681B6898472B000490743388
:1031B0001B78DB43DBB20393002B08D085229200FF
:1031C000C549AA5803919A4201D01B0203930121D9
:1031D000049B1B780B422DD04022C04BC04CD86FB3
:1031E000FF251043D86760680143C5206160BD4C6E
:1031F00080002158A9430A4322508022D96F12012E
:103200000A43DA67022207210020B74B1A60B74B46
:10321000196058601A611C68B5480440EE20C0016E
:1032200020430F2418601868A043014319605968AF
:103230000A435A600222049B1B7813422FD040217C
:10324000A64BA748DC6F2143D9670421446821437A
:103250004160C320A34C80002558A6490D40802121
:10326000C903294321508021D86FC9020143D9677E
:1032700000200721A04B1A60A04B196058601A610A
:103280001C689B480440EE20C00120430F241860B6
:103290001868A0430143196059680A435A60049BA7
:1032A00001271B785B0700D48CE104F073F805F06C
:1032B00031FE3068924905F0CDFE924B42081B6802
:1032C00006971A611A69801A586100230893049BB3
:1032D000089A5B7A9A4200DAC2E10023059305233B
:1032E000059A5343069AD318DFB2049B059A5B797B
:1032F0009A4200DABAE2049B1B7A7F2B4AD920203B
:1033000006F0AAF900266C4D0400AB6C077243600E
:103310007D4B06740360039B4661C36006761030E4
:1033200004F080FA039A039BD0799B79000218433A
:103330000004001407F084F8744906F07FFD0A23A6
:1033400008AA39009B18E0613200E86900F061FCCE
:103350000A2308AA791C9B18E869082200F059FC86
:103360000A2308AAB91C9B18E8690A2200F051FC3C
:103370000A2308AAF91C9B18E869082200F049FCF6
:10338000236820005B68AC649847039B04371B18D4
:10339000FFB20393049B1B7A5B064CD5242006F0F6
:1033A0005BF9454D0026AB6C04004360584B077237
:1033B0000360039B8661C36000230677036143615A
:1033C000103004F057FB039A039BD0799B790002DD
:1033D00018430004001407F033F84C4906F02EFDA2
:1033E0000A2308AA39009B1820623200E86900F01D
:1033F00010FC0A2308AA791C9B18E869082200F02F
:1034000008FC0A2308AAB91C9B18E8690A2200F0E4
:1034100000FC0A2308AAF91C9B18E869082200F09E
:10342000F8FB236820005B68AC649847039B043773
:103430001B18FFB20393049B1B7A9B0600D4C1E0C8
:10344000BA20400006F008F91B4D0100AB6C0126C4
:103450004360304BFE220360039B0400C3600023E3
:10346000243176420391036119004361038486612C
:10347000C66107729205039800F04CFC2100FE2201
:10348000C831059105980121920500F043FC210007
:103490000022FC310A674A6703F07CFF3CE0C0462B
:1034A000C0300000CC300000D4300000F400001028
:1034B000C0030010EDA800004C01001040825C0029
:1034C00000000250B00100109C0100102102000019
:1034D00022020000FC050000B0020010048004403D
:1034E0000080044000E100E09480044000000440BB
:1034F000FF00FFFFFFFF00FF9C80044000800540AD
:10350000801A0600D400001040A900000AD7233C0E
:1035100054A9000068A90000002222616261FE2215
:1035200000210398A661E661920500F0F3FBFE22FC
:1035300001210598920500F0EDFBC1490CAE08226F
:103540001C31300006F06DF8BE4B082231005920C6
:10355000338002F083F8082800D1F8E103F01AFF65
:10356000EB69B91C986B00F061FFEB69FE1C986B6E
:10357000310000F05BFF0A2308AA39009B18E869B4
:10358000002200F046FB0A2308AA791C9B18E86970
:10359000082200F03EFB0A2308AA9B18B91C082247
:1035A000E86900F036FB0A2308AA9B18E86908229C
:1035B000310000F02EFB2368043720005B68AC6408
:1035C000FFB29847A04BA149D86F03681B68984782
:1035D0000600049B0A330393049B2A330493039B42
:1035E0001B78013B1F2B00D9E7E1182006F034F8C7
:1035F000974A039B926C1B784260964A013B02609B
:10360000DBB2954A9B009B5807720500C6600361B8
:103610003078062800D976E2721C059205F09AFEF1
:10362000B00111021302150256026702370200228E
:103630001D685F689868BE18AC18904201D80C33BA
:1036400050E5246804323460F5E700221E685C68A7
:10365000B518944201D8083349E528600432F7E7E9
:10366000642005F0F9FF7A4B04009B6C4360069BD5
:1036700003727A4B0360039BC3600023038283744D
:1036800083828361C361039B1F1D5B781F2B05D859
:10369000714A9B007249985802F0BAFA069B2500BD
:1036A0000593002320350793039B01269A78DB7846
:1036B0001B021343079A134101221E40134200D1FB
:1036C000B6E03B78934235D0022B40D01600079AE3
:1036D0009640002B49D1242005F0BEFF0A2308A9FB
:1036E0005B187A1C0599099003F01CFB099BA269E1
:1036F0002B60238A334323827B78934200D9A361D2
:103700003B7AFA791B021343A269934200D9A36161
:10371000A3690A33A361069B0A37991C4C4BDB69EA
:10372000986B00F083FE0123A374059B0433DBB286
:10373000059325E0182005F08FFF0A2308A95B18E0
:103740007A1C0599060003F0A7FA2E60E3E71C2017
:1037500005F082FF0A2308A95B180093059923004E
:103760007A1C060003F062FAEFE7082005F074FF08
:10377000002303713B4B28600360238A3343238279
:10378000079B043501330793102B8DD1A37C002BAD
:1037900034D0022320260BA90B70A38A03224B707E
:1037A0001B0A8B70E3681878304301F057FF03223F
:1037B00005002D490CA805F034FFE36803221878B2
:1037C0000CA9304301F04AFF06230EA90B70238A8F
:1037D0002D184B701B0A8B70E36803221878EDB22A
:1037E000304301F03BFF2D18EDB2092D01D000232D
:1037F000A374174B1A68A3699B18E3612200039B0B
:103800006032FB1A1370059B069A20009A1A230057
:1038100061331A700E4B9C6423685B689847039B66
:103820001B180393089B01330893059B06934EE5F1
:10383000082005F011FF0B4B0671036028609FE71D
:1038400058A9000026120000C40300102A480000F6
:103850004C01001084A9000040AD0000FCA800004D
:103860001010000010A9000020A90000282005F079
:10387000F3FEB14B00259B6C04004360AF4B077215
:103880000360039B0562C360030010330793456226
:10389000A31DDE7F002E19D1280002F0F9FF039B43
:1038A000DB791F2B0AD85A200399A54A89799B00F6
:1038B00001439A58079803F0BBFD0600A31DDE776D
:1038C000FA239B00ED189F4B9D42E1D19A4DFB1CC2
:1038D0000793EB69F91C986B00F0A8FDEB693E1D9E
:1038E000986B310000F0A2FD0A2308AA9B1839004A
:1038F0000022E86900F08DF90A2308AA9B18E869FC
:103900000822791C00F085F90A2308AA9B18E869A7
:103910000822B91C00F07DF90A2308AA9B18079910
:103920000822E86900F075F90A2308AA9B183100FB
:103930000822E86900F06DF9236820005B68AC6438
:103940009847039B1B180393059B0133C6E40EAEF7
:10395000322002F09DFF18220021300005F02EFEDB
:10396000592333700BABF36003233361300001F054
:1039700046FE0228FAD03369002B00D1F0E5EDE5D0
:1039800080214901180002F043F9242005F064FE6B
:103990000A2308A95B18721C3900040003F0C2F95D
:1039A0006C61654C2800A56400F02BF93F18A06CF1
:1039B000FFB203685B6898473618039B0133039393
:1039C000039A049B934200D009E662B65E4F3B68BF
:1039D00038009B689847380000F03FFB0028F5D07E
:1039E00001246442544B1D689E6C002E00D093E06D
:1039F000BD6B2B6828005B699847041E00D199E0D5
:103A00002B6828001B6998470078002800D191E0B6
:103A10007F22330094466E615A08A1180391012653
:103A20000821A25C1140334202D011006646B14326
:103A30005E1C002978D01C00039B8A431A706E61BB
:103A4000D0E742499EE742499CE7C0211800C901DE
:103A500002F0DEF81F2201202B691A409040727894
:103A60005B0651424A419B0F3A499B005B585242C8
:103A700002408000C250182005F0EEFD0A2308A97C
:103A80005B18721C3900040003F006F988E7C021B6
:103A90001800C90102F0BCF81F212B692D4A1940FA
:103AA0005B069B0F9B009A5804238B4000211C202F
:103AB000995005F0D1FD0A2308A95B18009339003D
:103AC0002B00721C040003F0B1F869E7302005F008
:103AD000C3FD0A2308AA9B18019301230400009345
:103AE000F3183A002000296903F06CF958E73020F8
:103AF00005F0B2FD0A2308AA9B18019300230400D5
:103B00000093731CEDE7082005F0A6FD0023037168
:103B1000114B0400036043E73368300022002900A2
:103B20001B689847766860E7B3B2984200D973E79C
:103B300001236B6130BF49E74C0100102CA9000044
:103B400040AD000010270000C0030010101000005E
:103B500008100000D8A7000010A90000002070473E
:103B600070470920704703207047072070470420E2
:103B700070470820704700207047C36870B5040084
:103B80001878062817D8636905F0DAFB04040416D0
:103B90002C2C2C002069164C4206920F92001459CE
:103BA0001F2210401B3A82401259501E8241186851
:103BB00044681800A04770BD1868D2B205681800A4
:103BC0002469A8471F22012322409340421E9041AE
:103BD0006406074AA40FA400A258404218409B0064
:103BE0009850E8E71868D2B204681800A047E2E7E6
:103BF000D8A70000406910B503689B68984701305A
:103C000010BD10B540690368DB68984710BD0520FA
:103C10007047F0B5806B1D00036885B01B690C0010
:103C200017009847061E22D00122072F08D9093213
:103C3000104901A805F0F5FC01ABDB19063B1A7829
:103C40002B880D499818884204DD0C498B4201D815
:103C50000B4B2B80A4000334A4B23619F7702B88C9
:103C60001B0A33702B8873702B889B182B8005B030
:103C7000F0BDC046C0A700005C060000C4060000FE
:103C80004507000000B582680300507806280AD86E
:103C900005F056FB040A0E1A1410160001225242B7
:103CA0005A610022DA7300BD0122197B4A40F9E70C
:103CB0001A7BF7E70022197B9142F3D15A7BF1E797
:103CC0001A7B002AEED0F9E70122EBE7603000789A
:103CD000704761300078704770470200006970B526
:103CE00043060B4C9B0F9B001D591F2304240340CC
:103CF0009C40002063595E1EB3418B4200D070BDD2
:103D00009669431C864201D91800F3E70020F6E7C4
:103D1000D8A70000F0B504000D0085B0171C0129DC
:103D200000D191E0584B594E0093594859495A4A8D
:103D30005A4B9C46009BA261A3606346E660E36128
:103D400020616161256056496760381C05F090FE6E
:103D50005449061C05F002FD88210190C905301C5C
:103D600006F06CF8019905F083FE85210290C905E3
:103D7000301C06F063F8019905F07AFE8821039063
:103D8000C905381C06F05AF84749061C381C05F0CE
:103D9000E5FC0190012D60D14449381C05F0DEFCA2
:103DA000011C301C05F064FE8521061CC905381C69
:103DB00006F044F83E49051C381C05F0CFFC011CF8
:103DC000281C05F055FE3B493B4B25009C463B4BD0
:103DD0003B4A2362334B3C356362A362E2620023B9
:103DE0002A00002523636363A3631570344A2364A8
:103DF000A264029A6364E264039AE3652265304A2E
:103E00002366A26762466366A366E366E367231DD3
:103E10006665A06504339967DA67009A80331A6093
:103E200001992600381C05F023FE8C3630602549A8
:103E3000381C05F093FC011C381C05F019FE943465
:103E40007060257005B0F0BDFE239B0500931E4EEB
:103E50001E481F491F4A204B6BE70199301C05F093
:103E600007FE8521061CC905381C05F0E7FF10492F
:103E7000051C381C05F072FC011C281C05F0F8FD1F
:103E80001649174BA1E7C0460000C842204E00006B
:103E90000000344300C028450020A3450000AA4389
:103EA00000006145000040410000A0410000964430
:103EB00000401C45787A25BC008019440000664308
:103EC000000048420000FA4310270000000034447C
:103ED000009885460050A0460000F041F4FDD4BB98
:103EE0000000554300697047006901307047006960
:103EF0000230704700690330704700690430704732
:103F00000069053070470069063070470069073066
:103F100070470069083070470069093070470069D0
:103F20000A30704700690B30704700690C307047E9
:103F300000690D30704700690E30704700690F301E
:103F40007047006910307047006911307047006990
:103F500012307047006913307047006914307047A1
:103F600000691530704700691630704700691730D6
:103F700070470069193070470069FF307047006969
:103F8000623070470069633070476020704761207D
:103F90007047062070470A20704700691530704747
:103FA000DC2300699B00C0187047DF2300699B0079
:103FB000C01870470069014BC01870477E030000AD
:103FC000E02300699B00C01870470069014BC018CE
:103FD0007047C04682030000E12300699B00C018BF
:103FE0007047DE2300699B00C01870470069014BD1
:103FF000C01870477A0300000069014BC018704771
:104000008A030000E42300699B00C0187047006920
:10401000014BC0187047C046850300000069014B82
:10402000C018704786030000E22300699B00C01897
:1040300070470069014BC0187047C0469A030000E2
:1040400000487047CBA700002020704737B50025F7
:1040500004680095E46CA04737BD10B503790400EF
:10406000002B01D1002010BDC36F5B7D012BF9D166
:104070000434E06F03688C331B6898474378012B46
:10408000F0D1E06F03688C331B6898478378012B6D
:10409000E8D1E06F03688C331B689847C07801381B
:1040A00043425841C0B2DEE770478182704700202A
:1040B0007047172070470022836A5A6070470300D8
:1040C0004833197043795A1E9341020049321370E4
:1040D000044B1B681A00FA32FA3300D10122C26481
:1040E0007047C0464C010010E02310B59B00994278
:1040F00002D10121FFF7E3FF002010BD70B50500DC
:10410000006D0C000368DB689847002805D0286D17
:10411000036821001B68984770BD286B2100036865
:10412000DB6898470028F7D0286BF1E737B5140013
:10413000F0220125806B92000A406D4201680095D3
:10414000CD682100A84701203EBDC023F7B5089CDB
:1041500005009B00994200D16BE00BD880200E0037
:10416000013BFF3B86439E4222D0803B994210D0C8
:104170000020FEBD514B99426FD0514B994200D166
:1041800092E0E0239B009942F2D10121FFF797FFD3
:10419000EEE76421D379127A61716339A1714139F3
:1041A0000B43E371002322726372A3720120E0E7E4
:1041B0000F23D679107A1E40537A1B020343A020A6
:1041C0005BBA9BB2019380002B6881421AD0220017
:1041D0002B6828005B6C01991F000A323300B84736
:1041E000431E98414042064033006333637102230B
:1041F000A3713E333343E371019B1B0A2372019B7E
:104200006372D3E71B6C28001F00019933000A3248
:10421000B8470028ACD02B6828009B6B98471F2814
:10422000A6D9286B03685B69984703785B079FD51D
:10423000CDE7D3799B069BD163236371603BA37168
:104240003D33E37103689B6B9847000A20722B682B
:1042500028009B6B98476072A8E7137A527A072B65
:1042600015D10221FF2A19D103210022063B642027
:104270002272002260716138A0719E30E07162721A
:10428000A372914292D02800FFF719FF8EE75A1EC1
:10429000062A05D802210022012BE8D00A0001E0FD
:1042A000002102220023E2E7622363715F3BA371D6
:1042B000CF33E3710023237278E7C0468103000007
:1042C000D1030000F0B51700274A85B00D000A9C05
:1042D000914205D0013291422ED0244A91423ED1E2
:1042E000BB7A397A03931E01FF231E40FB7A7A7A48
:1042F0001E4365236371623BA371D333E371217263
:104300006272BB7A0830A372FF7A039BE772174F81
:10431000C06F1B09BD420AD10568019400962D6B40
:10432000A847002800D1A072012005B0F0BD0568A3
:10433000019400966D6BF3E76825397A7A7ABB7A37
:104340006571653DA571D63521726272A372E57102
:104350000830C06F05680094AC6BA047E4E73A00F2
:104360000094FFF7F2FEE0E7D7030000D50300005A
:10437000C36A002B09D102005F3213785A3001332F
:10438000137040230288134303807047036870B59D
:104390009B6804000D00984743780020052B04D942
:1043A0002368290020005B68984770BD036870B5DA
:1043B0005B690C0015009847002806D0E30700D57C
:1043C0002D016410035D2B43035570BDF8B50368E0
:1043D00004001B680D0017009847236806005B68FF
:1043E0002900200098470023C21A002A05DC290072
:1043F00003222000FFF7DAFFF8BDFA5CF254013324
:10440000F2E7036870B55B690D0014009847002857
:1044100009D06B10C2180F21C35CED0704D50B4007
:1044200024012343137070BD8B43FAE710B50722B4
:10443000FFF7E7FF10BD036870B505005B680E006D
:1044400098472B6804001B68310028009847021920
:10445000531E1878A41A1A19002A00DC70BD013BFB
:104460001A7800021043F6E710B5FFF7E4FF0B4C93
:10447000420481B20300120F0800A14205D01804C3
:1044800006D507481843002A05D105F0D9FF10BD0D
:104490004905480DF7E74000013AF4E7FF7F0000C7
:1044A00000F8FFFF70B50D0001790400914224D19E
:1044B0001A4B5B68986BFFF7BEFF431E9841207351
:1044C0002000FFF7DFFB6069A268A8420AD201233F
:1044D000A17B4B40A3731CD09178D3781B020B4374
:1044E0001B186361E37B002B16D0A07B137820742C
:1044F000002B01D00123584070BD01319142E2D11F
:10450000064B5B68986BFFF796FF431E98416073FC
:10451000D6E711795379E1E7207BE7E74C010010FA
:1045200070B50400002A13D001798A4202D04B1CD6
:104530009A420DD1A3685B78802B0BD0812B17D0CA
:10454000002B05D1104B5B68986BFFF774FFA081BF
:10455000002070BD0C4D01316B68986BFFF76BFF4D
:10456000002802D021796B68EEE7A3689B7808E009
:10457000054B5B68986BFFF75EFFA3680028F5D0DA
:10458000DB78A381E4E7C0464C01001030B504009D
:104590000D0085B00A220C4901A805F042F82368F5
:1045A00029009B682000984743780120052B05DDF2
:1045B0000F2B05DC01AAD318063B187805B030BDD7
:1045C00001204042FAE7C046C0A70000436810B58A
:1045D0000400186D0368DB6D98470178081E06D04B
:1045E0006068036D5B68C91889B2FFF787FD10BD6D
:1045F000036810B51B6904009847002803D0417870
:104600006068FFF77BFD10BD036810B51B690C00E7
:104610009847002803D0032161430231401810BDA0
:1046200010B50400FFF7F0FF031E0BD05B78017894
:1046300060689B0603D5036D5B68C91889B2FFF7F4
:104640005DFD0300180010BD10B5FFF7DDFF013060
:1046500010BD436810B504330400D86F036890336D
:104660001B68984741780378090260681943FFF78F
:1046700045FD10BD036870B504001B6998470949E2
:10468000A5684378421C8D4206D15178090219432E
:104690006068FFF733FD70BD51780902194349BACC
:1046A00089B2F5E7D2040000036810B51B690C005D
:1046B0009847002803D0A4000334A4B2001910BD09
:1046C00070B50400FFF7F0FF0849A5680278437849
:1046D0008D4205D1190211436068FFF70FFD70BDCF
:1046E0001902114349BA89B2F6E7C046D204000064
:1046F00010B5FFF7D9FF023010BD0023421D4371F2
:10470000D377821DD377C21DD37701225242028113
:1047100002320271024AC380C36013815381704721
:104720004C0100100222431D10B5DA770F23816976
:104730004A791A40036807325B6A984710BD10B582
:10474000036B1B7DDB0710D5C02905D080235B00E0
:1047500099420CD0002010BD517A137A09021943F6
:10476000036849BADB6889B298470120F3E7431D23
:10477000DA7FD1B2002AFBD10132DA778369B02423
:10478000D9701971E1219A713F321C705971DA7137
:10479000FFF7C8FFE9E770B50500C36B04005A35A1
:1047A000002B13D00022C26380682B88411DCA777A
:1047B000826992797F2A09D91B060ED50B23C3562D
:1047C000022B0ADC0133C372FFF7ACFF0023E36165
:1047D0006362A3632B80E36570BD0023C372F5E7BA
:1047E000F8B50C00411DCD7F002DFCD140260135D0
:1047F000CD77170A8569D2B2344203D0990021439C
:104800000E43F4B2B0232B70503BEF702A716B71E2
:10481000AC71FFF787FFF8BD0A4A10B51389040091
:10482000013313814379002B01D00023437181218F
:104830002000E2880023FFF7D3FF236820009B6A53
:10484000984710BD4C0100100023821D0730D3771C
:10485000C377704700487047D0A7000000487047F2
:1048600001070000426803000020914203D39B68C7
:104870008B424041C0B27047030010B50020914206
:1048800006D85C68A14203D39B6893424041C0B202
:1048900010BDB430704710000378002B01D1180010
:1048A00070478B42FCD00430F6E7F8B505000C00E9
:1048B00016000020052909DC2B6828005F68DB6BE7
:1048C0009847A400225831002800B847F8BD137853
:1048D000072203201340013BDBB2834202D8024A85
:1048E000D318187C7047C046D8A7000070B50400E4
:1048F00015000320062B13DD5678137836021E436D
:1049000076BA02290DD0814211D0012908D16368FD
:104910000433D86F0368A4331B68984706800220CD
:1049200070BD63680433D86F0368A833F4E7636825
:1049300096780433D86F03689B6B9847067063685A
:10494000EE780433D86F03681B6A98470670636873
:104950002E790433D86F03685B6A984706706368E2
:104960006E790433D86F03689B6A98470670636852
:10497000AE790433D86F0368DB6A984706706368C2
:10498000ED790433D86F03681B6B98470570C6E751
:10499000F7B55478137824021C43D37891781B021E
:1049A0000B430721527906000A40013A022A01D935
:1049B0000320FEBD64BA5BBAA4B29BB21B195F1E92
:1049C000009343682100D86F0368DB6898477368D9
:1049D0000500D86F39000368DB6898477368019059
:1049E0000433D86F21000368DB6898477368054378
:1049F0000433D86F39000368EDB2DB689847019B38
:104A00000343DBB2019373685E6D321E0DD03368D1
:104A1000210030009B689847002800D005003368CB
:104A2000390030009B68984702000B4BBB21E4180B
:104A300000231800A142584105430320401B074DA5
:104A4000009CAC466444A1425B410199C0B2194349
:104A5000AFD1002AADD1ABE700F7FFFFFFF6FFFFB4
:104A60000220704770B55478137824021C434368C1
:104A700006000433D86F1500036864BA9C331B68C2
:104A80009847736804800433D86FAC780368A03308
:104A90001B6898470470022070BD70B51400E3785D
:104AA00092781B02134342680600110088310D887A
:104AB000002D01D15BBA9DB20432D06F03689033F0
:104AC0001B6898470580657923792D021D4373681B
:104AD0006DBA0433D86F036894331B689847058018
:104AE000A379E47924021C43736864BA0433D86F51
:104AF000036898331B6898470480022070BDF7B59F
:104B00001F000A3B04000E0000920193012B19D8EC
:104B10000368DB681D003B00A847052813D1009BF4
:104B20005878019B5A1E9341009A0233D218FB1AFF
:104B30000B2807D804F004FC080E1114171A0606F7
:104B400006061D200320FEBD21684F6931002000AC
:104B5000B847F8E721688F69F8E721680F69F5E73A
:104B60002168CF69F2E721680F6AEFE721684F6A91
:104B7000ECE721688F6AE9E72168CF6AE6E7F7B5D5
:104B800055781378D4782D021D43937824021C4362
:104B9000537907221340013B0700022B01D9032060
:104BA000FEBDCC373B686DBAD86FADB20368290043
:104BB000DB6898473B68060064BAD86FA4B2036804
:104BC0006419013C2100DB6898473B68009004337E
:104BD000D86F29000368DB6898473B6806430433B5
:104BE000D86F21000368F6B2DB6898473B680190F4
:104BF0005F6D002F12D03B68290038009B689847F2
:104C0000002800D006003B68210038009B689847C8
:104C1000002803D00320801BC0B2C1E70320009B03
:104C2000801BC0B2002BBBD1019B002BB8D1B6E7D3
:104C300070B5060014000320062B15DD5578137897
:104C40002D021D436DBAAAB202290ED0814213D0A3
:104C5000012909D1CC3633680433D86F0368A433F3
:104C60001B6898470580022070BDCC36336804333A
:104C7000D86F0368A833F3E73500CC352B681900EB
:104C800088310E88002E00D116000433D86F0368D7
:104C900090331B6898472B6806800433D86F0368ED
:104CA00090331B6898472B68A6780433D86F036845
:104CB0009B6B984706702B68E6780433D86F0368BF
:104CC0001B6A984706702B6826790433D86F0368EF
:104CD0005B6A984706702B6866790433D86F03685F
:104CE0009B6A984706702B68A6790433D86F0368CF
:104CF000DB6A984706702B68E4790433D86F036841
:104D00001B6B98470470AEE743680069C91A4018E6
:104D1000704742680300891AC2680020013A8A423B
:104D200001D31B69585C7047426810B5891AC26884
:104D30004C1C013A03000020944204D81A69535CC9
:104D4000105D1B02184310BD024B1B683233836198
:104D50007047C0464C01001070B50400006D0D0096
:104D60000368DB6E98470678206D36020368DB6EB9
:104D70009847437833439D420FD0206D0368DB6E24
:104D800098472B0A0370206D0368DB6E9847012358
:104D90004570206D0375FFF7D7FFA58270BD70B514
:104DA0000400251DFFF7D8FFE86F03688C331B68EC
:104DB00098474378022B0DD1606B03685B68984776
:104DC000A38A1B0A4370A38A83700123E86F0375CB
:104DD000FFF7BAFF70BD43680069C91A40187047F1
:104DE00042680300891AC2680020013A8A4201D34E
:104DF0001B69585C7047426810B5891AC2684C1C20
:104E0000013A03000020944204D81A69535C105DF3
:104E10001B02184310BD0200012907D1182050437E
:104E2000034B1B18DA68137D042BFCD07047C04677
:104E3000D40000101822F8B5F82442433E4D5359CF
:104E4000AA185968D2682140382966D01BD8102981
:104E500039D008D8002900D16CE0082933D00021CE
:104E600019603C314AE0282935D009D8182932D0B8
:104E70002029F4D10121117510221A601C3251E051
:104E80003029F7D0EBE7502945D005D83C244029FC
:104E90000DD04829EED0E2E72C245829DFD1D16883
:104EA0009E684F1CD7600E7011690139116111693C
:104EB000012901DD04218C433C21614019609C6182
:104EC000E4061CD411E094681178664274414900EC
:104ED00021439960C3E79168002914D11169002921
:104EE00009D1103119601C319961137D042B1AD13D
:104EF0000023137517E02021196004399961137D8F
:104F0000022B10D0F8BD54680139661C5660247815
:104F10009C609160A3E73C24C1E702211175002247
:104F20001A603C329A6118234343ED1802216B68E2
:104F30009847E7E703219EE7D400001070B5F824F6
:104F40005B4803685A6822405F2A03D80020FFF7B5
:104F500071FF70BD0269002A2BD159682140782960
:104F600021D85F2923D99968C9B24C081FD00124E0
:104F7000DD681E6B4D402643F6B2EDB2B54316D048
:104F80001D6A5E6B4D402643F6B2EDB2B5430ED0BE
:104F90005D6A9E6B69403443E4B2C9B2A14306D056
:104FA000996AD96B03E00824A839A143DBD000211A
:104FB0008160C468611E8C4111780C430421147017
:104FC00011755D68F4312940A02922D033D8802999
:104FD0004FD018D8702904D00FD8F021294060296B
:104FE0000DD101209968814311701269824206DD5A
:104FF00004221A6034329A61ABE77829F1D000229A
:105000001A603C32F7E7902933D0E82129408829FB
:10501000F5D100211175E40739D5243119600C3917
:1050200099610221137D002B00D103618368C9B20D
:10503000002098478DE7B82908D015D80824A8394A
:10504000A143DCD101249968A143117051684C1C23
:1050500054600978996091680139916000291ADCDF
:10506000002119603C3119E0F0210D40C02DC6D15E
:10507000CFE7D1689C684D1CD5600C70116901396F
:10508000116101290DDC002119603C310CE0042183
:1050900019603431C4E70421196034319961062163
:1050A000C0E704211960343199610521BAE7C0468F
:1050B000D4000010F7B5040001290DD118263300E3
:1050C00008274343094DEB18DB6801933200624324
:1050D000019B1B7D042B00D0F7BDAB581B683B42E6
:1050E000F6D02000FFF7A6FEF0E7C046D40000107F
:1050F00010B5064B002A01D1984710BDBFF34F8F62
:10510000BFF36F8F72B6984762B6F6E7F11FFF1FC5
:10511000322330B58BB000930309019305000B09CE
:105120000C000122684605A90293FFF7E1FF059BE9
:10513000DBB20593002B0FD1FA213B330093084BD0
:10514000890018680195029403F084FF01220390FE
:1051500005A96846FFF7CCFF0598C0B20BB030BD7B
:10516000F4000010F0B504000E0015008BB0BFF382
:105170004F8FBFF36F8F72B632230093C3171B0597
:105180001B0DC318013A82181B130193D3171B057B
:105190001B0D9B181B130022684605A90293FFF7FD
:1051A000A7FF059FFFB20597002F04D062B60598B0
:1051B000C0B20BB0F0BD3323FA2100930D4B890030
:1051C000186801940296039503F044FF3A00049096
:1051D00005A96846FFF78CFF059A002AE6D1382317
:1051E000684605A90093019402960395FFF780FF96
:1051F000DCE7C046F400001030B50C4D8BB0E86819
:10520000002811D13523022400930122684605A904
:1052100001940294FFF76CFF059B072B02D0023428
:10522000802CF2D12003E8600BB030BD4C0100109F
:10523000F8B50400FFF7E0FF0C4FC519FFF7DCFFDE
:10524000C7198020E6694001310003F003FF0138EF
:1052500070433818A84201D20020F8BDE368C31893
:10526000013B1B78FF2BF8D1801BF3E700F0FFFF19
:10527000882292000300805C00280BD10912FF29CC
:1052800009D85B181B7DDB43DBB201200133984258
:1052900080414042704701235B42F6E7036870B5E6
:1052A0009B68040015009847002804D02368290053
:1052B00020009B68984770BD0921F0B52C4F036909
:1052C0004469002B07D002260268D568354202D017
:1052D000013900290AD104244269002A03D0016857
:1052E000CD6825421BD1002B27D0F0BD0425013B02
:1052F0000361D3682B4208D0C368013C44619468C1
:10530000002B02D09D1CC5601C8083689C1C1B88E0
:105310008460BB609269836913438361CFE7013A7C
:105320004261C2688D68002A02D0961CC660158052
:10533000896982690A438261CEE70E4B01680C4C91
:10534000CA18531E9A410C4BA1420ED1802464030B
:10535000DC670A4B92009B1800221A614B690832E5
:1053600093434B6101230377BFE78024E401EFE718
:10537000000004400000FCBF04E100E04C0100100C
:10538000044B10B59A69186901329A61FFF794FFCE
:1053900010BDC0464C01001010B5024B5869FFF714
:1053A0008BFF10BD4C010010024A136801331360DB
:1053B0007047C0464C01001010B501398018002A12
:1053C00000DC10BD8C5C5342C454013AF7E7F0B5E1
:1053D00087B00593036804001B6816000F00984708
:1053E000390003902000FEF7D1FF02006368591DC9
:1053F000C87FC5B202950028FAD10130C8779D69EF
:10540000BC232B70B3B204931B0AEB700F2311184B
:1054100019402F3B0B436B71059B2E718026002B8F
:1054200000D0403E002A17D0280003990830FFF72B
:10543000C3FF0023AB71029B80223343EB712368CF
:1054400000972000DE6804992B00B0476068FFF7E2
:1054500069F9E76007B0F0BD039B1B780293E8E7AA
:10546000F0B587B0049343680400586B0291036859
:1054700003929B689847636805780700586B029908
:1054800003681B6898470190002806DB6B000593B2
:105490007E1C059AF31B9A4201DA07B0F0BD3378FF
:1054A000019A93422AD175780C9B9D4226D023689D
:1054B00029009B68200098474021039A0378403ACE
:1054C0008A4324D114321340934217D12368290010
:1054D00020001B689847009000280FD0290020006A
:1054E000FEF754FF021E0BDD049900980831FFF708
:1054F00063FF082229002000FEF758FF0236C8E7A4
:105500003F22049BDB791340009A1370F1E7039A62
:10551000002AF3D10C3213409342EFD1012329002A
:105520002000029AFFF753FFE8E7036870B55B6855
:105530000C0098470300021E00D0027801202112BF
:105540000333E4B2824202DA0120404270BD1D788A
:105550008D4202D15D78A542F8D001300233F1E7E7
:10556000436810B504330400D86F0368A4331B6884
:10557000984741780378090260681943FEF7BEFD39
:1055800010BD436810B504330400D86F0368A83316
:105590001B68984741780378090260681943FEF751
:1055A000ADFD10BD036810B55B689847037840787F
:1055B0000002184310BD70B503780821DB43312584
:1055C0000200D8B2440046B228006040C0B2002EAB
:1055D00011DA01390029F5D15378312158400823D7
:1055E000420044B208005040C0B2002C05DA013B32
:1055F000002BF5D170BDE0B2EBE7D0B2F7E770B5A4
:10560000154C0500636803210020984704232B757F
:105610002369E560002B04D13C2223689A6124327F
:105620001A60636801210020984700231022E3607C
:10563000236819681142FCD1FF22616912021142EC
:1056400003D038229A610C321A600421002063686A
:105650009847287D70BDC046D400001070B586B054
:1056600006000D00140000211822684603F0A6FF72
:105670006B4601951E7002946846FFF7C0FF022832
:10568000FAD00298201A06B070BDF0B589B01D009E
:105690006B4602ACD971060000920021182220004E
:1056A000DF1D03F08BFF0123A360009B2670676062
:1056B000E36025612000FFF7A2FF0228FAD02069ED
:1056C000281A09B0F0BDF0B585B00192837C0400C2
:1056D0000D00002B63D00026838A2700B2002037FC
:1056E000B85800280ED00122B24093431BB2009359
:1056F0006B461A79036829001B689847B040009BE5
:10570000184383B20136102EE7D1A28A9A420DD0F7
:10571000022003A9E2684B70A3821B0A08708B70F9
:10572000107803222030C0B2FFF798FFE268537868
:10573000632B10D0202B11D81A499B0058581A49B6
:1057400043069B0F9B0059581F2318401B3B834067
:105750005B58002B02D1A3695B19E361E3699D42A9
:105760001DD20024202002AB9C8013782100184316
:1057700003AA0223FFF789FF022810D10126A30004
:10578000F858002808D03200A24002AB9B882900BC
:105790001A4003685B6898470134102CEFD105B0BC
:1057A000F0BDC04640AD0000D8A70000F8B50368C2
:1057B00004001B680D0016009847071E0FD02368D1
:1057C00029005B6820009847431C08D03818C21B8A
:1057D000002A05DC032229002000FEF712FEF8BD96
:1057E0003E70360A0137F2E710B5FFF7DFFF10BD54
:1057F000F8B50600FC360D00316F0400C368A942FD
:1058000013D958781A7800021043DA789F78120278
:105810003A4380185A791F7912023A438018FA22C3
:10582000920042435219914236D9B8225200A25CEA
:10583000002A0CD0012A30D019795A79FA231202A1
:105840000A439B0053435B19336700231BE05A78DC
:10585000197812022B000A430FD0184B0122DB6982
:10586000217A986BFFF7C0FFE36819785A78FA231A
:1058700012020A439B0053435B193367B8235B0052
:10588000E35C0133DBB2B8225200A354336FAB4266
:1058900002D201235B423367F8BD5A7819781202AD
:1058A0002B000A43E9D0054B0022DB69217A986B73
:1058B000FFF79AFFE3689978DA78D8E74C0100108F
:1058C00070B5040002290BD003290DD0012906D19F
:1058D00000220B4B5B682100986BFFF785FF70BDC2
:1058E000074B01225B68F6E7054B01005B689D6B87
:1058F0002800FEF7A0FD2100424242412800ECE7CB
:105900004C010010F8B504000E00076981682C4BAB
:1059100040690D781B68824241D0E360626125696D
:10592000237EAF421DD0002B0BD0637E002B08D00E
:105930004B79002B05D12079002F3AD04978FFF719
:10594000BFFF01236376A368E6615A79002A02D17A
:10595000227E002A0BD12079002D2CD05978FFF718
:10596000AFFF237E002B19D0637E002B16D0A268D8
:10597000D37991791B020B43E1695B18B3420DD2D5
:105980000023661C6376F37FAB4207D02079013099
:10599000002D12D0D178FFF793FFF577F8BDE068BE
:1059A0000028BCD01B1A5B1BB9D400232261E36022
:1059B000B5E78978C3E79978D1E71179EBE7C04675
:1059C0004C010010002310B5002A13DB80242401B1
:1059D000A24211DADB0208E052100133A242FBDBE3
:1059E0005205DB02520D1A43054B1A4392B2FFF7E0
:1059F000DDFE10BD034CF1E752100133E8E7C0466D
:105A00000080FFFF00F8FFFF0323594310B589B260
:105A10000624802A00D1043C07228A408C40836AF5
:105A200093432343836210BD30B5032407254C43C1
:105A3000A540A24043694900AB43134330228A404A
:105A40004361C36B9343C36330BD70B5836A986889
:105A5000808A040A4C708870FF24002085B2AA4214
:105A60001BD88C54D963BFF34F8FBFF36F8F72B6BF
:105A7000DA7E012A0FD10621D976D9680868022179
:105A800041604260997E03008C0018331B191A6034
:105A90000232FFF7C9FF62B670BD0D5C01306C4089
:105AA000DCE7020070B504005E32BFF34F8FBFF336
:105AB0006F8F72B6E37E012B09D0062B1ED1E36BEC
:105AC000002B04D01378002B18D1002916D1E368DD
:105AD000217E1D6880222800FFF796FFA67E280001
:105AE00031000222FFF7A0FFB600064B1835AD19B2
:105AF0002B600023E37662B630BF70BD62B630BF64
:105B0000D3E7C046FEFF000010B504000121806A03
:105B10004834FFF7C6FF2378032B08D1BFF34F8F1C
:105B2000BFF36F8F72B68023054A5B051A60BFF31F
:105B30004F8F044B044ADA60BFF34F8FFEE7C04635
:105B400055B01F5E00ED00E00400FA0570B50500D9
:105B5000C368017E1C6881222000FFF755FFAE7EDE
:105B6000200031000122FFF75FFF02236360013B49
:105B70006360B600064B1834A61933606B7E9B0039
:105B8000E418044B23600023EB76EB6270BDC04643
:105B900017110000FFFF0000802301385B049842CA
:105BA0000DD2C021064A090650600648036A1B024E
:105BB0001B0A0B4303620023936007331360704793
:105BC00010E000E000ED00E0802070B54004FFF739
:105BD000E3FF00F0B3F81F2101220A4B80249B69E8
:105BE000094D19408A405B0608499B0F9B00595894
:105BF000E4039000AB6823405E4273415B42134074
:105C00004350F7E7D400001010E000E0D8A70000F0
:105C1000F7B543069B0F0093404BC0279C46624656
:105C2000009BFF019B009D581F230340019301230C
:105C30001E00019CF022A640802412020A400905A1
:105C4000090DB6B22402BA4210D12B5933432B515D
:105C5000C30507D401231F2244121440A3424FD18D
:105C6000002331E0012380221143F4E7E027FF0104
:105C7000BA4206D12B5933432B51C30538D40623DE
:105C8000E9E72F59B7432F518024A401A24229D11B
:105C9000234A904203D1234B00221A6004E0224A97
:105CA000904203D11F4A136002230DE01F4A904225
:105CB00001D11F4BF0E71F4A904203D0C30519D40E
:105CC0000723C8E71A4A13600C2200980B4342438B
:105CD0000198121852006244928A174812189200D2
:105CE0001360F7BDC0240223A401A242B0D1B2E7E1
:105CF0000623B8E70723B6E70123E5E70323E3E735
:105D000084131440A342F7D0C41414409C42CBD057
:105D1000001610408342F1D0FFF756FFD8A70000CD
:105D200002C23A00C040044063823D0025423C006C
:105D3000D040044049C2010000100110C02110B53C
:105D4000054CC901A069FFF763FF8021E0694901A3
:105D5000FFF75EFF10BDC046D40000101021F0B563
:105D6000037EC26899400D0012680400106885B077
:105D700005400095014226D09800130015002C33F1
:105D80001B181868A37E18359B00EB181E68637EED
:105D90009B00ED182B68834215D92369B94D5F0626
:105DA000BF0FBF007F591F252B401B3D9D40EB5966
:105DB000002B02D0116005B0F0BD9368984217D84F
:105DC0001B1A032BF3D9E07E0D2801D900F078FCD3
:105DD00003F0C0FA11003400370041008E012B029D
:105DE0005502F0022E034603F00312044604550444
:105DF00001339B19E4E7E368A17E1D6801238B4012
:105E00002A681A4206D10523AB60FF22E3681B68AB
:105E10001A60D0E72B008A0018339B18A622520183
:105E20001A6028000322FFF7FFFD0623217EE37698
:105E30000A338B402A681A42C5D1E6E7009B002B43
:105E4000E3D022000023583223631380FF22E36251
:105E5000013362652365E368A17E1D688B002E0017
:105E60001836F618884B3768032233602800FFF78E
:105E7000DBFD009B002B00D01CE1636D256B002B2C
:105E800035D1236D002B39D10023E3620633E3764D
:105E900022002100256B5C32583110780B88012DCF
:105EA00038D1002800D1F7E0002010701022934371
:105EB000E26C0B80824202D0636BCC2B13D0E16981
:105EC000236A994209DA616AA36A994200DABAE060
:105ED000002A02D0636BCC2B05D0220080235A32DB
:105EE00011880B4313802000FEF755FC18E02200B8
:105EF0001023583211880B431380C5E7009BE362DF
:105F00000623E376072DC3DD2C22236C1B789343F5
:105F1000902B1FD022008023583211880B4313800E
:105F20005A4E22005C321378002B05D02300012149
:105F30005E33197000231370E36881221D68217E8F
:105F40002800FFF761FDA27E18359200013EA818D7
:105F500006605AE7A06803685B6B9847A84297DB26
:105F6000236C1979DA78090211435B7949BAA2687E
:105F700089B27F2B14D94D424D41506B009BEDB23D
:105F8000002804D003681B689847C343DB0F1D43F8
:105F9000A3681B6B1B7D5B0706D5002DC0D003E0FB
:105FA000938A009D9942F3D12022206C03781342FA
:105FB0000ED06368002B30D1CC22E262226B216CC0
:105FC000934233DB23006260002258331A8015E0CD
:105FD00021680D786B409343EBD1226B013A01337A
:105FE000934204DAC65CCD5CAE42F8D0E1E793425E
:105FF000DFD16368002B10D1CC33E362A36840216A
:106000001B6B1A7D012352089343226C12780A40BD
:10601000134310D00023E36282E700232200E362EF
:106020005832118840330B431380E7E7C95C22687C
:10603000D1540133C2E7E36A002B00D170E7052396
:10604000134EE3766DE72300200021005A335D30C4
:106050005E31002A0DD0626BC02A01D0002A08D11F
:1060600010221D880B4E2A431A80012303700B70E7
:1060700057E704221D882A431A8000230370013346
:106080000B704DE7D8A70000FEFF0000F0130000E2
:10609000B3050000A13C0000626BCC2A06D00C2A9C
:1060A00004D0C02A02D0002A00D033E790229343C4
:1060B0000B8035E72B00217E2C3388001B18AA6843
:1060C0001B68934211D8D31A0233AB60CF4B8122A5
:1060D00033602800FFF798FC0423E3760023636312
:1060E000A36401336364E3648FE60132D219EAE703
:1060F0000120E368A27E1B6890401D6829000140D2
:10610000054259D0183392009B181B680133A26CCA
:106110001000443098426EDA80266832A26476001D
:10612000A26C606C1700443745009F4255DAB042BC
:1061300048DD656400296CD0636B256BDAB262635D
:10614000002D08D19B0706D02200802358321188E9
:106150005B000B431380A06803685B6B9847854224
:1061600050DA236B226C616B581C2063D154636D31
:10617000626B53406365E36C002B05D1210008225C
:106180005831088802430A80226DA17E134023659E
:106190000323E376E3688A001D682B0018339B18FD
:1061A000ED2228001A60EC3AFFF73EFC812228001D
:1061B000217EFFF729FC28E6227E2C3392009B18D3
:1061C0001B68A4E7676B683238436063E06CA264C5
:1061D000474278416564E064A2E721329A42A8DA36
:1061E000802252009042A4DC200058300688FC3AFD
:1061F000324302809DE720000422583005882A435C
:10620000028097E722002023583211880B43138025
:10621000B1E78222D200934200DCF6E5220001239E
:10622000583211880B431380EFE5009B002B04D0FC
:106230000023E3620223E376C5E5009B6821A363A4
:10624000E3681D68637E2A009B001832D31819602A
:10625000A17E28008B00D3188A221A60873AFFF7A4
:10626000E3FB81222800217EFFF7CEFB009B009AF2
:10627000236323005A331A800723E376C5E5009B86
:10628000002BD7D126005E363378002B07D0E26989
:10629000236A9A4208DA626AA36A9A4204DA2300FD
:1062A0005F331B78032B08D9220080235A321188D0
:1062B00020000B431380FEF76EFAE16B002960D0DB
:1062C0000F224B7913400833A3633378002B0BD094
:1062D00020230A781A4207D09A430A70A26BE16B16
:1062E000013A885C43408B54E36B216A1D78242378
:1062F0001D40243D6B1E9D41454B6D421D40A23506
:106300003378FF35002917DC002B35D1E368186896
:10631000637E02009B001832D3181D60A17E2235D7
:106320008B00D3181D600322FFF77EFB22000023A1
:106330005A32236313809FE7A26A002B1ED0D31723
:106340009B1ADB0FE26901329142DFDD626AA16ACA
:1063500001328A42DADA002BD8D023005F331B786F
:10636000032BD3D083203A212A4BFF311B6858439B
:1063700002F0F6FE4D19C9E70023E3E7002AECDC42
:10638000C4E7E36881221D68217E2800FFF73CFBFB
:10639000A67E280031000222FFF746FB18351E4B6F
:1063A000B600AE193360637E9B00ED181B4B2B606B
:1063B000012362E7E368A17E186801238B4002682D
:1063C0001A422DD10300227E2C3392009B1802002A
:1063D000657E1832AD0055191B682E6837001E3FC8
:1063E0009F4208D9236B002B02D02000FDF7C0FF8D
:1063F0000A4B2B601EE79E4206D980688900013057
:106400002233521828601360082336E7770400000F
:10641000C7FEFFFF4C010010FEFF0000FFFF000061
:1064200008232200E3765A32118818330B43138075
:10643000E36A002B04D1236BE26B591C2163D35C0C
:106440008021636301234900626B134201D04A40FB
:1064500062635B00FF2BF7DD012363640833E3769F
:106460000126E368A17E1D6833002A688B40100076
:10647000184001901A4278D12B00227E2C339200D2
:106480009B181F68022F00D8BFE46821380002F073
:1064900067FE3D2906D82000FDF76AFF2000FFF7C0
:1064A00055FBB2E4637E18359B00ED182B68073B63
:1064B000BB4200D8A9E42000FDF75AFF2300019A4F
:1064C00058331A80FF236365E36A2665E664002B70
:1064D00031D0E262A37E68210193E3681B681E004D
:1064E0000393019B18369D00751928680238C01B5C
:1064F00002F0B0FD636C3A0001300341683AA264D7
:10650000626B591E0A400A216364029262635B1047
:10651000002B1FD1683359437B1ECB1803222B60FD
:1065200001990398FFF780FA637E664A9B00F3188F
:106530001A6004237FE6226B013A2263226B9A429F
:10654000C8DDE26BD15C226CD154626D01334A40EC
:106550006265F3E7029A0139134204D0E06C02004D
:1065600050425041E0645B10D2E78023626C9B0094
:106570009A421FDC8026993B676BFF3B7600626C7A
:10658000500060643A4201D0B2420EDD8026627E45
:1065900018359200AA18B600B04208DD49488900B3
:1065A0001060013B6D182B602FE46833E7E718009B
:1065B0002338F4E7E368226B1868A36B05001835ED
:1065C0009A4211DAE36A002B0ED18B220733E3766D
:1065D000637E52009B00EB181A603A23FF33A27EC1
:1065E000013B9200AD18DEE70B238022E376217E8B
:1065F000FFF70AFA4523F2E7E3681D68E36A002B18
:1066000011D00023E3620633E37681222800217E45
:10661000FFF7FAF92C4BA27E18359200013BA8181F
:106620000360FFF7F2FB230001225C331A700C2396
:106630002800E376A17EFFF7F7F923005E331B788D
:10664000002B07D023005D331B78002B04D0636A36
:10665000013363621D4BDEE7E3690133E361F9E770
:106660000D23E376E36881221D68217E2800FFF771
:10667000CBF9A37E18359B00ED18154B93E7009BD3
:10668000002B00D0D6E5230001225E331A70009A59
:10669000023B1A70220008235A3211880B431380E0
:1066A0000623E376E368A17E18688A0003001833A6
:1066B0009B18084A1A600322FFF7B6F9FFF7A5FBFB
:1066C000FFF782FAFFFF0000F0130000B2050000A0
:1066D0009C060000EF13000010B5024B186AFFF78C
:1066E0003DFB10BD4C01001010B543789B0614D53E
:1066F0004388E0221C001805D201000D144013420B
:1067000005D08023DB019C4205D0FFF75DFA0B6BBF
:106710001B69181810BD0B6DFAE70230FAE7F7B5E0
:106720000193036804009B680E009847071E2DD054
:1067300001234278C3560020834227DA1F2365686D
:106740001A40290038000092FFF7CEFFAB6A009A8A
:1067500019680C31002A1AD122685B6815680D3B54
:106760000A0020003100A8476368C5B20433D86F1F
:1067700003688C331B689847099B85551D73012559
:106780000120099B099A5B795B195371FEBD009A40
:106790000E4B019D9B5C089A5D43013A5343C6181A
:1067A0002A003000FEF708FE09982A0031000C305C
:1067B000FEF702FE7B885B04E2D563680433D86F82
:1067C00001230375FEF7C0FADAE7C0464CA80000C3
:1067D000F7B5089D019306000C00171E036812D040
:1067E0009B6898470400019BAB72002C03D0237870
:1067F0000193002B0FD1002318006F72EB722B73E3
:106800006B73AB73FEBDDB6B9847A400019B2458F0
:106810009B00E418E7E76022637813405F3A602B3F
:1068200004D120007168FFF75FFF02786021019BAF
:106830006B7263786A738B43EB7200232B736278FD
:1068400050337F2A00D9A1330120DAE770B50D4C0F
:106850000600A5680120ADB2022E06D90A4B0B49ED
:10686000186802F0F7FB023E7043002800DC70BDA0
:10687000A3689AB2AB1A01D561685B181500C01AFB
:10688000F3E7C04610E000E0F400001040420F00C3
:10689000144B70B51A680400D20704D41B689B0718
:1068A00001D4FFF791F9104B5B68DB050ED0FA2598
:1068B0002D01042C05D8FA2080006043FFF7C6FFA5
:1068C00070BD2800FFF7C2FF043CF2E7074B1A68CF
:1068D000002CF5D01968914201D130BFFAE71A684F
:1068E000013CF5E710E000E000ED00E04C01001095
:1068F0001F2202404006064B800F8000C15804232F
:106900009340002210B53C205A50FFF79FFF10BD66
:10691000D8A7000037B505001420FFF797FFA86837
:10692000FFF7E6FF3220FFF791FF6B46DC1D2200E8
:10693000287B01230021FEF7A8FE1F210122AB685E
:10694000207819408A405B0603499B0F9B005B58E7
:106950009100CA503EBDC046D8A7000070B5184D82
:106960000400435D002B11D080680100FEF7D0FBCE
:10697000002801D0FFF728F980222100606852002A
:106980001431FEF7EFFB0028F4D160550D4D635D27
:10699000002B13D08526B600A0590100FEF7B8FBE6
:1069A0000028E7D121008022A059153100025200B1
:1069B000FF31FEF7D7FB0028DCD1605570BDC04623
:1069C0002202000021020000F0B507000C00806ADE
:1069D00000218DB0FFF765F8B86D002803D003687B
:1069E00021001B6898473D6D2B7D002B69D0BFF3BC
:1069F0004F8FBFF36F8F72B62800FEF719FC0400AB
:106A0000FEF7FAFB404BEE69C318802031004001CD
:106A1000019302F01FFB01387043019B1818844258
:106A20003ED1FEF7E9FB384BC418FEF7E5FB364BC9
:106A3000C018844238D13223E6173605360DA61920
:106A40003613012207A902A8029303960496FEF7C3
:106A50004FFB079BDBB20793002B1BD1FA2134338A
:106A600002932A4B890018680396049602F0F2FA02
:106A70000122059007A902A8FEF73AFB079B002B0D
:106A800008D13533012207A902A802930396049680
:106A9000FEF72EFB079BDBB2002B05D0FFF794F827
:106AA000002CBED0A419C0E700262B69EA689B1809
:106AB000013B1E70EA68964214D300232B75AB612C
:106AC00062B6786D002801D0FFF748FFB86ABFF3BF
:106AD0004F8FBFF36F8F72B6FFF738F862B60120A1
:106AE0000DB0F0BD8023921BDB009A4200DD1A003E
:106AF0002969A0198919FEF735FB0028CED180231A
:106B0000DB00F618D6E7C04600F0FFFFF4000010E7
:106B100010B504000121FFF757FF2000FEF7F4FF36
:106B2000F0B50600002587B004930CAB1B780391E9
:106B300002920593049B9D4201DB00200CE0039B25
:106B40005F19029B5B1901933B12FF2B06D90023AF
:106B50000120019A1370404207B0F0BDF3181C7D6C
:106B6000059BE443E4B2002B09D03000FFF7F6FEAA
:106B7000002C0BD10023019A02201370EBE7002CAC
:106B8000F8D085239B00F3589C4204D0FF232402B5
:106B90003B40E35C04E0FF231F40F319FF335B7DC0
:106BA000029A53550135C5E7802070B54004FEF7C1
:106BB000F3FFFFF7C3F81F2101220A4B80249B69D2
:106BC000094D19408A405B0608499B0F9B005958A4
:106BD000A4039000AB6823405E4273415B421340C4
:106BE0004350F7E7D400001010E000E0D8A7000001
:106BF00013B504008068FFF77BFE3220FFF726FE06
:106C00006A460123E021207B0732FEF73EFD1F216B
:106C10000122A36819408A405B0603499B0F9B0031
:106C20005B589100CA5013BDD8A70000F7B50027E4
:106C30000D00174E0192174A036102607368019AB2
:106C40000171040082608781986BFDF7EFFB736828
:106C5000691C986BFDF7EAFBFF23E382019B290087
:106C60001A780123534070682775627623760722CD
:106C7000089BFCF7CEFF3A007068691C089BFCF784
:106C8000C8FF3A007068A91C089BFCF7C2FFF7BD5B
:106C90004C01001094A80000F7B51F001F4B0C001A
:106CA000036000231E4EC360037443617368017167
:106CB00082600500986B0092FDF7B8FBA31C01935E
:106CC0007368A11C986BFDF7B1FB631C0193009BDB
:106CD0005B78053B012B04D87368611C986BFDF74A
:106CE000A5FB2800FCF7CEFF3B00706821000022C6
:106CF000FCF78FFF3B007068611C0022FCF789FFE6
:106D00003B007068A11C0022FCF783FF3B00706809
:106D10000022E11CFCF77DFFF7BDC046ACA80000D7
:106D20004C010010F7B50193244B150003600023BC
:106D30008260421CC3604376C3610171D377EA78F5
:106D400004000E000133002A03D12B795A1E93410F
:106D5000DBB223766B781A4F032B02D0AB78032B70
:106D600004D17B683100986BFDF760FB7B68B11C38
:106D7000986BFDF75BFB237E002B0AD0EB78032B8F
:106D800002D02B79032B04D17B68711C986BFDF723
:106D90004DFB78682179019B0022FCF73AFF2179AD
:106DA0007868019B00220131FCF733FF2179786874
:106DB0000022019B0231FCF72CFFF7BDC4A80000A4
:106DC0004C010010F7B50E00002104001F0008ABB5
:106DD0001B78027101931D4B8160036001731500E4
:106DE00010301C2202F0EAFB019A1623E762002A07
:106DF00000D00B3B6376164B26626362154B164937
:106E0000186802F027F9FA239B0043431349300026
:106E1000A362FEF7FDFE124C2900099B6068002268
:106E2000FCF7F7FE691C099B60680822FCF7F1FE7D
:106E3000A91C099B60680A22FCF7EBFEE91C0822EA
:106E4000099B6068FCF7E5FEF7BDC046DCA80000C2
:106E500030F8FFFFF400001040420F001010000057
:106E60004C010010F0B599B00191019B81680400BC
:106E7000994216D9C26A537810781B020343D0781E
:106E80009578000228431B181079527912020243A8
:106E90009B18FA2292005343019A9B18994200D8FA
:106EA0008FE0237B002B68D0012B00D18CE00127E1
:106EB00023001F22390010330293AB4B00250393AC
:106EC0001B68AA4E6362236A38001A4091400A0088
:106ED00003215B110B409B009B5991002576658334
:106EE000A583A577CA50FFF7D3FCC021206AC9014A
:106EF000FEF78EFE1F22236A03211A4097405B1182
:106F00000B409B009959BA005550637E162B00D058
:106F10006CE09748FFF79AFC1F210125226A954FE4
:106F200053060A40290091400A009B0F9B00F3582A
:106F300090B2D9598143D9519100CA503720FFF7F7
:106F400085FC8D49206AFEF763FE0A20FFF77EFC70
:106F500000210298FCF7C1FE00284BD105232376BF
:106F6000E36A19795A79FA2312020A439B005343C0
:106F7000019A9B18A36000231BE0E36A5A781978F2
:106F80001202019B0A4310D0774B01225B682179E2
:106F9000986BFEF729FCE36A19785A78FA231202F3
:106FA0000A439B005343019A9B18A360237B013340
:106FB000DBB22373019AA368934202D201235B429E
:106FC000A360002019B0F0BDE36A5A781978120264
:106FD000019B0A43E9D0644B00225B682179986BDE
:106FE000FEF702FCE36A9978DA78D7E71420FFF716
:106FF0004FFC91E729000298FCF76FFE022300285E
:10700000ADD004AD2E0000210298FCF766FE0121F0
:1070100030700298FCF761FE18AB707002369E4229
:10702000F1D1206A514A43069B0F9B009A581F23B7
:107030000340012006009E40D159B3B20B43D35107
:10704000237E002B00D08BE72F786E78002F00D1A5
:1070500084E7002E00D181E7D90861188A7E5200AA
:10706000D2B2B74200D202430133DBB28A76023594
:10707000282BE9D1A67EE27E237F617F9219D21868
:107080005218A57FD2B2678BA08B954201D0062300
:1070900065E7657E5AB2162D57D1002A51DAFE22D5
:1070A0000A201B02D20113405B184042584303F0F0
:1070B000C7F9051C0A207FBABFB2784303F0C0F9B4
:1070C0002E49061C281C02F0D3FC2C49051C20610B
:1070D000301C02F0CDFCE36A6061061CD8799A7915
:1070E000000210430004001403F0AAF9244902F03E
:1070F000A5FE291C02F032FB2049049002F09EFEFE
:1071000003F07EF9039B21795B6802B20131986B31
:10711000FEF758FC039B21795B6804AA986B023147
:10712000FDF754F91549301C02F088FE02F048F9C9
:10713000039B21795B6882B20331986BFEF742FCB6
:107140000EE740BA83B20A20B0E76420002A03DACF
:107150007F22642013404042584303F071F9051C1C
:1071600064207043AAE7C0464C010010D8A7000075
:107170004C04000010800000101000000000C84205
:107180000AD7233CF7B50700FDF7B7FA0023BC6A1E
:107190003B496360E363E3616362A363A365E36503
:1071A000E368384A8B424BD1C421FF253648890019
:1071B0004258AA434250012635001A793349C86F14
:1071C0000192073295402A001D6800230243CA67D6
:1071D0003100EB636B61AB62637E6A6F99400B00B9
:1071E00013436B676B682A4933436B60294B1868FC
:1071F00001F030FF0138E8602000FEF7A7FC264BC5
:10720000AB60637E9E4033001E00EA6B1640134263
:10721000FAD1E0216069C901FEF7FAFC1F49206933
:10722000FEF7F6FCFF231F222B60019B1033134057
:107230001E3A11009940144B1960FE633A64F7BD81
:1072400011002C318B4206D1C4210F4889004258CD
:10725000134D2A40AEE7110034318B4205D1C421D1
:107260000948890042580F4DF3E73C329342A2D1BE
:10727000C4210548890042581202120A9AE7C04602
:10728000700100104C01001000E100E00480044097
:1072900040420F00F4000010FFFF0000202000001B
:1072A000FF00FFFFFFFF00FF10B5838A0400002BE3
:1072B00003D103680749DB6898472000FFF762FFA6
:1072C000230001225C331A70034B1B68636623237F
:1072D000236610BDFFFF00004C010010F7B50193BD
:1072E00003680400DB68006D009303681500DB6E23
:1072F0000E0098470778206D3F020368DB6E9847C1
:107300004178009B3943200098472E22236B0027A9
:107310001A75206B03685B69984701220770236B1D
:107320005A75206D03689B6C9847FF230370206D8E
:1073300003685B6C98470770206D03681B6A984769
:1073400033120370206D03685B6A98470670206DE6
:1073500003689B6A98472B120370206D0368DB6AF1
:1073600098470570206D03681B6B9847019B03705D
:10737000236D1F759F61F7BD10B504009C2102F0BD
:1073800067F9200010BD10B504008C2102F060F9EF
:10739000200010BD1C4B70B51B781C4D002B31D14B
:1073A0003F2001211A4A1B4C136B83430B43136389
:1073B000536B83431943202351631749174AC86FFE
:1073C0000343CB67022351680B4353606C2223684D
:1073D0009A6101F09FFD124B1249186801F03AFEC4
:1073E000236842081A611A69801A802258610E4B7C
:1073F0001202DA67E368002B01D10C4B63600123B2
:1074000044352B7070BDC046900100104C01001037
:1074100000400440D4000010048004400080044078
:10742000F4000010A086010004E100E0B550000067
:10743000F0B5150004000E0085B04620FFF728FACD
:107440002673A560FFF7A6FFC021A068C901FEF75B
:10745000DFFBA068FFF74CFA03AF3220FFF7F6F925
:1074600001233A002021207BFEF70FF9012801D0EB
:1074700000233B700125A3681F261A002900324013
:1074800091400A002A495B11019103210B400199A7
:107490009B005B589100CA503B78812B08D120009B
:1074A000FFF738FA0100C30605D42000FFF7A0FB60
:1074B000002005B0F0BD0520FFF7C8F9A068FFF770
:1074C00017FA3220FFF7C2F92A001A49207BFEF78B
:1074D000C5F8A36829001A00324091400A00032130
:1074E0005B110B4001999B005B589100CA50200032
:1074F000FFF710FA01000306D7D5A068FFF7F8F9E7
:107500003220FFF7A3F90C4B02223B803900207B8D
:10751000FEF7A4F82A00A36803211E40B2405B11C5
:107520000B4001999B005B5891002800CA50C0E7AE
:10753000D8A70000ECA8000001200000F0B5037AF5
:107540000E00D91C040085B0914202D0043393424E
:1075500054D1B04DEB69986BFCF786FFAE4902F051
:107560006DFCEB69217A071C0431986BFCF77CFFFA
:10757000A94902F063FC0190A069FFF7B9F9322034
:10758000FFF764F90021381C02F0D4F8002800D17C
:10759000E8E0381C02F034FF02F052FFFC218905BC
:1075A00002F0DCF802F02CFF0500052702AB1F708B
:1075B000019802F025FF02F043FFFC21890502F04B
:1075C000CDF802F01DFF02AB4000587000231935C2
:1075D00002AA6D0093701371D57002A93A00207F42
:1075E000FEF73CF81F210122A36919408A405B067F
:1075F0008A499B0F9B005B589100CA50216AB14297
:1076000015D9E268537810781B020343D078957837
:10761000000228431B1810795279120202439B186A
:10762000FA22920053439B19994200D8CEE0651D7F
:10763000EB7F002B00D1A6E0012B00D1C8E0A51DF7
:10764000EB7F002B37D1E268D0791F2800D9D4E036
:107650005A219279724B80001143C2582000103099
:10766000FFF7E6FEE877002800D1C6E0E78CA069C6
:10767000002F20D0FFF73CF93220FFF7E7F8112365
:1076800002AA13703B0A537013009770190003226B
:10769000207FFDF7E3FF1F220121A3691A409140DB
:1076A0005B065E4A9B0F9B009B588A00D150EB7F84
:1076B000002B00D1A1E00125A069FFF719F93220C4
:1076C000FFF7C4F80423022102AA207FFDF7DDFFA3
:1076D0001F232900A26901900320134099405311F0
:1076E00003404E4F9B00DB598800C1506B46187910
:1076F000042800D07EE002AB1B8810005BBA9BB26E
:10770000636102AB5B885BBA9BB22361A31DDD772B
:10771000FFF7EEF83220FFF799F802AA02231121B1
:10772000207FFDF7B2FF1F2102AB1A88A36952BA6E
:1077300019408D4003215B110B409B00DB59A900D0
:10774000CD50344D217AEB69E284986B6269013146
:10775000FEF74AF8217AEB692269986B0231FEF74D
:1077600043F84AE00021381C01F0D0FF051E00D18B
:107770001BE7381C02F044FE02F062FEFC21890582
:1077800002F09AFC0EE7E3685A7819781202330087
:107790000A430FD01F4B0122DB69217A986BFEF759
:1077A00023F8E36819785A78FA2312020A439B00F7
:1077B00053439B192362EB7F0133DBB2621DD37706
:1077C000236AB34202D201235B42236205B0F0BDBB
:1077D000E3685A781978120233000A43EAD00D4B55
:1077E0000022DB69217A986BFDF7FEFFE368997848
:1077F000DA78D9E70022A31DDA77E36819795A7994
:10780000FA2312020A439B0053439B19236200236D
:10781000D4E7C0464C0100100AD7233CD8A700008B
:1078200040AD000073B50500FFF7B4FD6B46DE1CEC
:1078300032000123E7214020FDF727FF0400012843
:107840000DD1E6236A4613717E223378402013401F
:107850006A4601A953710222FDF700FF2C7073BD27
:10786000F7B50378224E04000D003768002B04D1D1
:10787000FFF7D8FF2378002B33D02D37FF3701AC2B
:107880000323220029004020FDF7FFFE022823DD0C
:1078900008223120237859005DB203004B40DBB24F
:1078A000002D20DA013AD2B2002AF4D162783125D3
:1078B00053400822208859005EB22B004B40DBB2B7
:1078C000002E12DA013AD2B2002AF4D1A2789A42FA
:1078D00007D140BA80B205E033689F42CFD0FFF7AE
:1078E00059FD0020FEBDCBB2DCE7CBB2EAE7C046D3
:1078F0004C010010F0B50D004169040085B0A942AB
:1079000015D9C268537810781B020343D078967853
:10791000000230431B1810795279120202439B185F
:10792000FA22920053435B19994200D87EE0237EED
:10793000002B59D0012B00D17AE027001037E3212A
:107940003800FFF78DFF002800D183E0830700D5C2
:1079500080E00323404E984380B246433F4B3614A9
:10796000F61830B202F06CFD3D4902F067FAE169A9
:1079700001F0F4FEE52103903800FFF771FF01905C
:1079800000280ED0022302001A400192184208D0AB
:1079900001339843334B80B24343334A1B0C9B184B
:1079A0000193324F217AFB693200986B0131FEF767
:1079B00009F8FB69217A986B023103AAFCF706FDEE
:1079C0006B46217A9A88FB690331986BFDF7FAFFC1
:1079D000E36819795A79FA2312020A439B00534348
:1079E0005B19636100231AE0E3685A781978120280
:1079F0002B000A430FD01D4B0122DB69217A986BC3
:107A0000FDF7F2FEE36819785A78FA2312020A4366
:107A10009B0053435B196361237E0133DBB2237602
:107A20006369AB4202D201235B42636105B0F0BDE2
:107A3000E3685A78197812022B000A43EBD00B4BFB
:107A40000022DB69217A986BFDF7CEFEE368997816
:107A5000DA78DAE7064E84E7A4440000B3EDFFFFCE
:107A60000AD7233CD4300000A8FDFFFF4C010010D2
:107A70005C95FFFF13B5FFF78DFC6B46D91D942372
:107A8000012244200B70FDF7E9FD0400013C634234
:107A90005C410120FEF7FCFEE0B216BDF0B50D0022
:107AA000816904008BB0A94214D9C2685378107858
:107AB0001B020343D0789678000230431B181079DC
:107AC0005279120202439B18FA22920053435B1927
:107AD000994243D9237F002B1ED0012B40D0002395
:107AE00002AA93800293FD3313724420012204A959
:107AF000FDF7B4FD012845D020001030FFF7BAFF94
:107B0000E36819795A79FA2312020A439B00534316
:107B10005B19A36100231AE0E3685A78197812020E
:107B20002B000A430FD0594B0122DB69217A986B55
:107B3000FDF75AFEE36819785A78FA2312020A43CD
:107B40009B0053435B19A361237F0133DBB223778F
:107B5000A369AB4202D201235B42A3610BB0F0BD2B
:107B6000E3685A78197812022B000A43EBD0474B8E
:107B70000022DB69217A986BFDF736FEE36899787D
:107B8000DA78DAE70627414E33682D33FF33019365
:107B90003E4B019A1B689A4202D2FFF7FBFBABE710
:107BA0000120FEF775FE1822002104A801F006FD51
:107BB000442202AB1A720793089704A8FDF71FFD31
:107BC0000228FAD0089BFB1ADBB2002BE0D0062B70
:107BD00000D091E702AB18009F78FDF7ECFC8742DC
:107BE00000D089E702ABD81C5F79FDF7E4FC87423F
:107BF00000D081E702ABDA7818881B7940BA1B0203
:107C000013435BBA9BB280B2019302F019FC204986
:107C100002F014F91F4901F02BFF1F4902F04CFA42
:107C2000071C2061019802F00BFC1C4902F006F9C8
:107C3000184901F01DFF1A4902F03EFA216A01902D
:107C40006061381C01F08AFD1649049002F0F6F8D4
:107C500002F0D6FBF369217A02B20131986BFDF78D
:107C6000B1FEF369217A986B04AA0231FCF7AEFBEE
:107C70000C49019802F0E2F801F0A2FB217AF369C5
:107C800082B20331986BFDF79DFE39E74C0100107D
:107C900000002F4300FF7F47000034420000FA42FB
:107CA0000000C0400000C842F0B5050095B01AA819
:107CB00006882800FFF712FBE86F002703682C1DD9
:107CC0009B6998470770E06F036888331B68984783
:107CD0000770E06F03688C331B6898474378022B6A
:107CE0000DD1686B03685B68984781784378090217
:107CF00019432B6849BA2800DB6889B298472F00DE
:107D000088373E80002E13D0E06F036890331B68E5
:107D100098473E880388B3420AD0E06F03689033E7
:107D20001B68984701230680E06F0375FDF70CF888
:107D30003A2301220FA90AA80A93FDF7D9F91022C4
:107D400010A906A801F06DFC0F9EF6B2002E5AD1C4
:107D5000E06F0368AC331B6898470290E06F0368DC
:107D6000DB6F98470300013B01900F2B4BD8082293
:107D700006A904A801F055FC082208A90AA801F0E8
:107D800050FC049805993B222F4B524201F0F8FA1F
:107D90000A980B9917003B22039352422A4B01F099
:107DA000EFFA5740039A5A400392F20038000399C1
:107DB00001F0DAFA029B9855019B0136B342F4D1E7
:107DC000E06F0368C0331B6898470600E06F0368E4
:107DD0000833DB6F984702233618023E3370E06F9A
:107DE0000368C0331B6898470600E06F03680833D8
:107DF000DB6F984710233618013E28003370FFF7D9
:107E000053FA15B0F0BD362301220FA90AA80A9330
:107E1000FDF76EF9109BE06F04930368AC331B68A9
:107E20009847042204A901F0FCFBE06F0368AC331F
:107E30001B68984702230371E06F0368AC331B682B
:107E4000984710234371BBE7FFFF000070B5051D85
:107E5000E86F140003680E000433DB6F9847844218
:107E600005DDE86F03680433DB6F9847C4B2E86F41
:107E70000368B0331B6898473100220001F0D1FB42
:107E800070BD10B50400431DDA7F002AFCD1013219
:107E9000DA770F23E169A0694A791A40073201F0C5
:107EA000C0FB2000FCF73EFC10BD70B50379040058
:107EB000002B3CD0431DDB7F002B38D14379002BB6
:107EC00035D01D4DC2682B689B1A1C4A934201D9BC
:107ED000FCF7A2FC6379012B12D1A31DDA7F012AE2
:107EE00025D1DA7F012A22D1013262712000DA77AE
:107EF000FFF7C7FF0023A3722B6823612B68E360A1
:107F00006379022B13D122692B689B1A0C4A934286
:107F10000DD90A23E3562000022B09DCFFF7B1FF3D
:107F2000A37A0133A3722B6823612B68E36070BDD1
:107F3000FCF772FCFBE7C0464C0100106F17000015
:107F4000B70B0000F0B5040085B0FFF7AEFFA36AE1
:107F50005A68002A36D0DA6B002A33D1DA6A002A4E
:107F600030D1226B127D52072CD5C0201D685B6872
:107F70002A79DBB20293EB7812021A43AB79EE79DD
:107F80001902800001400E43F021A02789003140F2
:107F9000BF00B94208D069DC080080278138FF386B
:107FA000B84380B2002863D18EB2002A62D1236820
:107FB0002A009F6931002000029BB84723682000F7
:107FC0001B6A9847E06A002838D0C549FDF720FEB3
:107FD000E26AC44D53069B0F9B0058591F231A4059
:107FE0001B3B93401A58606C531E9A41BE4B216C48
:107FF0001B68824200D17EE1E3636264236C002B44
:1080000006D1002904D0226B7F3B117D4B401375B4
:10801000C021E06AC901FDF7FBFD01201F2201001C
:10802000E36A1A409140226B5B06127D9B0F02406F
:108030009B00EB58013A0A408900CA50A36ADA6BE8
:10804000002A11D1DE6A002E0ED1230048331B789E
:10805000002B09D0250049352A78002A00D156E1A5
:108060002000FCF7D9FB2E7005B0F0BD81429BD0FB
:10807000B6B29AE7697952BA92B27F2908D90299C1
:10808000236800915F6931002B002000B84795E715
:10809000A18A914200D091E73C2218009043AA782F
:1080A000697812020A4357BA42B2B9B2002A00DB19
:1080B0008FE0802816D081283AD0DA0765D462791B
:1080C000012A00D87AE7E2888A4200D076E70821C0
:1080D0000F2061569B0803408B423DD02000FCF7E7
:1080E0009BFB6BE76579002D12D0013D012D00D976
:1080F00064E7E3888B4200D160E77B4A2000138964
:10810000013313810A0000238121FCF769FB55E745
:10811000236820009B6A9847734BE7801B68258182
:10812000E3606379012B00D148E70123637145E7E0
:1081300063792068013B012B00D93FE7E3888B423C
:1081400000D03BE70023684A637113890133138130
:10815000836A2000984731E70026634B01311B6892
:108160000140A71D2172E360E51DFE77EB7FB3425E
:10817000DBD0216A4A7902400732E06901F051FA06
:10818000EB7FDBB2FB77EE77CBE7FF2B00D115E778
:108190006279002A00D111E7082020569B061B0FA8
:1081A000834200D00AE7E3888B4200D006E70A2327
:1081B000E3562000022B92DC022A90D1FFF761FEE9
:1081C000A37A0133A372484B1A681B682261E360EB
:1081D000F4E6032B21D8671DFB7F002BFCD10C227A
:1081E0000133FB772878A36910405C3A02431A7088
:1081F0000A0A1971DA7022680093D36931009C462B
:108200002A0020006546029BA847002803D02000D2
:10821000FCF788FAD2E6F877D0E6E2888A4200D006
:10822000CCE66179002900D1C8E69B080921180035
:108230000F27615638400300884243D1C2212000F5
:10824000FCF7CEFA637A01333B406372264B1B681E
:10825000E360A31DDB7F002B2DD12300E7692533CD
:1082600003930123039A3100137023680097DB699D
:108270002A009C4620006646029BB04700281ED07C
:108280000C232A781A405C3B13433B70E3881A0A9C
:108290003B710823FA70E269E356974202D00F223D
:1082A000013313403C21BA799B008A431343402297
:1082B0001343BB7182E62300276A2633D0E7039B72
:1082C00018707BE60139084D394088420ED1C22131
:1082D0002000FCF785FA6B8901336B812B6876E708
:1082E00010100000D8A700004C010010C32120008E
:1082F000FCF776FAF2E7E06B002800D17EE61B1A65
:10830000322B00D57AE600232264E36376E6E16C43
:10831000002900D1A8E6054B1B685B1A00D5A3E62F
:10832000236820001B6BE26498479DE64C01001017
:10833000F0B50379050087B0002B00D1D3E0FFF73B
:1083400001FEAB6ADA6B002A00D0CCE0DB6A002BBE
:1083500000D0C8E02B005C331B78002B00D1B5E0C7
:108360002B682800DB6A9847002800D1AEE0614BFB
:108370006A6E1B689B1A2A6E9A4200D99AE0AC6B0F
:10838000236820005B6998470190002800D191E0A4
:10839000236820001B69984703780293002B00D1C3
:1083A00088E01900206900F0C5FF21618BB20093BD
:1083B0006B461B880393039A029B934203D823695D
:1083C0000133236176E0236800999B682000984779
:1083D000037804936368586B03689B6898470600AA
:1083E000037801365B00C3180593059BB3421CD983
:1083F0007378009A9A421BD163683778586B0137BB
:108400000368DB689847874212D86368586B036833
:108410005B68984733785B00C01882784378120213
:108420001A4352BA92B2002A04D1009B0133BEE72C
:108430000236DAE74421049B0B408B42F5D1012040
:10844000039B01995B08CE18C95C039B034200D0D3
:108450000909CB439B07E8D104200B0003400142EC
:1084600043D06368581DC77FF9B2002FFBD1013795
:10847000C777BC209B6918701A71100AE122D87066
:108480005A719971D9716068FCF74CF9009BE360EF
:10849000009B07219A0004231A40914033788B43B4
:1084A000012191400B433370009B01332361114B39
:1084B0001B686B66FA210F4A6B6E1268C900D21AEC
:1084C0008A4203D3FA2292009B186B662B6D1B7DA8
:1084D000002B08D06B79002B05D1064B0221280018
:1084E0001B68FEF771FA07B0F0BD20000099FCF799
:1084F0006EFFCDE74C010010F8B51C0003680500C5
:108500009B68079F9847021E1BD01F234678696807
:108510001E40FEF7E9F80D4B01009B5D00225C4315
:108520000A2C0EDC3800069A0C30013A5343220024
:10853000C9180B2E07D8FCF73FFF01227B791B19C6
:108540007B711000F8BD01F06CF8F6E74CA8000054
:10855000F7B51F0003680D00DB690400160098479B
:10856000A84204D1012F02D133782375F7BD636887
:108570002000ED1A2368DB699847A84208D37B19CD
:10858000019323682000DB6998477B19834210D24E
:1085900020693A003100401901F043F8E6E723680A
:1085A0002000DB6998473378A84206D1237501364D
:1085B0000135019BAB42F2D1D8E722695355F6E76A
:1085C000F0B585B0019303680E00DB690400170065
:1085D0009847B04206D1019B012B03D1237D3B700C
:1085E00005B0F0BD63682000F51A03932368DB69CA
:1085F0009847A84209D3019B20005B190293236886
:10860000DB699847029B834212D221693800019AA4
:10861000491901F006F8E3E723682000DB69984771
:10862000A84209D1227D039B9B1BFB185A5501359B
:10863000029BAB42F0D1D3E723695A5DF3E7F0B573
:1086400089B006000C001D00181E069251D04B1E6A
:108650005B190020049399424BD8706D00280CD010
:10866000036821009B6898470590706D0499036822
:108670009B689847059B002B1DD1069B0393012304
:108680000593306D21000368049A1B699847002800
:1086900062D021003000049DFBF730FD0E9B0135B8
:1086A0001B782D1B2A00002B4DD00100039800F0F1
:1086B000B8FF01201DE000280BD127002B190793DC
:1086C000069B1B1BDB190393079BBB4219D11C00A4
:1086D000D7E70E9A706D12780368002A0BD000223B
:1086E00000925E6821002B00069AB0474342584131
:1086F000C0B209B0F0BD1E6821002B00069AB04739
:10870000F4E7706D390003689B68984700280ED025
:108710000E9A706D12780368002A0ED00022009223
:108720005D6839000123039AA847002801D03C0066
:10873000A7E7002301370593C2E71D68390001232D
:10874000039AA847F1E7039900F06BFF0123306D0E
:108750000375FCF7F9FAACE7306D21000368DB68BC
:108760009847002816D0336D210030009D68FBF734
:10877000C5FC0E9B01351B782F1B3A00002B1ED029
:108780000100039800F04DFF039B2C00DB190393BD
:1087900000230593306B21000368049A1B699847F6
:1087A000002815D00E9A049B12780133306B1B1BE6
:1087B000002A3BD12100039AFFF7CAFE79E703990B
:1087C00000F02FFF0123306D0375FCF7BDFADBE7E6
:1087D000306B0368DB699847844206D1306B0368CD
:1087E000DB699847049B8342DCD0306B210003682F
:1087F000DB689847002824D0306B85686B1C059394
:108800001F1B0E9B1B78002B15D03B002100039AE9
:10881000FFF7D6FE039B059CDB190393049B5D1BAE
:10882000049BA34213D3039B069316E72100039AEC
:10883000FFF7C6FE3DE73B002100039AFFF788FEE5
:10884000E8E7049B5D1C059B2D1B002BE8D06B42C9
:108850005D41E8B24DE730B50F24002585B06C448A
:1088600025700094FFF7EBFE05B030BD70B5040035
:108870008220400081421AD1117800200D097F2901
:1088800014D821000831C86F043401680E6829002B
:10889000B0470600E06F03688C331B689847465565
:1088A000E06F01240475FCF74FFA200070BD200032
:1088B000FFF7D1FFFAE730B50F24012585B06C44EE
:1088C00025700094FFF7BBFE05B030BD70B51D00EC
:1088D0000A4B1400CE18072E0CD80430C06F036862
:1088E0008C331B6898472A008119200000F099FEFC
:1088F000012070BD2B00FFF7DEFFFAE71749FFFFED
:10890000F8B51400F72205009200914223D0334AB3
:1089100091425FD1071DF86F0368AC331B6898471D
:108920000600F86F0368DB6F9847020020003100F3
:10893000083000F035FE002801D00020F8BDE17BB2
:10894000A37B090219432B6849BA2800DB6889B266
:1089500098470120F2E7061DF06F0368AC331B68EF
:1089600098470700F06F0368DB6F9847020020000C
:108970003900083000F014FE0028DED16B1DDA7FCC
:10898000D7B2002AFBD10132DA77B023AC69237069
:108990003B336371E83BA371DA33E7702771E3710E
:1089A000F06F0368DB6F9847874208DB00232800DD
:1089B000A373E37323746374FBF7B4FEC9E7F06F2A
:1089C0000368AC331B689847C25DE31901371A721C
:1089D000FFB2E5E72200FBF7B2FEAFE7DE030000DF
:1089E00070B50D008621890043580400002B0DD17D
:1089F000020015301432FF3013786658DB43DBB2C7
:108A00009E4200D2635001328242F5D18621A06895
:108A10002269890082186358013A934216D0002BCC
:108A200011D1431C852620008022B6001530A351A9
:108A30000021FF30520000F0C1FDA3590020DB43AC
:108A400065192B7570BD01336350EBE7042040427C
:108A5000F8E7F0B50400002687B00391049205936F
:108A6000059B9E4202DB002007B0F0BD039B9B19D3
:108A70000193049B9B5D0293019B1F12FF2F35D82E
:108A8000E3191D7D8523ED439B00E358EDB2AB4216
:108A900029D02000FDF762FF85239B00E550002DC3
:108AA0000ED188239B00E35C002B11D039002000FD
:108AB000FFF796FF0028D7D101220E4BE25407E0C2
:108AC00020008022153029025200FF3000F0A9FD5D
:108AD0006B461B79029AE318FF335A750122064B45
