:1030000000200010DD300000D7300000896800008B
:1030100000000000000000000000000021AFFFEFF2
:10302000000000000000000000000000D930000097
:103030000000000000000000DB300000BD4A00007E
:10304000D5300000D5300000D5300000D53000006C
:10305000D5300000D5300000D5300000D53000005C
:10306000D5300000D5300000D5300000D53000004C
:10307000D5300000D5300000D5300000D53000003C
:10308000D530000029640000D5300000D5300000A4
:10309000D5300000894A0000000000000000000058
:1030A00081360000D5300000D5300000000000005F
:1030B000D5300000D5300000D5300000D5300000FC
:1030C0001CA90000C00000106000000020010010DA
:1030D00098080000FEE7FEE7FEE7FEE7F0B5EC4BE0
:1030E000EC4989B08B4200D26BE20020EA498B4266
:1030F00000D274E206F036FC07F018F8FA21E74B2C
:1031000089001868049306F071FC02F075FBC02278
:10311000E34DE44BE44992008B50AB500432AB508A
:103120000432AB500432AB500432AB500432AB50DB
:10313000DE4C0432AB50DE4B2000039301F0ACFCBC
:103140001F22012023790027103313409840039B4E
:10315000E8675E6F133230003900F76002F088FADA
:10316000D44C049BA16F186806F040FCD24906F0CD
:103170003DFC0122C0210138B0617368CF48134380
:103180007360890102F076FBC021CD48890102F00D
:1031900071FBC021CB48890102F06CFBC021CA48F9
:1031A000890102F067FBC021C848C90102F062FB37
:1031B000C021C748C90102F05DFBC021C548C90153
:1031C00002F058FBC021C448C90102F053FB8E2213
:1031D0001021C24E9200F761A3588B43A350802365
:1031E000BF4A9B01D16F0B43D367049BA16F186843
:1031F00006F0FCFBBB4906F0F9FBBB4C01380002B2
:10320000A060A268B94BBA481A60C022A168D20473
:103210000A43A2605A68F761A268C02102321A60AC
:10322000952340229B00E754B24BC9015A6002F03B
:1032300021FBB14E300001F02FFC1F213379022217
:1032400010330B401E399940E96735680121280089
:10325000EF6002F00DFAA94B0122EB6196233900D1
:103260009B00AB616B6FA64813436B676B6813439E
:103270006B60A44BA44A638027803B0044335B000F
:10328000E3189A803B00B4335B00E3189980012572
:103290003B00C4332F4200D1ACE1AB409B4DE3185F
:1032A0009D800137102FE8D193230026C6219B0073
:1032B000E652974B7C48E65289004258503BFF3B10
:1032C0009A43BF3B1343435080238B4F5B040360FF
:1032D000BA68904B0399904DDA614A649A611E7303
:1032E0008E4A8F4B04921360EB628823DB010093BC
:1032F0000221322328008B4A04F09AF9049B8A4C5D
:103300000833AB652B005C331E7023006C655F33A4
:103310001B78FF2B0DD14B21200005F031F8B04276
:103320000AD1824B01362000E65403F037F9804B76
:10333000E654200003F032F9237DFF2B0DD100214C
:10334000200005F01DF800280AD10126774B200047
:10335000E65403F023F9764BE654200003F01EF9FF
:10336000AB6B744A74499A60EB6FD63A5A60DA686C
:1033700052189A60BB680493237DDB43DBB2002BB9
:1033800000D174E185229200A2586C4D9A4200D07F
:103390001D022B78013BDBB2FD2B00D956E1002446
:1033A000674F01350021200000F065FA012862D145
:1033B000200001F05FFF2B00123305932B785A2B6E
:1033C00055D1AA78573B13433B70EB787B702B7930
:1033D000BB706B79FB70EE79AB7936021E43FF2E22
:1033E00000D90BE132000B21200000F029FD6E7A9C
:1033F0002B7A36021E43FF2E00D907E132000C2142
:10340000200000F01DFDAB7A022B00D83B71152186
:103410002000EE7A00F02FFA022800D1FEE0032807
:1034200000D101E1012800D0FCE0731E032B00D97C
:10343000F8E0162120003E7300F01DFA000707D5C2
:10344000023E012E04D801220421200000F0F8FCE5
:103450006B7B2A7B1B021343049A03219B18BB60DE
:103460006A7C2B7C120220001A4300F0DBFC200057
:1034700002F037F8059D01341C37082C92D10B2639
:1034800004ABF618002307951B4D310007A859E03F
:10349000C0300000CC300000D4300000CC00001060
:1034A00004E100E08080808000E100E01402001070
:1034B000A001001000800440400D030021411006CF
:1034C00020411007224110062B83380060823410FF
:1034D00061C2340F6242350E49C201000000035040
:1034E00004800440009F24003407001000C0014005
:1034F00026C23300FC00015020010010AF04000080
:103500009981FFFFE2040000FF0100008583FFFFB7
:103510004E0200002002001098060010C0000010AB
:103520004882810082A000005404001021020000A3
:1035300022020000D2040000FB0300006805001016
:10354000600300103370AB64EB6401F085FE310062
:10355000E88707A801F080FEAB1CD8870B27AB6C6F
:1035600007A8049304ABFF18390001F075FE049B13
:1035700039009E00AE19F08207A801F06DFEB082FE
:10358000002853D13B78002B5AD1C0210024394860
:10359000C90102F06FF9384B1C6203F081FF039BF5
:1035A00058639C63DC631C63344C200004F084FB90
:1035B000200000F038FA002800D0012005F080F843
:1035C000F2E700221D685F689868BE18AC18904248
:1035D00001D80C3386E5246804323460F5E7002214
:1035E0001E685C68B518944201D808337FE52860EE
:1035F0000432F7E75B00E318988052E6312120009F
:1036000000F039F9032800D0F1E6EBE63121200083
:1036100000F031F9032800D0F5E6EFE6731F012B27
:1036200000D806E7002604E7F31FF8E7049B013300
:10363000082B00D90023013CAB64002C8ED1A1E7FC
:103640000023EB87AB640235EB879EE70024002163
:10365000200000F010F9012805D1200001F00AFE39
:10366000200001F03EFF0134082CF0D18DE71B78DB
:10367000FFDEC04643826D00000002509806001035
:103680008022802172481201724B8900F0B581506E
:103690001A8883B012B20132132A00DD8CE06E4921
:1036A000D4000819655E0224015F0426865F14B207
:1036B0006A480431C661986889004019684D2860DD
:1036C00049591888090400B2890D0F2800DD7DE0F2
:1036D0006448814200D875E0188800B25430400038
:1036E0001818858801352DB28580188800B24430BD
:1036F00040001818808800B2091A188800B20230F9
:103700008000181845686D1845601888494300B254
:10371000123080001818456849194160598808B26C
:10372000002936D11D8819882DB20235AD0009B2A5
:103730005D1932316D68890059184D60198809B2D8
:1037400002318900591848601D8819882DB2123538
:10375000AD0009B25D1942316D68890059184D609C
:10376000198809B212318900591848601D881988D2
:103770002DB254356D005D1909B2AD88A4314900F0
:1037800059182DB28D80198809B254314900591841
:103790008880002A08D15A8812B2511E09B2598075
:1037A000002A01D1304A5A80802200202849120183
:1037B0001C80885003B0F0BD02250026002407219C
:1037C000002275E7042900D886E78EE7188800B242
:1037D0000600103E012EDCDC05001535FF356D00BE
:1037E0005D19AF88BC46614489B2A98099880627D3
:1037F00001318C4609B29980614639400191674692
:1038000006210F4217D1AF8819300199FF304000CF
:10381000BF081F52A980002E0DD13F09112F13D9C7
:10382000123F12492E2F00D92E277F00795A1048B7
:1038300000688161ADE7012EABD159880029A8D17C
:10384000953189005E54A4E79621C900EFE7C04690
:10385000000002503407001054A80000000003507C
:1038600000C00140FA030000E104000040A3000092
:10387000200100107047064B2130DA6F10B5FF3081
:1038800083015918136810005B68984710BDC04643
:103890009C06001070B506000D00FFF7ECFF691CD8
:1038A00004003000FFF7E7FF0002201880B270BD6F
:1038B0000069704700690130704700690230704745
:1038C00000690330704700690430704700690530B3
:1038D000704700690630704700690730704700691B
:1038E0000830704700690930704700690A30704736
:1038F00000690B30704700690C30704700690D306B
:10390000704700690E30704700690F3070470069DA
:1039100010307047006911307047006912307047ED
:103920000069133070470069143070470069153022
:10393000704700691630704700691730704700699A
:10394000193070470069FF30704700696230704776
:10395000006963307047602070476120704706201F
:1039600070470A207047006915307047DC230069F2
:103970009B00C0187047DF2300699B00C018704788
:103980000069014BC01870477E030000E023006906
:103990009B00C01870470069014BC0187047C046B3
:1039A00082030000E12300699B00C0187047DE23FA
:1039B00000699B00C01870470069014BC018704730
:1039C0007A0300000069014BC01870478A030000A9
:1039D000E42300699B00C01870470069014BC018C0
:1039E0007047C046850300000069014BC01870474E
:1039F00086030000E22300699B00C018704700693D
:103A0000014BC0187047C0469A0300000048704739
:103A100014A300002020704737B5002504680095E6
:103A2000E46CA04737BD10B503790400002B01D129
:103A3000002010BDC36F5B7D012BF9D10434E06F12
:103A400003688C331B6898474378012BF0D1E06FF3
:103A500003688C331B6898478378012BE8D1E06FAB
:103A600003688C331B689847C0780138434258413B
:103A7000C0B2DEE770478182704700207047172090
:103A800070470022836A5A607047030048331970F8
:103A900043795A1E9341020049321370044B9B68CC
:103AA0001A00FA32FA3300D10122C2647047C046CC
:103AB00020010010E02310B59B00994202D10121A2
:103AC000FFF7E3FF002010BD70B50500006D0C008E
:103AD0000368DB689847002805D0286D036821003B
:103AE0001B68984770BD286B21000368DB68984706
:103AF0000028F7D0286BF1E737B51400F022012534
:103B0000806B92000A406D4201680095CD682100EB
:103B1000A84701203EBDC023F7B5089C05009B00C7
:103B2000994200D16BE00BD880200E00013BFF3B97
:103B300086439E4222D0803B994210D00020FEBD99
:103B4000514B99426FD0514B994200D192E0E02302
:103B50009B009942F2D10121FFF797FFEEE7642124
:103B6000D379127A61716339A17141390B43E371E1
:103B7000002322726372A3720120E0E70F23D6793B
:103B8000107A1E40537A1B020343A0205BBA9BB2FB
:103B9000019380002B6881421AD022002B682800F4
:103BA0005B6C01991F000A323300B847431E9841ED
:103BB000404206403300633363710223A3713E33F6
:103BC0003343E371019B1B0A2372019B6372D3E7AA
:103BD0001B6C28001F00019933000A32B8470028E7
:103BE000ACD02B6828009B6B98471F28A6D9286B60
:103BF00003685B69984703785B079FD5CDE7D37966
:103C00009B069BD163236371603BA3713D33E371DA
:103C100003689B6B9847000A20722B6828009B6BF7
:103C200098476072A8E7137A527A072B06D10221CF
:103C3000FF2A0AD103210022012308E05A1E062A86
:103C400015D802210022012B01D00A000023642094
:103C50002272002260716138A0719E30E071627240
:103C6000A372914288D02800FFF70FFF84E700215C
:103C70000222EBE7622363715F3BA371CF33E371F1
:103C80000023237278E7C04681030000D1030000BF
:103C9000F0B51700274A85B00D000A9C914205D067
:103CA000013291422ED0244A91423ED1BB7A397AD8
:103CB00003931E01FF231E40FB7A7A7A1E4365237D
:103CC0006371623BA371D333E37121726272BB7A79
:103CD0000830A372FF7A039BE772174FC06F1B096E
:103CE000BD420AD10568019400962D6BA8470028B3
:103CF00000D1A072012005B0F0BD056801940096C6
:103D00006D6BF3E76825397A7A7ABB7A6571653D20
:103D1000A571D63521726272A372E5710830C06F49
:103D200005680094AC6BA047E4E73A000094FFF705
:103D3000F2FEE0E7D7030000D5030000C36A002BC2
:103D400009D102005F3213785A30013313704023D7
:103D50000288134303807047036870B59B680400B2
:103D60000D00984743780020052B04D923682900CB
:103D700020005B68984770BD036870B505005B68FC
:103D80000E0098472B6804001B68310028009847F4
:103D90000219531E1878A41A1A19002A00DC70BDE3
:103DA000013B1A7800021043F6E71423434310B591
:103DB0000A315918024B986BFFF7DEFF10BDC04661
:103DC00098060010F7B50193036805001B680E0004
:103DD00017009847041E1CD02B6831005B68280030
:103DE0009847431C15D02018031B002B12DC2B68AE
:103DF00028005B69984700280BD07310C25CC1187B
:103E00006B460F201B79F60708D502401B011A43A9
:103E10000A70F7BD27703F0A0134E5E78243134378
:103E20000B70F6E7142310B5434304480A315918C0
:103E3000806B0823FFF7C6FF10BDC0469806001030
:103E4000142310B5434304480A315918806B0323E7
:103E5000FFF7B8FF10BDC04698060010F8B503681C
:103E600004005B699847051E22D0236820001B6967
:103E700098470678002E1BD000237F2063615A08E4
:103E8000A9188C4601270821AA5C11403B4201D0A9
:103E9000110081435F1C002905D08A436146180048
:103EA0000A706761F8BDBBB29E42E8D80123636126
:103EB00001204042F6E730B504000D0085B00A222B
:103EC0000B4901A806F058F9236829009B682000D7
:103ED000984743780120052B05DD0F2B05DC01AA4F
:103EE000D318063B187805B030BD01204042FAE7F0
:103EF00019A30000436810B50400186D0368DB6D5A
:103F000098470178081E06D06068036D5B68C91881
:103F100089B2FFF7D9FD10BD036810B51B69040015
:103F20009847002803D041786068FFF7CDFD10BDA9
:103F3000036810B51B690C009847002803D00321C3
:103F400061430231401810BD10B50400FFF7F0FFC7
:103F5000031E0BD05B78017860689B0603D5036D68
:103F60005B68C91889B2FFF7AFFD0300180010BDE8
:103F700010B5FFF7DDFF013010BD436810B5043305
:103F80000400D86F036890331B6898474178037822
:103F9000090260681943FFF797FD10BD036870B50B
:103FA00004001B6998470949A5684378421C8D4263
:103FB00006D15178090219436068FFF785FD70BD8D
:103FC00051780902194349BA89B2F5E7D2040000D1
:103FD000036810B51B690C009847002803D0A400A3
:103FE0000334A4B2001910BD70B50400FFF7F0FF50
:103FF0000849A568027843788D4205D1190211431A
:104000006068FFF761FD70BD1902114349BA89B2BA
:10401000F6E7C046D204000010B5FFF7D9FF023022
:1040200010BD0023421D4371D377821DD377C21D7B
:10403000D37701225242028102320271024AC380C6
:10404000C3609381D3817047200100100222431D79
:1040500010B5DA770F2381694A791A40036807326D
:104060005B6A984710BD10B5036B1B7DDB0710D54D
:10407000C02905D080235B0099420CD0002010BDE0
:10408000517A137A09021943036849BADB6889B285
:1040900098470120F3E7431DDA7FD1B2002AFBD114
:1040A0000132DA778369B024D9701971E1219A71EC
:1040B0003F321C705971DA71FFF7C8FFE9E770B53C
:1040C0000500C36B04005A35002B13D00022C263D5
:1040D00080682B88411DCA77826992797F2A09D925
:1040E0001B060ED50B23C356022B0ADC0133C37209
:1040F000FFF7ACFF0023E3616362A3632B80E365FA
:1041000070BD0023C372F5E7F8B50C00411DCD7FEB
:10411000002DFCD140260135CD77170A8569D2B232
:10412000344203D0990021430E43F4B2B0232B70E4
:10413000503BEF702A716B71AC71FFF787FFF8BDD0
:104140000A4A10B593890400013393814379002B07
:1041500001D00023437181212000E2880023FFF772
:10416000D3FF236820009B6A984710BD20010010F0
:104170000023821D0730D377C3777047004870470C
:1041800024A30000004870470107000042680300B4
:104190000020914203D39B688B424041C0B27047DC
:1041A000030010B50020914206D85C68A14203D3F9
:1041B0009B6893424041C0B210BDB43070471000BC
:1041C0000378002B01D1180070478B42FCD00430DB
:1041D000F6E7F8B505000C0016000020052909DCFB
:1041E0002B6828005F68DB6B9847A40022583100D9
:1041F0002800B847F8BD1378072203201340013B7D
:10420000DBB2834201D8014AD05C70479CA3000016
:1042100070B5040015000320062B13DD56781378C3
:1042200036021E4376BA02290DD0814211D00129EF
:1042300008D163680433D86F0368A4331B689847B8
:104240000680022070BD63680433D86F0368A8330A
:10425000F4E7636896780433D86F03689B6B9847DC
:1042600006706368EE780433D86F03681B6A98475A
:10427000067063682E790433D86F03685B6A9847C9
:10428000067063686E790433D86F03689B6A984739
:1042900006706368AE790433D86F0368DB6A9847A9
:1042A00006706368ED790433D86F03681B6B984719
:1042B0000570C6E70721F0B5537905000B40013BB7
:1042C00085B0022B5AD85478137824021C43D37833
:1042D00091781B020B4364BA5BBAA4B29BB21B1960
:1042E0005F1E019343682100D86F0368DB6898471D
:1042F0006B680600D86F39000368DB6898476B6805
:1043000003900433D86F21000368DB6898470643A5
:10431000F3B202936B6839000433D86F0368DB682B
:104320009847039B0343DBB203936B685E6D3500D4
:10433000321E0BD0336821009B68300098473368E9
:104340000500390030009B68984702000D4BBB21E7
:10435000E41800231800A1425841029C04430320A2
:104360002543401B084D019CAC466444A1425B417F
:104370000399C0B2194302D1002A00D1032005B02D
:10438000F0BDC04600F7FFFFFFF6FFFF02207047B9
:1043900070B55478137824021C4343680600043334
:1043A000D86F1500036864BA9C331B68984773681C
:1043B00004800433D86FAC780368A0331B68984737
:1043C0000470022070BD70B51400E37892781B026F
:1043D000134342680600110088310D88002D01D179
:1043E0005BBA9DB20432D06F036890331B68984764
:1043F0000580657923792D021D4373686DBA0433F6
:10440000D86F036894331B6898470580A379E479D3
:1044100024021C43736864BA0433D86F036898336A
:104420001B6898470480022070BDF7B51F000A3B47
:1044300004000E0000920193012B19D80368DB6879
:104440001D003B00A847052813D1009B5878019B0D
:104450005A1E9341009A0233D218FB1A0B2807D830
:1044600005F044FC080E1114171A060606061D2056
:104470000320FEBD21684F6931002000B847F8E7EE
:1044800021688F69F8E721680F69F5E72168CF692E
:10449000F2E721680F6AEFE721684F6AECE72168CD
:1044A0008F6AE9E72168CF6AE6E7F7B50721537914
:1044B00006000B40013B022B4BD855781378D4787B
:1044C0002D021D439378CC3624021C4333686DBA09
:1044D000D86FADB203682900DB68984733680700DE
:1044E00064BAD86FA4B203686419013C2100DB6888
:1044F0009847336801900433D86F29000368DB685C
:104500009847336807430433D86F21000368FFB22C
:10451000DB689847019B0343DBB2019333685E6D10
:10452000301E03D0336829009B6898470743330047
:10453000FDB2002E05D0336821009B6830009847FB
:1045400003000327019A7F1BF8B2002A02D1002B37
:1045500000D10320FEBDF8B5040015000320062B92
:1045600015DD577813783F021F437FBABEB2022988
:104570000ED0814213D0012909D1CC3423680433F1
:10458000D86F0368A4331B68984707800220F8BDE2
:10459000CC3423680433D86F0368A833F3E7CC34F2
:1045A00023681A0088321288002A00D016000433CB
:1045B000D86F036890331B689847236806800433DC
:1045C000D86F036890331B6898472368AE7804332C
:1045D000D86F03689B6B984706702368EE780433A6
:1045E000D86F03681B6A9847067023682E790433D6
:1045F000D86F03685B6A9847067023686E79043346
:10460000D86F03689B6A984706702368AE790433B5
:10461000D86F0368DB6A984706702368ED79043326
:10462000D86F03681B6B98470570AFE74368006954
:10463000C91A4018704742680300891AC2680020EE
:10464000013A8A4201D31B69585C7047426810B531
:10465000891AC2684C1C013A03000020944204D815
:104660001A69535C105D1B02184310BD024B9B6816
:10467000323383617047C0462001001070B50400DA
:10468000006D0D000368DB6E98470678206D3602DA
:104690000368DB6E9847437833439D420FD0206D0B
:1046A0000368DB6E98472B0A0370206D0368DB6E8E
:1046B000984701234570206D0375FFF7D7FFA5824A
:1046C00070BD70B50400251DFFF7D8FFE86F0368C3
:1046D0008C331B6898474378022B0DD1606B0368BD
:1046E0005B689847A38A1B0A4370A38A83700123DF
:1046F000E86F0375FFF7BAFF70BD43680069C91A18
:104700004018704742680300891AC2680020013AC5
:104710008A4201D31B69585C7047426810B5891AF8
:10472000C2684C1C013A03000020944204D81A6964
:10473000535C105D1B02184310BD10B5141E04D04D
:10474000BFF34F8FBFF36F8F72B6034B9847002CA8
:1047500000D062B610BDC046F11FFF1F322330B536
:104760008BB000930309019305000B090C00012293
:10477000684605A90293FFF7E0FF059BDBB20593AE
:10478000002B0FD1FA213B330093084B89001868A6
:104790000195029405F02AF90122039005A96846C3
:1047A000FFF7CBFF0598C0B20BB030BDCC000010B6
:1047B000F0B504000E0015008BB0BFF34F8FBFF3B0
:1047C0006F8F72B632230093C3171B051B0DC318DE
:1047D000013A82181B130193D3171B051B0D9B185D
:1047E0001B130022684605A90293FFF7A6FF059F49
:1047F000FFB20597002F04D062B60598C0B20BB087
:10480000F0BD3323FA2100930D4B89001868019401
:104810000296039505F0EAF83A00049005A9684667
:10482000FFF78BFF059A002AE6D13823684605A9D1
:104830000093019402960395FFF77FFFDCE7C046E3
:10484000CC00001030B50C4D8BB02869002811D178
:104850003523022400930122684605A9019402949D
:10486000FFF76BFF059B072B02D00234802CF2D19F
:10487000200328610BB030BD20010010F8B5040002
:10488000FFF7E0FF0C4FC519FFF7DCFFC7198020C9
:10489000E6694001310005F0A9F801387043381885
:1048A000A84201D20020F8BDE368C318013B1B7881
:1048B000FF2BF8D1801BF3E700F0FFFF8822920066
:1048C0000300805C00280BD10912FF2909D85B186E
:1048D0001B7DDB43DBB20120013398428041404223
:1048E000704701235B42F6E7074B084A10B5CC1826
:1048F0000123944205D90023FF2902DDFFF7DEFFE3
:104900000300180010BDC046E0B4FFFFDF34000014
:10491000036870B59B68040015009847002804D010
:104920002368290020009B68984770BDF8B50500F2
:104930000C0000268F18BC4201D13000F8BD2B6856
:10494000217828005B68984701343618F3E70200A5
:10495000FF32527E0300101E0DD018695A69904232
:104960000AD10C4A5069800606D511600223012045
:1049700051680B43536070477F205A6901320240EF
:1049800018698242FCD058691818983001705A6131
:10499000004AEBE7008000400300FF335B7E002B02
:1049A00003D0026943699A42FBD17047194B30B575
:1049B0005A69920607D501694269914209D10221DB
:1049C0005A688A435A6001247F215A6922420DD1D4
:1049D00030BD7F2102698218983212781A6002690C
:1049E0000132026102690A400261ECE7C26885682F
:1049F00001320A40AA420AD01D68C26882181576A0
:104A0000C2680132C260C2680A40C260DDE71A684B
:104A1000DBE7C04600800040030070B5FF335B7EDB
:104A2000002B28D07F25C3688168C4688268013361
:104A30002B4094421CD082688218147E8268013216
:104A4000826082682A4082608B420FD10B4B5B6987
:104A5000DB070BD5BFF34F8FBFF36F8F8025084B5C
:104A6000AD03DD67FFF7A2FF064B1D60200070BDA0
:104A700001246442E8E701246442F7E70080004033
:104A800004E100E000E100E010B50248FFF78EFF0E
:104A900010BDC046440200100123027906490732C6
:104AA0009340002210B5CC6F2343CB670368DA63D1
:104AB0005A619A6210BDC04604800440024A93685D
:104AC000013393607047C0462001001010B50139D2
:104AD0008018002A00DC10BD8C5C5342C454013A9B
:104AE000F7E7F0B587B00593036804001B6816006C
:104AF0000F009847390003902000FFF72DF90200BE
:104B00006368591DC87FC5B202950028FAD10130EB
:104B1000C8779D69BC232B70B3B204931B0AEB705A
:104B20000F23111819402F3B0B436B71059B2E71FE
:104B30008026002B00D0403E002A17D02800039981
:104B40000830FFF7C3FF0023AB71029B8022334381
:104B5000EB71236800972000DE6804992B00B047B2
:104B60006068FFF773FAE76007B0F0BD039B1B783E
:104B70000293E8E7F0B587B0049343680400586BEC
:104B80000291036803929B68984763680578070061
:104B9000586B029903681B6898470190002806DB50
:104BA0006B0005937E1C059AF31B9A4201DA07B04D
:104BB000F0BD3378019A934233D175780C9B9D42B6
:104BC0002FD0236829009B68200098474021039A32
:104BD0000378403A8A432DD114321340934220D1B6
:104BE0002368290020001B6898470090002818D0EF
:104BF00029002000FFF7B0F8021E14DD0499009888
:104C00000831FFF763FF236820005B69984700289D
:104C100007D08022EB0700D4783A6D10435D134330
:104C200043550236BFE73F22049BDB791340009ACD
:104C30001370E8E7039A002AF3D10C321340934231
:104C4000EFD1012329002000029AFFF74AFFE8E78D
:104C5000036870B55B680C0098470300021E00D023
:104C60000278012021120333E4B2824202DA0120E9
:104C7000404270BD1D788D4202D15D78A542F8D0CA
:104C800001300233F1E7436810B504330400D86FF4
:104C90000368A4331B689847417803780902606869
:104CA0001943FEF711FF10BD436810B5043304002B
:104CB000D86F0368A8331B689847417803780902C6
:104CC00060681943FEF700FF10BD036810B55B680C
:104CD0009847037840780002184310BDC268836883
:104CE0009A4203D08368C018007E7047012040427A
:104CF000FBE7C3688068181A00D58030704794229B
:104D000030B5174B174992009A5A0988164B92B240
:104D1000022917D19C6CD96C8C4213D11C008C34A5
:104D2000217800290CD119001D0088310968083547
:104D3000511A2D2906DCEB6FC31A0FD401232370FF
:104D4000012030BD190000248C310C70190088330B
:104D50001A60FA23DB000831C018C8670020F0E7AA
:104D6000340700107201001020010010942200206E
:104D7000074B92009B5A074A5B439B18064A126EE8
:104D8000934203D301309B1A1028F9D17047C046D3
:104D9000340700101CD2FEFF20010010036801330D
:104DA000082B00D90023044A0360906CC01A431EEC
:104DB0009841C0B27047C04620010010F7B5114BB2
:104DC000002201931F2301249C460F4F0199604646
:104DD000096B260011419300DB590D0018408640F5
:104DE00025403000214200D035005B0607499B0F6B
:104DF0009B00C9180B6E80000132C550082AE5D10E
:104E0000F7BDC046A0010010B001001040A3000093
:104E1000F0B585B0039001920293012902D90020D8
:104E200005B0F0BD01239C461D00134F029B38883E
:104E30009D4006006246039B104C2E401340994251
:104E400005D1002EEBD1284338800120E8E7019BF3
:104E5000002B0AD0FA21019A89004A43029B0A9941
:104E600038339B00E31852185A60002ED7D0A8435D
:104E7000E0342080E9E7C0464004001060030010E1
:104E80001140F8B50D001C21069F0400794312481B
:104E9000079E401881790A4218D03278002D01D13E
:104EA000002A07D019000698FEF7E5FC002803D079
:104EB000012807D00120F8BD012360702370A37082
:104EC000E070F7E720706070A070F9E7002D01D066
:104ED000012333700020EEE760030010F0B50400FA
:104EE0000F0087B01421180016001D00FEF7C3FC48
:104EF000C00668D5002302939E423ADDF3B20A2B26
:104F000037D1093BA370F3055FD5360B2E2128005E
:104F1000FEF7B1FC01230100180030409C461C2222
:104F2000614B0390022959D9022131400800461EE5
:104F3000B041029060466A439A189279D608304090
:104F4000844602980826604500D037430020B243CB
:104F50000290814202D00121324302911C21694317
:104F60005B189A710122D97903989143002832D1B4
:104F7000D9711C233E006B434B4AD1188B79180919
:104F80000640074207D01700E0373F883840072720
:104F9000BB4303438B711C236B43D31803939B794F
:104FA0001B073FD1002E0ED02B212800FEF763FCFB
:104FB00001282DD003282FD0002804D101236070B0
:104FC0002370A370E07007B0F0BD31002800FEF739
:104FD000ECFE06009AE70A43DA71CAE760466A43C4
:104FE0009A1891790826CA0802400398904200D086
:104FF00037431C2203986A43B143002804D19A180E
:10500000917100230293B4E79B180E439E71F8E759
:1050100020706070A070D5E70123E2782370627081
:10502000A370D0E70F27002302AABF1823703B709C
:10503000012231002000019700952F33FFF720FF58
:105040000028C0D1039B9A7908231A4215D01E422A
:1050500005D13B78002B02D1029B002BB3D01C2240
:105060006A43114B9B18DA799307ACD401231A4099
:1050700023706270A370E370A5E701231E4200D085
:105080003B702D2302223100200001970095FFF78D
:10509000F7FE002897D12C2304223100200001972D
:1050A0000095FFF7EDFE8EE760030010F7B54600B0
:1050B000330027330C001000190015000193FEF790
:1050C000DAFBC00740D5310028002831FEF7D3FBBA
:1050D0000227314B0138B7400093032820D81C2306
:1050E00004F004FE020E33466B430099E278CB18BD
:1050F0005B79002A0BD01A00012132410A4006E0F8
:105100006B430099E278CB185B79002AF3D02178C1
:10511000E270002901D11F4202D001236270237086
:105120001C236B43009A2800D3185A790199BA437B
:105130005A71FEF7A0FB400706D5012362785A405A
:105140006270E2785340E370F7BD6B43009A01212F
:10515000D3185879E378020032410A40534022784C
:10516000E370002A01D10742DAD021706370D7E7DB
:1051700001992800FEF77FFB1C2101226943064BA1
:10518000C0085B185B791100334181439A43914217
:10519000C6D100232370C3E760030010F7B50D00EC
:1051A00030210400FEF767FB342101902000FEF758
:1051B00071FB0B2106002000FEF7F7FD0C2187B2E2
:1051C0002000FEF7F2FD80B2864202D203003000DA
:1051D0001E00019B012B33D1B7421FD91C22624311
:1051E0001C4B03219B181A791000084001280ED08F
:1051F0008A430199114319713A212000FEF73BFBC4
:10520000002805D1012300222B706A70AB70F7BD16
:105210000128FCD101232B706B70F7E78742F6D28F
:105220001C2262430B4B03219B181A791000084083
:105230000228ECD08A4301390A431A713631DCE77F
:10524000019B022BE3D1B742D6D838218742D4D371
:105250003921D2E76003001010B5036802005878C6
:105260001C7800022043FF2801D901240C7002336E
:10527000136010BDF7B500210400FEF7FCFA07002B
:10528000012800D0DAE01C26032366436C4D202160
:1052900020007355FEF7EFFA212101902000FEF760
:1052A000EAFA019B000103433221AE19200073701A
:1052B000FEF7F0FA0C2102002000FEF7B3FD3621C4
:1052C0002000FEF7E7FA0B2102002000FEF7AAFDFE
:1052D00034212000FEF7DEFA0B2106002000FEF745
:1052E00064FD0C2183B220000193FEF75EFD80B2C5
:1052F000864202D2030030001E00019BB34203D855
:1053000083429B415B425F001C26002366432721AA
:10531000AE19200037717371FEF7ADFA800703D51F
:10532000012372791343737129212000FEF7A3FA38
:10533000800706D51C2304226343EB1859790A43DE
:105340005A7116212000FEF796FA4022104204D02E
:105350001C236343E95C0A43EA5417212000FEF74B
:1053600099FA192106002000FEF785FA3C227243C3
:105370001C26121803212000FEF754FD002366436B
:10538000AE1914212000F38033731027FEF773FA4F
:10539000384238D02F212000FEF76DFA022802D8BB
:1053A000B3791F43B7712D212000FEF764FA02285C
:1053B00006D81C2320226343EB1899790A439A717B
:1053C0002C212000FEF757FA022806D81C23402281
:1053D0006343EB1899790A439A712E212000FEF756
:1053E0004AFA022801D907280DD11C2380226343E1
:1053F000EB18997952420A439A71012801D1D87168
:1054000001E00228FBD01C273B0000266343EB1879
:10541000DE70310020002231FEF72DFA40231842C1
:1054200009D1000607D501213B00B1406343EB18C9
:10543000DA780A43DA700136052EEAD1F7BDC046A4
:105440006003001001210B00834010B5064AD48F81
:105450001C40FEF710FAC00603D4631E9C41E0B264
:1054600010BD63425C41FAE722010010F7B50F005E
:1054700000210400FEF7FFF90600012812D12000E8
:10548000FFF7E0FF3100019005002000FEF7F3F97F
:1054900006073B78760F032E05D1BA78002A0AD189
:1054A000002B06D1F7BD002BFCD07B78019A9342EC
:1054B000F8D07D7801E0002BFBD101212000FEF720
:1054C000DAF90123184201D05D40EDB22A00132120
:1054D0002000002E02D0FEF7B3FCE3E7FEF7A2FCAB
:1054E000E0E7F8B500210400FEF7C5F90700012840
:1054F00033D136212000FEF7CDF91C2502000B2107
:105500002000FEF78FFC00236543144E27217519F8
:1055100020006B71FEF7AFF9800702D56B791F434E
:105520006F7129212000FEF7A6F9800706D51C23FC
:1055300004226343F31859790A435A711C25402702
:105540006543735D1621BB4320007355FEF793F945
:10555000384202D0735D3B437355F8BD60030010C1
:1055600073B50400019001A8FFF718FC094E051E51
:105570000CD02300019C9B00A200B2185269F318C2
:1055800001A85A61FFF70AFC0028F2D12800B46490
:1055900076BDC046200100100022F0B52B4B85B02F
:1055A0001C8F5E8F9D8F9A639A8794423BD0991C83
:1055B000CA8FA2433243CA871A1DD18F0D43D587A4
:1055C000DA6C9B6C93421BD003922700039B0193E0
:1055D000019A1E4B92009B18998A0F400C4224D0CE
:1055E000DA8A724010002A403840814397439982FA
:1055F000BC43002922D10198FFF7B2FF002821D136
:1056000023001249CA8F72402A43134014420AD021
:105610008A6C9BB290000818838201323340C382A7
:10562000082A08D88A6405B0F0BD03A8FFF7B6FBC6
:105630000028CAD1E4E700238B64F4E7002CF4D1FE
:105640000024DDE7002CC0D1FAE7C046200100109D
:105650000323594310B589B20624802A00D1043CA3
:1056600007228A408C40836A93432343836210BDA0
:10567000072370B503251E004D431340AE40AB40D9
:1056800044694900B44323433024250022408D401F
:105690008A404361C36BAB431343C36370BD70B5B2
:1056A000836A9868808A040A4C708870FF240020FE
:1056B00085B2AA421BD88C54D963BFF34F8FBFF376
:1056C0006F8F72B6DA7E012A0FD10621D976D9689A
:1056D0000868022141604260997E03008C00183303
:1056E0001B191A600232FFF7C3FF62B670BD0D5C72
:1056F00001306C40DCE7F7B5040001270191BFF3EE
:105700004F8FBFF36F8F72B6E27E012A0DD0002358
:10571000062A1FD1E36B002B07D023005E331B78D2
:10572000002B1CD1019A002A14D1E36880221D6845
:10573000217E2800FFF78CFFA67E28003100022280
:10574000FFF796FF1835074BB600AD192B60002305
:10575000E3763B0062B630BF002BD0D0F7BD00230C
:10576000F8E7C046FEFF000010B504000121806A82
:105770004834FFF7C0FF2378032B08D1BFF34F8FC6
:10578000BFF36F8F72B68023054A5B051A60BFF3C3
:105790004F8F044B044ADA60BFF34F8FFEE7C046D9
:1057A00055B01F5E00ED00E00400FA0570B505007D
:1057B000C368017E1C6881222000FFF749FFAE7E8E
:1057C000200031000122FFF753FF02236360013BF9
:1057D0006360B600064B1834A61933606B7E9B00DD
:1057E000E418044B23600023EB76EB6270BDC046E7
:1057F00017110000FFFF0000802301385B0498426E
:105800000DD2C021064A090650600648036A1B02F1
:105810001B0A0B4303620023936007331360704736
:1058200010E000E000ED00E0802070B54004FFF7DC
:10583000E3FF00F029F91F2101220B4B80241B6894
:105840000A4D19408A405B0609499B0F9B00C91805
:10585000096EE4039000AB6823405E4273415B42F3
:1058600013404350F7E7C046C000001010E000E0CE
:1058700040A30000F0B5430685B09B0F0193019A49
:10588000674B92009B181D6E1F2303400293012358
:105890001E009C46029B8FB20C059E40240D3B0BC4
:1058A0001B030394891400D161467A0B802709B247
:1058B000B6B23F02032A08D1EA591643EE51E02559
:1058C000ED01AB4243D106210DE0EA59B243EA5162
:1058D0008025AD01AB4225D1524B984212D1524B9B
:1058E000002119600721C30504D5022902D08022B6
:1058F000224303921F2344121C408C4200D07FE0BD
:1059000000206BE0494B984202D1474B0121E8E768
:10591000474B984201D1474BE2E7474B9842E1D1D0
:10592000444BF3E7C025AD01AB4200D176E00F292F
:105930000DD10023414D9E007659B04202D1404D19
:105940002B60D0E70133042BF5D1FFF76DFF0C2955
:105950000CD13C4B984202D13B4B002504E03B4B21
:105960009842C0D1384B01251D60BCE70D2909D1F3
:10597000374B984201D1374BEFE7374B9842B2D1C2
:10598000344BF0E70E2919D1344B984201D1344BF6
:10599000E3E7344B984201D1314BE4E7324B984274
:1059A00002D102252E4BDFE7304B984201D1304B1C
:1059B000D3E7304B984296D12D4BD4E70B2992D1A7
:1059C000204B984203D100252B4B9D618BE72B4B3D
:1059D000984288D10125284BF7E701200C23019A32
:1059E00027495343029A9B185B005B5A254A9B1830
:1059F000039A9B001043186005B0F0BD0220EDE74C
:105A000084131C408C42E8D0C4141C40A142F5D041
:105A100000161840814298D10320DFE7022162E797
:105A200040A3000002C23A00C040044063823D002F
:105A300025423C00D040044049C20100B0A3000010
:105A4000D440044042426500C84004402A83300CE0
:105A500043826D00CC400440298269000A4A7006E6
:105A6000B04004404B823B000602700041C274000B
:105A7000C44004406242350E004004404482590054
:105A8000C0A3000000100110C02110B5054CC901D1
:105A90002068FFF7EFFE802160684901FFF7EAFE0A
:105AA00010BDC046C00000101021F0B5037EC268D2
:105AB00099400D0012680400106885B005400095FB
:105AC000014228D09800130015002C331B181868C9
:105AD000A37E18359B00EB181E68637E9B00ED18B3
:105AE0002B68834217D92569BA4B6F06BF0FBF00D9
:105AF000DB191F6E1F231D401B3BAB401D00EB59E4
:105B0000002B02D0116005B0F0BD9368984217D801
:105B10001B1A032BF3D9E07E0D2801D900F077FC86
:105B200004F0EEF811003400370041008E012A0223
:105B30005402ED022C034403ED0311044504540404
:105B400001339B19E4E7E368A17E1D6801238B40C4
:105B50002A681A4206D10523AB60FF22E3681B685E
:105B60001A60D0E72B008A0018339B18A622520136
:105B70001A6028000322FFF77BFD0623217EE376CF
:105B80000A338B402A681A42C5D1E6E7009B002BF6
:105B9000E3D022000023583223631380FF22E36204
:105BA000013362652365E368A17E1D688B002E00CA
:105BB0001836F618884B3768032233602800FFF741
:105BC00057FD009B002B00D01CE1636D002B05D01E
:105BD000210010225831088802430A800021206DDC
:105BE0000A00884202D05A425341DAB20623256B9A
:105BF000E162E376072D00DC7EE0002A1FD122005F
:105C00008023583211880B431380744E22005C327B
:105C10001378002B05D0230001215E331970002377
:105C20001370E36881221D68217E2800FFF710FDB4
:105C3000A27E18359200013EA81806608DE72C223E
:105C4000236C1B789343902BD9D1A06803685B6BBE
:105C50009847854250DC236C1979DA7809021143A0
:105C60005B7949BAA26889B27F2B73D94D424D4105
:105C7000506BEDB2031E04D003681B689847C34302
:105C8000DB0F1D43A3681B6B1B7D5B0701D5002D3C
:105C9000BBD02025206C002302782A4212D1216833
:105CA0000E787240AA439A420CD1226B013A01331A
:105CB000934203DAC65CCD5CAE42F8D09B1A5A42DE
:105CC0005341DBB26268002A4AD000232200E3621B
:105CD0005832118840330B431380A36840211B6B5B
:105CE0001A7D012352089343226C12780A40134311
:105CF00049D00023E36288E722002100256B5C3253
:105D0000583110780B88012D00D078E700286BD02F
:105D10000020107010229343E26C0B80824202D06C
:105D2000636BCC2B12D0E169236A994203DA616A72
:105D3000A36A99422FDB002A02D0636BCC2B05D0DB
:105D4000220080235A3211880B4313802000FEF773
:105D5000B6F95AE7908A401A43425841C5B291E7D2
:105D6000CC21E162002BB8D1236B216C9A4205DB78
:105D700063602300002258331A80AEE7895C2368F1
:105D800099540132F0E7E36A002B00D13DE7052387
:105D9000134EE3763AE72300200021005A335D30AA
:105DA0005E31002A0DD0626BC02A01D0002A08D1D2
:105DB00010221D880B4E2A431A80012303700B709A
:105DC00024E704221D882A431A800023037001332C
:105DD0000B701AE740A30000FEFF0000F013000064
:105DE000B3050000A13C0000626BCC2A06D00C2A4F
:105DF00004D0C02A02D0002A00D000E790229343AA
:105E00000B8002E72B00217E2C3388001B18AA6828
:105E10001B68934211D8D31A0233AB60CE4B812258
:105E200033602800FFF714FC0423E3760023636348
:105E3000A36401336364E3648FE60132D219EAE7B5
:105E40000120E368A27E1B6890401D682900014084
:105E5000054266D0183392009B181B680133A26C70
:105E60001000443098426DDA80266832A2647600D1
:105E7000A26C606C1700443745009F4201DAB042C3
:105E800055DD21329A4209DA80225200904205DC27
:105E9000200058300688FC3A3243028065640029AD
:105EA0005ED0636B256BDAB26263002D08D19B076D
:105EB00006D022008023583211885B000B431380E8
:105EC000A06803685B6B9847854242DA236B226CBB
:105ED000616B581C2063D154636D626B53406365E2
:105EE000E36C002B05D121000822583108880243B9
:105EF0000A80226DA17E134023650323E376E368C5
:105F00008A001D682B0018339B18ED2228001A60A8
:105F1000EC3AFFF7ADFB81222800217EFFF798FBCA
:105F20001BE6227E2C3392009B181B6897E7676B59
:105F3000683238436063E06CA2644742784165642C
:105F4000E06495E720000422583005882A43028047
:105F5000A5E722002023583211880B431380BFE7A6
:105F60008222D200934200DCF7E52200012358325E
:105F700011880B431380F0E5009B002B04D0002315
:105F8000E3620223E376C6E5009B6821A363E3682E
:105F90001D68637E2A009B001832D3181960A17E09
:105FA00028008B00D3188A221A60873AFFF760FB1B
:105FB00081222800217EFFF74BFB009B009A236380
:105FC00023005A331A800723E376C6E5009B002B93
:105FD000D7D126005E363378002B07D0E269236ADA
:105FE0009A4208DA626AA36A9A4204DA23005F33AB
:105FF0001B78032B08D9220080235A3211882000F5
:106000000B431380FEF75BF8E16B00295ED00F2293
:106010004B7913400833A3633378002B0BD0202334
:106020000A781A4207D09A430A70A26BE16B013AD0
:10603000885C43408B54E36B00221D7824231D4071
:10604000243D6B1E9D41454B6D421D40206AA2358B
:10605000FF35904203DDA36ADA17D21AD20F3378E4
:10606000002B0BD0E1690131884207DD616AA06A2B
:106070000131CB17C60F81427341DBB221005F3182
:106080000978002A0CD0002B0AD1032908D08320DC
:106090003A21334BFF319B68584303F02DFD4D19D6
:1060A000E3681868637E02009B001832D3181D60F5
:1060B000A17E22358B00D3181D600322FFF7D8FA8A
:1060C000220000235A32236313807CE7E368812295
:1060D0001D68217E2800FFF7BBFAA67E280031004C
:1060E0000222FFF7C5FA18351E4BB600AE19336011
:1060F000637E9B00ED181C4B2B60012364E7E36873
:10610000A17E186801238B4002681A422ED1030039
:10611000227E2C3392009B180200657E1832AD005F
:1061200055191B682E6837001E3F9F4208D9236B04
:10613000002B02D02000FDF701FE0B4B2B6020E767
:106140009E4206D9806889000130223352182860A7
:106150001360082338E7C04677040000C7FEFFFF3E
:1061600020010010FEFF0000FFFF000008232200B6
:10617000E3765A32118818330B431380E36A002BFD
:1061800004D1236BE26B591C2163D35C80216363D0
:1061900001234900626B134201D04A4062635B00F5
:1061A000FF2BF7DD012363640833E3760126E36800
:1061B000A27E1D68330029689340080018400190B2
:1061C000194278D12B00227E2C3392009B181F6835
:1061D000022F00D8C1E46821380003F08DFC3D296E
:1061E00006D82000FDF7AAFD2000FFF7DFFAB4E48F
:1061F000637E18359B00ED182B68073BBB4200D827
:10620000ABE42000FDF79AFD2300019A58331A8071
:10621000FF236365E36A2665E664002B31D0E26202
:10622000A37E68210193E3681B681E000393019B12
:1062300018369D00751928680238C01B03F0D6FB7C
:10624000636C3A0001300341683AA264626B591EE4
:106250000A400A216364029262635B10002B1FD123
:10626000683359437B1ECB1803222B600199039896
:10627000FFF7FEF9637E674A9B00F3181A60042358
:1062800080E6226B013A2263226B9A42C8DDE26B00
:10629000D15C226CD154626D01334A406265F3E7F0
:1062A000029A0139134204D0E06C0200504250417E
:1062B000E0645B10D2E78023616C9B0099421EDC96
:1062C00080266821676B7600636C580060643B42EF
:1062D00001D0B3420EDD8026637E18359B00B600E8
:1062E000EB18B04208DD4B4892000139AD18186038
:1062F000296032E46831E7E708002338F4E7E3680F
:10630000226B1868A36B050018359A4213DAE36A0A
:10631000002B10D18B220733E376637E52009B0063
:10632000EB181A603A23FF33A27E013B9200AD18AE
:106330002B60FFF712FC0B238022E376217EFFF710
:1063400087F94523F0E7E3681D68E36A002B11D065
:106350000023E3620633E37681222800217EFFF7E3
:1063600077F92D4BA27E18359200013BA8180360E7
:10637000FFF7F3FB230001225C331A700C23280083
:10638000E376A17EFFF774F923005E331B78002BC0
:1063900007D023005D331B78002B04D0636A0133E0
:1063A00063621E4BDEE7E3690133E361F9E70D2326
:1063B000E376E36881221D68217E2800FFF748F913
:1063C000A37E18359B00ED18154BB1E7009B002B01
:1063D00000D0D6E5230001225E331A70009A023BFA
:1063E0001A70220008235A3211880B4313800623A7
:1063F000E376E368A17E18688A00030018339B18CF
:10640000084A1A600322FFF733F9FFF7A6FBFFF7EC
:106410000BFAC046FFFF0000F0130000B2050000B9
:106420009C060000EF13000010B5024B186CFFF73C
:106430003BFB10BDA001001010B543789B0614D59E
:106440004388E0221C001805D201000D14401342BD
:1064500005D08023DB019C4205D0FFF7E5F90B6BEB
:106460001B69181810BD0B6DFAE70230FAE7F7B593
:106470000193036804009B680E009847071E2DD007
:1064800001234278C3560020834227DA1F23656820
:106490001A40290038000092FFF7CEFFAB6A009A3D
:1064A00019680C31002A1AD122685B6815680D3B07
:1064B0000A0020003100A8476368C5B20433D86FD2
:1064C00003688C331B689847099B85551D7301250C
:1064D0000120099B099A5B795B195371FEBD009AF3
:1064E0000E4B019D9B5C089A5D43013A5343C618CD
:1064F0002A003000FEF7EAFA09982A0031000C3031
:10650000FEF7E4FA7B885B04E2D563680433D86F56
:1065100001230375FEF7AAF8DAE7C04620A40000BD
:10652000F7B5089D019306000C00171E036812D0F2
:106530009B6898470400019BAB72002C03D0237822
:106540000193002B0FD1002318006F72EB722B7395
:106550006B73AB73FEBDDB6B9847A400019B2458A3
:106560009B00E418E7E76022637813405F3A602BF2
:1065700004D120007168FFF75FFF02786021019B62
:106580006B7263786A738B43EB7200232B736278B0
:1065900050337F2A00D9A1330120DAE770B5184DB6
:1065A0000400435D002B11D080680100FEF7D6F88F
:1065B000002801D0FFF738F98022210060685200DE
:1065C0001431FEF7F5F80028F4D160550D4D635DE8
:1065D000002B13D08526B600A0590100FEF7BEF8A7
:1065E0000028E7D121008022A05915310002520075
:1065F000FF31FEF7DDF80028DCD1605570BDC046E4
:106600002202000021020000F0B507000C00806AA1
:1066100000218DB0FFF76FF8B86D002803D0036834
:1066200021001B6898473D6D2B7D002B69D0BFF37F
:106630004F8FBFF36F8F72B62800FEF71FF904006B
:10664000FEF700F9404BEE69C3188020310040018D
:10665000019303F0CBF901387043019B1818844271
:106660003ED1FEF7EFF8384BC418FEF7EBF8364B87
:10667000C018844238D13223E6173605360DA619E4
:106680003613012207A902A8029303960496FEF787
:1066900054F8079BDBB20793002B1BD1FA2134334C
:1066A00002932A4B890018680396049603F09EF91A
:1066B0000122059007A902A8FEF73FF8079B002BCF
:1066C00008D13533012207A902A802930396049644
:1066D000FEF733F8079BDBB2002B05D0FFF7A4F8D9
:1066E000002CBED0A419C0E700262B69EA689B18CD
:1066F000013B1E70EA68964214D300232B75AB61F0
:1067000062B6786D002801D0FFF748FFB86ABFF382
:106710004F8FBFF36F8F72B6FFF748F862B6012054
:106720000DB0F0BD8023921BDB009A4200DD1A0001
:106730002969A0198919FEF73BF80028CED18023DA
:10674000DB00F618D6E7C04600F0FFFFCC000010D3
:1067500010B504000121FFF757FF2000FFF704F8F0
:10676000F7B51D0006000F0001920B12FF2B1BD87E
:10677000C3181C7D002D01D0FFF710FFE443E4B2E5
:10678000002C15D085239B00F358FFB2A34208D1FB
:10679000002D06D1F619FF36747D0020019B1C7078
:1067A000FEBD2402E45DF8E7002401204042F5E745
:1067B0000220FBE70C4A13B50300D06F9022D201F0
:1067C0000A4C991882681219934208D36B46DC1D53
:1067D000220000230648FFF7C3FF207816BD036898
:1067E0005B689847FAE7C0469C06001000B8FFFFB8
:1067F0005404001070B584B22000FFF7DBFF0500E1
:106800000134A0B2FFF7D6FF280070BDF7B50E0027
:10681000170000241D0008AB1B7800900193AC42C8
:1068200001DB0020FEBD019B00983A193119FFF7EA
:1068300097FF0028F6D10134F1E773B50F4D06AC90
:106840004E190F4D2478AE420FD81F25CB18521A7F
:1068500007E00C000B4E2C400419A4192478545462
:1068600001319942F5DB002076BDFF2903DD00945C
:10687000FFF7CCFFF8E701204042F5E7E0B4FFFF67
:10688000DF34000023020000802070B54004FEF7D2
:10689000B3FFFFF7F9F81F2101220B4B80241B687F
:1068A0000A4D19408A405B0609499B0F9B00C91895
:1068B000096EA4039000AB6823405E4273415B42C3
:1068C00013404350F7E7C046C000001010E000E05E
:1068D00040A3000070B50C0001210500FCF7CBFFC0
:1068E0000123C00600D55C40AB40074A9BB2118F24
:1068F000508F1943118701009943002C01D00343A5
:106900001900518770BDC04620010010F0B50C0081
:1069100087B01421070000920293FCF7ACFFC54E2C
:1069200000071AD51C2501227D43735D75199B084C
:106930001340E3706B79093293436B71009B082B12
:1069400064D0092B7FD03A0021000020FEF7AEFB77
:106950003A0021000120FEF7A9FB1C237B43019391
:10696000F35CDB06DB0FE37014213800FCF783FFD8
:10697000C00700D49EE0009BAE4D022B0BD1190046
:106980003800FDF712FA1C237B4300286DD040220B
:10699000E95C0A43EA5423780493019BEA5C049B74
:1069A000002B00D186E040231100194003911A42C8
:1069B00000D016E115213800FCF75DFF0600022823
:1069C00000D106E1032800D136E1012872D1162159
:1069D0003800FCF750FF07231840053B032805D07B
:1069E0006278002A02D10138434243411C25002627
:1069F0007D43904A2670551904922A7BB24249D1B0
:106A0000012B36D123706270A37053E02721380028
:106A1000FCF731FF0123184295D038000099FDF7AB
:106A2000C4F901236A799A43002800D01A431C2331
:106A300002217B430A43F3185A7101393800A170CF
:106A4000FCF719FF7FE738000099FDF7AEF9042342
:106A50006A799A43002800D01A431C2308217B43FB
:106A60000A43F3185A710739E8E74021EA5C8A4380
:106A700090E7022B1ED103213800FDF796F9FA2387
:106A80009B004343029A9B18AB6001232B73237036
:106A90006370B9E7012B5AD1012A54D0023A2E7300
:106AA000022A07D83200042123706670A3703800D0
:106AB000FDF7C6F923785F4D002B09D0019B617863
:106AC0001022EB5C002900D122E11A43019BEA5419
:106AD0000126019B1421EB5C38001B093340E37055
:106AE000FCF7C9FE30421BD0009BB34200D036E118
:106AF00019003800A370FDF758F9002800D020E1F4
:106B0000019B1F36EB5C33420AD01A000199B24355
:106B10006A545B0600D4FFE001232370E3786370BE
:106B20003B0000212000009AFEF7D8F92100380030
:106B3000FEF79CFC2378002B03D038006178FFF728
:106B4000C9FE07B0F0BD2E73237066705CE7022BA0
:106B5000B0D11F213800FCF78EFE0300013B0390EB
:106B6000042BA7D82B7B042BA4D0022B03D1042108
:106B7000320029739BE703213800FDF716F9FA2349
:106B80009B005843039B012B02D02B7B032B11D17D
:106B90001C237B43049AD318029A10181A7B98601E
:106BA000032A10D1012204211A7338000022FDF7B4
:106BB00047F908E0039AAB68C3185043029A9A1A3F
:106BC000904202D3AB60012361E7029B1818A860D2
:106BD000F9E7039B62782370E378002A1DD0002B2D
:106BE00004D0019BED1800232B7363E7019B172151
:106BF000ED18052338002B73FCF74CFE1921060015
:106C00003800FCF738FE3C2373431B18FA20800041
:106C10005843029BC018A8604CE7002BE1D0019BB1
:106C20001A21ED18062338002B73FCF733FE1C21C4
:106C30000600E5E76003001016213800FCF71BFE94
:106C40003040C0B2032837D11C2600237E43237076
:106C5000474B9D1903932B7B0593002B00D029E70D
:106C60001F213800FCF707FEA870039BE278082577
:106C7000F35C002A3BD0039A2B431A213800B3540B
:106C8000FCF708FE1C2106003800FCF7F4FD3C234D
:106C900073431818059B04931C227A43344B0299C2
:106CA0009B18049A1D736270FA2292004243521894
:106CB0009A6001232370A7E6012808D16378002B8E
:106CC000C2D1019A20706370A070AD188CE70228C1
:106CD0000AD16378002BB7D0012323706370A370AF
:106CE000019BED18039B7FE7039B2370E2E6039A69
:106CF000AB4317213800B354FCF7CCFD1921050034
:106D00003800FCF7B8FD3C236B4307251818C3E790
:106D10009343019AAB54DBE615213800FCF7ABFD39
:106D2000012800D0F8E616213800FCF7A4FD304217
:106D300000D1F1E6009B2370637001235B42009356
:106D400012E6012800D0EBE6009B23706370E3702D
:106D5000019BEA5C20231343019AAB54E0E6019BBC
:106D6000EB5C9B0600D4DBE60023E6702370D7E6DD
:106D70006003001010B5040003F0F4F8200010BD0B
:106D8000F7B5294B294A2A49D75A0978294CBFB265
:106D900002293CD1D15A0025512901D0D55A513D63
:106DA000A31DDE8F6D43300002F0E0FF236E224A08
:106DB00043439B189D4224D2220004235032118861
:106DC0000B431380002E11D0E36CA26C9A420DD0BD
:106DD000019301988200A218938A33420DD0B343E5
:106DE00093820AD1FEF7BCFB0028F2D100230434C1
:106DF000E387013301205840FEBD01A8FDF7CEFF17
:106E0000F2E7A2235B009F42D6D30023F2E7A2233E
:106E10005B009F42F9D20129E8D1220002235032BF
:106E200011880B431380E1E7520200003407001081
:106E30007201001020010010E42D0100F0B5BA4AE3
:106E4000BA4E536CB4688BB0E31A042B00D818E127
:106E500020005464FDF753FF3100002353310A78BA
:106E60000193012A09D1B36DE31A06D40023736597
:106E700003330B70631DB3650192350053352B78D6
:106E8000032B28D1B36DE31A27D44022C021A84B8D
:106E9000A8485A60C901FEF7EDFC04232B70631D5E
:106EA000B365330052331B78012B0AD19421A24AD7
:106EB0008900F36D525A5B435243934209D99B1A9E
:106EC0003366B36DE31A08D43300002253331A70CB
:106ED00003E09A4BF4E7042BF3D0350052352B78BE
:106EE000012B00D0CFE0336E002B26D033000622DA
:106EF0005033198811420CD000222A701A803200B7
:106F00000621503213880B4200D1C0E000231380C9
:106F100013E0FDF72BFFB31D0700D88F02F026FF0B
:106F200087420ADB331DDC6702237466B466F466AD
:106F300034677467B467F4672B70330052331A8870
:106F4000032A01D100221A703000523003880093C6
:106F5000022B46D1320050321388042519002940F3
:106F60002B4200D1B3E0B31DDB8F9C46002361466A
:106F70001A00994230D0320073650832D28F18005F
:106F80000192B21CD58F01211A00F68F6746174176
:106F90000F4210D057000297019F08001741904000
:106FA0000F4200D18FE080B205430643009857009E
:106FB000B840034308000132082AE7D15B4A0028A1
:106FC00003D05365931CD687DD8701233234946543
:106FD0005332137003220193594B1A700022594BFC
:106FE0001A80019B002B00D0EFE0002210214F4BB4
:106FF0005C6D4D4BDA641A65534AD0680842FCD187
:107000000425D168294211D0196D481C1865063134
:10701000966889005918CE640328F2DD012149429F
:1070200019650531D068084200D03CE1FF261025E3
:107030000020B446996C26006746EE403E40022987
:1070400005DC881C80001818C66401200131083D49
:107050002E000836EFD1002800D099641021D068A6
:1070600004000C400842FAD1BFF34F8FBFF36F8F7B
:1070700072B6596D9160996D9160D96D916062B6EB
:107080009C640BB0F0BD002B00D138E755E701221E
:10709000134200D151E79421274B89005B5AF43900
:1070A0009BB2F3658B4200D247E7F38F0192134006
:1070B0009B187365254BE318736623003233B36561
:1070C000234B336539E78543864308006FE7009D0E
:1070D000009F1D403B4202D00170118081E7B26CDD
:1070E000F36C9A4236D0FDF741FEB31D0700D88FEE
:1070F00002F03CFE3F1A002F00DC72E77565079531
:107100000A48426D002F66DC084B5A6D002A00D1F8
:1071100067E7012232349C6553331A70E021054839
:10712000C901FEF7A7FB60E7A001001020010010D5
:10713000FC00015026C2330034070010A086010075
:1071400072010010700100100000044000987F33AD
:10715000000001012000FDF7D2FD002800D140E72A
:10716000FDF704FEB31D0700D88F02F0FFFD874234
:1071700000DC36E7012231005242100014310B6D61
:10718000E31A03D4984201DA18002A0001350431C9
:10719000082DF4D1002A00DA23E713004349143301
:1071A0009B00F318611859610123180090405100A9
:1071B0000200F08F8B40104201D002238B40736598
:1071C00001233234B46553363370394B5B6D002B79
:1071D00000D10AE7A2E701000025C36C1431049333
:1071E000031DDB8F049E9C46C38F02912900B600CD
:1071F00080190390163009900398808A0600059044
:107200000E41012006423FD005008D40EE43B0B252
:10721000089005980695039D3040A8826546354044
:10722000244EAC46029DA6192E654E000596099E79
:10723000012536880E412E421FD0069D2B43009D0E
:107240009BB24E00B540013F2A43194D002F18D183
:107250006046291DC8876A65EB87049B14489B001C
:10726000C3189B8A002B03D14C30FDF797FD079084
:10727000079B002B00D043E746E7089D2B400125E4
:10728000DFE70028E4D001250298013104300290A4
:107290000829B1D1002DE0D06546054906484A6568
:1072A000C587CB87D9E79068BCE6C04600987F3396
:1072B000200100101027000024010010F7B507007E
:1072C000FCF7AFFE0023BC6A364AE6686360E363FE
:1072D000E3616362A363A365E365334B964243D1E5
:1072E000C422FF20314992008B5883438B503000D9
:1072F000FDF7D2FB0121637E356899400B006A6F70
:107300002B49134301226B676B6813436B60294B56
:10731000186802F06BFB0138E8602000FEF746FABF
:107320000122254BAB60637E9A4013001900EA6B83
:10733000114001911342F9D1E0216069C901FEF7C2
:1073400099FA1E492069FEF795FAFF231F222B6048
:107350003379103313401E3A11009940134B1960D2
:10736000019B3A64FB63F7BD7C339E4206D1C42285
:107370000E4992008B5812480340B7E7114B9E42CA
:1073800005D1C422094992008B580F48F4E70F4BEE
:107390009E42ACD1C422054992008B581B021B0AA5
:1073A000A4E7C04614020010A001001000E100E0B4
:1073B00040420F00CC000010FFFF00002020000022
:1073C000FF00FFFF20010010FFFF00FF240200105C
:1073D00010B5838A0400002B03D103680749DB68DA
:1073E00098472000FFF76AFF230001225C331A70E0
:1073F000034B9B6863662323236610BDFFFF0000D9
:1074000020010010F7B5019303680400DB68006DEC
:10741000009303681500DB6E0E0098470778206D17
:107420003F020368DB6E98474178009B3943200098
:1074300098472E22236B00271A75206B03685B691F
:10744000984701220770236B5A75206D03689B6C67
:107450009847FF230370206D03685B6C98470770A3
:10746000206D03681B6A984733120370206D036810
:107470005B6A98470670206D03689B6A98472B12D9
:107480000370206D0368DB6A98470570206D036800
:107490001B6B9847019B0370236D1F759F61F7BDA0
:1074A000F7B500221F2401203B4E3C4D93005B5951
:1074B0000700190021408F405B0639009B0F384FB1
:1074C0009B00FB18019700271B6E89000132CF50EB
:1074D000082AEBD10120334CA26892B21300A168B4
:1074E0008AB29B1A01D561685B18C01A0028F5DCC6
:1074F000802700257F013300AA0010333900D058BF
:107500000135FEF7B7F9082DF5D1274B27491D6244
:10751000274BA568186802F069FAADB2C0000028D0
:107520002FDC002201211F2314009C460D0003279D
:107530001A489300185843113B40019F9B00FB18C9
:10754000674638402F0087401B6EB800C358002B99
:1075500020D18C4301324900082AE8D10025C027F8
:10756000114BFF011D623300AA0010333900D058BF
:107570000135FEF77FF9082DF5D1FDF71FFC20003E
:10758000FEBDA3689AB2AB1A01D561685B181500FD
:10759000C01AC4E70C43DDE7A0010010B0010010E1
:1075A00040A3000010E000E00000025040420F0045
:1075B000CC000010F0B5002485B01C4F01900021D4
:1075C0002000FCF758F90600012826D103AD03225C
:1075D0000021280002F090FD3B7814211B09334064
:1075E0002000EB70FCF747F93040C0B2002802D011
:1075F0003B789B0617D401222300280001995242B0
:10760000FDF76CFC29002000FDF730FF2B7869782E
:10761000002B02D02000FFF75DF901341C37082C45
:10762000CDD105B0F0BDEE70E5E7C04660030010B7
:10763000F0B5050095B01AA806882800FFF7E2FE0D
:10764000E86F002703682C1D9B6998470770E06F5F
:10765000036888331B6898470770E06F03688C33B2
:107660001B6898474378022B0DD1686B03685B68F1
:10767000984781784378090219432B6849BA280052
:10768000DB6889B298472F0088373E80002E13D0E0
:10769000E06F036890331B6898473E880388B342C5
:1076A0000AD0E06F036890331B6898470123068077
:1076B000E06F0375FCF7DAFF3A2301220FA90AA84D
:1076C0000A93FDF73AF8102210A906A802F054FD1B
:1076D0000F9EF6B2002E5AD1E06F0368AC331B68E0
:1076E00098470290E06F0368DB6F98470300013B07
:1076F00001900F2B4BD8082206A904A802F03CFDEC
:10770000082208A90AA802F037FD049805993B222F
:107710002F4B524202F00AFB0A980B9917003B22AA
:10772000039352422A4B02F001FB5740039A5A40FE
:107730000392F2003800039902F0ECFA029B98558C
:10774000019B0136B342F4D1E06F0368C0331B687C
:1077500098470600E06F03680833DB6F9847022301
:107760003618023E3370E06F0368C0331B689847D9
:107770000600E06F03680833DB6F98471023361864
:10778000013E28003370FFF723FE15B0F0BD36230D
:1077900001220FA90AA80A93FCF7CFFF109BE06F04
:1077A00004930368AC331B689847042204A902F0D1
:1077B000E3FCE06F0368AC331B6898470223037156
:1077C000E06F0368AC331B68984710234371BBE735
:1077D000FFFF000070B5051DE86F140003680E0080
:1077E0000433DB6F9847844205DDE86F0368043398
:1077F000DB6F9847C4B2E86F0368B0331B689847E3
:107800003100220002F0B8FC70BD10B50400431D29
:10781000DA7F002AFCD10132DA770F23E169A0690F
:107820004A791A40073202F0A7FC2000FCF70EFC50
:1078300010BD70B503790400002B3CD0431DDB7FE5
:10784000002B38D14379002B35D01D4DC268AB6871
:107850009B1A1C4A934201D9FCF772FC6379012BF5
:1078600012D1A31DDA7F012A25D1DA7F012A22D184
:10787000013262712000DA77FFF7C7FF0023A3729D
:10788000AB682361AB68E3606379022B13D1226993
:10789000AB689B1A0C4A93420DD90A23E356200089
:1078A000022B09DCFFF7B1FFA37A0133A372AB68A7
:1078B0002361AB68E36070BDFCF742FCFBE7C046A8
:1078C000200100106F170000B70B0000F0B5040096
:1078D00085B0FFF7AEFFA36A5A68002A37D0DA6B8B
:1078E000002A34D1DA6A002A31D1226B127D520784
:1078F0002DD5C0201D685B682A79DBB20293EB7836
:1079000012021A43AB79EE791902800001400E434E
:10791000F021A02789003140BF00B94209D000DD25
:107920006BE0080080278138FF38B84380B2002818
:1079300065D18EB2002A64D123682A009F69310084
:107940002000029BB847236820001B6A9847E06A22
:1079500000283AD0C449FDF78DFFE16AC34D4B06BC
:107960009B0F9B00EB18186E1F230B4004219940BE
:107970000958606C4B1E9941BD4B226C9B6881423B
:1079800000D17CE1E3636164236C002B06D1002A03
:1079900004D0226B7F3B117D4B401375C021E06A00
:1079A000C901FDF767FF01201F220100E36A1A40A9
:1079B0009140226B5B06127D9B0F9B000240ED18ED
:1079C0002B6E013A0A408900CA50A36ADA6B002A7A
:1079D00011D1DE6A002E0ED1230048331B78002B14
:1079E00009D0250049352A78002A00D153E120002A
:1079F000FCF7A6FB2E7005B0F0BD814299D0B6B25F
:107A000098E7697952BA92B27F2908D90299236816
:107A100000915F6931002B002000B84793E7A18AED
:107A2000914200D08FE73C2218009043AA786978F1
:107A300012020A4357BA42B2B9B2002A00DB8CE004
:107A40006579802815D0812838D0DA0762D4012DD5
:107A500000D878E7E2888A4200D074E708210F2036
:107A600061569B0803408B423BD02000FCF768FB2B
:107A700069E7002D12D0013D012D00D963E7E388AD
:107A80008B4200D15FE77A4A2000938901339381CA
:107A90000A0000238121FCF737FB54E7236820000C
:107AA0009B6A9847724BE7809B682581E360637906
:107AB000012B00D147E70123637144E7013D2068B2
:107AC000012D00D93FE7E3888B4200D03BE700233C
:107AD000674A6371938901339381836A20009847D1
:107AE00031E70026624B01319B680140A71D2172DE
:107AF000E360E51DFE77EB7FB342DCD0216A4A7973
:107B000002400732E06902F037FBEB7FDBB2FB7724
:107B1000EE77CCE7FF2B00D115E7002D00D112E75F
:107B20000822A2569B061B0F934200D00BE7E38866
:107B30008B4200D007E70A23E3562000022B95DC96
:107B4000022D93D1FFF761FEA37A0133A372484B54
:107B50009A689B682261E360F5E6032B21D8671DD4
:107B6000FB7F002BFCD10C220133FB772878A36923
:107B700010405C3A02431A700A0A1971DA702268DE
:107B80000093D36931009C462A0020006546029B81
:107B9000A847002803D02000FCF758FAD3E6F8776E
:107BA000D1E6E2888A4200D0CDE66179002900D191
:107BB000C9E69B08092118000F27615638400300C9
:107BC000884243D1C2212000FCF79EFA637A013338
:107BD0003B406372264B9B68E360A31DDB7F002B59
:107BE0002DD12300E769253303930123039A310044
:107BF000137023680097DB692A009C4620006646C4
:107C0000029BB04700281ED00C232A781A405C3B08
:107C100013433B70E3881A0A3B710823FA70E26948
:107C2000E356974202D00F22013313403C21BA7928
:107C30009B008A43134340221343BB7183E6230016
:107C4000276A2633D0E7039B18707CE60139084D7C
:107C5000394088420ED1C2212000FCF755FAEB8949
:107C60000133EB81AB6876E71010000040A3000001
:107C700020010010C3212000FCF746FAF2E7E06B78
:107C8000002800D180E61B1A322B00D57CE60023A9
:107C90002164E36378E6E16C002900D1ABE6054B93
:107CA0009B685B1A00D5A6E6236820001B6BE26484
:107CB0009847A0E620010010F0B50379050087B0D1
:107CC000002B00D1D3E0FFF701FEAB6ADA6B002A8C
:107CD00000D0CCE0DB6A002B00D0C8E02B005C3386
:107CE0001B78002B00D1B5E02B682800DB6A984791
:107CF000002800D1AEE0614B6A6E9B689B1A2A6E29
:107D00009A4200D99AE0AC6B236820005B699847DF
:107D10000190002800D191E0236820001B6998475A
:107D200003780293002B00D188E01900206901F04C
:107D3000CDFF21618BB200936B461B880393039A9E
:107D4000029B934203D823690133236176E02368C1
:107D500000999B6820009847037804936368586BE8
:107D600003689B6898470600037801365B00C318D8
:107D70000593059BB3421CD97378009A9A421BD194
:107D800063683778586B01370368DB689847874228
:107D900012D86368586B03685B68984733785B0058
:107DA000C0188278437812021A4352BA92B2002A5B
:107DB00004D1009B0133BEE70236DAE74421049B7D
:107DC0000B408B42F5D10120039B01995B08CE1833
:107DD000C95C039B034200D00909CB439B07E8D150
:107DE00004200B000340014243D06368581DC77F45
:107DF000F9B2002FFBD10137C777BC209B691870FF
:107E00001A71100AE122D8705A719971D97160689B
:107E1000FCF71CF9009BE360009B07219A000423F8
:107E20001A40914033788B43012191400B433370CA
:107E3000009B01332361114B9B686B66FA210F4A4B
:107E40006B6E9268C900D21A8A4203D3FA2292005A
:107E50009B186B662B6D1B7D002B08D06B79002B5C
:107E600005D1064B022128009B68FEF7CDFB07B029
:107E7000F0BD20000099FCF734FECDE72001001092
:107E8000F8B51C00036805009B68079F9847021E11
:107E90001BD01F23467869681E40FEF7CDFA0D4BB4
:107EA00001009B5D00225C430A2C0EDC3800069A20
:107EB0000C30013A53432200C9180B2E07D8FCF7A7
:107EC00005FE01227B791B197B711000F8BD02F0C1
:107ED00053F9F6E720A40000F7B51F0003680D0072
:107EE000DB69040016009847A84204D1012F02D193
:107EF00033782375F7BD63682000ED1A2368DB69CA
:107F00009847A84208D37B19019323682000DB69B6
:107F100098477B19834210D220693A0031004019FA
:107F200002F02AF9E6E723682000DB6998473378F6
:107F3000A84206D1237501360135019BAB42F2D12F
:107F4000D8E722695355F6E7F0B585B00193036889
:107F50000E00DB69040017009847B04206D1019B70
:107F6000012B03D1237D3B7005B0F0BD6368200079
:107F7000F51A03932368DB699847A84209D3019B4C
:107F800020005B1902932368DB699847029B8342B8
:107F900012D221693800019A491902F0EDF8E3E79D
:107FA00023682000DB699847A84209D1227D039B02
:107FB0009B1BFB185A550135029BAB42F0D1D3E70E
:107FC00023695A5DF3E7F0B589B005000C001E0087
:107FD000181E069254D04B1E9B1900200493994200
:107FE0004ED8686D00280CD0036821009B68984724
:107FF0000590686D049903689B689847059B002B62
:1080000020D1069B039301230593286D210003686B
:10801000049A1B699847002868D021002800049E14
:10802000FBF752FD0E9B01361B78361B3200002BEE
:1080300053D00100039802F09FF8012020E0039B39
:108040000693CEE700280BD1270033190793069B30
:108050001B1BDB190393079BBB4219D11C00D4E700
:108060000E9A686D12780368002A0BD000220092E5
:108070005D6821003300069AA84743425841C0B2C8
:1080800009B0F0BD1D6821003300069AA847F4E747
:10809000686D390003689B689847002811D00E9AD4
:1080A000686D12780368002A0DD0002200925E6885
:1080B00039000123039AB04743425841C0B2002817
:1080C00007D13C00A1E71E6839000123039AB0479D
:1080D000F2E7002301370593B9E7039902F04CF862
:1080E0000123286D0375FCF7C1FAA6E7286D21006E
:1080F0000368DB689847002816D02B6D2100280004
:108100009E68FBF7E1FC0E9B01361B78371B3A009B
:10811000002B1ED00100039802F02EF8039B3400C0
:10812000DB19039300230593286B21000368049A4D
:108130001B699847002815D00E9A049B12780133CA
:10814000286B1B1B002A42D12100039AFFF7C4FEB3
:1081500073E7039902F010F80123286D0375FCF70B
:1081600085FADBE7286B0368DB699847844206D110
:10817000286B0368DB699847049B8342DCD0286B3B
:1081800021000368DB689847002812D0286B0E9BFB
:1081900086681B780136371B002B1DD03B00210061
:1081A000039AFFF7D1FE039B3400DB1903930023EE
:1081B0000593049B5E1C059B361B002B03D1049B7F
:1081C0009C4200D83BE773425E41F0B258E7210081
:1081D000039AFFF7B9FE30E73B002100039AFFF74F
:1081E0007BFEE0E730B50F24002585B06C44257098
:1081F0000094FFF7E8FE05B030BD70B504008220A2
:10820000400081421AD1117800200D097F2914D82D
:1082100021000831C86F043401680E682900B04796
:108220000600E06F03688C331B6898474655E06F83
:1082300001240475FCF71AFA200070BD2000FFF736
:10824000D1FFFAE730B50F24012585B06C442570C5
:108250000094FFF7B8FE05B030BD70B51D000B4BA4
:108260001400CE18072E0CD80430C06F03688C336E
:108270001B6898472A008119200001F07DFF01202A
:1082800070BD2B00FFF7DEFFFAE7C0461749FFFF7E
:1082900010B504008C2101F0C3FF200010BDF8B51B
:1082A0001400F72205009200914223D0334A9142F4
:1082B0005FD1071DF86F0368AC331B689847060051
:1082C000F86F0368DB6F9847020020003100083028
:1082D00001F004FF002801D00020F8BDE17BA37B62
:1082E000090219432B6849BA2800DB6889B298470C
:1082F0000120F2E7061DF06F0368AC331B68984756
:108300000700F06F0368DB6F984702002000390018
:10831000083001F0E3FE0028DED16B1DDA7FD7B212
:10832000002AFBD10132DA77B023AC6923703B33EA
:108330006371E83BA371DA33E7702771E371F06F83
:108340000368DB6F9847874208DB00232800A3738C
:10835000E37323746374FBF779FEC9E7F06F036876
:10836000AC331B689847C25DE31901371A72FFB23C
:10837000E5E72200FBF777FEAFE7C046DE0300002B
:1083800070B50D008621890043580400002B0DD1E3
:10839000020015301432FF3013786658DB43DBB22D
:1083A0009E4200D2635001328242F5D18621A068FC
:1083B0002269890082186358013A934216D0002B33
:1083C00011D1431C852620008022B6001530A35110
:1083D0000021FF30520001F08FFEA3590020DB4343
:1083E00065192B7570BD01336350EBE704204042E3
:1083F000F8E7F7B50400009101920E12FF2E32D873
:1084000083191D7D8527ED43BF00C359EDB2AB42F3
:1084100026D0FEF7C3F8E551002D0ED188239B002E
:10842000E35C002B11D031002000FFF7A9FF0028EA
:1084300015D101220D4BE25407E0200080221530B7
:1084400029025200FF3001F097FE6B461B78019A1B
:10845000E318FF335A7501220020054BE254FEBD9C
:10846000002BF2D1DAE701204042F8E722020000B7
:1084700021020000F7B50E0017001D000024019036
:10848000AC4201DB0020FEBD3A5D01983119FFF7D7
:10849000B0FF0028F7D10134F2E7F8B50E4C0D1902
:1084A0000E4CA5420FD81F25CB18521A07E00C001E
:1084B0000B4F2C40565C0419E41926700131994287
:1084C000F5DB0020F8BDFF2902DDFFF7D3FFF9E758
:1084D00001204042F6E7C046E0B4FFFFDF34000071
:1084E000230200000022F0B56F4B704C9B6887B0F0
:1084F0000290110020000493FFF77BFF237DDB43F4
:10850000DBB2002B00D1CDE0852292006849A25851
:1085100001919A4201D01B0201930025019B029A0E
:10852000644F1A705C1C00212800FBF7A4F923009B
:10853000012807D022000021123219700133934222
:10854000FBD163E05A2323706378A901039390233E
:10855000DB01C9185848FBF7B7FA0300FF260721CB
:108560004033059303785E40082372B2D217760039
:108570000A40F6B2013B5640002BF6D1059B013074
:108580009842EFD1029B802B00D074E0039BB34252
:1085900000D169E02800FCF76DFE00212800FBF700
:1085A0006AF90100012802D12800FBF764F966701E
:1085B0003B780B21A3707B782800E370BB78237194
:1085C000FB786371FBF7F1FBA07180B2000A0C210C
:1085D000E0712800FBF7E9FB207280B2000A6072AC
:1085E0003B79049AA3723B7B0321E372BB682800AA
:1085F0009B1A1A0A237362731A0C1B0EA273E3737D
:10860000FBF7D3FB207480B2000A6074013512348A
:108610001C37082D87D1002423480199C38F91313D
:108620000B7001991B0A92310B700199831CDB8F2F
:1086300093310B7001991B0A9431019D0B70019BC2
:10864000C26C9533B535816C8A421DD1002631004C
:108650001C705C709E70D97004339D42F3D1134836
:10866000FDF79CFF07B0F0BD0121A940134B1A880C
:108670000A431A8091E7029B012B01D0039E96E7E3
:108680002800FCF7F7FDF9E791004118CE8A013286
:108690001E70360A5E70898ACEB2090A082AD9D9B4
:1086A0000022D7E71B70FFDE2001001054040010E9
:1086B00068050010600300109806001042040010C6
:1086C000F0B5C94CC94D0300A268287B89B002925D
:1086D000082823D801F014FB09001600FB00CE0186
:1086E000E501EC01F701E50107020223503422887D
:1086F0001343FA222380029B92009B182B610123D3
:108700002B730BE0BA4ABB49515AD0225200914216
:1087100013D8FA22029B92009B182B61B34BB64AE6
:108720001B7B0492023B012B00D807E2049B986B51
:10873000FBF794FB0028F9DA08E22A6902998A1A01
:10874000002AEBDD002B00D1BFE0AC48FEF732F889
:108750000027AB4C012809D921000122E0310B8808
:10876000134203D00620170003400B80A548FEF7F4
:1087700021F8012808D92200E0321388990703D58F
:10878000052101270B401380C2208000FEF712F85C
:10879000012808D92200E0321388590703D50321A4
:1087A00001270B4013802300E0331B88DB070AD42A
:1087B0009548FEF71FF8FA2322009B0043430299D5
:1087C000E4325B1813602300E0331B889B070AD454
:1087D0008E48FEF70FF8FA2322009B0043430299CC
:1087E000E8325B1813602300E0331B885B070AD470
:1087F0008748FDF7FFFFFA2322009B0043430299BD
:10880000EC325B1813602300029A8249F03352184D
:108810001A6000232600039300210398FBF72BF82E
:10882000012807D108233361B382B3737A4BB36154
:1088300000237373039B1C3601330393082BEBD186
:10884000002F02D00120FEF7B5FE7448FDF7B2FFFD
:10885000421E010023201B2A03D8FA20800001F0C9
:10886000C5F80026644A1066002130000791FBF726
:1088700002F80700012819D12300E2331B88334195
:10888000034213D103213000FAF7F5FF83070DD41B
:1088900004AB1F73032301221840384004AB587304
:1088A00052423000029B07A9FEF730F80136082E2D
:1088B000DAD1C0208000FDF77DFFFA239B004343FF
:1088C000029A9B182B6102231AE7052318E7002B55
:1088D00000D1C8E02B69029AD31A002B00DC1DE7F7
:1088E0000025474F00212800FAF7C5FF06000128A0
:1088F00028D114212800FAF7BEFF1023184221D0F6
:10890000474B1B882B411A00324033421AD13B217E
:1089100028000792FAF7AFFF8522000352002B00D0
:108920000243B97907A8FCF7D9FA280007A9FCF790
:108930009DFD04AB1B7B002B04D004AB2800597BAE
:10894000FDF7C8FF01351C37082DCBD100250322C8
:108950002F002E00324B1D80244B1A731D750021F1
:108960003000FAF788FF0390012807D10221300078
:10897000FAF781FF011E57D0012864D00136082E76
:10898000EDD1A31DDF8723000833DD870123503499
:1089900022880E2713432380002400212000FAF7A9
:1089A0006AFF0500012818D12000FCF74BFD2900C3
:1089B00006002000FAF75FFF2840C0B2002801D06F
:1089C0006E40F6B201212000FAF755FF3200132164
:1089D000384244D02000FBF733FA0134082CDCD1B4
:1089E0000122104B1A7099E620010010200200109D
:1089F0003407001052020000980600101103000016
:108A0000600300100B0300000F03000009030000C7
:108A100006030000000018FC0000C8C2120300009A
:108A200042040010F4060010039B3000B340039989
:108A30009BB204931F43FAF71EFF049BC0069DD50B
:108A40002B431D009AE70300B34030009BB2039311
:108A50001F43FAF710FFC00690D4039BF0E72000F5
:108A6000FBF7E0F9B9E7022350342288134323804F
:108A7000042345E6BE4E002B09D0FEF781F90028FD
:108A800000D04BE608235C362B73307046E602229A
:108A9000503421885C360A432280042233702A73C2
:108AA0003CE652342378022B00D137E6002327E638
:108AB000002301226364503423882A7513432380E2
:108AC00006232B732AE6002B06D1FEF759F908235B
:108AD000002800D114E621E60223503422881343F3
