:1000000000200010DD000000D70000006D39000066
:1000100000000000000000000000000021DFFFEFF2
:10002000000000000000000000000000D9000000F7
:100030000000000000000000DB000000B51F000011
:10004000D5000000D5000000D5000000D50000005C
:10005000D5000000D5000000D5000000D50000004C
:10006000D5000000D5000000D5000000D50000003C
:10007000D5000000D5000000D5000000D50000002C
:10008000D500000061350000D5000000D50000005B
:10009000D5000000D50000000000000000000000B6
:1000A0004D090000D5000000D50000000000000050
:1000B000D5000000D5000000D5000000D5000000EC
:1000C0007871000000000010780000007800001037
:1000D000A0030000FEE7FEE7FEE7FEE7F0B5C04B39
:1000E000C04989B08B4200D23CE10020BE498B421E
:1000F00000D245E105F0C8FB06F07CFCFA21BB4BC1
:1001000089001868019305F003FC02F089FCB84CE3
:10011000B84EB94B3000636529222823832100F0B3
:10012000B7FF616DB54B062230000631B365B44DA3
:1001300004F010F9C021B348C90102F0ADFCC021A0
:10014000B148C90102F0A8FC0023B04A0C35536045
:10015000AF4AB0491362B04AB04E62600722A26053
:10016000AF4A2800E2601422A261AE4AA362E261B3
:10017000AD4A216162626661256200F0CDFC31000A
:10018000E062280000F0C8FC8023C022A7495B047D
:10019000520020638B50BFF34F8FBFF36F8FA44D7E
:1001A000A448EB671023B8328158676A0B43A24911
:1001B0008350CB6FA14A1340CB67002F04D001219D
:1001C0003A6853688B435360380001F0E1FE1F2208
:1001D0003B79874E103313401E3A9A400023EA675A
:1001E0003D683222EB60B36A28001900029302F0E6
:1001F00059FB904B996F019B186805F089FBF168DA
:1002000005F086FB2A00029B18329B00D3180122BE
:100210004008013818606B6813436B6033004C333F
:100220009F4200D0B7E0B56A6B1E9D41C0232D06EA
:10023000DB04ED18C0216068890102F02DFC8E22DC
:1002400010217C48920083588B4383508023010007
:1002500079489B01C26F1343C367019B896F18687C
:1002600005F056FB764905F053FB764B013800024A
:1002700018601A682A4301251A60A1685A680A1D85
:100280009200D2581A6822602A008A401868C62153
:1002900002431A6000236548A3636363E363236436
:1002A000FF3363648900425802249A433F3B13435F
:1002B000435080235B040360736C0193012B75D161
:1002C00003F048FD04F023FF5F48019900F0CAFBEA
:1002D000484C236820009B689847200000F0DFFE10
:1002E000002800D0CEE0C0215848C90102F0D4FB5C
:1002F0000423474A1361236B019A1B7D1342E7D104
:100300005348494C00F09EFB002802D1E36A002BC1
:10031000DED1504E0199B3685A4253415B00B3603D
:100320004D4B9C4662468B009B581F251800284069
:10033000019DB268854003272800551EAA415B1124
:10034000464D3B409B005B595242024001318000C8
:10035000C2500829E6D12000ED312C30FF3100F0E9
:1003600081FBB5E700221D685F689868BE18AC186D
:10037000904201D80C33B5E6246804323460F5E7C6
:1003800000221E685C68B518944201D80833AEE6B6
:1003900028600432F7E7244B00259F4200D049E74C
:1003A000B56A6B1E9D4180232D0641E72C4B1A68D0
:1003B0002A4204D11B68234201D102F049FB294B98
:1003C0005B68DB0504D0FA20800003F0ADFA73E728
:1003D000B36CB26C934201D130BFFAE7B36C6BE7F8
:1003E000C0000000CC000000D40000002400001079
:1003F000780000102C010010306D00001C0000106F
:10040000140000104682010063823D00FC0002508F
:1004100000000350C05D00002B8338009065000091
:1004200010270000DC050000F800001000E100E0EB
:1004300004E100E00080044004800440FFDFFFFF8F
:10044000009F240000C001401C0100106242350ED4
:1004500024010010000002503C6D0000B86B000049
:1004600010E000E000ED00E0029814210D3805F0E6
:10047000D9FA800038180069002803D0036802996F
:100480005B689847A94EB46B236820005B69984766
:10049000051E00D1D0E0236820001B699847017831
:1004A000002900D1C8E0002363610293029B0298F7
:1004B0005B08EA1894460822EB5C019F1A40384218
:1004C00002D01A007F20824302980130002A00D116
:1004D000ABE0934362461370029B954F60610C2B17
:1004E000C2D80299B06B00F091FF6B463D000390BB
:1004F0001B7B1035049320372C68002C03D1043566
:10050000AF42F9D1BEE7029B042B37D96B461B7B68
:100510000593230068331A7808231A40029B2E1D86
:10052000082B75D8002A64D03500BE42AAD03468A2
:10053000002CEED1E3E72E1D05F060FB050F134103
:1005400001F02CFF2EE06B462000197B03F026FC07
:100550003500BE4296D034680EE0200001F05EFE09
:10056000F6E76B461021595E236820001B690435AD
:100570009847BD4286D02C68002CC0D023000422AE
:1005800064331B881342BAD0029B581E0328D2D969
:100590006B461B7B0593059B20002E1D002BCFD0A7
:1005A00001F016FF3500BE4200D16BE73468002C25
:1005B000A5D0230064331B885B07ECD49FE7236836
:1005C00020001B6898472E1D0128C1D16B462000D2
:1005D0001021595E01F016FF3500BE4200D151E7EF
:1005E0003468002C8BD0230064331B885B07E6D46F
:1005F00085E7230064331B8801990B40DBB2002B95
:1006000092D0029B591F059B200001F063FF8BE7EE
:10061000002A89D1230064331B889B0700D483E719
:100620000299059B019A0939EEE783B20293994238
:1006300000D93BE7019B636100243E4BA200D058E8
:100640003B4D002802D00368DB6898470134042C36
:10065000F3D13948394C00F0F5F9002802D1236E66
:10066000002B01D100F0D9FA2C6A002C00D158E1FE
:1006700023001C331800029300F0E4F9002803D192
:10068000E369002B00D017E1A37CE56804932B41BC
:100690000199019A194013420ED0236AAA00D35837
:1006A0001F2201981A405B0690409B0F244A9B0032
:1006B0009B5800228000C250214B04269C460323F5
:1006C000606842111A401C3318406346864092000D
:1006D000D7582368BF193E680393002E00D1B0E0BD
:1006E0001F23226AA80086580198E27C3340984074
:1006F0002A41019F731186003A4200D1CDE0114A90
:100700001278511E8A4103210B4061469B00CB5851
:10071000524202409A51637C227C1A4200D1C6E0C8
:100720008026B6002E4393433FE0C0462C010010C4
:10073000F800001008010010D80000107800001028
:10074000B86B000020010010954210D0216A900083
:1007500040581F2301001940019B40118B40190094
:10076000032318406346800018588B00195001324B
:10077000039B9A42E8D1052003F0D6F83B68019824
:1007800006936E4B1B7807936D4B0593039B9E421C
:1007900059D10699627C237C0029BCD12E001A42D3
:1007A00002D1802676002E4313436374237C0135E7
:1007B0005B002374039BE560AB427BD10023E360C5
:1007C000019BA1692374029800F056F95D485E4DC3
:1007D00000F038F9002800D095E0EB6A002B00D13A
:1007E00091E0731C00D19CE0FF2332009A43130078
:1007F00080221BB25200934200D092E03206524B4C
:10080000520E92009B181869002800D189E003005D
:1008100068331B78019A9A43D3B2002B00D180E051
:10082000030069331B78019A5BB216427BD0002B20
:1008300075DA03006A331B78022B70D101F0EEFCED
:100840006FE0320094E7236AB200D3581F22019F61
:100850001A409740E27CB9008C465B1110420ED0E2
:1008600007994A1E914103221340059A9B00D358D1
:1008700062464942394099500136400086E7049A61
:100880000240511E8A4103210B4005999B00CB5821
:10089000614652423A405A50EEE7002900D001002A
:1008A0000322134062469B00D358995133E7012637
:1008B00076427BE7616986E70126764286E7E37C3C
:1008C0001D4212D0236A8800C3581F20019F184080
:1008D00087403800039F5B060740BC469B0F184FBC
:1008E0009B00DB5967468000C75001316D00029BB9
:1008F0009942E4D10199114B4A401248A1681A70FB
:1009000000F0BAF86DE7283523682A7802931300BF
:10091000581E83415B420021019D0393E7E701F0EC
:1009200057FD30BFD4E4002B04DA03006A331B7890
:10093000012B83D001F032FDF3E7C0462001001007
:10094000B86B000024010010F8000010012210B55F
:10095000374CA36821689A400A43364904330A6039
:100960009B005858002827DA430025D40004830D43
:1009700031483249584304F0CBFFA36B0133A363E2
:10098000A36B012B02D9636B181840086063A36B3B
:10099000632B11D9626BE36A9A4220DC0022226445
:1009A000A36CE16BE06B904207D0994205D8A36C31
:1009B000E16B606C904206D110BD4022204B5A6022
:1009C000A36CE363F8E75B1AA1698B42F4D3206A56
:1009D00062640028F0D003681B689847ECE7626BFC
:1009E000236B9A42E8DD0023E363A26C216C206C48
:1009F000984218D0914216D8A36C226C616C0129E0
:100A0000DAD09B1AE2699342D6D3636CFF2B07D0EE
:100A10000123206A6364002802D003685B6898475A
:100A200001236364C8E7064A5360A36C2364C3E7E9
:100A30007800001000C001404D0D0000FF030000D1
:100A4000FC000250030001680020814206D0044AE5
:100A5000926C521A824201DB186001307047C04626
:100A600078000010034B9B6CC918002900D101319C
:100A7000016070477800001010B5002901D10160B5
:100A800010BDFFF7EFFFFBE7002070470120704724
:100A9000A630008870471A4B70B50C0099422CDCC8
:100AA000DA2300209B00994226DB0800484305F02A
:100AB0003DFE051C200005F039FE1249041C281CCF
:100AC00005F032FB211C05F02FFB0F49061C281CEA
:100AD00005F02AFB011C301C05F09CF90B49051C94
:100AE000201C05F021FB011C281C05F093F9084986
:100AF00005F058FC05F0FAFD70BD0648FCE7C0465D
:100B000066080000DCE40F373198FEBCCCE43E42BE
:100B1000B9B75E4630750000114B70B50C009942B4
:100B20001BDC104B0020994216DD0800484305F0FD
:100B3000FDFD0D4905F0F8FA051C200005F0F6FD55
:100B40000A4905F0F1FA011C281C05F063F908496F
:100B500005F028FC05F0CAFD70BD0648FCE7C0465C
:100B6000E775000045250000D8B80FB67B51163E4A
:100B700099CAA943660800000200743203000020ED
:100B8000125E00208A4206D1A6330020185E801A29
:100B900043425841C0B27047030074330021595E8C
:100BA00003005F331B7802000020994209D1130033
:100BB0009032A63300215B5E1088181A43425841D8
:100BC000C0B270470100020074317A320300002085
:100BD000095E0020125E002091420AD11A00AC3357
:100BE000A6320020105E00229B5EC01A434258418C
:100BF000C0B2704774300023C05E401A434258416F
:100C0000C0B27047030074335F3000229B5E0078EF
:100C1000181A43425841C0B270471622054BDB6C8C
:100C20001A62596F123A0A435A67012259680A43F5
:100C30005A6070477800001070B51F2401230C40E3
:100C4000A34049060B4C890F89000C599900012AD1
:100C500006D16350FA2180308900FFF703FF70BD91
:100C6000551EAA4152421A40002304306250C36705
:100C7000F5E7C046B86B000080236930037001209F
:100C80007047030010B54118097F5F33197003687E
:100C900009B21B69984710BD0200030074327A3311
:100CA0000020105E00229B5EC01A43425841C0B231
:100CB0007047002906D00300743300229B5E7A300F
:100CC0000380704701235B42F9E770B50D00040013
:100CD000FFF7EFFF002D06D02300A63300229B5E16
:100CE000AC34238070BD01235B42F9E702000300AE
:100CF0007432128876331A80014B9B6C03677047FD
:100D0000780000100200030010B5A6321288A83344
:100D10001A80FFF7EBFF10BD020070B560320C00C7
:100D200011784822104B4A435B6D104E9B889B18EC
:100D3000021974300188293211700500F06F2034D7
:100D4000E418036821001B6898470023ED5E0378D0
:100D50000020AB4206D0F06F210003681B68984763
:100D60000570012070BDC0467800001030010010F1
:100D7000F8B505000C00FFF7CFFF2A0060321178AC
:100D80004822104B4A435B6D0F4F9B8806009B180F
:100D90002A19A6352988F86F9D3211701834E41885
:100DA000036821001B6898470023ED5E0378AB427F
:100DB00006D0F86F2100036801261B68984705706C
:100DC0003000F8BD780000103001001010B5036845
:100DD0004118293109781B69984710BD030010B5E7
:100DE00067331A7800239A420CD104007A34002227
:100DF000A15E4A1C06D003681B69984701235B4229
:100E000023800233180010BD70B51E00064B04008D
:100E1000D86F150003685B689847064203D06434B6
:100E200022882A43228070BD3001001010B50229AB
:100E300008D004290AD0012903D1002103681B69C5
:100E4000984710BD0368FF211B69F9E70368DB6A57
:100E50009847F6E7F7B505001400CA00AA1817006E
:100E60002E003C376736337800923A78080011003C
:100E700019400191002C02D1002926D1F7BD009B19
:100E80003D331B78002B06D021490830C000594360
:100E90002818FFF7F1FD019B002BEFD13378002BD1
:100EA00004D12B68012128005B69984732783B7890
:100EB0009A4205D2009B28003E331978FFF7B6FF0F
:100EC00033783A7813433370D8E79343337005D1BE
:100ED0002B00373328001978FFF7A8FF33783A78CA
:100EE0009A42CBD929003C31E2008A5C1A420BD0ED
:100EF00018009043824207DD0734E4002C192800D3
:100F0000A179FFF793FFB9E70134042CECD1B5E7E1
:100F100060EA0000030010B53933197803681B69D3
:100F2000984710BD704700697047006901307047ED
:100F3000006902307047006903307047006904306F
:100F400070470069053070470069063070470069D6
:100F500007307047006908307047006909307047F2
:100F600000690A30704700690B30704700690C3027
:100F7000704700690D30704700690E307047006996
:100F80000F307047006910307047006911307047AA
:100F900000691230704700691330704700691430DF
:100FA0007047006915307047006916307047006956
:100FB000173070470069193070470069FF3070477B
:100FC0000069623070470069633070476020704785
:100FD00061207047062070470A207047006915306D
:100FE0007047DC2300699B00C0187047DF2300694D
:100FF0009B00C01870470069014BC0187047C0467D
:101000007E030000E02300699B00C0187047006960
:10101000014BC0187047C04682030000E1230069FD
:101020009B00C0187047DE2300699B00C018704702
:101030000069014BC01870477A0300000069014B3A
:10104000C01870478A030000E42300699B00C018A1
:1010500070470069014BC0187047C0468503000007
:101060000069014BC018704786030000E223006945
:101070009B00C01870470069014BC0187047C046FC
:101080009A03000000487047A06B000020207047C2
:1010900037B5002504680095E46CA04737BD10B54E
:1010A00003790400002B01D1002010BDC36F5B7DCC
:1010B000012BF9D10434E06F03688C331B68984727
:1010C0004378012BF0D1E06F03688C331B6898479D
:1010D0008378012BE8D1E06F03688C331B68984755
:1010E000C078013843425841C0B2DEE77047818280
:1010F000704700207047E02310B59B0099420DD146
:101100000300012248331A704379FA215A1E934191
:101110000200493213704C30FFF7A4FC002010BDD0
:10112000172070470022836A5A60704770B5050027
:10113000006D0C000368DB689847002805D0286D17
:10114000036821001B68984770BD286B2100036865
:10115000DB6898470028F7D0286BF1E737B5140013
:10116000F0220125806B92000A406D4201680095D3
:10117000CD682100A84701203EBDC023F7B5089CDB
:1011800005009B00994200D177E00BD880200E002B
:10119000013BFF3B86439E422DD0803B99421BD0B2
:1011A0000020FEBD5D4B99427CD05D4B994200D141
:1011B000ABE0E0239B009942F2D1030001224833C7
:1011C0001A704379FA215A1E934102004932137072
:1011D0004C30FFF747FCE3E76421D379127A617161
:1011E0006339A17141390B43E371002322726372A9
:1011F000A3720120D5E70F23D679107A1E40537AC7
:101200001B020343A0205BBA9BB2019380002B68B2
:1012100081421AD022002B6828005B6C01991F00C4
:101220000A323300B847431E98414042064033001B
:10123000633363710223A3713E333343E371019B34
:101240001B0A2372019B6372D3E71B6C28001F00EB
:10125000019933000A32B8470028A1D02B68280032
:101260009B6B98471F289BD9286B03685B6998473D
:1012700003785B0700D493E7CCE7D3799B0600D0D3
:101280008EE763236371603BA3713D33E3710368B1
:101290009B6B9847000A20722B6828009B6B98472D
:1012A0006072A6E7137A527A072B1FD1FF2A26D144
:1012B0000021FC3A063B64202172002160716138F4
:1012C000A0719E30E0716172A3728A4291D02B00AE
:1012D00048331A706B7928005A1E93412A0049320C
:1012E00013704C30FA31FFF7BDFB82E75A1E062A15
:1012F00007D802220021012BDDD0110003E00222D9
:10130000FBE7002202210023D5E7622363715F3BE4
:10131000A371CF33E371002323726AE781030000D6
:10132000D1030000F0B51700274A85B00D000A9CD4
:10133000914205D0013291422ED0244A91423ED1B1
:10134000BB7A397A03931E01FF231E40FB7A7A7A17
:101350001E4365236371623BA371D333E371217232
:101360006272BB7A0830A372FF7A039BE772174F51
:10137000C06F1B09BD420AD10568019400962D6B10
:10138000A847002800D1A072012005B0F0BD056873
:10139000019400966D6BF3E76825397A7A7ABB7A07
:1013A0006571653DA571D63521726272A372E571D2
:1013B0000830C06F05680094AC6BA047E4E73A00C2
:1013C0000094FFF7DAFEE0E7D7030000D503000042
:1013D000C36A002B09D102005F3213785A300133FF
:1013E000137040230288134303807047036870B56D
:1013F0009B6804000D00984743780020052B04D912
:101400002368290020005B68984770BD036870B5A9
:1014100005005B680E0098472B6804001B683100CC
:10142000280098470219531E1878A41A1A19002A7E
:1014300000DC70BD013B1A7800021043F6E7F7B5F7
:101440000193036805001B680E0017009847041EEF
:101450001BD02B6831005B6828009847431C14D0D0
:101460002018031B002B11DC2B6828005B699847B0
:1014700000280AD07310C2180F21C35CF60709D5E3
:101480000B40019909010B431370F7BD27703F0A08
:101490000134E6E78B430199F5E710B50323FFF725
:1014A000CEFF10BD70B50600030004006136094D83
:1014B0003178743300229A5EA86B0731FFF7EDFF95
:1014C0003178A634A86B0023E25E0831FFF7E5FF10
:1014D00070BDC0462C010010030010B5743361309C
:1014E000017800229A5E034B0731986BFFF7D5FF16
:1014F00010BDC0462C01001070B50D000100663013
:10150000613109780478C918224209D0002D06D12A
:1015100094432A00064B0470986BFFF7BEFF70BD22
:10152000002DFCD01443024B01220470F4E7C046A6
:101530002C01001030B504000D0085B00A220C49C2
:1015400001A805F07DFA236829009B6820009847D0
:1015500043780120052B05DD0F2B05DC01AAD318EC
:10156000063B187805B030BD01204042FAE7C0467E
:10157000A56B0000436810B50400186D0368DB6DAF
:1015800098470178081E06D06068036D5B68C9182B
:1015900089B2FFF7CBFD10BD036810B51B690400CD
:1015A0009847002803D041786068FFF7BFFD10BD61
:1015B000036810B51B690C009847002803D003216D
:1015C00061430231401810BD10B50400FFF7F0FF71
:1015D000031E0BD05B78017860689B0603D5036D12
:1015E0005B68C91889B2FFF7A1FD0300180010BDA0
:1015F00010B5FFF7DDFF013010BD436810B50433AF
:101600000400D86F036890331B68984741780378CB
:10161000090260681943FFF789FD10BD036870B5C2
:1016200004001B6998470949A5684378421C8D420C
:1016300006D15178090219436068FFF777FD70BD44
:1016400051780902194349BA89B2F5E7D20400007A
:10165000036810B51B690C009847002803D0A4004C
:101660000334A4B2001910BD70B50400FFF7F0FFF9
:101670000849A568027843788D4205D119021143C3
:101680006068FFF753FD70BD1902114349BA89B272
:10169000F6E7C046D204000010B5FFF7D9FF0230CC
:1016A00010BD0023421D4371D377821DD377C21D25
:1016B000D37701225242028102320271034AC3806F
:1016C0001380034AC36013807047C046D0000010E7
:1016D000D20000100222431D10B5DA770F23816972
:1016E0004A791A40036807325B6A984710BD10B503
:1016F000036B1B7DDB0710D5C02905D080235B0061
:1017000099420CD0002010BD517A137A0902194376
:10171000036849BADB6889B298470120F3E7431DA3
:10172000DA7FD1B2002AFBD10132DA778369B024A3
:10173000D9701971E1219A713F321C705971DA71B7
:10174000FFF7C8FFE9E770B50500C36B04005A3521
:10175000002B13D00022C26380682B88411DCA77FA
:10176000826992797F2A09D91B060ED50B23C356AD
:10177000022B0ADC0133C372FFF7ACFF0023E361E5
:101780006362A3632B80E36570BD0023C372F5E73A
:10179000F8B50C00411DCD7F002DFCD14026013550
:1017A000CD77170A8569D2B2344203D0990021431C
:1017B0000E43F4B2B0232B70503BEF702A716B7163
:1017C000AC71FFF787FFF8BD0A4A10B51388040013
:1017D000013313804379002B01D000234371812111
:1017E0002000E2880023FFF7D3FF236820009B6AD4
:1017F000984710BDD00000100023821D0730D3771A
:10180000C377704700487047B06B000000487047CE
:1018100001070000426803000020914203D39B6847
:101820008B424041C0B27047030010B50020914286
:1018300006D85C68A14203D39B6893424041C0B282
:1018400010BDB430704710000378002B01D1180090
:1018500070478B42FCD00430F6E7F8B505000C0069
:1018600016000020052909DC2B6828005F68DB6B67
:101870009847A400225831002800B847F8BD1378D3
:10188000072203201340013BDBB2834202D8024A05
:10189000D318187C7047C046B86B000070B50400C0
:1018A00015000320062B13DD5678137836021E43ED
:1018B00076BA02290DD0814211D0012908D163687E
:1018C0000433D86F0368A4331B689847068002204E
:1018D00070BD63680433D86F0368A833F4E76368A6
:1018E00096780433D86F03689B6B984706706368DB
:1018F000EE780433D86F03681B6A984706706368F4
:101900002E790433D86F03685B6A98470670636862
:101910006E790433D86F03689B6A984706706368D2
:10192000AE790433D86F0368DB6A98470670636842
:10193000ED790433D86F03681B6B98470570C6E7D1
:10194000F7B55478137824021C43D37891781B029E
:101950000B430721527906000A40013A022A01D9B5
:101960000320FEBD64BA5BBAA4B29BB21B195F1E12
:10197000009343682100D86F0368DB689847736859
:101980000500D86F39000368DB68984773680190D9
:101990000433D86F21000368DB68984773680543F8
:1019A0000433D86F39000368EDB2DB689847019BB8
:1019B0000343DBB2019373685E6D321E0DD0336852
:1019C000210030009B689847002800D0050033684C
:1019D000390030009B68984702000B4BBB21E4188C
:1019E00000231800A142584105430320401B074D26
:1019F000009CAC466444A1425B410199C0B21943CA
:101A0000AFD1002AADD1ABE700F7FFFFFFF6FFFF34
:101A10000220704770B55478137824021C43436841
:101A200006000433D86F1500036864BA9C331B6842
:101A30009847736804800433D86FAC780368A03388
:101A40001B6898470470022070BD70B51400E378DD
:101A500092781B02134342680600110088310D88FA
:101A6000002D01D15BBA9DB20432D06F0368903370
:101A70001B6898470580657923792D021D4373689B
:101A80006DBA0433D86F036894331B689847058098
:101A9000A379E47924021C43736864BA0433D86FD1
:101AA000036898331B6898470480022070BDF7B51F
:101AB0001F000A3B04000E0000920193012B19D86D
:101AC0000368DB681D003B00A847052813D1009B75
:101AD0005878019B5A1E9341009A0233D218FB1A80
:101AE0000B2807D804F08AF8080E1114171A0606F6
:101AF00006061D200320FEBD21684F69310020002D
:101B0000B847F8E721688F69F8E721680F69F5E7BA
:101B10002168CF69F2E721680F6AEFE721684F6A11
:101B2000ECE721688F6AE9E72168CF6AE6E7F7B555
:101B300055781378D4782D021D43937824021C43E2
:101B4000537907221340013B0700022B01D90320E0
:101B5000FEBDCC373B686DBAD86FADB203682900C3
:101B6000DB6898473B68060064BAD86FA4B2036884
:101B70006419013C2100DB6898473B6800900433FE
:101B8000D86F29000368DB6898473B680643043335
:101B9000D86F21000368F6B2DB6898473B68019074
:101BA0005F6D002F12D03B68290038009B68984772
:101BB000002800D006003B68210038009B68984749
:101BC000002803D00320801BC0B2C1E70320009B84
:101BD000801BC0B2002BBBD1019B002BB8D1B6E754
:101BE00070B5060014000320062B15DD5578137818
:101BF0002D021D436DBAAAB202290ED0814213D024
:101C0000012909D1CC3633680433D86F0368A43373
:101C10001B6898470580022070BDCC3633680433BA
:101C2000D86F0368A833F3E73500CC352B6819006B
:101C300088310E88002E00D116000433D86F036857
:101C400090331B6898472B6806800433D86F03686D
:101C500090331B6898472B68A6780433D86F0368C5
:101C60009B6B984706702B68E6780433D86F03683F
:101C70001B6A984706702B6826790433D86F03686F
:101C80005B6A984706702B6866790433D86F0368DF
:101C90009B6A984706702B68A6790433D86F03684F
:101CA000DB6A984706702B68E4790433D86F0368C1
:101CB0001B6B98470470AEE743680069C91A401867
:101CC000704742680300891AC2680020013A8A42BC
:101CD00001D31B69585C7047426810B5891AC26805
:101CE0004C1C013A03000020944204D81A69535C4A
:101CF000105D1B02184310BD024B9B6C3233836195
:101D00007047C0467800001070B50400006D0D00EB
:101D10000368DB6E98470678206D36020368DB6E39
:101D20009847437833439D420FD0206D0368DB6EA4
:101D300098472B0A0370206D0368DB6E98470123D8
:101D40004570206D0375FFF7D7FFA58270BD70B594
:101D50000400251DFFF7D8FFE86F03688C331B686C
:101D600098474378022B0DD1606B03685B689847F6
:101D7000A38A1B0A4370A38A83700123E86F03754B
:101D8000FFF7BAFF70BD43680069C91A4018704771
:101D900042680300891AC2680020013A8A4201D3CE
:101DA0001B69585C7047426810B5891AC2684C1CA0
:101DB000013A03000020944204D81A69535C105D74
:101DC0001B02184310BD10B5064B002A01D19847DD
:101DD00010BDBFF34F8FBFF36F8F72B6984762B6D7
:101DE000F6E7C046F11FFF1F322330B58BB00093DA
:101DF0000309019305000B090C000122684605A99F
:101E00000293FFF7E0FF059BDBB20593002B0FD198
:101E1000FA213B330093084B89001868019502941E
:101E200003F076FD0122039005A96846FFF7CBFF7A
:101E30000598C0B20BB030BD24000010F0B504000E
:101E40000E0015008BB0BFF34F8FBFF36F8F72B6CC
:101E500032230093C3171B051B0DC318013A8218C8
:101E60001B130193D3171B051B0D9B181B1300227B
:101E7000684605A90293FFF7A6FF059FFFB20597E5
:101E8000002F04D062B60598C0B20BB0F0BD33236A
:101E9000FA2100930D4B890018680194029603956E
:101EA00003F036FD3A00049005A96846FFF78BFF62
:101EB000059A002AE6D13823684605A900930194C3
:101EC00002960395FFF77FFFDCE7C0462400001071
:101ED00030B50C4D8BB0E86D002811D135230224AC
:101EE00000930122684605A901940294FFF76BFF55
:101EF000059B072B02D00234802CF2D12003E86529
:101F00000BB030BD78000010F8B50400FFF7E0FF1B
:101F10000C4FC519FFF7DCFFC7198020E6694001A7
:101F2000310003F0F5FC013870433818A84201D2A3
:101F30000020F8BDE368C318013B1B78FF2BF8D1E4
:101F4000801BF3E700F0FFFF882292000300805C13
:101F500000280BD10912FF2909D85B181B7DDB4330
:101F6000DBB2012001339842804140427047012397
:101F70005B42F6E7036870B59B680400150098475C
:101F8000002804D02368290020009B68984770BD72
:101F900001230279064907329340002210B5CC6F25
:101FA0002343CB670368DA635A619A6210BDC04667
:101FB00004800440024A936C013393647047C04626
:101FC0007800001010B501398018002A00DC10BD1F
:101FD0008C5C5342C454013AF7E7F0B587B00593DF
:101FE000036804001B6816000F009847390003902F
:101FF0002000FFF7FBF902006368591DC87FC5B2D6
:1020000002950028FAD10130C8779D69BC232B7056
:10201000B3B204931B0AEB700F23111819402F3B26
:102020000B436B71059B2E718026002B00D0403E28
:10203000002A17D0280003990830FFF7C3FF0023B8
:10204000AB71029B80223343EB7123680097200021
:10205000DE6804992B00B0476068FFF73BFBE76040
:1020600007B0F0BD039B1B780293E8E7F0B587B09B
:10207000049343680400586B0291036803929B68C1
:102080009847636805780700586B029903681B68D6
:1020900098470190002806DB6B0005937E1C059A8B
:1020A000F31B9A4201DA07B0F0BD3378019A9342EC
:1020B00033D175780C9B9D422FD0236829009B68F3
:1020C000200098474021039A0378403A8A432DD153
:1020D00014321340934220D12368290020001B684A
:1020E00098470090002818D029002000FFF77EF9BB
:1020F000021E14DD049900980831FFF763FF23687E
:1021000020005B699847002807D08022EB0700D4A5
:10211000783A6D10435D134343550236BFE73F22C3
:10212000049BDB791340009A1370E8E7039A002AB6
:10213000F3D10C3213409342EFD101232900200048
:10214000029AFFF74AFFE8E7036870B55B680C0086
:1021500098470300021E00D00278012021120333A9
:10216000E4B2824202DA0120404270BD1D788D4205
:1021700002D15D78A542F8D001300233F1E743681F
:1021800010B504330400D86F0368A4331B68984764
:1021900041780378090260681943FEF7C7FF10BD54
:1021A000436810B504330400D86F0368A8331B6874
:1021B000984741780378090260681943FEF7B6FF33
:1021C00010BD036810B55B6898470378407800023B
:1021D000184310BD036870B58B4218D9036A8C0090
:1021E000E45801231F251E002540AE408B406406A5
:1021F0000949A40FA4006458857CDBB2B100002A11
:1022000006D16250C27C9D439A438574C27470BDEE
:102210001D4366508574FAE7B86B00000300F7B5FC
:1022200000266A331E70013B01931B7804007F2B4C
:102230003DD90700603739781D4D0368C90069181A
:1022400032009B68496998473B782000DB00ED1815
:10225000A9692500236832009B6808359847E86F14
:10226000B0420BD0397832004900FFF7B3FF39781C
:1022700032004900E86F0131FFF7ACFF0123200075
:10228000019A7C301370A188FEF7F6FB23682000CA
:102290009B699847230064331B881B0507D561346D
:1022A0002178044B0022986B0431FFF7F6F8F7BD54
:1022B000B86B00002C010010F8B50400354E236FF8
:1022C000B06C2500C01A230088331968000203F09F
:1022D0001FFB220023006A321178A8331B883C328E
:1022E000AA35012940D11B1A1BB2002B33DD138004
:1022F0000021535E0020295EDF0FC8179942474135
:102300000023D25E2300613319782348083100236B
:10231000806BFFF794F8220094321168FFB2002915
:1023200004D0B36C206F1B1A99420BD900216B5E4D
:10233000002B0EDB2300783300215B5E013308D1D4
:10234000002F06D000231360013B20002B80FFF7F5
:1023500065FF0020F8BD002313802300802169332E
:102360001970B36C2367C3E7181800B2FE2807DCA6
:1023700010800023D15E00202B5ECF17D80FBDE761
:10238000FF2313802300802169331970B36C236706
:10239000EFE7C046780000102C01001070B5050072
:1023A0006A352B780400022B01D1FFF737FF2B7819
:1023B000012B0CD0236800212000DB6B98470028FC
:1023C00003D062342378002B01D101232B7070BD20
:1023D00070B505006A352B780400012B01D1FFF799
:1023E0001DFF2B78022B0CD02368FF212000DB6B14
:1023F0009847002803D062342378002B01D10223B0
:102400002B7070BD030010B50400A63300229B5E44
:10241000AA348B4211D00200218078320024125F4E
:10242000013207D18B4202DDFFF7B8FF10BDFFF785
:10243000CFFFFBE7AC300180F8E7FFF7EFFE0123A9
:102440005B422380F2E770B505000C00FEF719FC33
:102450002B002C199934217890332800198009B267
:10246000FFF7D0FF70BD70B545182B00040029336D
:10247000197803689D351B69984729782000FFF774
:10248000C1FF70BD70B50400FEF7A8FC22006732E2
:102490001278002A0ED100280BD12500AC3500237C
:1024A000E95E4B1C06D02000FFF7ACFF01235B4226
:1024B0002B80012070BD030010B50400393319785A
:1024C00003681B6998472300983320001978FFF7A9
:1024D00099FF10BD70B50400002B25D003005E33BA
:1024E0001B7898070FD0D80705D520007430002539
:1024F000405FFF2807D0980715D5200074300025CD
:10250000405F00280FD17025180028402B4203D0CF
:10251000012A06D0102806D1236820001B6B98479B
:1025200001E03028F8D070BD03681B6C9847002884
:10253000F9D023005E331B781A0703D52000FFF77C
:102540002DFFF0E75B07EED52000FFF741FFEAE73C
:102550000300F7B56A331B78026F01930389050006
:102560009B1A02003E4F76320400B86C1688019A1E
:10257000C01874350002012A12D1E16803F0C8F9CD
:10258000301A00B2002864DC00232B802300822252
:10259000200069331A7061697C30FEF76DFA07E03C
:1025A000216903F0B5F936182E8036B2FE2E52DCC2
:1025B0000023EA5E2300613319782A480023806BE8
:1025C0000731FEF73CFFE26E002A09D0BB6C216F99
:1025D0005B1A9A4204D800232000E366FFF71EFE30
:1025E0002300783300215A5E0020295E002A12DB86
:1025F0008A4210D1220069321278822A0BD001223D
:1026000052421A8023682000DB6A9847002802D1D2
:102610002000FFF703FE2200002000216B5E343211
:102620001278D90F9A424141012220000C23FEF773
:1026300063FF0022AB5E2200002035321278D917EA
:102640009342414120000D230222FEF755FF002056
:10265000FEBD2880ACE7019B022BA9D1FD3394E796
:10266000780000102C01001010B50400030078342D
:102670002180743300229B5E8B4202DDFFF78EFEC9
:1026800010BD8B4202DAFFF7A3FEF9E7FFF7C6FDA4
:1026900001235B422380F3E7030070B50500743328
:1026A00000229B5E04008C358B4205D0FFF7DCFFD7
:1026B0002B68AC34238070BD0023E95EFFF7A2FED7
:1026C000F9E7F7B5070006006937040038783C36AB
:1026D000012819D00300803BDBB2032B00D969E04D
:1026E0008138022836D803F089FA2F3A02002000F8
:1026F0007C30FEF7A7F900280DD0236820001B6A64
:10270000984781233B7006E020007C30FEF79AF961
:1027100000230028F6D100252300673332781B7888
:1027200013420CD07378002B09D0301DFEF78AF9C4
:10273000002804D0002229002000FEF78BFB013581
:102740000836042DE8D1F7BD236820009B6A98471E
:102750000028E0D0236820005B6A9847DBE725006B
:102760007C352800FEF76EF90028D4D023006233B0
:102770001A78002A08D101321A70013B1978304BBF
:102780000931986BFEF789FE01222300524278330B
:102790001A8023682000DB6A9847002803D12000B4
:1027A000FFF73CFDB7E701233B702800A188FEF747
:1027B00063F9B0E723006A3301931B78002BAAD09A
:1027C0002200023B603215785A4253416D001D4988
:1027D000ED18AB00C918236801229B6820004969E5
:1027E0009847230064331A88033B12051ED5012243
:1027F0001978134B0431986BFEF74FFE6322124891
:102800003221C36C60301A62FEF72CF923000833C2
:10281000D86F002803D001222900FFF7DBFC20003D
:10282000E1887C30FEF728F983236BE7019A127860
:10283000013A511E8A411978014B0431DBE7C04649
:102840002C010010B86B0000780000100020F0B5DB
:10285000020008260A4C33000127115D05004D4097
:1028600040083D4203D074256D426840C0B2013B30
:10287000DBB24908002BF1D10132102AEBD1F0BDB7
:10288000DC0000100323594310B589B20624802AC6
:1028900000D1043C07228A408C40836A934323433F
:1028A000836210BD072370B503251E004D431340FE
:1028B000AE40AB4044694900B44323433024250073
:1028C00022408D408A404361C36BAB431343C363D3
:1028D00070BD70B5836A9868808A040A4C708870ED
:1028E000FF24002085B2AA421BD88C54D963BFF3C1
:1028F0004F8FBFF36F8F72B6DA7E012A0FD1062198
:10290000D976D9680868022141604260997E030047
:102910008C0018331B191A600232FFF7C3FF62B62E
:1029200070BD0D5C01306C40DCE7020070B5040046
:102930005E32BFF34F8FBFF36F8F72B6E37E012B12
:1029400009D0062B1ED1E36B002B04D01378002B8B
:1029500018D1002916D1E368217E1D688022280045
:10296000FFF790FFA67E280031000222FFF79AFFB2
:10297000B600064B1835AD192B600023E37662B61E
:1029800030BF70BD62B630BFD3E7C046FEFF000067
:1029900010B504000121806A4834FFF7C6FF237890
:1029A000032B08D1BFF34F8FBFF36F8F72B6802315
:1029B000054A5B051A60BFF34F8F044B044ADA6087
:1029C000BFF34F8FFEE7C04655B01F5E00ED00E03D
:1029D0000400FA0570B50500C368017E1C688122F9
:1029E0002000FFF74FFFAE7E200031000122FFF7ED
:1029F00059FF02236360013B6360B600064B183445
:102A0000A61933606B7E9B00E418044B23600023FF
:102A1000EB76EB6270BDC04617110000FFFF0000AF
:102A2000802301385B0498420DD2C021064A090672
:102A300050600648036A1B021B0A0B430362002313
:102A4000936007331360704710E000E000ED00E092
:102A5000802070B54004FFF7E3FF00F0B3F81F21BA
:102A600001220A4B80241B68094D19408A405B06ED
:102A700008499B0F9B005958E4039000AB68234022
:102A80005E4273415B4213404350F7E7140000106D
:102A900010E000E0B86B0000F7B543069B0F009311
:102AA000404BC0279C466246009BFF019B009D58FF
:102AB0001F230340019301231E00019CF022A64026
:102AC000802412020A400905090DB6B22402BA4256
:102AD00010D12B5933432B51C30507D401231F2297
:102AE00044121440A3424FD1002331E0012380223D
:102AF0001143F4E7E027FF01BA4206D12B593343D3
:102B00002B51C30538D40623E9E72F59B7432F517A
:102B10008024A401A24229D1234A904203D1234B0D
:102B200000221A6004E0224A904203D11F4A136037
:102B300002230DE01F4A904201D11F4BF0E71F4ACC
:102B4000904203D0C30519D40723C8E71A4A13607B
:102B50000C2200980B434243019812185200624421
:102B6000928E1748121892001360F7BDC0240223FA
:102B7000A401A242B0D1B2E70623B8E70723B6E723
:102B80000123E5E70323E3E784131440A342F7D0CE
:102B9000C41414409C42CBD0001610408342F1D0A4
:102BA000FFF756FFB86B000002C23A00C040044075
:102BB00063823D0025423C00D040044049C20100F0
:102BC00000100110C02110B5054CC9012068FFF7A5
:102BD00063FF802160684901FFF75EFF10BDC046BA
:102BE000140000101021F0B5037EC26899400D005A
:102BF00012680400106885B005400095014226D097
:102C00009800130015002C331B181868A37E183584
:102C10009B00EB181E68637E9B00ED182B688342B7
:102C200015D92369B94D5F06BF0FBF007F591F2516
:102C30002B401B3D9D40EB59002B02D0116005B08D
:102C4000F0BD9368984217D81B1A032BF3D9E07E86
:102C50000D2801D900F078FC02F0DAFF11003400F1
:102C6000370041008E012B025502F0022E0346036D
:102C7000F00312044604550401339B19E4E7E368AA
:102C8000A17E1D6801238B402A681A4206D10523C4
:102C9000AB60FF22E3681B681A60D0E72B008A0054
:102CA00018339B18A62252011A6028000322FFF74E
:102CB000F9FD0623217EE3760A338B402A681A4207
:102CC000C5D1E6E7009B002BE3D022000023583259
:102CD00023631380FF22E362013362652365E368A7
:102CE000A17E1D688B002E001836F618884B3768B9
:102CF000032233602800FFF7D5FD009B002B00D096
:102D00001CE1636D256B002B35D1236D002B39D170
:102D10000023E3620633E37622002100256B5C3258
:102D2000583110780B88012D38D1002800D1F7E0F8
:102D30000020107010229343E26C0B80824202D07C
:102D4000636BCC2B13D0E169236A994209DA616A7B
:102D5000A36A994200DABAE0002A02D0636BCC2B56
:102D600005D0220080235A3211880B4313802000A3
:102D7000FEF7E9FC18E022001023583211880B43BB
:102D80001380C5E7009BE3620623E376072DC3DDCE
:102D90002C22236C1B789343902B1FD0220080237E
:102DA000583211880B4313805A4E22005C3213783C
:102DB000002B05D0230001215E331970002313700E
:102DC000E36881221D68217E2800FFF75BFDA27E5B
:102DD00018359200013EA81806605AE7A0680368FB
:102DE0005B6B9847A84297DB236C1979DA78090264
:102DF00011435B7949BAA26889B27F2B14D94D423D
:102E00004D41506B009BEDB2002804D003681B6855
:102E10009847C343DB0F1D43A3681B6B1B7D5B07F8
:102E200006D5002DC0D003E0938A009D9942F3D1CE
:102E30002022206C037813420ED06368002B30D11F
:102E4000CC22E262226B216C934233DB230062606E
:102E5000002258331A8015E021680D786B409343A7
:102E6000EBD1226B013A0133934204DAC65CCD5CAC
:102E7000AE42F8D0E1E79342DFD16368002B10D176
:102E8000CC33E362A36840211B6B1A7D01235208F7
:102E90009343226C12780A40134310D00023E3625C
:102EA00082E700232200E3625832118840330B434B
:102EB0001380E7E7C95C2268D1540133C2E7E36AB3
:102EC000002B00D170E70523134EE3766DE7230056
:102ED000200021005A335D305E31002A0DD0626B34
:102EE000C02A01D0002A08D110221D880B4E2A4387
:102EF0001A80012303700B7057E704221D882A43B0
:102F00001A800023037001330B704DE7B86B00008B
:102F1000FEFF0000F0130000B3050000A13C00001C
:102F2000626BCC2A06D00C2A04D0C02A02D0002A18
:102F300000D033E7902293430B8035E72B00217EAE
:102F40002C3388001B18AA681B68934211D8D31A27
:102F50000233AB60CF4B812233602800FFF792FC35
:102F60000423E37600236363A36401336364E364AF
:102F70008FE60132D219EAE70120E368A27E1B68DE
:102F800090401D6829000140054259D01833920035
:102F90009B181B680133A26C1000443098426EDA13
:102FA00080266832A2647600A26C606C17004437F9
:102FB00045009F4255DAB04248DD656400296CD077
:102FC000636B256BDAB26263002D08D19B0706D0D4
:102FD00022008023583211885B000B431380A068C5
:102FE00003685B6B9847854250DA236B226C616BF8
:102FF000581C2063D154636D626B53406365E36C6E
:10300000002B05D1210008225831088802430A808C
:10301000226DA17E134023650323E376E3688A00D3
:103020001D682B0018339B18ED2228001A60EC3A1B
:10303000FFF738FC81222800217EFFF723FC28E6D9
:10304000227E2C3392009B181B68A4E7676B6832C2
:1030500038436063E06CA264474278416564E06491
:10306000A2E721329A42A8DA802252009042A4DCE0
:10307000200058300688FC3A324302809DE7200049
:103080000422583005882A43028097E72200202333
:10309000583211880B431380B1E78222D200934249
:1030A00000DCF6E522000123583211880B4313801F
:1030B000EFE5009B002B04D00023E3620223E376BC
:1030C000C5E5009B6821A363E3681D68637E2A0051
:1030D0009B001832D3181960A17E28008B00D318EA
:1030E0008A221A60873AFFF7DDFB81222800217EC1
:1030F000FFF7C8FB009B009A236323005A331A8012
:103100000723E376C5E5009B002BD7D126005E366A
:103110003378002B07D0E269236A9A4208DA626AA0
:10312000A36A9A4204DA23005F331B78032B08D981
:10313000220080235A32118820000B431380FEF7AF
:1031400002FBE16B002960D00F224B79134008335A
:10315000A3633378002B0BD020230A781A4207D0C0
:103160009A430A70A26BE16B013A885C43408B542E
:10317000E36B216A1D7824231D40243D6B1E9D4175
:10318000454B6D421D40A2353378FF35002917DCD1
:10319000002B35D1E3681868637E02009B0018326B
:1031A000D3181D60A17E22358B00D3181D60032229
:1031B000FFF778FB220000235A32236313809FE736
:1031C000A26A002B1ED0D3179B1ADB0FE2690132D3
:1031D0009142DFDD626AA16A01328A42DADA002BAB
:1031E000D8D023005F331B78032BD3D083203A2120
:1031F0002A4BFF319B6C584302F010FC4D19C9E774
:103200000023E3E7002AECDCC4E7E36881221D68C1
:10321000217E2800FFF736FBA67E2800310002221F
:10322000FFF740FB18351E4BB600AE193360637EC6
:103230009B00ED181B4B2B60012362E7E368A17E26
:10324000186801238B4002681A422DD10300227EA8
:103250002C3392009B180200657E1832AD00551980
:103260001B682E6837001E3F9F4208D9236B002B36
:1032700002D02000FEF7ACF80A4B2B601EE79E42FE
:1032800006D9806889000130223352182860136003
:10329000082336E777040000C7FEFFFF7800001020
:1032A000FEFF0000FFFF000008232200E3765A32F1
:1032B000118818330B431380E36A002B04D1236B6E
:1032C000E26B591C2163D35C8021636301234900B5
:1032D000626B134201D04A4062635B00FF2BF7DD53
:1032E000012363640833E3760126E368A17E1D6849
:1032F00033002A688B401000184001901A4278D1A0
:103300002B00227E2C3392009B181F68022F00D8BE
:10331000BFE46821380002F081FB3D2906D8200077
:10332000FEF756F82000FFF755FBB2E4637E183530
:103330009B00ED182B68073BBB4200D8A9E4200096
:10334000FEF746F82300019A58331A80FF2363657D
:10335000E36A2665E664002B31D0E262A37E682131
:103360000193E3681B681E000393019B18369D00C0
:10337000751928680238C01B02F0CAFA636C3A005B
:1033800001300341683AA264626B591E0A400A2167
:103390006364029262635B10002B1FD16833594350
:1033A0007B1ECB1803222B6001990398FFF77AFA52
:1033B000637E664A9B00F3181A6004237FE6226B43
:1033C000013A2263226B9A42C8DDE26BD15C226C27
:1033D000D154626D01334A406265F3E7029A0139C4
:1033E000134204D0E06C020050425041E0645B1094
:1033F000D2E78023626C9B009A421FDC8026993BB7
:10340000676BFF3B7600626C500060643A4201D00B
:10341000B2420EDD8026627E18359200AA18B600F0
:10342000B04208DD494889001060013B6D182B60EF
:103430002FE46833E7E718002338F4E7E368226BEA
:103440001868A36B050018359A4211DAE36A002B5D
:103450000ED18B220733E376637E52009B00EB187C
:103460001A603A23FF33A27E013B9200AD18DEE7DB
:103470000B238022E376217EFFF704FA4523F2E74F
:10348000E3681D68E36A002B11D00023E362063372
:10349000E37681222800217EFFF7F4F92C4BA27EEF
:1034A00018359200013BA8180360FFF7F2FB2300D8
:1034B00001225C331A700C232800E376A17EFFF70B
:1034C000F1F923005E331B78002B07D023005D3316
:1034D0001B78002B04D0636A013363621D4BDEE767
:1034E000E3690133E361F9E70D23E376E3688122C1
:1034F0001D68217E2800FFF7C5F9A37E18359B00C3
:10350000ED18154B93E7009B002B00D0D6E5230068
:1035100001225E331A70009A023B1A7022000823BF
:103520005A3211880B4313800623E376E368A17EA9
:1035300018688A00030018339B18084A1A6003228F
:10354000FFF7B0F9FFF7A5FBFFF782FAFFFF0000D6
:10355000F0130000B20500009C060000EF1300000D
:1035600010B5024B586FFFF73DFB10BD78000010FF
:1035700010B543789B0614D54388E0221C0018053B
:10358000D201000D1440134205D08023DB019C4280
:1035900005D0FFF75DFA0B6B1B69181810BD0B6D9A
:1035A000FAE70230FAE7F7B50193036804009B6875
:1035B0000E009847071E2DD001234278C3560020E5
:1035C000834227DA1F2365681A40290038000092D9
:1035D000FFF7CEFFAB6A009A19680C31002A1AD1A6
:1035E00022685B6815680D3B0A0020003100A8477F
:1035F0006368C5B20433D86F03688C331B6898477F
:10360000099B85551D7301250120099B099A5B794A
:103610005B195371FEBD009A0E4B019D9B18089AD1
:103620001B7D013A5D435343C6182A003000FEF764
:10363000C9FC09982A0031000C30FEF7C3FC7B88D6
:103640005B04E1D563680433D86F01230375FEF78B
:1036500053FBD9E7386C0000F7B5089D01930600CD
:103660000C00171E036812D09B6898470400019B4A
:10367000AB72002C03D023780193002B0FD10023D1
:1036800018006F72EB722B736B73AB73FEBDDB6B49
:103690009847A400019B24589B00E418E7E76022A8
:1036A000637813405F3A602B04D120007168FFF704
:1036B0005FFF02786021019B6B7263786A738B43B2
:1036C000EB7200232B73627850337F2A00D9A13329
:1036D0000120DAE7F8B50025194E0400835DAB42FE
:1036E00012D080680100FEF77FFBA84201D0FFF7EF
:1036F000AFF980222100606852001431FEF79EFB72
:103700000028F4D1A55501250E4EA35D002B15D040
:103710008527BF00E0590100FEF766FB0028E6D1CF
:1037200021008022E059153100025200FF31FEF7DE
:1037300085FB0028DBD10223A0551D432800F8BDDE
:103740002202000021020000F0B507000C00806A90
:1037500000218DB0FFF7E9F8B86D002803D00368A9
:1037600021001B6898473D6D2B7D002B69D0BFF36E
:103770004F8FBFF36F8F72B62800FEF7C5FB0400B2
:10378000FEF7A6FB404BEE69C318802031004001D4
:10379000019302F0BDF801387043019B1818844270
:1037A0003ED1FEF795FB384BC418FEF791FB364B24
:1037B000C018844238D13223E6173605360DA619D3
:1037C0003613012207A902A8029303960496FEF776
:1037D000FAFA079BDBB20793002B1BD1FA21343393
:1037E00002932A4B890018680396049602F090F819
:1037F0000122059007A902A8FEF7E5FA079B002B16
:1038000008D13533012207A902A802930396049632
:10381000FEF7D9FA079BDBB2002B05D0FFF718F9AA
:10382000002CBED0A419C0E700262B69EA689B18BB
:10383000013B1E70EA68964214D300232B75AB61DE
:1038400062B6786D002801D0FFF744FFB86ABFF375
:103850004F8FBFF36F8F72B6FFF7BCF862B60120CF
:103860000DB0F0BD8023921BDB009A4200DD1A00F0
:103870002969A0198919FEF7E1FA0028CED1802321
:10388000DB00F618D6E7C04600F0FFFF240000106A
:1038900010B504000121FFF757FF2000FFF778F86B
:1038A000F0B50600002587B004930CAB1B7803919C
:1038B00002920593049B9D4201DB00200CE0039BD8
:1038C0005F19029B5B1901933B12FF2B06D9002362
:1038D0000120019A1370404207B0F0BDF3181C7D1F
:1038E000059BE443E4B2002B09D03000FFF7F2FE61
:1038F000002C0BD10023019A02201370EBE7002C5F
:10390000F8D085239B00F3589C4204D0FF23240267
:103910003B40E35C04E0FF231F40F319FF335B7D72
:10392000029A53550135C5E770B50D4C0600A568E0
:103930000120ADB2022E06D90A4B0B49186801F0DE
:10394000E7FF023E7043002800DC70BDA3689AB216
:10395000AB1A01D561685B181500C01AF3E7C046C1
:1039600010E000E02400001040420F00802070B5FD
:103970004004FFF755F8FFF725F91F2101220A4BF4
:1039800080241B68094D19408A405B0608499B0F3B
:103990009B005958A4039000AB6823405E427341DA
:1039A0005B4213404350F7E71400001010E000E0C2
:1039B000B86B0000F0B587B00393E04B0091036053
:1039C0006B4617001A7803000025603345860564AE
:1039D0008564056585651A701423534302000D3311
:1039E0006132137003008022623352001D704566FD
:1039F000DA80039A1D72C56605675A821A3302007F
:103A00000593012376325B4213808367031DC567EC
:103A100004339D67DD674B000293CB00C021040097
:103A2000C74EC901F3185B6918000193FFF734F81A
:103A30002A0020000199FDF7FFF8C021029BC9016F
:103A400001339B00F61876693000FFF725F82A004D
:103A500031002000FDF7F0F8BA4EB91CF06F3D00C0
:103A6000036810359B689847A080F06F391D036884
:103A70009B689847FA2339009B004343F06FE3604B
:103A800003680A315B6898472300213301933B00A8
:103A9000183360810493F06F290003685B689847CE
:103AA0002900019B10311872F06F013503685B68C3
:103AB0009847019B187001330193049BAB42EAD1F4
:103AC0003B003E002C330193E31B0C3B9D4D2836FD
:103AD0000493E86F310003685B689847049B98552E
:103AE000019B0136B342F4D18022390092002000BC
:103AF000954B3031FDF788F93900E86F34310368B0
:103B00005B6898472300390036331870E86F353109
:103B100003685B6898472300390034331870E86FF6
:103B2000363103685B6898472300390035331870D5
:103B3000E86F373103685B6898473900E080E86FC9
:103B4000383103685B68984739002081E86F3A3163
:103B500003685B689847802239007B4B52013B31F8
:103B600006002000FDF750F93900E86F3E31036888
:103B70009B689847FA239B0043432361002801D1A7
:103B8000E368236139006F4B4031D86F03685B688D
:103B90009847030605D522000123363211780B43DE
:103BA0001370800605D522000223363211780B43AC
:103BB00013703D008022413529008023200012012E
:103BC000FDF722F980222900D20040232000FDF7D2
:103BD0001BF939005B4D4231E86F03685B68984719
:103BE0002300390038331870E86F433103685B688D
:103BF0009847230039331870002E00D19BE0E0680D
:103C00006421704301F084FE606120696421704387
:103C100001F07EFE48224D4BA0615B6D494F1D684F
:103C20009B885543ED182A23009AF86F5343EB18ED
:103C300019000193036808315B6898472300250049
:103C400037331870019B019E2A330A363C350193A5
:103C5000F86F310003689B6898476870F86FB11C73
:103C600003689B6898472870F86F711D03685B684C
:103C70009847E870F86FB11D03685B689847A870B3
:103C8000F86F311D03685B689847FF2801D1002356
:103C90002B70019B083608359E42D9D172222B4BDE
:103CA000284E5B6DF06F1D689B885543ED18029B95
:103CB000274FED18036829005B68984723005C33A1
:103CC0001870F06F691C03685B68984723005D33C8
:103CD0001870009BF06FED1A2900036810315B68C3
:103CE000984723005E331870FF2808D040B206338F
:103CF00002221988002800DB01220A431A802900C9
:103D000004222000104B1831FDF77EF8A188059899
:103D10006134FCF7B1FE2178039AB86B00230731B8
:103D2000FDF78DFB217800230122B86B0931FDF7E7
:103D300086FB07B0F0BD012060616BE7946C00006A
:103D4000B86B000030010010FFFF00007800001089
:103D50002C01001010B50E4A137DDB43DBB2181E98
:103D600014D08521890051580A4A994200D01A027C
:103D700000230949D05C58540133102BFAD1147C2C
:103D8000FEF764FD201A43425841C0B210BDC04640
:103D9000C8010010DC020010DC000010030070B548
:103DA00069331B7804000D007F2B07D903006A33A9
:103DB0001B78002B02D0FEF731FA70BD236820007B
:103DC0001B689847638E012808D122009432136043
:103DD0002000002D06D0FEF7FBFAEEE7002BECD01A
:103DE000E366F5E7FEF7DAFAE7E70300F7B56133D4
:103DF0001F786F4B0400986BCF1B0093FDF706FBF9
:103E0000236805001B6820009847461E73425E41E8
:103E100076422640132F16D8380001F0EFFE0A181C
:103E20001D211456611414146C7E141414B0BAC0FD
:103E3000C3C6230068331B789B0704D42000002DE1
:103E400002D0FEF7C5FAF7BDFEF7A8FAFBE7290096
:103E50002000FFF7A3FFF6E72000FEF7DFF9F2E707
:103E6000230068331A781023110019401A42EAD14E
:103E70003F27802670332B402F400D000193B60062
:103E8000230021335B5D9F4215D1019B002B16D08F
:103E9000230064331B8833420DD02368290020009F
:103EA0005B6B9847002806D0009B0433D86F012332
:103EB0000375FDF721FF0135082DE1D1C3E7236824
:103EC000290020009B6B9847F5E7230068331B7897
:103ED0005B07B8D4236829B21B6920009847B2E772
:103EE000683423785B07AED4002EACD029B2300002
:103EF000FEF788FAA7E72300643319882368C9040A
:103F000020005B69C90F98472368002120001B69C6
:103F10009847002E97D00021E9E72300383319781D
:103F2000002909D1236822001B69002D02D03432F8
:103F30001178D2E73532FBE7002D1BD04909012962
:103F400008D003290BD12300743300229B5E002B81
:103F500000D078E7236820005B6C984773E7052959
:103F600000D070E72300743300229B5EFF2B00D04B
:103F700069E7EFE72000C908FCF758FF63E7230073
:103F80006833002D03D0363422781A705BE71D7039
:103F900059E72A0000212000FCF75CFF53E72A00C4
:103FA0000121F8E72A000221F5E72A000321F2E7C0
:103FB0002C010010F7B50700FDF773FB0023BC6A66
:103FC000364AE6686360E363E3616362A363A36503
:103FD000E365334B964243D1C422FF20314992001E
:103FE0008B5883438B503000FDF7D2FF0121637E55
:103FF000356899400B006A6F2B49134301226B67A8
:104000006B6813436B60294B186801F081FC013821
:10401000E8602000FEF7DEFC0122254BAB60637EEA
:104020009A4013001900EA6B114001911342F9D133
:10403000E0216069C901FEF72FFD1E492069FEF7E6
:104040002BFDFF231F222B603379103313401E3AC0
:1040500011009940134B1960019B3A64FB63F7BD53
:1040600078339E4206D1C4220E4992008B581248E2
:104070000340B7E7114B9E4205D1C4220949920083
:104080008B580F48F4E708339E42ACD1C42205494F
:1040900092008B581B021B0AA4E7C046C400001004
:1040A0007800001000E100E040420F002400001002
:1040B000FFFF000020200000FF00FFFFF8000010BD
:1040C000FFFF00FF10B5838A0400002B03D10368B3
:1040D0000749DB6898472000FFF76CFF23000122A7
:1040E0005C331A70034B9B6C63662323236610BDFD
:1040F000FFFF000078000010F7B50193036804008B
:10410000DB68006D009303681500DB6E0E009847B6
:104110000778206D3F020368DB6E98474178009B6B
:104120003943200098472E22236B00271A75206BF5
:1041300003685B69984701220770236B5A75206DED
:1041400003689B6C9847FF230370206D03685B6CCA
:1041500098470770206D03681B6A984733120370F5
:10416000206D03685B6A98470670206D03689B6A40
:1041700098472B120370206D0368DB6A984705701F
:10418000206D03681B6B9847019B0370236D1F759F
:104190009F61F7BD10B504009C2102F0A5FC200032
:1041A00010BD10B504008C2102F09EFC200010BD53
:1041B000F0B5050095B01AA806882800FFF79CFF07
:1041C000E86F002703682C1D9B6998470770E06F14
:1041D000036888331B6898470770E06F03688C3367
:1041E0001B6898474378022B0DD1686B03685B68A6
:1041F000984781784378090219432B6849BA280007
:10420000DB6889B298472F0088373E80002E13D094
:10421000E06F036890331B6898473E880388B34279
:104220000AD0E06F036890331B689847012306802B
:10423000E06F0375FDF760FD3A2301220FA90AA87C
:104240000A93FDF7C0FD102210A906A802F0F8FBA2
:104250000F9EF6B2002E5AD1E06F0368AC331B6894
:1042600098470290E06F0368DB6F98470300013BBB
:1042700001900F2B4BD8082206A904A802F0E0FBFE
:10428000082208A90AA802F0DBFB049805993B2242
:104290002F4B524201F0D2FC0A980B9917003B2297
:1042A000039352422A4B01F0C9FC5740039A5A40EB
:1042B0000392F2003800039901F0B4FC029B985578
:1042C000019B0136B342F4D1E06F0368C0331B6831
:1042D00098470600E06F03680833DB6F98470223B6
:1042E0003618023E3370E06F0368C0331B6898478E
:1042F0000600E06F03680833DB6F98471023361819
:10430000013E28003370FFF7DDFE15B0F0BD362307
:1043100001220FA90AA80A93FDF755FD109BE06F33
:1043200004930368AC331B689847042204A902F085
:1043300087FBE06F0368AC331B6898470223037167
:10434000E06F0368AC331B68984710234371BBE7E9
:10435000FFFF000070B5051DE86F140003680E0034
:104360000433DB6F9847844205DDE86F036804334C
:10437000DB6F9847C4B2E86F0368B0331B68984797
:104380003100220002F05CFB70BD10B50400431D3B
:10439000DA7F002AFCD10132DA770F23E169A069C4
:1043A0004A791A40073202F04BFB2000FDF792F9E0
:1043B00010BD70B503790400002B3CD0431DDB7F9A
:1043C000002B38D14379002B35D01D4DC268AB6C22
:1043D0009B1A1C4A934201D9FDF7F6F96379012B28
:1043E00012D1A31DDA7F012A25D1DA7F012A22D139
:1043F000013262712000DA77FFF7C7FF0023A37252
:10440000AB6C2361AB6CE3606379022B13D122693F
:10441000AB6C9B1A0C4A93420DD90A23E356200039
:10442000022B09DCFFF7B1FFA37A0133A372AB6C57
:104430002361AB6CE36070BDFDF7C6F9FBE7C046D6
:10444000780000106F170000B70B0000F0B50400F3
:1044500085B0FFF7AEFFA36A5A68002A36D0DA6B40
:10446000002A33D1DA6A002A30D1226B127D52073A
:104470002CD5C0201D685B682A79DBB20293EB78EB
:1044800012021A43AB79EE791902800001400E4303
:10449000F021A02789003140BF00B94208D069DC73
:1044A000080080278138FF38B84380B2002863D1E4
:1044B0008EB2002A62D123682A009F693100200051
:1044C000029BB847236820001B6A9847E06A0028CF
:1044D00038D0BE49FEF7E0FAE26ABD4D53069B0FA5
:1044E0009B0058591F231A401B3B93401A58606C7D
:1044F000531E9A41B74B216C9B6C824200D182E1E2
:10450000E3636264236C002B06D1002904D0226B84
:104510007F3B117D4B401375C021E06AC901FEF756
:10452000BBFA01201F220100E36A1A409140226B6E
:104530005B06127D9B0F02409B00EB58013A0A403C
:104540008900CA50A36ADA6B002A11D1DE6A002EF4
:104550000ED1230048331B78002B09D025004935A4
:104560002B782000002B00D159E1FDF72DF92E709A
:1045700005B0F0BD81429BD0B6B29AE7697952BAD4
:1045800092B27F2908D90299236800915F693100AE
:104590002B002000B84795E7A18A914200D091E70F
:1045A0003C2218009043AA78697812020A4357BA4D
:1045B00042B2B9B2002A00DB8FE0802816D08128F1
:1045C0003AD0DA0765D46279012A00D87AE7E2881E
:1045D0008A4200D076E708210F2061569B080340ED
:1045E0008B423DD02000FDF7EFF86BE76579002D99
:1045F00012D0013D012D00D964E7E3888B4200D140
:1046000060E7754A20001388013313800A000023F5
:104610008121FDF7BDF855E7236820009B6A984784
:104620006C4BE7809B6C2581E3606379012B00D1A3
:1046300048E70123637145E763792068013B012B5B
:1046400000D93FE7E3888B4200D03BE70023624A72
:104650006371138801331380836A2000984731E720
:1046600000265C4B01319B6C0140A71D2172E36069
:10467000E51DFE77EB7FB342DBD0216A4A79024029
:104680000732E06902F0DCF9EB7FDBB2FB77EE7713
:10469000CBE7FF2B00D115E76279002A00D111E7A3
:1046A000082020569B061B0F834200D00AE7E388B0
:1046B0008B4200D006E70A23E3562000022B92DC4F
:1046C000022A90D1FFF761FEA37A0133A372414B16
:1046D0009A6C9B6C2261E360F4E6032B21D8671D82
:1046E000FB7F002BFCD10C220133FB772878A369D8
:1046F00010405C3A02431A700A0A1971DA70226893
:104700000093D36931009C462A0020006546029B35
:10471000A847002803D02000FCF7DCFFD2E6F8779A
:10472000D0E6E2888A4200D0CCE66179002900D147
:10473000C8E69B08092118000F276156384003007E
:1047400088424BD1C2212000FDF722F8637A013361
:104750003B4063721F4B9B6CE360A31DDB7F002B10
:104760002DD12300E769253303930123039A3100F8
:10477000137023680097DB692A009C462000664678
:10478000029BB04700281ED00C232A781A405C3BBD
:1047900013433B70E3881A0A3B710823FA70E269FD
:1047A000E356974202D00F22013313403C21BA79DD
:1047B0009B008A43134340221343BB7182E62300CC
:1047C000276A2633D0E7039B18707BE610100000A1
:1047D000B86B000078000010D00000100139154DB2
:1047E000394088420AD1C2212000FCF7D1FF2A00BB
:1047F0005A32138801331380AB6C6CE7C32120005D
:10480000FCF7C6FFF8E7E06B002800D17AE61B1A38
:10481000322B00D576E600232264E36372E64C3047
:10482000FCF710F9002800D1A2E6236820001B6BDA
:1048300098479DE678000010F0B50379050087B031
:10484000002B00D1D3E0FFF701FEAB6ADA6B002A40
:1048500000D0CCE0DB6A002B00D0C8E02B005C333A
:104860001B78002B00D1B5E02B682800DB6A984745
:10487000002800D1AEE0614B6A6E9B6C9B1A2A6ED9
:104880009A4200D99AE0AC6B236820005B69984794
:104890000190002800D191E0236820001B6998470F
:1048A00003780293002B00D188E01900206901F001
:1048B0009FF921618BB200936B461B880393039A87
:1048C000029B934203D823690133236176E0236876
:1048D00000999B6820009847037804936368586B9D
:1048E00003689B6898470600037801365B00C3188D
:1048F0000593059BB3421CD97378009A9A421BD149
:1049000063683778586B01370368DB6898478742DC
:1049100012D86368586B03685B68984733785B000C
:10492000C0188278437812021A4352BA92B2002A0F
:1049300004D1009B0133BEE70236DAE74421049B31
:104940000B408B42F5D10120039B01995B08CE18E7
:10495000C95C039B034200D00909CB439B07E8D104
:1049600004200B000340014243D06368581DC77FF9
:10497000F9B2002FFBD10137C777BC209B691870B3
:104980001A71100AE122D8705A719971D971606850
:10499000FCF7A0FE009BE360009B07219A00042324
:1049A0001A40914033788B43012191400B4333707F
:1049B000009B01332361114B9B6C6B66FA210F4AFC
:1049C0006B6E926CC900D21A8A4203D3FA2292000B
:1049D0009B186B662B6D1B7D002B08D06B79002B11
:1049E00005D1064B022128009B6CFEF7ADFE07B0F7
:1049F000F0BD20000099FDF7F0FACDE77800001037
:104A0000F8B51C00036805009B68079F9847021EC5
:104A10001CD01F23467869681E40FEF7A9FD0E4B87
:104A200001009B191B7D00225C430A2C0EDC380020
:104A3000069A0C30013A53432200C9180B2E07D8AE
:104A4000FDF7C0FA01227B791B197B711000F8BDBC
:104A500001F0F6FFF6E7C046386C0000F7B51F001E
:104A600003680D00DB69040016009847A84204D1D2
:104A7000012F02D133782375F7BD63682000ED1A4A
:104A80002368DB699847A84208D37B190193236800
:104A90002000DB6998477B19834210D220693A00D5
:104AA0003100401901F0CCFFE6E723682000DB6904
:104AB00098473378A84206D1237501360135019B0A
:104AC000AB42F2D1D8E722695355F6E7F0B585B08D
:104AD000019303680E00DB69040017009847B04299
:104AE00006D1019B012B03D1237D3B7005B0F0BDA6
:104AF00063682000F51A03932368DB699847A8428E
:104B000009D3019B20005B1902932368DB69984756
:104B1000029B834212D221693800019A491901F09F
:104B20008FFFE3E723682000DB699847A84209D19B
:104B3000227D039B9B1BFB185A550135029BAB4200
:104B4000F0D1D3E723695A5DF3E7F0B589B00600E9
:104B50000C001D00181E069251D04B1E5B19002040
:104B6000049399424BD8706D00280CD00368210043
:104B70009B6898470590706D049903689B689847F7
:104B8000059B002B1DD1069B039301230593306DDC
:104B900021000368049A1B699847002862D021000D
:104BA0003000049DFCF7C2FA0E9B01351B782D1BCB
:104BB0002A00002B4DD00100039801F041FF012095
:104BC0001DE000280BD127002B190793069B1B1B08
:104BD000DB190393079BBB4219D11C00D7E70E9A40
:104BE000706D12780368002A0BD0002200925E6874
:104BF00021002B00069AB04743425841C0B209B089
:104C0000F0BD1E6821002B00069AB047F4E7706DD6
:104C1000390003689B68984700280ED00E9A706D83
:104C200012780368002A0ED0002200925D683900D5
:104C30000123039AA847002801D03C00A7E70023DE
:104C400001370593C2E71D6839000123039AA8477D
:104C5000F1E7039901F0F4FE0123306D0375FDF7D0
:104C60004BF8ACE7306D21000368DB6898470028FB
:104C700016D0336D210030009D68FCF757FA0E9B6B
:104C800001351B782F1B3A00002B1ED00100039822
:104C900001F0D6FE039B2C00DB1903930023059340
:104CA000306B21000368049A1B699847002815D0CF
:104CB0000E9A049B12780133306B1B1B002A3BD1E8
:104CC0002100039AFFF7CAFE79E7039901F0B8FEC5
:104CD0000123306D0375FDF70FF8DBE7306B0368D8
:104CE000DB699847844206D1306B0368DB699847DB
:104CF000049B8342DCD0306B21000368DB6898475B
:104D0000002824D0306B85686B1C05931F1B0E9BFD
:104D10001B78002B15D03B002100039AFFF7D6FE2D
:104D2000039B059CDB190393049B5D1B049BA3421F
:104D300013D3039B069316E72100039AFFF7C6FEE1
:104D40003DE73B002100039AFFF788FEE8E7049B5C
:104D50005D1C059B2D1B002BE8D06B425D41E8B22A
:104D60004DE730B50F24002585B06C4425700094C4
:104D7000FFF7EBFE05B030BD70B5040082204000A7
:104D800081421AD1117800200D097F2914D8210001
:104D90000831C86F043401680E682900B047060066
:104DA000E06F03688C331B6898474655E06F012419
:104DB0000475FCF7A1FF200070BD2000FFF7D1FFB4
:104DC000FAE730B50F24012585B06C4425700094B6
:104DD000FFF7BBFE05B030BD70B51D000A4B1400D7
:104DE000CE18072E0CD80430C06F03688C331B68B4
:104DF00098472A008119200001F022FE012070BD91
:104E00002B00FFF7DEFFFAE71749FFFFF8B51400A4
:104E1000F72205009200914223D0334A91425FD19C
:104E2000071DF86F0368AC331B6898470600F86FDE
:104E30000368DB6F9847020020003100083001F062
:104E4000B1FD002801D00020F8BDE17BA37B090261
:104E500019432B6849BA2800DB6889B298470120BA
:104E6000F2E7061DF06F0368AC331B689847070034
:104E7000F06F0368DB6F98470200200039000830AC
:104E800001F090FD0028DED16B1DDA7FD7B2002A39
:104E9000FBD10132DA77B023AC6923703B33637105
:104EA000E83BA371DA33E7702771E371F06F0368B1
:104EB000DB6F9847874208DB00232800A373E37366
:104EC00023746374FCF706FCC9E7F06F0368AC3326
:104ED0001B689847C25DE31901371A72FFB2E5E714
:104EE0002200FCF704FCAFE7DE03000070B50D0004
:104EF0008621890043580400002B0DD10200153093
:104F00001432FF3013786658DB43DBB29E4200D286
:104F1000635001328242F5D18621A068226989005E
:104F200082186358013A934216D0002B11D1431CCA
:104F3000852620008022B6001530A3510021FF30C5
:104F4000520001F03DFDA3590020DB4365192B758C
:104F500070BD01336350EBE704204042F8E7F7B53A
:104F60000400009101920E12FF2E32D883191D7D8C
:104F70008527ED43BF00C359EDB2AB4226D0FEF703
:104F8000A9FBE551002D0ED188239B00E35C002B8B
:104F900011D031002000FFF7A9FF002815D1012210
:104FA0000D4BE25407E02000802215302902520008
:104FB000FF3001F045FD6B461B78019AE318FF3383
:104FC0005A7501220020054BE254FEBD002BF2D1A0
:104FD000DAE701204042F8E7220200002102000047
:104FE000F8B500271E4E1F4D1F4C306800280ED00C
:104FF0000300743300229B5E238003681B6898477C
:10500000012804D1306803689B6C984720810137E0
:1050100004360234042FE8D10022144C1100200081
:10502000FFF79DFF237DDB43DBB2181E16D08522E0
:105030009200A2580E4E9A4200D01E02FDF706FCC6
:10504000002364355A5DF2540133102BFAD13074C9
:105050002000FEF73FFBC317181AC00FF8BDC0466B
:105060000801001078000010DC000010C8010010DA
:10507000DC020010C02170B51448C901FDF70CFD19
:105080004023134C6360FFF7ABFF01235840C0B2CD
:105090008001606000240F4B1D6AA54211D10E4CA7
:1050A00003212000FEF750FB00230121A06A237199
:1050B000FDF73BFC70BD210000222800FDF78AF8B7
:1050C00001342B689C42F6D3E9E7C04646820100D2
:1050D000FC000250F80000102C01001010B501294E
:1050E00001D1FFF77DFF10BDF7B50E0017001D00C1
:1050F00000240190AC4201DB0020FEBD3A5D019826
:105100003119FFF72CFF0028F7D10134F2E7E02135
:10511000F0B5C90189B07848FDF7BEFC7748784EF4
:10512000FCF736FF774B7849186800F0F1FBF46C18
:10513000013820220221E0602000FDF7B3FB162396
:105140002362626F123B1343032102222000636734
:10515000FDF7A8FB552300256362FBF75EFD736D29
:105160009F88C021694BAA00D458C9012000FDF7CF
:1051700093FC1F2222406406654BA40FA400E15853
:1051800004239340002201355A50082DE9D1614B88
:1051900064360193604B049602920393049B39009A
:1051A00000269E5F049B08229B5E0593039BD86F9D
:1051B00003685B689847051E14D0012800D17EE083
:1051C0000023019A1360029B483701330293049B2A
:1051D00002330493019B04330193029B042BDDD122
:1051E00009B0F0BDB02001F017FB040033003A0015
:1051F0000299FEF7DFFB494B059A236023009433A5
:105200005A8201221D60524214331A609A80039B15
:10521000B91DD86F3D00036818359B689847390061
:10522000039B6086D86F083103689B68984723000A
:1052300088331860E31B0693374E85330793F06F6E
:10524000290003685B689847079B58553B00013568
:1052500020339D42F3D13900F06F3D3103683D00AA
:105260005B68984723008C3318602D4B2A4E2C35F1
:105270000793F06F290003685B689847069B6D33BE
:1052800058553B00013530339D42F2D13900F06F63
:10529000443103685B689847230098331870373BA4
:1052A000197807980023059A806B0831FCF7C7F836
:1052B000019B1C601B4B08341B6AE36783E7882053
:1052C00001F0AAFA0400330002993A00FEF772FBDB
:1052D0003900154B41312360039BD86F03685B682D
:1052E00098474006E4D5039BB91DD86F03689B68B7
:1052F00098476086DCE7C0466242350EC400001065
:105300007800001024000010A0860100CC6B000083
:10531000B86B00000801001030010010E46C0000C0
:105320002C010010F8000010946C000010B5FEF77E
:1053300011FD0B4A002809D113006433188018812D
:105340005880588198809881D880D881536D832166
:10535000DA7A04482823FBF79BFEFFF7D8FE10BD3E
:10536000780000102C01001010B501F05FFA10BD9C
:1053700080B500AF014B1800BD4680BD0000001095
:10538000F0B50025F14AF24B1571F24A0121DA64B9
:105390001A0078321171F04A8BB09A670222EF4BF3
:1053A0001C201A71EE4A1A6003221A73ED4A9A60A1
:1053B00001F032FAEC4AED4B426002008360029049
:1053C000EB4BEC481360D060EB4C01F025FA030086
:1053D000E84A82181D7001339A42FBD1029B029A5F
:1053E0009D8218610323936193682020033B93609F
:1053F000D3685834033BD360E04B136001F00CFAE0
:10540000FC239B014360DE4B06008360C02000014B
:10541000F060346001F000FAC0221201811803002C
:1054200000221A7001339942FBD180235B01306165
:105430003275B2613000F361FCF766FDF268011E5F
:10544000306900D1E9E101F0FBFA0027CD4B1820CB
:1054500033603775B76101F0DFF9CB4BCB4C83601C
:1054600001235B42C360CA4B039003604460076141
:1054700047610820C74D01F0CFF9703505600490F1
:105480004460D02001F0C8F90300C34D083329005F
:105490003022019044601800059301F0D1FA2900F0
:1054A000019B1422383318003031069301F0C8FAFA
:1054B0002900019B18224C3318004431079301F056
:1054C000BFFA2900019B2022643318005C31089345
:1054D00001F0B6FA2900019B1822843318007C31B0
:1054E000099301F0ADFA019D18229C35AB492800C3
:1054F00001F0A6FA019B059AB4331A60019B069A43
:10550000B8331A60019B079ABC331A60019B089A52
:10551000C0331A60019B099AC4331A60019B019938
:10552000C8331D609E4B17201A0034320A600A00EF
:105530007C33CC3223609B4B1460A3606760E760D0
:10554000276101F069F90200030017321F7001336F
:105550009A42FBD1A061172001F05EF9020003001E
:1055600000211732197001339342FBD1E0611720FB
:1055700001F052F902000300002517321D700133BB
:105580009342FBD1814C884B20626020236001F064
:1055900043F9864B8460C360854B05830361854B6B
:1055A00007004361172001F037F9010003000022D2
:1055B00017311A7001338B42FBD103217B7E386493
:1055C00002330B40B868BB76FA767B4B7A69396256
:1055D0005A600368B9625B6B9847040001F01CF9DC
:1055E00000220300013C002C00DB19E1674B38600E
:1055F000180000254830714A05806F48DA62026061
:105600001A005C3215702322514C1A66A26C029962
:105610005A66039A9F629A63902212015A67BC22CB
:105620001963676704998027596319009A67029A7A
:105630007F00DA671A1D1E65DD63DD645D659D65AB
:105640009D66DF661D67D667019A0831CA675C4AA6
:1056500045491A601A008C3211601A0090321560A8
:10566000C1211A00890094321160032298331A6014
:10567000544B554E0293554BEE2133600123336159
:10568000ED33B3602B33FF33F550043BF5500C334F
:10569000F5524F4B3A00F5544E4B09021800019356
:1056A00025667160F76001F0CBF92A003B00019993
:1056B000895C002903D1002D00D0CBE001350132F7
:1056C0009A42F4D1337DFF2B0DD100213000FFF73A
:1056D0000DFC00280AD101253F4B3000F554FDF7A1
:1056E000F9FF3B4BF5543000FDF7F4FFFFF740FEA8
:1056F00000271A4E30632420776201F08DF80823CA
:105700000360364B05004360FA235B008360F43B83
:10571000FF3B0361093343618361029BC7605C33D4
:10572000C761036201932B689F4200D27CE06868E6
:105730001021FDF7B1F93000A9682C30FBF79CF976
:10574000274A0023626007224CE0C046C4000010D4
:105750007800001000C0004000000140F800001078
:105760000040014000800140FC05000002090000EB
:10577000646D000007030000386D000060700000D9
:10578000FF4A00008C700000E11000002C010010A6
:10579000086E0000B86D0000386E0000CC6E00008E
:1057A000B86E0000FFFF0000686F0000F0000010FE
:1057B00028C20100298269001400001040825C00A8
:1057C000A86F0000B86F0000C8010010047000004E
:1057D00022020000DC0100102102000043826D0063
:1057E0002B833800A260204AF362E2601F4A2362E2
:1057F00022611F4AA36262611422A2611D4A3562BE
:10580000E2611D4AE2621D4A22636363A363E363AC
:105810002364FF3363640BB0F0BD01F0D1F814E6EC
:105820001A70013C0133DEE6C021019BC9011868F2
:10583000FDF732F91F21019A013708CA19405B06AA
:1058400001929B0F0E4A9B009A5804238B40002123
:10585000995068E701220B4BFF21F2540198FF3267
:1058600001F0AEF82EE7C04610270000204E0000E1
:1058700008520000DC0500006F070000CC070000A4
:10588000B86B0000220200008E2120201A4B8900F4
:105890005A5882435A50002271391A62FF39C04661
:1058A00001390029FBD101221A645A6459645A64EF
:1058B000596C1142FCD023228E2180209A608900ED
:1058C0005A5882435A500122D9681142FCD0032110
:1058D000196700215A6759675A670122596F1142A7
:1058E000FCD09A670549064BD967064B1A60064BF0
:1058F0001A60064B1A607047008004405F00010088
:105900000480044094800440988004409C800440BB
:10591000002243088B4274D303098B425FD3030AEE
:105920008B4244D3030B8B4228D3030C8B420DD301
:10593000FF22090212BA030C8B4202D3121209028F
:1059400065D0030B8B4219D300E0090AC30B8B42CD
:1059500001D3CB03C01A5241830B8B4201D38B037B
:10596000C01A5241430B8B4201D34B03C01A524120
:10597000030B8B4201D30B03C01A5241C30A8B4263
:1059800001D3CB02C01A5241830A8B4201D38B024E
:10599000C01A5241430A8B4201D34B02C01A5241F2
:1059A000030A8B4201D30B02C01A5241CDD2C30964
:1059B0008B4201D3CB01C01A524183098B4201D3E0
:1059C0008B01C01A524143098B4201D34B01C01ACB
:1059D000524103098B4201D30B01C01A5241C30843
:1059E0008B4201D3CB00C01A524183088B4201D3B2
:1059F0008B00C01A524143088B4201D34B00C01A9E
:105A00005241411A00D20146524110467047FFE709
:105A100001B5002000F0F0F802BDC0460029F7D023
:105A200076E7704703460B437FD4002243088B423E
:105A300074D303098B425FD3030A8B4244D3030B15
:105A40008B4228D3030C8B420DD3FF22090212BADA
:105A5000030C8B4202D31212090265D0030B8B4256
:105A600019D300E0090AC30B8B4201D3CB03C01A40
:105A70005241830B8B4201D38B03C01A5241430B1B
:105A80008B4201D34B03C01A5241030B8B4201D30B
:105A90000B03C01A5241C30A8B4201D3CB02C01A76
:105AA0005241830A8B4201D38B02C01A5241430AEE
:105AB0008B4201D34B02C01A5241030A8B4201D3DD
:105AC0000B02C01A5241CDD2C3098B4201D3CB0184
:105AD000C01A524183098B4201D38B01C01A524133
