:1030000000200010DF300000D7300000C132000087
:103010000000000000000000000000001FAFFFEFF4
:10302000000000000000000000000000D930000097
:103030000000000000000000DB300000DD30000078
:10304000D5300000D5300000D5300000D53000006C
:10305000D5300000D5300000D5300000D53000005C
:10306000D5300000D5300000D5300000D53000004C
:10307000D5300000D5300000D5300000D53000003C
:10308000D5300000D5300000D5300000D53000002C
:10309000D5300000D5300000000000000000000026
:1030A000D5300000D5300000D53000000000000011
:1030B000D5300000D5300000D5300000D5300000FC
:1030C00018660000C000001018000000D8000010B2
:1030D0001C000000FEE7FEE7FEE7FEE7FEE7F8B5AE
:1030E0001349144B8B4209D3002013498B4213D34D
:1030F00000F0E0F900F002FB00F004F900221D6886
:103100005F689868BE18AC18904201D80C33E9E7A4
:10311000246804323460F5E700221E685C68B51844
:10312000944201D80833E1E728600432F7E7C0464B
:10313000CC300000C0300000D430000010B5064B89
:10314000002A01D1984710BDBFF34F8FBFF36F8F97
:1031500072B6984762B6F6E7F11FFF1FC02210B59E
:103160000B4B0C4C0C4963600B6A12061B021B0ACA
:1031700013430B620023A3600733236000F090F831
:103180000121064A0800A3689B0D98435060F9E7A7
:10319000FFFFFF0010E000E000ED00E00000025043
:1031A000F7B543069B0F0193354BC0279C466246FB
:1031B000019B80249B009D5801231F221E0002407A
:1031C0009640FF01B6B22402B94206D129593143D3
:1031D0002951010A1940C90121E02F59B7432F5144
:1031E0008024A401A14231D12649884203D1264B33
:1031F0000021196004E02549884204D122490B606E
:103200000021022315E02249884201D1214BEFE73A
:10321000214988420AD0010A19400723C9011F2405
:10322000451225409D421CD1002302E019490B6044
:1032300000210C20019C0B43604382185200624421
:10324000128A1648121892001360F7BDC024A40118
:10325000A142BED102230021E1E70123E9E70323D4
:10326000E7E785132540AB42F7D0C5142540AB42B4
:10327000C7D0001620408342F1D0FFF76FFFC04651
:103280002038000002C23A00C040044063823D0082
:1032900025423C00D040044049C20100001001100A
:1032A000C02110B50448C901FFF77AFF8021034807
:1032B0004901FFF775FF10BD40825C00298269005B
:1032C000C02210B50B4B0C4C0C4963600B6A120604
:1032D0001B021B0A13430B620023A3600733236006
:1032E000FFF7DEFF0121064A0800A3685B0D984343
:1032F0005060F9E7FFFFFF0010E000E000ED00E0A4
:1033000000000250C021F0B5594C5A48A544C901EB
:10331000FFF746FF584B594C00221B1B013BDD17A2
:103320002D052D0DED183223554F2D137A6011A95F
:103330000D920CA801320C930E95FFF7FFFE119B26
:10334000DBB21193002B1BD1FA2134220D934D4B8C
:10335000890018680C920E9500F0F0F801220F9089
:1033600011A90CA8FFF7EAFE119B002B08D135220A
:1033700011A90C920CA8343A0D930E95FFF7DEFEBE
:10338000802676013C4DAC4207D3BFF34F8F3E4BB6
:103390003E4ADA60BFF34F8FFEE78022FF215201E1
:1033A0000CA800F057F92A1BB24200D932002100C4
:1033B0000CA800F0C7F9314BE51A9C420ED100234E
:1033C0001A0091008C46282102A8401861464158F5
:1033D00001325B18072AF4D15B421393BFF34F8F7E
:1033E000BFF36F8F72B632230293EB171B051B0DD1
:1033F0005B191B130393264B07A9EA18D3171B0568
:103400001B0D9B181B13002202A80493FFF796FEC6
:10341000079BDBB201930793002B08D062B67B6851
:103420005A4253417B6080235B01E418AAE73323AF
:10343000FA2102930CAB0493124B89001868039590
:10344000059600F07BF8019A069007A902A8FFF7FD
:1034500075FE079A002AE1D1382307A9029302A832
:103460000CAB039504930596FFF768FED6E7C046BC
:10347000CCEFFFFF40825C00F46500009038000054
:1034800000000250D400001000ED00E00400FA0536
:10349000FF0F000080B500AF014B1800BD4680BD96
:1034A000C000001010B5FFF7F5FF014B186010BD0C
:1034B000D80000108E2120201A4B89005A588243D0
:1034C0005A50002271391A62FF39C0460139002969
:1034D000FBD101221A645A6459645A64596C11422E
:1034E000FCD023228E2180209A6089005A58824382
:1034F0005A500122D9681142FCD0032119670021DA
:103500005A6759675A670122596F1142FCD09A676E
:103510000549064BD967064B1A60064B1A60064BE5
:103520001A607047008004405F000100048004407E
:1035300094800440988004409C800440002243080A
:103540008B4274D303098B425FD3030A8B4244D36B
:10355000030B8B4228D3030C8B420DD3FF220902AD
:1035600012BA030C8B4202D31212090265D0030B6C
:103570008B4219D300E0090AC30B8B4201D3CB0362
:10358000C01A5241830B8B4201D38B03C01A5241A4
:10359000430B8B4201D34B03C01A5241030B8B42A6
:1035A00001D30B03C01A5241C30A8B4201D3CB0291
:1035B000C01A5241830A8B4201D38B02C01A524176
:1035C000430A8B4201D34B02C01A5241030A8B4279
:1035D00001D30B02C01A5241CDD2C3098B4201D391
:1035E000CB01C01A524183098B4201D38B01C01A0F
:1035F000524143098B4201D34B01C01A5241030986
:103600008B4201D30B01C01A5241C3088B4201D334
:10361000CB00C01A524183088B4201D38B00C01AE1
:10362000524143088B4201D34B00C01A5241411A08
:1036300000D20146524110467047FFE701B5002015
:1036400000F006F802BDC0460029F7D076E77047C3
:103650007047C046F0B50500830749D0541E002AC4
:1036600045D003000326CAB202E00135013C3ED337
:1036700001332A703342F8D1032C30D9FF220A409B
:103680001502AD182A04AD180F2C34D92700103FAD
:103690003F093E01B4461E001A001036664415600C
:1036A00055609560D56010329642F8D101373F01E0
:1036B000DB190F270C22274022403C00002A0ED0A5
:1036C0003E1FB608B400A4461A001C1D644420C264
:1036D000A242FCD103240136B6009B193C40002CC9
:1036E00005D0C9B21C19197001339C42FBD1F0BD41
:1036F00003001400C0E72700E2E7C04670B50D4B99
:103700000D4D5E1BB610AB4205D0002408CD013430
:103710009847A642FAD802F06FFF084B084D5E1B8F
:10372000B610AB4205D0002408CD01349847A6421C
:10373000FAD870BD04660000046600000C66000044
:1037400004660000F0B505000F2A33D903240300F6
:1037500026000B431E401C4237D11500103D2D0999
:1037600003000C00AC462F013F1865685D60A5683A
:103770009D60E568DD60256810341D601D00103314
:10378000BD42F2D165460F230C2401352D014919A4
:103790001340451914421AD08C59AC5104369C1B65
:1037A000032CF9D8043B9B0801339B00ED18C91882
:1037B00003231A40561E002A06D00023CC5C1A00B0
:1037C000EC5401339642F9D1F0BD561EF5E71A00CC
:1037D000F0E7C04606480749091A8B10C90FC918F7
:1037E00010B5491003D0044B002B00D0984710BDF2
:1037F000D8000010D800001000000000054B10B5E4
:10380000002B03D00449054800E000BFFFF7E2FFAA
:1038100010BDC04600000000DC000010186600006B
:103820000000005000000150000002500000035052
:103830000300040007000B000C000D00130014002F
:10384000180019001A001D001E001F00200024008F
:103850002500280029002A0005000E001B00260074
:1038600002000A00170023001000110000000800E9
:103870000900150016001C002100220027002B0063
:103880000F00120000000000000000000000000017
:1038900000200010DD000000D700000045160000E9
:1038A00000000000000000000000000021DFFFEF2A
:1038B000000000000000000000000000D90000002F
:1038C0000000000000000000DB00000025080000F0
:1038D000D5000000D5000000D5000000D500000094
:1038E000D5000000D5000000D5000000D500000084
:1038F000D5000000D5000000D5000000D500000074
:10390000D5000000D5000000D5000000D500000063
:10391000D500000035160000D5000000D5000000DD
:10392000D5000000D50000000000000000000000ED
:10393000D5000000D5000000D50000000000000008
:10394000D5000000D5000000D5000000D500000023
:10395000F02C000000010010740000007401001041
:10396000D8080000FEE7FEE7FEE7FEE7F7B5564B96
:1039700056498B4252D3002055498B425CD302F00A
:1039800035FA02F023FBFA21524B8900186802F045
:1039900071FA00F0F7FC802300265B0519684E4A97
:1039A0004E4D1E60914252D140234D4C5B42A38547
:1039B0004C4B01214C481D6065644C4D00F0D8F81B
:1039C0002E2301272000A26C1830117D0B431375A4
:1039D000A36C5F7502F069F826001836300001F01C
:1039E000FDFA300000F097F80028F5D02E000836D8
:1039F000300000F0ADF8002809D0637FFA21002BD9
:103A00005FD0300000F0B4F82B7B7B402B7380221A
:103A10002B7B3749DB0292018B50DDE700221D68CA
:103A20005F689868BE18AC18904201D80C33A0E7C4
:103A3000246804323460F5E700221E685C68B5181B
:103A4000944201D8083398E728600432F7E7280049
:103A5000284900F0D3FC8023254F9B01FB58002B05
:103A6000A2D000F06FF8040000F09CFB00289BD06F
:103A7000C0212800C901246800F0C0FC80239B01FC
:103A8000FA21FE5001A800F073F801A800F060F8D8
:103A9000002814D00022184BF0201A608023000662
:103AA00021686268241815485B051E5940C383428B
:103AB000FBD10120124B18608D46104774E730BFD0
:103AC000E3E789009DE7C046C0000000CC0000008D
:103AD000D40000001C01001055B01F5E4B823B005B
:103AE0007401001000010010FC010010F40100102E
:103AF000000002501010000010E000E0C0000010B4
:103B000000800440818270470069013070470020C6
:103B100070470120704700797047002070470120EE
:103B200070477047054B0648FF22C0180300FF335B
:103B300093431A1AFE2A00D81800704700000000AC
:103B4000642E000010B5FFF7EDFF0138FF3810BDFF
:103B5000030001680020814206D0044A1268521A0C
:103B6000824201DB186001307047C04674010010CA
:103B7000034B1B68C918002900D10131016070474F
:103B800074010010F8B5C6B205001400002E1AD159
:103B900000291AD001394718002A0BD0FFF7D2FFAD
:103BA0003400854204D3FFF7BDFF8742A44164423D
:103BB0002000F8BDFFF7B6FF8542F9D3044BBB42A6
:103BC0006441E4B2F4E70024F2E70C00F0E7C046F9
:103BD000FFFF00004278037812021A438378C0780E
:103BE0001B0413430006184370470222044B623043
:103BF0005B689A71FC325871DA7119727047C0466D
:103C00007401001010B50400DC210120FFF7EDFF66
:103C1000014B5B685C7210BD740100100022024B06
:103C20001A815A819A81704774010010E02310B5FF
:103C30009B0099420DD10300012248331A70437949
:103C4000FA215A1E93410200493213704C30FFF79B
:103C50008FFF002010BD172070470022836A5A6032
:103C60007047C36A002B09D102005F3213785A30C3
:103C700001331370402302881343038070470023ED
:103C8000421D4371D377821DD377C21DD3770122A2
:103C90005242028102320271024AC380C360D38160
:103CA00013827047740100100222431D10B5DA77A9
:103CB0000F2381694A791A40036807325B6A984783
:103CC00010BD802310B55B00994212D1431DDA7FED
:103CD000D1B2002AFBD10132DA778369B024D970DE
:103CE0001971E1219A713F321C705971DA71FFF735
:103CF000DBFF012010BD70B50500C36B04005A3511
:103D0000002B13D00022C26380682B88411DCA7724
:103D1000826992797F2A09D91B060ED50B23C356D7
:103D2000022B0ADC0133C372FFF7BEFF0023E361FD
:103D30006362A3632B80E36570BD0023C372F5E764
:103D4000F8B50C00411DCD7F002DFCD1402601357A
:103D5000CD77170A8569D2B2344203D09900214346
:103D60000E43F4B2B0232B70503BEF702A716B718D
:103D7000AC71FFF799FFF8BD0A4A10B5D38904006A
:103D80000133D3814379002B01D00023437181217A
:103D90002000E2880023FFF7D3FF236820009B6AFE
:103DA000984710BD740100100023821D0730D3779F
:103DB000C3777047426803000020914203D39B6899
:103DC0008B424041C0B27047030010B500209142C1
:103DD00006D85C68A14203D39B6893424041C0B2BD
:103DE00010BD43680069C91A401870474268030053
:103DF000891AC2680020013A8A4201D31B69585CC3
:103E00007047426810B5891AC2684C1C013A030019
:103E10000020944204D81A69535C105D1B021843B9
:103E200010BD10B5064B002A01D1984710BDBFF355
:103E30004F8FBFF36F8F72B6984762B6F6E7C046F2
:103E4000F11FFF1F70B5FF261F4B0500DA17324028
:103E5000D2180C0052208AB01212954231D91B4957
:103E6000CB1733405B181B129D422AD8944228D9A5
:103E70009C4226D8322300932B0901930122230967
:103E8000684605A90293FFF7CCFF059B33400593D5
:103E90000FD1FA213B3300930D4B8900186801952F
:103EA000029401F0E7FF0122039005A96846FFF79D
:103EB000B8FF059B7320DBB20B2B02D80C30C01A65
:103EC000C0B20AB070BDC046632D0000FFFF000005
:103ED0001C010010F0B504000D008BB0002A07D0C3
:103EE000091A00220131FFF74DFE5123002811D09D
:103EF000EF17FF203E00E31706401840761900191F
:103F000036120012321A01320F2A06D83100FFF79A
:103F100099FF030018000BB0F0BD22056AD01B0505
:103F20001B0D1B191B1301331C0321120139FFF751
:103F300089FF03007F28EDD13F053F0DE217ED1902
:103F40002D131205120D2803A418000A2413321A87
:103F50000F2A06D03100FFF775FF03007F28D9D163
:103F6000013DA542D6D3244BDA171205120DD21803
:103F700012135C239442CDD92049CA171205120DA1
:103F8000521812139442C5D89542C3D82A3B012235
:103F9000684605A9009301940295FFF742FF059B2F
:103FA000DBB20593002B1BD1FA2134330093144B61
:103FB000890018680194029501F05CFF01220390CA
:103FC00005A96846FFF72DFF059B002B08D1353367
:103FD0000122684605A9009301940295FFF721FF8D
:103FE000059A7323D2B20B2A00D993E70C339B1A9C
:103FF000DBB28FE751239FE7632D0000FFFF000036
:104000001C010010F0B515000E001A0029008BB03D
:104010000400FFF7B7FD03005D20002B27D0BFF39E
:104020004F8FBFF36F8F72B632230093E3171B05D8
:104030001B0DE3186A1EA2181B130193D3171B054F
:104040001B0D9B181B130022684605A90293FFF75E
:10405000E8FE059FFFB20597002F0AD062B6059BC8
:104060007320DBB20B2B02D80C30C01AC0B20BB0DD
:10407000F0BD3323FA2100930D4B89001868019499
:104080000296039501F0F6FE3A00049005A96846F1
:10409000FFF7C7FE059A002AE0D13823684605A934
:1040A0000093019402960395FFF7BBFED6E7C04646
:1040B0001C010010024A1368013313607047C046A8
:1040C00074010010FE220A4BD203197849060AD562
:1040D000987800041040DA781B791B0213435BBA0E
:1040E0009BB21843704758785B8800041040F6E78D
:1040F00004020010064B1878420606D5FC225B78B5
:10410000000292011040184370473F231840FBE71C
:1041100004020010F7B5431801930123194E1A4FFA
:104120005B42019A904201D1D843FEBD0278174DFF
:1041300053401C06164AE4171440D907154AC917FC
:1041400011409A07D21732404A40190A4A4059078B
:10415000C91739404A401907C91729404A400E4D2E
:10416000D906C917294051400C4D9A06D2172A404A
:104170004A405B060A49DB170B405340634001305D
:10418000CFE7C0462C610EEE19C46D073288DB0EF6
:104190002083B8ED963007776410B71DC8206E3BBA
:1041A0009041DC7670B504000568FFF7BBFC002386
:1041B000854210D3094A95420DD8616891420AD8C8
:1041C0008D4208D2491B28000131FFF7A3FFA368E5
:1041D0001B1A5A425341180070BDC046FFFF000031
:1041E0000323594310B589B20624802A00D1043C28
:1041F00007228A408C40836A93432343836210BD25
:1042000030B5032407254C43A540A240436949002B
:10421000AB43134330228A404361C36B9343C36370
:1042200030BD70B5836A9868808A040A4C708870C3
:10423000FF24002085B2AA421BD88C54D963BFF357
:104240004F8FBFF36F8F72B6DA7E012A0FD106212E
:10425000D976D9680868022141604260997E0300DE
:104260008C0018331B191A600232FFF7C9FF62B6BF
:1042700070BD0D5C01306C40DCE7020070B50400DD
:104280005E32BFF34F8FBFF36F8F72B6E37E012BA9
:1042900009D0062B1ED1E36B002B04D01378002B22
:1042A00018D1002916D1E368217E1D6880222800DC
:1042B000FFF796FFA67E280031000222FFF7A0FF3D
:1042C000B600064B1835AD192B600023E37662B6B5
:1042D00030BF70BD62B630BFD3E7C046FEFF0000FE
:1042E00010B504000121806A4834FFF7C6FF237827
:1042F000032B08D1BFF34F8FBFF36F8F72B68023AC
:10430000054A5B051A60BFF34F8F044B044ADA601D
:10431000BFF34F8FFEE7C04655B01F5E00ED00E0D3
:104320000400FA0570B50500C368017E1C6881228F
:104330002000FFF755FFAE7E200031000122FFF77D
:104340005FFF02236360013B6360B600064B1834D5
:10435000A61933606B7E9B00E418044B2360002396
:10436000EB76EB6270BDC04617110000FFFF000046
:1043700010B5BFF34F8FBFF36F8F72B6FFF7D2FF49
:1043800062B610BD802301385B0498420DD2C02173
:10439000064A090650600648036A1B021B0A0B43C3
:1043A00003620023936007331360704710E000E05E
:1043B00000ED00E0802070B54004FFF7E3FF00F05F
:1043C000B3F81F2101220A4B80241B68094D1940B4
:1043D0008A405B0608499B0F9B005958E4039000F4
:1043E000AB6823405E4273415B4213404350F7E7A2
:1043F0000001001010E000E0042B0000F7B54306B8
:104400009B0F0093404BC0279C466246009BFF01D8
:104410009B009D581F230340019301231E00019C14
:10442000F022A640802412020A400905090DB6B206
:104430002402BA4210D12B5933432B51C30507D460
:1044400001231F2244121440A3424FD1002331E024
:10445000012380221143F4E7E027FF01BA4206D18D
:104460002B5933432B51C30538D40623E9E72F5981
:10447000B7432F518024A401A24229D1234A90425C
:1044800003D1234B00221A6004E0224A904203D158
:104490001F4A136002230DE01F4A904201D11F4BB7
:1044A000F0E71F4A904203D0C30519D40723C8E799
:1044B0001A4A13600C2200980B43424301981218C9
:1044C00052006244128A1748121892001360F7BD16
:1044D000C0240223A401A242B0D1B2E70623B8E768
:1044E0000723B6E70123E5E70323E3E7841314403A
:1044F000A342F7D0C41414409C42CBD00016104005
:104500008342F1D0FFF756FF042B000002C23A00AD
:10451000C040044063823D0025423C00D04004403E
:1045200049C2010000100110C02110B5054CC9019D
:104530002068FFF763FF802160684901FFF75EFF95
:1045400010BDC046000100101021F0B5037EC26806
:1045500099400D0012680400106885B00540009570
:10456000014226D09800130015002C331B18186840
:10457000A37E18359B00EB181E68637E9B00ED1828
:104580002B68834215D92369B94D5F06BF0FBF0061
:104590007F591F252B401B3D9D40EB59002B02D01E
:1045A000116005B0F0BD9368984217D81B1A032B11
:1045B000F3D9E07E0D2801D900F078FC01F0E6FC8B
:1045C00011003400370041008E012B025502F00229
:1045D0002E034603F00312044604550401339B19CD
:1045E000E4E7E368A17E1D6801238B402A681A4234
:1045F00006D10523AB60FF22E3681B681A60D0E791
:104600002B008A0018339B18A62252011A6028003A
:104610000322FFF7F5FD0623217EE3760A338B4064
:104620002A681A42C5D1E6E7009B002BE3D022009E
:104630000023583223631380FF22E3620133626553
:104640002365E368A17E1D688B002E001836F618DE
:10465000884B3768032233602800FFF7D1FD009BA9
:10466000002B00D01CE1636D256B002B35D1236D31
:10467000002B39D10023E3620633E37622002100C8
:10468000256B5C32583110780B88012D38D1002809
:1046900000D1F7E00020107010229343E26C0B80F1
:1046A000824202D0636BCC2B13D0E169236A99421A
:1046B00009DA616AA36A994200DABAE0002A02D0F4
:1046C000636BCC2B05D0220080235A3211880B4318
:1046D00013802000FFF70FFB18E022001023583250
:1046E00011880B431380C5E7009BE3620623E37642
:1046F000072DC3DD2C22236C1B789343902B1FD0F6
:1047000022008023583211880B4313805A4E220016
:104710005C321378002B05D0230001215E33197021
:1047200000231370E36881221D68217E2800FFF7B3
:1047300057FDA27E18359200013EA81806605AE780
:10474000A06803685B6B9847A84297DB236C1979D4
:10475000DA78090211435B7949BAA26889B27F2BE2
:1047600014D94D424D41506B009BEDB2002804D04E
:1047700003681B689847C343DB0F1D43A3681B6B8B
:104780001B7D5B0706D5002DC0D003E0938A009DFA
:104790009942F3D12022206C037813420ED0636833
:1047A000002B30D1CC22E262226B216C934233DBAE
:1047B00023006260002258331A8015E021680D78CA
:1047C0006B409343EBD1226B013A0133934204DAFD
:1047D000C65CCD5CAE42F8D0E1E79342DFD16368BE
:1047E000002B10D1CC33E362A36840211B6B1A7DF0
:1047F000012352089343226C12780A40134310D0CD
:104800000023E36282E700232200E362583211882A
:1048100040330B431380E7E7C95C2268D15401336E
:10482000C2E7E36A002B00D170E70523134EE3765D
:104830006DE72300200021005A335D305E31002AED
:104840000DD0626BC02A01D0002A08D110221D8829
:104850000B4E2A431A80012303700B7057E7042282
:104860001D882A431A800023037001330B704DE723
:10487000042B0000FEFF0000F0130000B305000051
:10488000A13C0000626BCC2A06D00C2A04D0C02ABE
:1048900002D0002A00D033E7902293430B8035E703
:1048A0002B00217E2C3388001B18AA681B689342BA
:1048B00011D8D31A0233AB60CF4B8122336028006A
:1048C000FFF78EFC0423E37600236363A3640133C4
:1048D0006364E3648FE60132D219EAE70120E368FA
:1048E000A27E1B6890401D6829000140054259D0F6
:1048F000183392009B181B680133A26C10004430DF
:1049000098426EDA80266832A2647600A26C606CEF
:104910001700443745009F4255DAB04248DD6564D0
:1049200000296CD0636B256BDAB26263002D08D16D
:104930009B0706D022008023583211885B000B436E
:104940001380A06803685B6B9847854250DA236B3D
:10495000226C616B581C2063D154636D626B5340B1
:104960006365E36C002B05D12100082258310888CB
:1049700002430A80226DA17E134023650323E37660
:10498000E3688A001D682B0018339B18ED2228006D
:104990001A60EC3AFFF734FC81222800217EFFF7F1
:1049A0001FFC28E6227E2C3392009B181B68A4E78C
:1049B000676B683238436063E06CA26447427841B9
:1049C0006564E064A2E721329A42A8DA80225200AC
:1049D0009042A4DC200058300688FC3A3243028022
:1049E0009DE720000422583005882A43028097E77B
:1049F00022002023583211880B431380B1E7822212
:104A0000D200934200DCF6E52200012358321188DF
:104A10000B431380EFE5009B002B04D00023E362DF
:104A20000223E376C5E5009B6821A363E3681D6864
:104A3000637E2A009B001832D3181960A17E2800DB
:104A40008B00D3188A221A60873AFFF7D9FB81229C
:104A50002800217EFFF7C4FB009B009A23632300FC
:104A60005A331A800723E376C5E5009B002BD7D184
:104A700026005E363378002B07D0E269236A9A421B
:104A800008DA626AA36A9A4204DA23005F331B7869
:104A9000032B08D9220080235A32118820000B43AF
:104AA0001380FFF728F9E16B002960D00F224B79C2
:104AB00013400833A3633378002B0BD020230A78EC
:104AC0001A4207D09A430A70A26BE16B013A885CE4
:104AD00043408B54E36B216A1D7824231D40243D01
:104AE0006B1E9D41454B6D421D40A2353378FF350D
:104AF000002917DC002B35D1E3681868637E0200BB
:104B00009B001832D3181D60A17E22358B00D3186C
:104B10001D600322FFF774FB220000235A32236337
:104B200013809FE7A26A002B1ED0D3179B1ADB0FBE
:104B3000E26901329142DFDD626AA16A01328A4292
:104B4000DADA002BD8D023005F331B78032BD3D0C5
:104B500083203A212A4BFF311B68584301F010FA99
:104B60004D19C9E70023E3E7002AECDCC4E7E3685A
:104B700081221D68217E2800FFF732FBA67E2800D7
:104B800031000222FFF73CFB18351E4BB600AE1970
:104B90003360637E9B00ED181B4B2B60012362E7A3
:104BA000E368A17E186801238B4002681A422DD168
:104BB0000300227E2C3392009B180200657E18327F
:104BC000AD0055191B682E6837001E3F9F4208D95B
:104BD000236B002B02D02000FFF743F80A4B2B6019
:104BE0001EE79E4206D980688900013022335218A0
:104BF00028601360082336E777040000C7FEFFFF34
:104C000074010010FEFF0000FFFF000008232200D7
:104C1000E3765A32118818330B431380E36A002B72
:104C200004D1236BE26B591C2163D35C8021636345
:104C300001234900626B134201D04A4062635B006A
:104C4000FF2BF7DD012363640833E3760126E36875
:104C5000A17E1D6833002A688B4010001840019027
:104C60001A4278D12B00227E2C3392009B181F68A9
:104C7000022F00D8BFE46821380001F081F93D29F6
:104C800006D82000FEF7EDFF2000FFF74BFBB2E453
:104C9000637E18359B00ED182B68073BBB4200D89C
:104CA000A9E42000FEF7DDFF2300019A58331A80A3
:104CB000FF236365E36A2665E664002B31D0E26278
:104CC000A37E68210193E3681B681E000393019B88
:104CD00018369D00751928680238C01B01F0CAF803
:104CE000636C3A0001300341683AA264626B591E5A
:104CF0000A400A216364029262635B10002B1FD199
:104D0000683359437B1ECB1803222B60019903980B
:104D1000FFF776FA637E664A9B00F3181A60042355
:104D20007FE6226B013A2263226B9A42C8DDE26B76
:104D3000D15C226CD154626D01334A406265F3E765
:104D4000029A0139134204D0E06C020050425041F3
:104D5000E0645B10D2E78023626C9B009A421FDC08
:104D60008026993B676BFF3B7600626C5000606465
:104D70003A4201D0B2420EDD8026627E18359200A2
:104D8000AA18B600B04208DD494889001060013B0E
:104D90006D182B602FE46833E7E718002338F4E739
:104DA000E368226B1868A36B050018359A4211DA84
:104DB000E36A002B0ED18B220733E376637E520029
:104DC0009B00EB181A603A23FF33A27E013B92004E
:104DD000AD18DEE70B238022E376217EFFF700FA91
:104DE0004523F2E7E3681D68E36A002B11D0002336
:104DF000E3620633E37681222800217EFFF7F0F993
:104E00002C4BA27E18359200013BA8180360FFF7D7
:104E1000F2FB230001225C331A700C232800E37696
:104E2000A17EFFF7EDF923005E331B78002B07D03E
:104E300023005D331B78002B04D0636A0133636267
:104E40001D4BDEE7E3690133E361F9E70D23E37608
:104E5000E36881221D68217E2800FFF7C1F9A37E47
:104E600018359B00ED18154B93E7009B002B00D0E5
:104E7000D6E5230001225E331A70009A023B1A70B5
:104E8000220008235A3211880B4313800623E3764D
:104E9000E368A17E18688A00030018339B18084A4B
:104EA0001A600322FFF7ACF9FFF7A5FBFFF782FAC0
:104EB000FFFF0000F0130000B20500009C06000098
:104EC000EF13000010B5024B5869FFF73DFB10BD12
:104ED00074010010802070B54004FFF753FAFFF70B
:104EE00023FB1F2101220A4B80241B68094D194016
:104EF0008A405B0608499B0F9B005958A403900009
:104F0000AB6823405E4273415B4213404350F7E776
:104F10000001001010E000E0042B000010B50400B8
:104F2000431DDA7F002AFCD10132DA770F23E169D1
:104F3000A0694A791A40073201F073F82000FEF7A1
:104F4000B3FE10BD70B503790400002B3CD0431DA7
:104F5000DB7F002B38D14379002B35D01C4DC26844
:104F60002B689B1A1B4A934201D9FEF705FF637910
:104F7000012B12D1A31DDA7F012A25D1DA7F012A64
:104F800022D1013262712000DA77FFF7C7FF0023D8
:104F9000A3722B6823612B68E3606379022B13D122
:104FA00022692B689B1A0C4A93420DD90A23E356B7
:104FB0002000022B09DCFFF7B1FFA37A0133A372B3
:104FC0002B6823612B68E36070BDFEF7D5FEFBE71D
:104FD000740100106F170000B70B0000F0B504005B
:104FE00085B0FFF7AFFFA36A5A68002A36D0DA6BA4
:104FF000002A33D1DA6A002A30D1226B127D52079F
:105000002CD5C0201D685B682A79DBB20293EB784F
:1050100012021A43AB79EE791902800001400E4367
:10502000F021A02789003140BF00B94208D069DCD7
:10503000080080278138FF38B84380B2002863D148
:105040008EB2002A62D123682A009F6931002000B5
:10505000029BB847236820001B6A9847E06A002833
:1050600038D0C549FFF7CAF9E26AC44D53069B0F11
:105070009B0058591F231A401B3B93401A58606CE1
:10508000531E9A41BE4B216C1B68824200D17EE1C7
:10509000E3636264236C002B06D1002904D0226BE9
:1050A0007F3B117D4B401375C021E06AC901FFF7BA
:1050B000A5F901201F220100E36A1A409140226BEA
:1050C0005B06127D9B0F02409B00EB58013A0A40A1
:1050D0008900CA50A36ADA6B002A11D1DE6A002E59
:1050E0000ED1230048331B78002B09D02500493509
:1050F0002B782000002B00D155E1FEF73DFE2E70ED
:1051000005B0F0BD81429BD0B6B29AE7697952BA38
:1051100092B27F2908D90299236800915F69310012
:105120002B002000B84795E7A18A914200D091E773
:105130003C2218009043AA78697812020A4357BAB1
:1051400042B2B9B2002A00DB8FE0802816D0812855
:105150003AD0DA0765D46279012A00D87AE7E28882
:105160008A4200D076E708210F2061569B08034051
:105170008B423DD02000FEF7FFFD6BE76579002DE7
:1051800012D0013D012D00D964E7E3888B4200D1A4
:1051900060E77B4A2000D3890133D3810A000023D2
:1051A0008121FEF7CDFD55E7236820009B6A9847D3
:1051B000734BE7801B682581E3606379012B00D185
:1051C00048E70123637145E763792068013B012BC0
:1051D00000D93FE7E3888B4200D03BE70023684AD1
:1051E0006371D3890133D381836A2000984731E703
:1051F0000026634B01311B680140A71D2172E3604B
:10520000E51DFE77EB7FB342DBD0216A4A7902408D
:105210000732E06900F005FFEB7FDBB2FB77EE774A
:10522000CBE7FF2B00D115E76279002A00D111E707
:10523000082020569B061B0F834200D00AE7E38814
:105240008B4200D006E70A23E3562000022B92DCB3
:10525000022A90D1FFF762FEA37A0133A372484B72
:105260001A681B682261E360F4E6032B21D8671DEE
:10527000FB7F002BFCD10C220133FB772878A3693C
:1052800010405C3A02431A700A0A1971DA702268F7
:105290000093D36931009C462A0020006546029B9A
:1052A000A847002803D02000FEF7FEFCD2E6F877DE
:1052B000D0E6E2888A4200D0CCE66179002900D1AC
:1052C000C8E69B08092118000F27615638400300E3
:1052D000884243D1C2212000FEF732FD637A0133B8
:1052E0003B406372264B1B68E360A31DDB7F002BF2
:1052F0002DD12300E769253303930123039A31005D
:10530000137023680097DB692A009C4620006646DC
:10531000029BB04700281ED00C232A781A405C3B21
:1053200013433B70E3881A0A3B710823FA70E26961
:10533000E356974202D00F22013313403C21BA7941
:105340009B008A43134340221343BB7182E6230030
:10535000276A2633D0E7039B18707BE60139084D96
:10536000394088420ED1C2212000FEF7E9FC2B8A89
:1053700001332B822B6876E710100000042B00000D
:1053800074010010C3212000FEF7DAFCF2E7E06BA5
:10539000002800D17EE61B1A322B00D57AE60023C6
:1053A0002264E36376E64C30FEF7D2FB002800D19E
:1053B000A6E6236820001B6B9847A1E610B53A23A8
:1053C00004008AB0684605A901220093FEF729FD72
:1053D0001022200006A900F024FE0598C0B20AB0F1
:1053E00010BD9C46BE23F0B58BB01600109C9B00F0
:1053F00099421BD08833994200D12FE3013BFF3BF8
:10540000994202D000200BB0F0BD67236371253BA9
:105410001522A3710233E37100236272EA32237210
:10542000A272E272237363730120ECE76346B44F08
:1054300054207C60092B0ED00023107AB14A03213E
:1054400059438D5C854209D153185A7828009B78BE
:10545000002D07D10120FEF7D5FB16E10133182BF3
:10546000EDD1F7E765460A3D954201D39D4201D94A
:105470005520F0E7A44BA54A02939B6993420CD0B8
:10548000BC2800D1B1E00300320042330932DBB264
:105490000192012B08D95820DDE73300093301932D
:1054A000BF2824D8B72827D9B838072824D800F02F
:1054B0006DFDB00223008F0223009C0023008400B6
:1054C0004F00DF38102817D800F060FD23021600C7
:1054D0001600160016001600160016002102210202
:1054E00010020002A30118003002BB00A500030057
:1054F0002133DBB2102BE4D95F20ACE709235B42F8
:105500009B1BC6260393B600039B019A9B189D42E2
:1055100000D894E0019B7E4C1A78A359012B00D14E
:1055200028E1022B00D162E1002B00D01EE1013303
:1055300051B22270E360002900DA0333520600D52D
:105540000BE1A360012B00DC0AE10123A3510DE173
:105550000C2D01D057207EE706A8FFF72FFF0B2860
:1055600041D87F23181AC0B2984200D073E72A00AE
:10557000019906A800F014FD002815D0019C1536ED
:105580002000FEF727FB030E2370030C6370030A51
:10559000A370E0700434A642F2D10C22019906A84F
:1055A00000F0FEFC0028D5D1029B584A7F209A616A
:1055B000FEF728FBFEF732FB67E006A8FFF7FEFECA
:1055C0000B2810D87F23181AC0B2984200D042E7A7
:1055D000BD210C20FEF709FB0C22786806A90930D2
:1055E00000F01FFD51E0732035E7FEF79BFA030042
:1055F000F43B1D68A8420BD8464B9D4208D2BB2104
:105600000C20FEF7F2FA20000C2229000930E7E70F
:10561000029D0835F3E738893F4B2A189A4201D991
:105620005B2018E73D4B2A00C018019900F0F9FCF7
:105630003B89ADB2EB183B817B89ED187D817F20E2
:1056400009E73000019A737A54780B3024021C4326
:10565000FEF7C0FA002221000390FEF793FA00281B
:1056600001D15D20F7E62C4B9C42D9DC30000F3095
:10567000FEF7B0FA3B89060000254F20A34201D86F
:1056800007D25020FEF7BEFA3D8100221C4B5A6023
:10569000CAE621002148FEF73DFD864201D05E208A
:1056A000D9E6BB892900E318386CBB81FEF7E5FD1C
:1056B0000495002C4ED01A4B01931A4B0593019B75
:1056C000049E1D88144B9D4239D9019B059A0233D3
:1056D00001939342F3D180235B009C42EBDC802258
:1056E000049B0E490398591852000023FEF78AFCC8
:1056F00002900023386C3B81FEF73AFE0298AAE63E
:1057000074010010742B0000000100105AA55AA566
:1057100004020010F2FF0000F10400002805001050
:10572000BC2B0000C42B0000D44900232A007118B0
:10573000FEF768FC02907F28DBD1641B7619039B7F
:10574000049A981A8019AC42EEDA002C02DD049615
:105750000390BAE77F230293CBE70133A360F4E61B
:105760000223A351C52300229B00E250019B013379
:105770000193C9E6E1686254A2684B1CE36093425E
:10578000F4DB0022A2562378002AE9DABC4A02920E
:105790005B061AD5A3787F2B19D9FEF793FC070077
:1057A000FEF7A8FCC4239B000200B649E058029B08
:1057B0007918181800F035FCFEF79CFCC422920002
:1057C000A3581B18A350C623CDE76378E3E7C8238B
:1057D0009B00E758FEF776FC3F18FEF78BFCC423CE
:1057E0009B000200E058029B39001818E2E7C42130
:1057F00089006358581CE3181A74C5239B00E758A6
:1058000060500137E750FEF775FC8742AEDB00239E
:105810009CE6C423C7259C4C9B00E258AD00029235
:10582000029900226059FEF7ADF9002800D118E76F
:105830000198FEF7CFF9924E019002993000FEF7E1
:1058400069FC019A824200D029E70021386CFEF7FA
:1058500014FD80228D4B520019008A48019300F0FC
:10586000E0FB802261595200019800F0DAFBC4236A
:105870009B00E2583100605900F092FB7F230193B6
:1058800000280DD06059000AC0B20100FEF7DAFA14
:1058900080220023310060595200FEF7B3FB0190D3
:1058A000C7229200A35800210133FF33A350C42321
:1058B00080229B0072485200E15000F07FFB01986B
:1058C000FEF7A0F9386CFEF753FD73E60021386C43
:1058D000FEF7D3FC00226E4B6E49D817C0B2C01839
:1058E000001201300002FEF7F5FAE9E70198FEF731
:1058F00071F9040030000D30FEF76CF9050000214D
:10590000386CFEF7BAFC012229002000EBE70220E8
:10591000A1E5DE210420FEF768F9FB891A0A63720B
:105920003B8AA2721A0A2273E372AEE60198FEF76E
:1059300051F9594B0500984200D971E630000D30FD
:10594000FEF748F94D4E040029003000FEF7E2FB57
:10595000844200D0A3E6FEF7F5F82A0031000400E7
:1059600000F01EFB002807D17F243000FEF71AFC50
:1059700000282BD159306EE50021386CFEF77DFCF4
:10598000E017C0B2201800120100FEF75BFA050014
:10599000386CFEF7EDFC28007F2D00D05BE5002180
:1059A000386CFEF76AFC802220000123310052008F
:1059B000FEF728FB0400386CFEF7DAFC7F2CD3D00E
:1059C0002000FEF71FF95D2CCFD15EE6200042E5F6
:1059D000FEF7B8F8036805000193019A2D4B0026E5
:1059E00047689A4202D8BB427641F6B2FEF79AF86F
:1059F000019B834205D3874203D39F4201D3002EEC
:105A000005D101235B422B606B60EB60AB60B92179
:105A1000F6E5757A002D07D1B6210220FEF7E5F8EC
:105A20000123A572637230E6FEF77CF8B72105000A
:105A30000A20FEF7DAF8012363722373002314228D
:105A4000E372023363730E33A3732B0EA3742B0C18
:105A500063742B0AA2722374E57316E60300012215
:105A600048331A704379FA215A1E93410200493291
:105A700013704C30FEF77CF8C4E4C04628050010D3
:105A8000140200101403001004020010140400108B
:105A9000632D0000FFFF0000F104000010B50400BA
:105AA000502100F0D5FA200010BDF7B50700FEF731
:105AB000E6F80023BC6A3B496360E363E361636229
:105AC000A363A365E365E368374A8B424BD1C421E6
:105AD000FF25364889004258AA4342500126350026
:105AE0001A793349C86F0192073295402A001D6820
:105AF00000230243CA673100EB636B61AB62637ED4
:105B00006A6F99400B0013436B676B6829493343F5
:105B10006B60294B186800F0ADF90138E86020008F
:105B2000FEF700FC254BAB60637E9E4033001E00F9
:105B3000EA6B16401342FAD1E0216069C901FEF711
:105B40005DFC1F492069FEF759FCFF231F222B60D3
:105B5000019B103313401E3A11009940134B1960FA
:105B6000FE633A64F7BD110070318B4206D1C42147
:105B70000E4889004258134D2A40AEE778329342CE
:105B800005D1C4210948890042580F4DF4E70F4A56
:105B90009342A3D1C4210548890042581202120A37
:105BA0009BE7C046DC0100107401001000E100E03A
:105BB0000480044040420F001C010010FFFF000061
:105BC00020200000FF00FFFFFFFF00FFF401001096
:105BD000F7B50026714B724C1E71724B0122A36601
:105BE000230070331A71704B9218236723007833A7
:105BF0001A716E4B6E4FA36703233B716D4B3B6075
:105C0000FDF7A0FF6C4D052231000090280000F048
:105C1000D5F928008022310052001030AE60EE60CD
:105C200000F0CCF92800802211303100FF309200C2
:105C300000F0C4F9C4239B00EE500433EE5004334B
:105C4000EE500433EE5000980433EE50FEF7AAFAFB
:105C5000B04200D19BE0009B1868C8239B00E8502D
:105C6000043BE8501C2000F0F7F900250123060052
:105C7000836045600220514BF060336000F0FEF914
:105C80004F4B0570743333604E4B457000934E4B51
:105C90003061A3614D4B1720B582B5612362E56188
:105CA0006562A56200F0EAF90200030017321D7078
:105CB00001339A42FBD12063172000F0DFF9020084
:105CC000030000211732197001339342FBD1606346
:105CD000172000F0D3F902000300173200211970D9
:105CE00001339A42FAD1009BA06354336020A36130
:105CF00000F0B2F923001833836023007033C360CF
:105D0000334B05000361334B4361002303831720AA
:105D100000F0B4F901000300002217311A700133BA
:105D20008B42FBD103216B7E286402330B40AB76A0
:105D3000294BA8680193EA766B69019A296253603E
:105D40000368A9625B6B9847009000F097F9002107
:105D50000200009B013B002B1CDA2200A6640026F7
:105D600028602000603216801C4B019A6364136027
:105D70001B4B1C4A1C4918302564E6642665666581
:105D800066666561A36100F045F9BE60F7BDFDF789
:105D9000C9FE62E71170013B0132DCE7DC01001053
:105DA0007401001000C000400000014000400140AC
:105DB000F40100100080014004020010CC2B000010
:105DC000842B0000042C0000242C0000FFFF0000A6
:105DD00028C20100298269000001001040825C0095
:105DE000982C000020010010930200008E2120203A
:105DF0001A4B89005A5882435A50002271391A624C
:105E0000FF39C04601390029FBD101221A645A64C6
:105E100059645A64596C1142FCD023228E2180208F
:105E20009A6089005A5882435A500122D968114217
:105E3000FCD00321196700215A6759675A6701226C
:105E4000596F1142FCD09A670549064BD967064B3A
:105E50001A60064B1A60064B1A60704700800440B7
:105E60005F00010004800440948004409880044056
:105E70009C800440002243088B4274D303098B4268
:105E80005FD3030A8B4244D3030B8B4228D3030C0A
:105E90008B420DD3FF22090212BA030C8B4202D3AC
:105EA0001212090265D0030B8B4219D300E0090AD4
:105EB000C30B8B4201D3CB03C01A5241830B8B42DD
:105EC00001D38B03C01A5241430B8B4201D34B03C6
:105ED000C01A5241030B8B4201D30B03C01A52412B
:105EE000C30A8B4201D3CB02C01A5241830A8B42B0
:105EF00001D38B02C01A5241430A8B4201D34B0299
:105F0000C01A5241030A8B4201D30B02C01A5241FC
:105F1000CDD2C3098B4201D3CB01C01A52418309B0
:105F20008B4201D38B01C01A524143098B4201D3EA
:105F30004B01C01A524103098B4201D30B01C01A15
:105F40005241C3088B4201D3CB00C01A524183088F
:105F50008B4201D38B00C01A524143088B4201D3BC
:105F60004B00C01A5241411A00D20146524110461C
:105F70007047FFE701B5002000F006F802BDC046FB
:105F80000029F7D076E770477047C04603B47146E2
:105F9000490840004900095A49008E4403BC704733
:105FA00030B500240139A24201D1002005E0035D93
:105FB00001340D5DAB42F6D0581B30BD0300821892
:105FC000934200D1704719700133F9E770B500268C
:105FD0000C4C0D4D641BA410A64209D1002600F004
:105FE000BFFA0A4C0A4D641BA410A64205D170BD2D
:105FF000B300EB5898470136EEE7B300EB589847EB
:106000000136F2E7DC2C0000DC2C0000E42C000060
:10601000DC2C0000030010B50800190000F00AF89D
:1060200010BD002310B59A4200D110BDCC5CC45401
:106030000133F8E710B5040004481300002804D029
:106040000A000220210000E000BF10BD0000000097
:1060500010B500F017F810BD10B5041E00D10134C2
:10606000200000F041F8002800D010BD00F00EF82C
:10607000002801D100F010F88047F1E710B5FFF7D4
:10608000EBFF10BD10B500F039F810BD014B1868DA
:106090007047C0461C0A0010FEE7FFFF064807498C
:1060A000091A8B10C90FC91810B5491003D0044B39
:1060B000002B00D0984710BD74010010740100102F
:1060C00000000000054B10B5002B03D00449054823
:1060D00000E000BFFFF7E2FF10BDC0460000000077
:1060E000200A0010F02C000010B5034B01001868C6
:1060F00000F030F810BDC0462401001010B5034B6D
:106100000100186800F0CAF810BDC0462401001054
:1061100070B50F4E0D0031680400002902D100F067
:10612000A9F830602900200000F0A4F8431C03D136
:1061300001256D42280070BD0323C51C9D43A84264
:10614000F8D0291A200000F095F80130F2D1EFE7DD
:10615000380A0010F7B50322CB1C9343083305001F
:106160001F000C2B34D20C27B94233D8280000F082
:1061700071F8374E33681C00002C2FD139002800ED
:10618000FFF7C6FF0400431C5FD134680094009BF6
:10619000002B4AD1002C52D023682800E318009924
:1061A000019300F067F8019B834248D123682800DF
:1061B000FF1A3900FFF7ACFF013040D02368DB192C
:1061C000236033685A68002A33D1009B336019E09A
:1061D000002BC9DA0C232B600020FEBD2168C91BEF
:1061E00020D40B290AD9E2192760A34204D13260D6
:1061F00063681160536005E05A60F9E76268A34282
:106200000ED13260280000F02DF8200007220B305C
:10621000231D9043C21A9842DFD01B1AA350DCE71B
:106220005A60EFE723006468A6E7009C6368009368
:10623000ADE71A005B68A342FBD10023DAE70C2329
:1062400028002B6000F00EF8C6E70760DAE7C046CA
:106250003C0A001010B5024800F01EF810BDC04600
:10626000400A001010B5024800F017F810BDC046F3
:10627000400A0010002370B5064D040008002B6092
:1062800000F056F8431C03D12B68002B00D023608C
:1062900070BDC046440A00107047704770B50500D5
:1062A0000C1E10D0043C2368002B00DAE4182800F0
:1062B000FFF7D0FF1D4A1368002B05D163601460FF
:1062C0002800FFF7CFFF70BDA34208D9206821182E
:1062D0008B42F3D119685B6809182160EEE71A0058
:1062E0005B68002B01D0A342F9D911685018A04275
:1062F0000BD120680918501811608342E0D118684A
:106300005B68411811605360DAE7A04202D90C23A0
:106310002B60D5E7206821188B4203D119685B6890
:106320000918216063605460CAE7C0463C0A001047
:1063300070B50D4D04002B68002B01D10B4B2B6069
:1063400003232E6803349C433419200000F010F816
:10635000002802D12C60300070BD00F015F8012635
:106360000C2376420360F6E7480A00104C0A00103E
:1063700003000448002803D0002283425241100049
:106380007047C04600000000014B18687047C046C7
:1063900024010010000000500000015000000250D5
:1063A000000003500300040007000B000C000D0068
:1063B00013001400180019001A001D001E001F0011
:1063C000200024002500280029002A0005000E00D6
:1063D0001B00260002000A00170023001000110015
:1063E000000008000900150016001C002100220012
:1063F00027002B000F00120000000000000000002A
:1064000000000000000000EF01FEEE0A0AED08089F
:10641000EC01FEEB0404EA0000E90808E80303E7E6
:106420000808DF0000DE0404DC0101BF0C0CBE0024
:1064300000BD0C0CBC0000BB0C0CBA0000B90C0C6D
:10644000B80202B70A0AB6020201FFFF00100004F8
:1064500000020001000000000000000053050000E1
:106460005D050000730500002505000039050000EA
:10647000000000000000000000000000000000001C
:106480000000000000000000530500005D05000052
:1064900073050000250500003905000079020000A1
:1064A000790200007F02000083020000000000006B
:1064B000000000000000000000000000B516000011
:1064C00075020000EF030000000000000000000063
:1064D0008B02000000000000000000001905000011
:1064E00000000000000000000000000000000000AC
:1064F0004D170000750200001B2200000000000084
:10650000000000009D030000CB0300009309000081
:106510001905000000000000510A0000C703000038
:106520000000000000000000930200000D220000A7
:106530004D170000750200001B2200008F020000B2
:1065400033040000531B0000CB030000930900003C
:106550001905000087020000510A0000C70300006F
:10656000F8B5C046F8BC08BC9E4670474123000001
:1065700035280000F8B5C046F8BC08BC9E467047F8
:1065800040825C00298269005B5342204B4E5820B8
:10659000424C205D00000000A55AA55A006CDC02A8
:1065A00000000000280100100000000000000000B2
:1065B00068000000D00000000000000000000000A3
:1065C00000000000000000000000000000000000CB
:1065D00000000000000000000000000000000000BB
:1065E00000000000000000000000000000000000AB
:1065F0000000000000FFFFFFF8B5C046F8BC08BC73
:106600009E467047A5340000FD370000F8B5C0462F
:08661000F8BC08BC9E4670476F
:106618002141565021403A5342626C752020203166
:086628002E323000006CDC0290
:04000003000030DFEA
:00000001FF
