:1030000000200010DF300000D7300000C132000087
:1030100000000000000000000000000000000000B0
:10302000000000000000000000000000D930000097
:103030000000000000000000DB300000DD30000078
:10304000D5300000D5300000D5300000D53000006C
:10305000D5300000D5300000D5300000D53000005C
:10306000D5300000D5300000D5300000D53000004C
:10307000D5300000D5300000D5300000D53000003C
:10308000D5300000D5300000D5300000D53000002C
:10309000D5300000D5300000000000000000000026
:1030A000D5300000D5300000D53000000000000011
:1030B000D5300000D5300000D5300000D5300000FC
:1030C0009C640000C000001018000000D800001030
:1030D0001C000000FEE7FEE7FEE7FEE7FEE7F8B5AE
:1030E0001349144B8B4209D3002013498B4213D34D
:1030F00000F0D6F900F0F8FA00F004F900221D689B
:103100005F689868BE18AC18904201D80C33E9E7A4
:10311000246804323460F5E700221E685C68B51844
:10312000944201D80833E1E728600432F7E7C0464B
:10313000CC300000C0300000D430000010B5064B89
:10314000002A01D1984710BDBFF34F8FBFF36F8F97
:1031500072B6984762B6F6E7F11FFF1FC02210B59E
:103160000B4B0C4C0C4963600B6A12061B021B0ACA
:1031700013430B620023A3600733236000F090F831
:103180000121064A0800A3689B0D98435060F9E7A7
:10319000FFFFFF0010E000E000ED00E00000025043
:1031A000F7B543069B0F0193354BC0279C466246FB
:1031B000019B80249B009D5801231F221E0002407A
:1031C0009640FF01B6B22402B94206D129593143D3
:1031D0002951010A1940C90121E02F59B7432F5144
:1031E0008024A401A14231D12649884203D1264B33
:1031F0000021196004E02549884204D122490B606E
:103200000021022315E02249884201D1214BEFE73A
:10321000214988420AD0010A19400723C9011F2405
:10322000451225409D421CD1002302E019490B6044
:1032300000210C20019C0B43604382185200624421
:10324000128A1648121892001360F7BDC024A40118
:10325000A142BED102230021E1E70123E9E70323D4
:10326000E7E785132540AB42F7D0C5142540AB42B4
:10327000C7D0001620408342F1D0FFF76FFFC04651
:103280000C38000002C23A00C040044063823D0096
:1032900025423C00D040044049C20100001001100A
:1032A000C02110B50448C901FFF77AFF8021034807
:1032B0004901FFF775FF10BD40825C00298269005B
:1032C000C02210B50B4B0C4C0C4963600B6A120604
:1032D0001B021B0A13430B620023A3600733236006
:1032E000FFF7DEFF0121064A0800A3685B0D984343
:1032F0005060F9E7FFFFFF0010E000E000ED00E0A4
:1033000000000250C021F0B5554C5648A544C901F3
:10331000FFF746FF544B554C00221B1B013BDD17AA
:103320002D052D0DED183223514F2D137A6011A963
:103330000D920CA801320C930E95FFF7FFFE119B26
:10334000DBB21193002B1BD1FA2134220D93494B90
:10335000890018680C920E9500F0E6F801220F9093
:1033600011A90CA8FFF7EAFE119B002B08D135220A
:1033700011A90C920CA8343A0D930E95FFF7DEFEBE
:1033800080256D01384EB44207D3BFF34F8F3A4BBF
:103390003A4ADA60BFF34F8FFEE78022FF215201E5
:1033A0000CA800F04DF9321BAA4200D92A002100D6
:1033B0000CA800F0BDF92D4BE61A9C420ED100235B
:1033C0001A0091008C46282102A8401861464158F5
:1033D00001325B18072AF4D15B421393F3171B05E4
:1033E0001B0D9B191B13BFF34F8FBFF36F8F72B66B
:1033F000322207A9029202A8002203930493FFF746
:103400009DFE079BDBB201930793002B08D062B6A9
:103410007B685A4253417B6080235B01E418B1E72B
:103420003323FA2102930CAB0493124B89001868E2
:103430000396059500F078F8019A069007A902A86E
:10344000FFF77CFE079A002AE1D1382307A90293EF
:1034500002A80CAB039604930595FFF76FFED6E721
:10346000CCEFFFFF40825C007864000080380000F1
:1034700000000250D400001000ED00E00400FA0546
:1034800080B500AF014B1800BD4680BDC0000010E4
:1034900010B5FFF7F5FF014B186010BDD800001004
:1034A0008E2120201A4B89005A5882435A500022FC
:1034B00071391A62FF39C04601390029FBD1012256
:1034C0001A645A6459645A64596C1142FCD023221C
:1034D0008E2180209A6089005A5882435A500122D6
:1034E000D9681142FCD00321196700215A67596736
:1034F0005A670122596F1142FCD09A670549064B61
:10350000D967064B1A60064B1A60064B1A60704763
:10351000008004405F000100048004409480044067
:10352000988004409C800440002243088B4274D35E
:1035300003098B425FD3030A8B4244D3030B8B42B4
:1035400028D3030C8B420DD3FF22090212BA030CBD
:103550008B4202D31212090265D0030B8B4219D39E
:1035600000E0090AC30B8B4201D3CB03C01A5241BE
:10357000830B8B4201D38B03C01A5241430B8B4206
:1035800001D34B03C01A5241030B8B4201D30B03EF
:10359000C01A5241C30A8B4201D3CB02C01A524116
:1035A000830A8B4201D38B02C01A5241430A8B42D9
:1035B00001D34B02C01A5241030A8B4201D30B02C2
:1035C000C01A5241CDD2C3098B4201D3CB01C01ADC
:1035D000524183098B4201D38B01C01A52414309E6
:1035E0008B4201D34B01C01A524103098B4201D3D4
:1035F0000B01C01A5241C3088B4201D3CB00C01A41
:10360000524183088B4201D38B00C01A52414308B8
:103610008B4201D34B00C01A5241411A00D20146DD
:10362000524110467047FFE701B5002000F006F850
:1036300002BDC0460029F7D076E770477047C04604
:10364000F0B50500830749D0541E002A45D0030079
:103650000326CAB202E00135013C3ED301332A7091
:103660003342F8D1032C30D9FF220A401502AD189D
:103670002A04AD180F2C34D92700103F3F093E0112
:10368000B4461E001A0010366644156055609560F9
:10369000D56010329642F8D101373F01DB190F2770
:1036A0000C22274022403C00002A0ED03E1FB608C4
:1036B000B400A4461A001C1D644420C2A242FCD1DE
:1036C00003240136B6009B193C40002C05D0C9B23A
:1036D0001C19197001339C42FBD1F0BD030014008A
:1036E000C0E72700E2E7C04670B50D4B0D4D5E1BED
:1036F000B610AB4205D0002408CD01349847A6424D
:10370000FAD802F0BBFE084B084D5E1BB610AB4268
:1037100005D0002408CD01349847A642FAD870BDE0
:1037200088640000886400009064000088640000E1
:10373000F0B505000F2A33D90324030026000B43FC
:103740001E401C4237D11500103D2D0903000C000E
:10375000AC462F013F1865685D60A5689D60E5680F
:10376000DD60256810341D601D001033BD42F2D1AC
:1037700065460F230C2401352D01491913404519C5
:1037800014421AD08C59AC5104369C1B032CF9D826
:10379000043B9B0801339B00ED18C91803231A4012
:1037A000561E002A06D00023CC5C1A00EC540133CC
:1037B0009642F9D1F0BD561EF5E71A00F0E7C04673
:1037C00006480749091A8B10C90FC91810B54910C6
:1037D00003D0044B002B00D0984710BDD800001038
:1037E000D800001000000000054B10B5002B03D0DE
:1037F0000449054800E000BFFFF7E2FF10BDC046E6
:1038000000000000DC0000109C640000000000507C
:1038100000000150000002500000035003000400AB
:1038200007000B000C000D00130014001800190015
:103830001A001D001E001F00200024002500280083
:1038400029002A0005000E001B00260002000A00C5
:1038500017002300100011000000080009001500E7
:1038600016001C002100220027002B000F00120070
:10387000000000000000000000000000FFFFFFFF4C
:1038800000200010DD000000D700000099140000A7
:1038900000000000000000000000000021DFFFEF3A
:1038A000000000000000000000000000D90000003F
:1038B0000000000000000000DB0000006D060000BA
:1038C000D5000000D5000000D5000000D5000000A4
:1038D000D5000000D5000000D5000000D500000094
:1038E000D5000000D5000000D5000000D500000084
:1038F000D5000000D5000000D5000000D500000074
:10390000D5000000C5120000D5000000D500000061
:10391000D5000000D50000000000000000000000FD
:10392000D5000000D5000000D50000000000000018
:10393000D5000000D5000000D5000000D500000033
:10394000842B0000000100107400000074010010BE
:10395000E8040000FEE7FEE7FEE7FEE7F8B52849C9
:10396000284B8B4212D3002027498B421CD3802442
:1039700002F088F902F076FA002364052168234AF0
:10398000236091421BD1012001F0F6FF00221D6847
:103990005F689868BE18AC18904201D80C33E0E715
:1039A000246804323460F5E700221E685C68B518AC
:1039B000944201D80833D8E728600432F7E7144965
:1039C000144801F003F9144B5B68002BDBD000F0C6
:1039D00053F8050000F052FB00280FD0F0202B68B0
:1039E000000619685A681B180C48E55820C4844220
:1039F000FBD101200A4B18608D4610470020C3E719
:103A0000CC000000C0000000D400000055B01F5ED4
:103A10001010000040825C0000000250C000001046
:103A200000800440818270470069013070470020A7
:103A30007047012070470079704700207047E023ED
:103A40009B00994202D101234C3003700020704743
:103A5000012070477047064B0648FF22C01803003C
:103A6000FF3393431A1AFE2A00D818007047C04645
:103A700000000000F82C000010B5FFF7ECFF013843
:103A8000FF3810BDF8B5C6B205001400002E1AD1DB
:103A900000291AD001394718002A0BD0FFF7ECFF94
:103AA0003400854204D3FFF7D6FF8742A441644225
:103AB0002000F8BDFFF7CFFF8542F9D3044BBB428E
:103AC0006441E4B2F4E70024F2E70C00F0E7C046FA
:103AD000FFFF00004278037812021A438378C0780F
:103AE0001B0413430006184370470222044B623044
:103AF0001B689A71FC325871DA7119727047C046AE
:103B00007401001010B50400DC210120FFF7EDFF67
:103B1000014B1B685C7210BD740100100022024B47
:103B20005A609A60DA60704774010010172070477D
:103B30000022836A9A607047BFF34F8F024B034A9B
:103B4000DA60BFF34F8FFEE700ED00E00400FA05F6
:103B5000010030B56A310B889BB20361C36C002B46
:103B60000FD000248025C46402680B882B40551DAB
:103B7000EC77941DE57F012D10D15A4253415B0033
:103B8000E377002301220B80427502000363836404
:103B900083636C326E301380037030BD0732D47F84
:103BA000012CEED15C4263415B00D377E9E700234F
:103BB000421D4371D377821DD377C21DD377012273
:103BC0005242028102320271024AC380C3601382F0
:103BD00053827047740100100222431D10B5DA773A
:103BE0000F2381694A791A40036807329B6A984714
:103BF00010BD802310B55B00994212D1431DDA7FBE
:103C0000D1B2002AFBD10132DA778369B024D970AE
:103C10001971E1219A713F321C705971DA71FFF705
:103C2000DBFF012010BDF8B50C00411DCD7F002D3C
:103C3000FCD140260135CD77170A8569D2B23442CE
:103C400003D0990021430E43F4B2B0232B70503BB4
:103C5000EF702A716B71AC71FFF7BEFFF8BD0B4AB4
:103C600010B5138A0400013313824379002B01D06D
:103C70000023437181212000E2880023FFF7D3FF56
:103C800023682000DB69984710BDC046740100100E
:103C90000023821D0730D377C37770474268030043
:103CA0000020914203D39B688B424041C0B27047D1
:103CB000030010B50020914206D85C68A14203D3EE
:103CC0009B6893424041C0B210BD43680069C91A65
:103CD0004018704742680300891AC2680020013A00
:103CE0008A4201D31B69585C7047426810B5891A33
:103CF000C2684C1C013A03000020944204D81A699F
:103D0000535C105D1B02184310BD10B5064B002A12
:103D100001D1984710BDBFF34F8FBFF36F8F72B6BD
:103D2000984762B6F6E7C046F11FFF1F70B5FF2641
:103D30001F4B0500DA173240D2180C0052208AB00F
:103D40001212954231D91B49CB1733405B181B1215
:103D50009D422AD8944228D99C4226D832230093E7
:103D60002B09019301222309684605A90293FFF755
:103D7000CCFF059B334005930FD1FA213B330093D1
:103D80000D4B890018680195029401F0BFFF0122D4
:103D9000039005A96846FFF7B8FF059B7320DBB2C7
:103DA0000B2B02D80C30C01AC0B20AB070BDC0468E
:103DB000F72B0000FFFF00001C010010F0B504000D
:103DC0000D008BB0002A07D0091A00220131FFF73D
:103DD00059FE5123002811D0EF17FF203E00E317B2
:103DE000064018407619001936120012321A0132B4
:103DF0000F2A06D83100FFF799FF030018000BB017
:103E0000F0BD22056AD01B051B0D1B191B130133C6
:103E10001C0321120139FFF789FF03007F28EDD130
:103E20003F053F0DE217ED192D131205120D280362
:103E3000A418000A2413321A0F2A06D03100FFF703
:103E400075FF03007F28D9D1013DA542D6D3244B6D
:103E5000DA171205120DD21812135C239442CDD931
:103E60002049CA171205120D521812139442C5D8D0
:103E70009542C3D82A3B0122684605A900930194C4
:103E80000295FFF742FF059BDBB20593002B1BD188
:103E9000FA2134330093144B890018680194029579
:103EA00001F034FF0122039005A96846FFF72DFFBA
:103EB000059B002B08D135330122684605A90093E4
:103EC00001940295FFF721FF059A7323D2B20B2AC2
:103ED00000D993E70C339B1ADBB28FE751239FE79E
:103EE000F72B0000FFFF00001C010010024A53697D
:103EF000013353617047C04674010010FE220A4B23
:103F0000D203197849060AD5987800041040DA7867
:103F10001B791B0213435BBA9BB218437047587856
:103F20005B8800041040F6E708020010064B187882
:103F3000420606D5FC225B7800029201104018432D
:103F400070473F231840FBE708020010F0B58026B9
:103F500076000D008BB031000400FFF793FD0300E5
:103F60005D20002B20D0E3171B051B0DE3181B134E
:103F7000BFF34F8FBFF36F8F72B632226846009245
:103F800005A9002201930293FFF7BFFE059FFFB230
:103F90000597002F0AD062B6059B7320DBB20B2B6E
:103FA00002D80C30C01AC0B20BB0F0BD3323FA21D6
:103FB00000930D4B8900186801940295039601F057
:103FC000A5FE3A00049005A96846FFF79EFE059AF3
:103FD000002AE0D13823684605A900930194029590
:103FE0000396FFF792FED6E71C010010F7B54318C1
:103FF00001930123194E1A4F5B42019A904201D15D
:10400000D843FEBD0278174D53401C06164AE417EC
:104010001440D907154AC91711409A07D2173240E0
:104020004A40190A4A405907C91739404A401907F6
:10403000C91729404A400E4DD906C9172940514099
:104040000C4D9A06D2172A404A405B060A49DB17F4
:104050000B40534063400130CFE7C0462C610EEE69
:1040600019C46D073288DB0E2083B8ED96300777D0
:104070006410B71DC8206E3B9041DC7670B504001B
:104080000568FFF7E8FC0023854210D3094A9542F2
:104090000DD8616891420AD88D4208D2491B280088
:1040A0000131FFF7A3FFA3681B1A5A4253411800BE
:1040B00070BDC046FFFF00000323594310B589B20D
:1040C000DB18802A00D1043B07248C408B40826A95
:1040D000A2438262826A1343836210BD032330B518
:1040E00007254B439D409A4044694900AC434461D5
:1040F00044692243426130228A40C36B9343C363C5
:10410000C36BC36330BD70B5836A1868808A040AC4
:104110004C708870FF24002085B2AA421FD88C54AE
:10412000D964BFF34F8FBFF36F8F72B61A002C3272
:104130001178C8B2012910D105311170DA1D9B69BF
:10414000D17F1C688A00230018339B181860032253
:104150002000FFF7C3FF0023A36062B670BD0D5CB3
:1041600001306C40D8E770B50400836981221D6876
:10417000431DD97F2800FFF79FFFE31DDE7F280046
:1041800031000222FFF7AAFF1835084BB600AE191E
:104190003360A31DDB7F01229B00ED18044B2B60D5
:1041A00023002C331A700023A36270BDFEFF0000B1
:1041B000FFFF00001021F0B5431DDB7F82699940AD
:1041C00012680400106887B0014222D098001300E2
:1041D0002C331B181868E31DDD7F1300AD00183366
:1041E0005B19E5691E686B06B94F9B0F9B00DF5991
:1041F0001F231D401B3BAB401D00EB59002B02D081
:10420000116007B0F0BD936898421BD81B1A022BAF
:10421000F3D927002C373B78D8B20E2B01D900F008
:1042200084FC01F0FFFD110023002C003800880100
:104230003A026A02D002060315036403ED03100478
:1042400042045504F318E1E7A3691A68631DD87F97
:10425000102383401168194201D100F066FC00234D
:104260009360FF22A3691B681A60CAE7A3691B68F1
:104270001A68631DD97F10238B401A42F1D02200A7
:1042800000236F322364073AD3711380FF22A362A5
:10429000013362662366631D0293DB7F0193A3698A
:1042A00001981D6810231A0082402968114200D02D
:1042B00014E1656E266C002D3BD1236E002B3ED1A0
:1042C0000023A36206333B70236C012B00D0F0E087
:1042D00023006C331A78002A00D1EAE000221A7019
:1042E00022001021683213888B431380E26D002A6C
:1042F00003D0636CCC2B00D1BCE0216B636B994283
:1043000000DBB7E0A16BE36B994200DBB2E0230076
:10431000200021006A336D306E31002A00D0BBE0EE
:1043200004221D882A431A800023037001330B7076
:1043300035E02200683211880B431380C0E7062362
:10434000A5623B70072EBFDD2C22236D1B789343A3
:10435000902B00D0ADE0206803685B6B9847B042BB
:10436000B2DB236D1979DA78090211435B7949BA16
:10437000226889B27F2B14D94E424E41906BF6B21F
:10438000051E04D003681B689847C543ED0F3543ED
:1043900023685B6B1B7D5B0706D5002D04D14D4E5A
:1043A00046E0938A9942F3D12020216D0B78034295
:1043B00013D0A368002B4FD1CC22A262226C216DB6
:1043C000934252DBA2602200683213889BB2E36002
:1043D000002313800133237515E0626815786B4064
:1043E0008343E6D1206C01380133834204DACE5C8A
:1043F000D55CAE42F8D0DCE78342DAD1A368002B6B
:104400002AD1CC33A362236840215B6B1A7D012340
:1044100052089343226D12780A40134301D00023BF
:10442000A362A36A002BBAD00523B6263B70F60020
:10443000E31DDF7FA36939001D6803222800FFF711
:104440004DFE029B2800BF0018358122D97FED194F
:10445000FFF732FE2E6004E700232200A3626832D9
:10446000118840330B431380CDE7C95C6268D15497
:104470000133A3E7226B636B9A4203DAA26BE36B0F
:104480009A4205DB220080236A3211880B43138095
:104490002000FFF75DFB82E7626CC02A00D03FE797
:1044A0001D88B03A2A431A8001230B4E03700B700B
:1044B000BEE723006F331A78002A02D000221A7058
:1044C0006DE722008023683211880B43138066E772
:1044D000A0290000E8130000883C0000019BA868A8
:1044E0009A002B002C339B18E21DD17F2A001B68F9
:1044F0008E001832921983421AD2C31A0220012662
:104500001B1868606E60AB608F23DB0013602800AF
:104510000322FFF7E3FD812228000199FFF7CCFD7C
:1045200004233B70002366656364A365E66598E633
:1045300016688019E1E70121E51DE87FA369814044
:104540001B681A680A40511E8A4104A9D2B2CA7077
:10455000CA780331002A27D0183380001B181B6843
:104560000593A36D059A1800443090427ADA6833B7
:10457000A36580235B009C46059AA36D1000626DC5
:10458000560001961E00443686425CDA624511DC14
:10459000666C683332436264E26DA36556427241D1
:1045A000019BE2656365E7E7621DD27F2C339200D1
:1045B0009B18D4E7059B019B63650B78002B5FD0AC
:1045C000636C266CDAB26264002E08D19B0706D0B9
:1045D00022008023683211885B000B43138020681F
:1045E00003685B6B9847864243DA236C226D616CEB
:1045F000581C2064D154636E626C53406366E36D53
:10460000002B05D1210008226831088802430A8066
:10461000226E1340236603233B70A369E97F1D6864
:104620008A002B0018339B189A2252001A60343AE1
:104630002800FF3AFFF752FD631D81222800D97F31
:10464000FFF73AFD0DE6059E2133B342B3DA80232E
:104650005B009A42AFDC220068321688FC3B334391
:104660001380A8E7220004236832108803431380D4
:10467000A3E722002023683211880B431380BEE792
:104680008223059ADB009A4200DCEAE5220001233E
:10469000683211880B431380E3E5A3691D68631D2D
:1046A000DB7F2A6801931023019916008B401E407E
:1046B0001A4203D00023A36202237AE12A00682170
:1046C000A664A31DDB7F18329B00D3181960E31D7D
:1046D000D97F28008B00D2188B2313600322FFF7A9
:1046E000FDFC812228000199FFF7E6FC23006A33D4
:1046F00026641E8007233B70B3E5651DEB7F812296
:104700000193A36901991E683000FFF7D5FC1023BF
:10471000019932688B401A42CED1226B636B9A4268
:1047200003DAA26BE36B9A4208DB220080236A3231
:10473000118820000B431380FFF70AFAE16C00296F
:1047400000D1F2E10F224B7913400833A364230018
:104750006E331B78002B0BD020230A781A4207D027
:104760009A430A70A26CE16C013A885C43408B5416
:104770002422E36C1B781340934222D1D0235B00A8
:104780000593A36905991E68A31D3200DB7F1832CB
:104790009B00D3181960E31DD97F05988B00D318AF
:1047A0002330186003223000FFF798FC812230008C
:1047B000E97FFFF781FC220000236A322364138023
:1047C00098E76823DCE71020631DDA7FA369904037
:1047D0001B6819001D68183105421BD092002C334C
:1047E0009B18A21DD27F186892008A181168073999
:1047F000814202D9A16A002907D019681368103BC9
:104800008B4205D9A36A002B02D0CA4B136053E731
:10481000082370E71A68E31DD97F01238B401A42F1
:1048200007D0082322003B706A32118818330B43EB
:104830001380A36A002B32D0A36A80216364012312
:104840004900626CFF2B30DD0123636508333B7048
:1048500068238022616C05935200636D5D0065657D
:104860000B4201D0934226DDA26980261068621DAA
:10487000D17F0200059B1832B6000192682B1EDD25
:104880000A2381223B70FFF717FCB5421EDCA31DF3
:10489000DB7F059A01999B00233ACB181CE0236C1F
:1048A000E26C591C2164D35CC7E71A4201D04A402C
:1048B00062645B00C5E7059B68330593CDE7802202
:1048C000FFF7FAFBB542E2DD0B233B70A31DDB7F54
:1048D000019A9B00D318974A1A60A369E21D1B68CE
:1048E000D27F0599183392009B181960B9E4631DB3
:1048F000D97FA3691D6810238B402A681A4279D09A
:104900008B0029002C31C9180E686821300001F095
:1049100083FA3D2900D8A4E4A11DCB7F18359B0064
:10492000ED182B68073BB34262D923000122200017
:104930006F331A7040236A3005882B4303802300AD
:10494000002068331880FF236366A36A2266E2654D
:10495000834230D0A062A3691B680293183303938B
:10496000CD7F6821AD005D1928682130801B01F0E2
:10497000CDF9636D3200013003410A20683AA26527
:10498000626C591E0A406365019262645B10002BE1
:1049900023D1E31DD97F6823434303988A009B19E1
:1049A0008218136002980322FFF798FB614B2B607B
:1049B00004233B702DE420006E300270226C013A1B
:1049C0002264226C9A42C6DDE26CD05C226DD05427
:1049D000626E013342406266F3E7019A0138134286
:1049E00004D0E16D0A0051425141E1655B10CEE710
:1049F000092380E60B23802228003B70FFF75CFB35
:104A0000A369216C1A68A36C1832994202DAA36A6E
:104A1000002B0AD00C233B7039330593E31DDB7F59
:104A200005999B00D21811601BE49C235B00059341
:104A3000313BFF3B3B70A31DDB7F05999B00233976
:104A4000D3181960EAE7E21DD57FA36AA269166848
:104A5000002B0CD00023A36206333B70364B05932A
:104A6000059B1836AD0070190360FFF7FAFB2300B1
:104A700001226C331A70314B290005930D2330004D
:104A80003B70FFF72BFB23006E331B78002BE7D026
:104A900023006D331B78002B03D0A36B0133A3637A
:104AA000DEE7236B01332363DAE70E233B70A36950
:104AB00081221D68631D2800D97FFFF7FDFAE31DE1
:104AC000DB7F18359B00ED181D4B2B60FFF7C9FBF2
:104AD000A3691D68631DD97F10232A688B401000CD
:104AE00018401A4200D0E7E5230001226E331A7005
:104AF0002200023B187008236A3210880343138097
:104B000006233B70E31DDE7F2B00B20018339B1899
:104B1000094A28001A608122FFF7CEFA03223100E9
:104B20002800FFF7DBFAFFF79CFB2000FFF71BFBD9
:104B3000FFF797FBFFFF0000E8130000AF05000040
:104B40009A06000010B5024B9869FFF733FB10BDC1
:104B500074010010802301385B0498420DD2C021FB
:104B6000064A090650600648036A1B021B0A0B43EB
:104B700003620023936007331360704710E000E086
:104B800000ED00E0802070B54004FFF7E3FF00F087
:104B9000B3F81F2101220A4B80241B68094D1940DC
:104BA0008A405B0608499B0F9B005958E40390001C
:104BB000AB6823405E4273415B4213404350F7E7CA
:104BC0000001001010E000E0A0290000F7B5430646
:104BD0009B0F0093404BC0279C466246009BFF0101
:104BE0009B009D581F230340019301231E00019C3D
:104BF000F022A640802412020A400905090DB6B22F
:104C00002402BA4210D12B5933432B51C30507D488
:104C100001231F2244121440A3424FD1002331E04C
:104C2000012380221143F4E7E027FF01BA4206D1B5
:104C30002B5933432B51C30538D40623E9E72F59A9
:104C4000B7432F518024A401A24229D1234A904284
:104C500003D1234B00221A6004E0224A904203D180
:104C60001F4A136002230DE01F4A904201D11F4BDF
:104C7000F0E71F4A904203D0C30519D40723C8E7C1
:104C80001A4A13600C2200980B43424301981218F1
:104C900052006244128A1748121892001360F7BD3E
:104CA000C0240223A401A242B0D1B2E70623B8E790
:104CB0000723B6E70123E5E70323E3E78413144062
:104CC000A342F7D0C41414409C42CBD0001610402D
:104CD0008342F1D0FFF756FFA029000002C23A003C
:104CE000C040044063823D0025423C00D040044067
:104CF00049C2010000100110C02110B5054CC901C6
:104D00002068FFF763FF802160684901FFF75EFFBD
:104D100010BDC04600010010802070B54004FFF7B0
:104D200019FFFFF7E9FF1F2101220A4B80241B68AE
:104D3000094D19408A405B0608499B0F9B00595852
:104D4000A4039000AB6823405E4273415B42134072
:104D50004350F7E70001001010E000E0A029000038
:104D600010B50400431DDA7F002AFCD10132DA7746
:104D70000F23E169A0694A791A40073201F09DF8D2
:104D80002000FEF729FF10BD70B503790400002B49
:104D900039D04379002B36D01D4DC2686B699B1A00
:104DA0001C4A934201D9FEF75AFF6379012B13D1B4
:104DB000A31DDA7F022A26D1DA7FD1B2022A22D1BC
:104DC000013261712000DA77FFF7CAFF0023A37276
:104DD0006B6923616B69E3606379022B13D12269EC
:104DE0006B699B1A0C4A93420DD90A23E3562000A3
:104DF000022B09DCFFF7B4FFA37A0133A3726B69BE
:104E000023616B69E36070BDFEF729FFFBE7C046D5
:104E1000740100106F170000B70B0000F0B504001C
:104E200085B0FFF7B1FFA36A1A002C329968107899
:104E3000012802D01278062A36D1DA6C002A33D142
:104E4000002931D0626B127D52072DD5C0205D68DC
:104E50009B682A79DBB20293EB7812021A43AB7992
:104E6000EE791902800001400E43F021A02789004D
:104E70003140BF00B94209D000DD6EE00800802754
:104E80008138FF38B84380B2002868D18EB2002A3A
:104E900067D123682A009F6931002000029BB84730
:104EA000236820005B6A9847E06A00283CD0C1492B
:104EB000FFF78CFEE26AC04D53069B0F9B005859CA
:104EC0001F231A401B3B93401A58A06C531E9A4153
:104ED000BA4B616C5B69824200D184E12364A264B5
:104EE000636C002B06D1002904D0626B7F3B117DDF
:104EF0004B401375C021E06AC901FFF767FE01202E
:104F00001F230100E26A13409940636B52061B7D28
:104F1000920F0340206B92001B1A581E8341AA581F
:104F20005B420B4089008B50A36ADB6C002B12D1D3
:104F300022004C321278002A0DD06279002A06D065
:104F4000E288002A03D081212000FEF76CFE23684E
:104F500020001B6B984705B0F0BD814296D0B6B2D9
:104F600095E7697952BA92B27F2908D902992368E4
:104F700000915F6931002B002000B84790E7A18ABB
:104F8000914200D08CE73C2218009043AA786978BF
:104F900012020A4357BA42B2B9B2002A00DB8FE0CC
:104FA000802816D081283AD0DA0765D46279012AA0
:104FB00000D875E7E2888A4200D071E708210F2007
:104FC00061569B0803408B423DD02000FEF747FE10
:104FD00066E76579002D12D0013D012D00D95FE70C
:104FE000E3888B4200D15BE7744A2000138A0133C7
:104FF00013820A0000238121FEF715FE50E7236883
:105000002000DB6998476D4BE7805B692581E36091
:105010006379012B00D143E70123637140E7637992
:105020002068013B012B00D93AE7E3888B4200D08E
:1050300036E70023614A6371138A01331382C3691F
:10504000200098472CE700265C4B01315B6901404A
:10505000A71D2172E360E51DFE77EB7FB342DBD035
:10506000216A4A7902400732E06900F026FFEB7FAF
:10507000DBB2FB77EE77CBE7FF2B00D110E762794D
:10508000002A00D10CE7082020569B061B0F834204
:1050900000D005E7E3888B4200D001E70A23E356FE
:1050A0002000022B92DC022A90D1FFF759FEA37A4E
:1050B0000133A372414B5A695B692261E360EFE6F9
:1050C000032B21D8671DFB7F002BFCD10C22013361
:1050D000FB772878A36910405C3A02431A700A0AE9
:1050E0001971DA7022680093136A31009C462A0015
:1050F00020006546029BA847002803D02000FEF749
:105100006BFDCDE6F877CBE6E2888A4200D0C7E6B1
:105110006179002900D1C3E69B08092118000F27F7
:1051200061563840030088424AD1C2212000FEF770
:105130007AFD637A01333B406372204B5B69E36025
:10514000A31DDB7F002B2DD12300E76925330393BB
:105150000123039A31001370236800971B6A2A0009
:105160009C4620006646029BB04700281ED00C23B8
:105170002A781A405C3B13433B70E3881A0A3B7160
:105180000823FA70E269E356974202D00F220133F6
:1051900013403C21BA799B008A43134340221343B6
:1051A000BB717DE62300276A2633D0E7039B187086
:1051B00076E6C04610100000A0290000740100101F
:1051C00001390F4D3940884208D1C2212000FEF735
:1051D0002AFD6B8A01336B826B696FE7C321200064
:1051E000FEF721FDF8E7206C002800D178E61B1AB5
:1051F000322B00D574E600236264236470E6C04657
:105200007401001010B53A2304008AB0684605A95D
:1052100001220093FEF779FD1022200006A900F07C
:105220004CFE0598C0B20AB010BDF0B589B003932A
:10523000BE2317000E9C9B0099421BD088339942D5
:1052400000D1BEE2013BFF3B994202D0002009B0F1
:10525000F0BD67236371253B1522A3710233E3710F
:1052600000236272EA322372A272E27223736373C2
:105270000120ECE7BB4E039B54203460092B0ED079
:105280000023107AB84A032159438D5C854209D125
:1052900053185A7828009B78002D07D10120FEF77B
:1052A00031FC82E00133182BEDD1F7E703990A397D
:1052B0000191914201D3994201D95520EFE7AB4BBF
:1052C000AB4A02939B6993420BD0BC2D00D18CE07A
:1052D0002B003D004233DBB20935012B07D95820A2
:1052E000DDE73D000935BF2824D8B72827D9B838CD
:1052F000072824D800F096FD410223002002230055
:10530000790023005D002500DF38102817D800F051
:1053100089FDC601160016001600160016001600BC
:105320001600C401C401B801AC015D01C600D3017F
:105330009800820003002133DBB2102BE4D95F20F8
:10534000ADE7019B0C2B01D05720A8E704A8FFF77D
:1053500059FF0B2847D87F23181AC0B298429ED114
:105360002900019A04A800F067FD002815D02C0040
:1053700015372000FEF7AEFB030E2370030C63709D
:10538000030AA370E0700434BC42F2D10C2229005D
:1053900004A800F051FD0028D6D17F20029B744A5A
:1053A0009A61FEF7AFFBFEF7B9FB00226D4B1A6066
:1053B0005EE7336D1B7DDB0791D504A8FFF722FF65
:1053C0000B2810D87F23181AC0B2984200D066E785
:1053D000BD210C20FEF789FB0C22306804A909309E
:1053E00000F06BFDE1E7732059E7FEF734FB0300A3
:1053F000F43B1D68A8420BD85E4B9D4208D2BB21EE
:105400000C20FEF772FB20000C2229000930E7E790
:10541000029D0835F3E78023039A787A0B3A8118C6
:1054200070605B00994201D95B2038E73900B368AE
:105430000A319B18B360504BC01800F03EFD7F202E
:105440002DE738006C787B7A24020B301C43FEF782
:1054500041FB0022210005000F37FEF713FB002857
:1054600001D15D201BE73800FEF734FB802301905B
:105470005B009C42D8D8404F21003800FEF7B6FDB3
:10548000019B834201D05E2009E7F36800220133CB
:10549000FF3339002800F360FEF758FDFFE6019A5C
:1054A0007368D318802252009342BDD809235B420F
:1054B000DB1BC6270393BF00039B019A5B199A422B
:1054C000BDD92E4C2A78E359012B1DD0022B6BD06D
:1054D000002B17D1013351B22270E360002900DAAA
:1054E0000333520605D4A360012B05DD0123E351EC
:1054F00008E00133A360F9E70223E351C52300224A
:105500009B00E2500135D7E7E1686254A2684B1C6A
:10551000E3609342F6DB0022A2562378002AEBDAFE
:10552000174A02925B061AD5A3787F2B2CD9FEF777
:10553000E5FC0600FEF7FAFCC4239B0002001149BB
:10554000E058029B7118181800F0B7FCFEF7EEFC4B
:10555000C4229200A3581B18A350C623CFE7637838
:10556000E3E7C04674010010102A0000000100109B
:105570005AA55AA5F2FF00002C05001008020010E1
:105580001802001018030010C8239B00E658FEF70D
:10559000B5FC3618FEF7CAFCC4239B000200E05895
:1055A000029B31001818CFE7C42189006358581CAA
:1055B000E3181A74C5239B00E65860500136E65084
:1055C000FEF7B4FC86429DDB002390E7C423C72688
:1055D0007E4C9B00E258B600019201990022A0592E
:1055E000FEF750FA002800D13BE72800FEF772FAD8
:1055F000774F050001993800FEF7F8FC854200D08E
:1056000041E78022734D52002900734800F055FC99
:1056100080222800A159520000F04FFCC4239B00B7
:105620003900E258A05900F007FC7F2500280BD074
:10563000A059000AC0B20100FEF778FB0022390031
:10564000A059FEF783FC0500C7229200A358002151
:105650000133FF33A350C42380229B005C485200D7
:10566000E15000F0F7FB28009BE600225B4B5C4911
:10567000D817C0B2C018001201300002FEF79EFB1E
:105680008FE62800FEF726FA040038000D30FEF7FA
:1056900021FA012201002000F0E70220FFE5DE21CF
:1056A0000420FEF722FA338A1A0A6372738AA272FE
:1056B0001A0A2273E37278E62800FEF70BFA060056
:1056C00038000D30FEF706FA802304005B009E428E
:1056D00000D9A9E6434D31002800FEF787FC84423B
:1056E00000D0D0E6FEF7C8F932002900040000F02F
:1056F000A3FB002807D17F242800FEF7BFFC002869
:1057000018D15930CBE5E017C0B2201800120100C3
:10571000FEF70CFB7F2800D0C1E520000122290004
:10572000FEF714FC04007F28E5D0FEF7EBF95D2CB2
:10573000E2D13AE62000B2E5FEF79EF903680500E3
:105740000193019A264B002647689A4202D8BB4231
:105750007641F6B2FEF77FF9019B834205D387427B
:1057600003D39F4201D3002E05D101235B422B605E
:105770006B60EB60AB60B92142E67D7A002D07D10A
:10578000B6210220FEF7B1F90123A57263720CE67F
:10579000FEF761F9B72105000A20FEF7A6F90123FB
:1057A0006372237300230B22E37202336373A373C8
:1057B0002B0EA3742B0C63742B0AA2722374E57353
:1057C000F3E501234C30037040E5C04608020010A9
:1057D000180200101804001018030010F72B000026
:1057E000FFFF00002C05001010B50400502100F050
:1057F0007BFB200010BDF0B5070085B0FEF7D7F9A0
:105800000323BC6A504E22006363E36300236832C3
:105810002100A360A362138001226F31E360053988
:1058200022754B710B802361E3640B80627522004B
:105830002C322363A364A3634B800B711370A369A1
:105840004249434A8B4263D1C421FF2089007258E8
:105850008243725001251A793E49C86F039207327C
:1058600095402A001D6800230243CA670122EB63AA
:105870006B61AB62A31DDB7F2800029302996B6F03
:105880008A40134301926B67631DD97F8122FEF723
:1058900013FC01226B68304913436B60039B1E327B
:1058A000103313401E3A9A402C4B3260186800F0B7
:1058B0002DFA02222E000138E8606B681836134377
:1058C0006B606B68280093436B60E31DD97F244AAB
:1058D0008B00F3181A600322FEF700FC029B9B006A
:1058E000F618204B3360AB60EB6B019E019A1E40B3
:1058F0001342F9D1E021206AC901FFF767F91A497B
:10590000E069FFF763F901233E647B6405B0F0BDF5
:10591000110074318B4205D1C4218900725813489B
:10592000024096E77C32934204D1C4218900725828
:105930000F48F5E70F4A934200D08BE7C421890056
:1059400072581202120A84E700E100E0E001001040
:10595000740100100480044040420F001C0100103C
:1059600050140000FFFF000020200000FF00FFFF98
:10597000FFFF00FFF8010010FA21F8B5334B890052
:105980000700186800F0C2F9FFF7E4F80023304C74
:10599000304A6361403B23862F4B304D1360A36434
:1059A00063695A1C013300D10122EA602E220126CC
:1059B0002000236D1C301A75236D5E75FFF71BFFE9
:1059C000002F22D0A36C002B1FD07F23226D5B42BF
:1059D000117D0B43C0211375A06CC901FFF7F6F8C8
:1059E0001F233100A26CE06C13409940236D5206D6
:1059F0001B7D920F33401B1A581E8341184892009A
:105A000012585B420B4089008B50012620001C304D
:105A1000FFF704FAEA68002A0FD063699B1A0CD4D6
:105A2000A31CDB7F002B0CD06369FA33EB60002BE7
:105A300000D1EE602B7C73402B742A7C094B5A609A
:105A4000E4E7FA22636992009B18EFE71C0100105B
:105A5000740100100001001040825C00F40100108D
:105A6000A029000000000250F7B50026724B734CCD
:105A70001E71734B0122E366230074331A71714B5C
:105A80009218636723007C331A716F4BE3676F4B87
:105A900001930323019A13726D4B5360FDF7ECFFE2
:105AA0006C4D070005223100280000F0D3F92800D2
:105AB0008022310052001030AE60EE6000F0CAF972
:105AC0002800802211303100FF30920000F0C2F92E
:105AD000C4239B00EE500433EE500433EE500433E5
:105AE000EE5038000433EE50FEF7C8FAB04200D151
:105AF0009AE03868C8239B00E850043BE8501C201B
:105B000000F0F6F9002501230600836045600220BD
:105B1000514BF0603360514F00F0FCF9504B6C3743
:105B2000E36101235B420570457030613760A384F7
:105B30001720E31DB582B561DD774A4F2562A56266
:105B4000E56200F0E7F90200030017321D7001332F
:105B50009342FBD16063172000F0DCF902000300E0
:105B600000211732197001339A42FBD1A06317202C
:105B700000F0D0F902000300002117321970013340
:105B80009A42FBD1E0634C377020E76100F0B0F936
:105B900023001C3303600500172000F0BBF901004F
:105BA0000300002217311A7001339942FBD1230000
:105BB0007433AB612C4B6860EB6128682B4BAA8473
:105BC0002B6203685B6B9847070000F0A3F9002283
:105BD0000300013F002F2ADA03222865AB1DDB7F7B
:105BE000002702331340EA1DD3772B002C331F709C
:105BF0000123E3642300200068331F701C4A1D4BFF
:105C0000A2641A602A6A1C495A601C4B1C4A1C3048
:105C1000656426656765A765E765A561E36100F0D2
:105C200045F9019BDF60F7BDFDF715FF62E71A70CC
:105C3000013F0133CEE7C046E001001074010010BF
:105C400000C000400000014000400140F40100108D
:105C50000080014008020010602A0000202A000095
:105C6000B82A0000A02A000028C201002982690089
:105C700040825C0000010010D50100002C2B0000C8
:105C8000200100108E2120201A4B89005A5882438F
:105C90005A50002271391A62FF39C0460139002971
:105CA000FBD101221A645A6459645A64596C114236
:105CB000FCD023228E2180209A6089005A5882438A
:105CC0005A500122D9681142FCD0032119670021E2
:105CD0005A6759675A670122596F1142FCD09A6777
:105CE0000549064BD967064B1A60064B1A60064BEE
:105CF0001A607047008004405F0001000480044087
:105D000094800440988004409C8004400022430812
:105D10008B4274D303098B425FD3030A8B4244D373
:105D2000030B8B4228D3030C8B420DD3FF220902B5
:105D300012BA030C8B4202D31212090265D0030B74
:105D40008B4219D300E0090AC30B8B4201D3CB036A
:105D5000C01A5241830B8B4201D38B03C01A5241AC
:105D6000430B8B4201D34B03C01A5241030B8B42AE
:105D700001D30B03C01A5241C30A8B4201D3CB0299
:105D8000C01A5241830A8B4201D38B02C01A52417E
:105D9000430A8B4201D34B02C01A5241030A8B4281
:105DA00001D30B02C01A5241CDD2C3098B4201D399
:105DB000CB01C01A524183098B4201D38B01C01A17
:105DC000524143098B4201D34B01C01A524103098E
:105DD0008B4201D30B01C01A5241C3088B4201D33D
:105DE000CB00C01A524183088B4201D38B00C01AEA
:105DF000524143088B4201D34B00C01A5241411A11
:105E000000D20146524110467047FFE701B500201D
:105E100000F006F802BDC0460029F7D076E77047CB
:105E20007047C04603B47146490840004900095A0A
:105E300049008E4403BC704730B500240139A242AA
:105E400001D1002005E0035D01340D5DAB42F6D0C9
:105E5000581B30BD03008218934200D1704719705F
:105E60000133F9E770B500260C4C0D4D641BA410EE
:105E7000A64209D1002600F0B5FA0A4C0A4D641B6F
:105E8000A410A64205D170BDB300EB589847013667
:105E9000EEE7B300EB5898470136F2E7702B0000AD
:105EA000702B0000782B0000702B0000030010B551
:105EB0000800190000F00AF810BD002310B59A423E
:105EC00000D110BDCC5CC4540133F8E710B5040018
:105ED00004481300002804D00A000220210000E03A
:105EE00000BF10BD0000000010B500F017F810BD95
:105EF00010B5041E00D10134200000F041F8002844
:105F000000D010BD00F00EF8002801D100F010F80C
:105F10008047F1E710B5FFF7EBFF10BD10B500F0BB
:105F200039F810BD014B18687047C0462C060010A8
:105F3000FEE7FFFF06480749091A8B10C90FC91869
:105F400010B5491003D0044B002B00D0984710BD6A
:105F5000740100107401001000000000054B10B522
:105F6000002B03D00449054800E000BFFFF7E2FF23
:105F700010BDC0460000000030060010842B000059
:105F800010B5034B0100186800F030F810BDC04692
:105F90002401001010B5034B0100186800F0C4F88C
:105FA00010BDC0462401001070B50F4E0D003168C1
:105FB0000400002902D100F0A3F83060290020007D
:105FC00000F09EF8431C03D101256D42280070BDEE
:105FD0000323C51C9D43A842F8D0291A200000F0D5
:105FE0008FF80130F2D1EFE7480600100323F7B530
:105FF000CD1C9D43083506000C2D34D20C25A9423A
:1060000033D8300000F06CF8344F3B681C00002C93
:106010002FD129003000FFF7C7FF0400431C58D1DF
:106020003C682100002949D1002C4CD02368300065
:10603000E318019300F064F8019B834243D1236885
:106040003000ED1A2900FFF7AFFF01303BD0236885
:106050005B1923603B68002B3DD05A68A24230D1C7
:1060600000225A6012E0002DC9DA0C2333600020B0
:10607000FEBD2168491B1ED40B2917D96219256062
:10608000A34211D13A60636811605360300000F0A0
:106090002FF8200007220B30231D9043C21A98428C
:1060A000E6D01B1AA350E3E75A60ECE76268A3420C
:1060B000D7D13A60EAE723006468A8E70C00496892
:1060C000B0E71300C7E70C233000336000F010F88E
:1060D000CDE70560DAE75B60FFDEC0464C060010E6
:1060E00010B5024800F01EF810BDC0465006001062
:1060F00010B5024800F017F810BDC0465006001059
:10610000002370B5064D040008002B6000F056F81F
:10611000431C03D12B68002B00D0236070BDC04608
:10612000540600107047704770B505000C1E10D063
:10613000043C2368002B00DAE4182800FFF7D0FFA6
:106140001D4A1368002B05D1636014602800FFF717
:10615000CFFF70BDA34208D9206821188B42F3D12C
:1061600019685B6809182160EEE71A005B68002B6C
:1061700001D0A342F9D911685018A0420BD1206870
:106180000918501811608342E0D118685B68411803
:1061900011605360DAE7A04202D90C232B60D5E7E7
:1061A000206821188B4203D119685B6809182160A7
:1061B00063605460CAE7C0464C06001070B50D4DD0
:1061C00004002B68002B01D10B4B2B6003232E689E
:1061D00003349C433419200000F010F8002802D149
:1061E0002C60300070BD00F015F801260C237642BB
:1061F0000360F6E7580600105C0600100300044830
:10620000002803D000228342524110007047C0464C
:1062100000000000014B18687047C04624010010C0
:106220000000005000000150000002500000035028
:106230000300040007000B000C000D001300140005
:10624000180019001A001D001E001F002000240065
:106250002500280029002A0005000E001B0026004A
:1062600002000A00170023001000110000000800BF
:106270000900150016001C002100220027002B0039
:106280000F001200000000000000000000000000ED
:10629000000000EF02FEEE0A0AED0808EC01FEEB3A
:1062A0000404EA0000E90808E80303E70808DF003F
:1062B00000DE0404DC0101BF0C0CBE0000BD0C0CB0
:1062C000BC0000BB0C0CBA0000B90C0CB80202B741
:1062D0000A0AB6020201FFFF0000000000000000F1
:1062E0004B040000550400006B0400001D04000076
:1062F0003104000000000000000000000000000069
:106300000000000000000000000000004B0400003E
:10631000550400006B0400001D040000310400005F
:10632000A9010000A9010000AF010000B3010000B5
:10633000000000000000000000000000000000005D
:1063400009150000A50100002F0300000000000057
:106350000000000011040000BB010000000000006C
:10636000000000000000000000000000000000002D
:10637000000000009D150000A5010000771F00002F
:10638000000000000000000011040000BF01000038
:10639000B10200008708000000000000B902000000
:1063A000AD0200000000000000000000D501000068
:1063B000691F00009D150000A5010000771F000067
:1063C000D10100007303000011040000AB190000AC
:1063D000B102000087080000B7010000B902000008
:1063E000AD020000F8B5C046F8BC08BC9E46704738
:1063F000E9210000DD260000F8B5C046F8BC08BC65
:106400009E46704740825C00298269005B534220AF
:106410004B4E5820424C205D00000000A55AA55A62
:10642000006CDC02000000002801001000000000E9
:106430000000000068000000D00000000000000024
:10644000000000000000000000000000000000004C
:10645000000000000000000000000000000000003C
:10646000000000000000000000000000000000002C
:10647000000000000000000000FFFFFFF8B5C0466C
:10648000F8BC08BC9E46704791340000E937000014
:0C649000F8B5C046F8BC08BC9E4670473A
:10649C002141565021403A5342626C7520202031E4
:0864AC002E313100006CDC020E
:04000003000030DFEA
:00000001FF
