:1000000000200010DD000000D70000009D27000048
:1000100000000000000000000000000021DFFFEFF2
:10002000000000000000000000000000D9000000F7
:100030000000000000000000DB000000651300006D
:10004000D5000000D5000000D5000000D50000005C
:10005000D5000000D5000000D5000000D50000004C
:10006000D5000000D5000000D5000000D50000003C
:10007000D5000000D5000000D5000000D50000002C
:10008000D5000000A51E00004D220000D500000094
:10009000D500000031130000000000000000000047
:1000A000D5000000D5000000D500000000000000D1
:1000B000D5000000D5000000D5000000D5000000EC
:1000C0001C450000000000107800000078000010BF
:1000D00038020000FEE7FEE7FEE7FEE7F0B5DE4B84
:1000E000DE4985B08B4200D2ECE00020DC498B4237
:1000F00000D2F5E003F078FC03F056FEFA21D94B6C
:1001000089001868019303F0B3FC01F0D3FE0023CB
:10011000D54F4C213B62D5482433D54A02F0FAFD35
:1001200001235B423B64D34BD34C5B7E002B01D05D
:1001300001F052F9D149D24801F0FAFE2300FF3311
:100140005B7E002B01D001F047F9CE49CE4801F08B
:10015000EFFE2300FF335B7E002B01D001F03CF962
:10016000BFF34F8FBFF36F8F8022C84B9203DA67C4
:100170008023C74A5B01D16F01260B43D3678322DB
:10018000C44DC54B1E60EA60C44A926F1968019B5A
:100190001868504303F06CFC96210009890103F0B4
:1001A00067FC030A6B600323C0B22860EB60043372
:1001B000AB6000232B616A68200032436A60A36051
:1001C000E3602361636101F03BF8012401226B6964
:1001D0001C40134200D08EE0C521B14D89006A5801
:1001E000B04BB14E1A40C0231B0213436B50802307
:1001F00001229B032B609F4BFA215A76AB4B0532B1
:100200005C709C703B0038331C703B0039331C70B1
:100210000F2333733B003D331C703B003E331C7097
:100220003B004B331C703B004C331C703B003C3399
:100230001C703B003F331A7033009433186874709D
:10024000036834615B687461B461F4613462746240
:1002500034727472B472FF3198473B0044331870A3
:100260003B0001223A331A703B003B331A70F472A0
:10027000347030000023983021001A0000680134E7
:1002800000F0A6FC162CF4D180218948490101F028
:100290004FFEC0218748C90101F04AFE0022C0215B
:1002A000854BC901DA67854801F042FE0223844A82
:1002B0009360844A1168C9071FD412681A421CD17E
:1002C00001F010FE00221D685F689868BE18AC1827
:1002D000904201D80C3305E7246804323460F5E716
:1002E00000221E685C68B518944201D80833FEE607
:1002F00028600432F7E72B6867E7734B5B68DB0520
:1003000000D19CE07C24FA20013C000102F04AF973
:10031000002CF8D1FA20000102F044F902F064FA4E
:1003200080233800DB022B60303001F009F8FA211D
:10033000019B8900186803F09BFB3C6B013803228A
:10034000E0600121200001F077F8F4230122FF335F
:10035000E3616368134363603400B36A28342000A8
:100360009B689847200000F0A3FA002800D148E1DC
:100370003C00383402F038FA2378002B10D13A00D0
:100380004B321278002A00D1A2E03A003D321278B6
:10039000002A00D0AEE04D4801F02CFF0623237068
:1003A000330098331D682B6828005B6998470190DB
:1003B000002800D11DE12B6828001B6998470078B0
:1003C000002800D115E100246C61019A630894466D
:1003D00008219C44D35C01221940144202D0190028
:1003E0007E329143621C002900D1FCE08B436146C0
:1003F00092B20B706A61002C00D0C5E035009835D0
:100400002100286800F0CBFB3B0001224B33024067
:100410001A70012318420BD1337A002B08D0200028
:100420002D6800F043F921000200280000F0FEFBD7
:10043000B37A002BB4D03B004B33002258E0FA23B0
:100440003A6A5B00396A8A4201D130BFFAE7013B60
:100450003A6A002BF6D161E7C0000000CC00000032
:10046000D400000020000010F8000010A0000010D0
:10047000F2030000630200106401001000103C0051
:1004800061C2340F006040006082341004E100E07B
:1004900004800440008000409880044000800440B4
:1004A00000E100E0FF00FFFF78000010790000107D
:1004B0000B41100665C281000400035041C2740064
:1004C0000000025010E000E000ED00E07441000088
:1004D0003B004C331B78002B47D03B003E331B784E
:1004E000002B3BD1484801F085FE3B000622383303
:1004F0001A7055E73A004C321278002A3AD03A0086
:100500003E321278002AEDD04049741C185D002854
:1005100036D00022555C05422FD0DB009B18DAB2A2
:10052000019207221340CB5C751C0293019B029A37
:10053000DC08330098331B6803932B5D134200D112
:100540002EE7019800F0B2F801990200039800F03C
:100550006DFB2B5D029A93432B5521E73B003D3306
:100560001B78002BD0D02A48BDE73B003D331B78D9
:10057000002BF8D13B003E33F2E70132082AC9D103
:100580000133032BC2D10BE7350098352868012CC5
:100590001CD1012100F003FB3B0002004C33224040
:1005A0001A7020420BD1737A002B08D001202C68DE
:1005B00000F07CF801210200200000F037FBB37A44
:1005C000002B00D1ECE63B004C3336E7022C00D088
:1005D000E6E63A0000234B3213703A004C321370B7
:1005E0000133B372DCE694B2A04200D9EDE60123F8
:1005F0006B61306D00F00EF8002800D1ACE630BF22
:10060000AAE602F0F1F8A7E67B4100006142000093
:100610008241000002002C3211780300012903D02E
:1006200000201278824203D1D86C43425841C0B2B4
:10063000704707490A78824207D042408B78D20738
:1006400004D5202213438B70087070474022F9E7CD
:10065000780000108023DB04C118114B020099427E
:100660001CD8002812DB8021002009018A4212DAFE
:10067000C002104380B208E0012352105205DB0291
:10068000500D184380231B0218437047054B9842B6
:10069000F2DB0023F2E752100130E7E70248F4E70B
:1006A0000080FF0700F8FFFFFF7F000003234343A4
:1006B0004B4970B55A5C0E2A2AD10E2800D989E020
:1006C00003F056FB080C0F08120C8888888888886D
:1006D00023171C00434B1C7A200070BD414B5C7AF1
:1006E000FAE7404B9C7AF7E73E4BDC7A631E9C416D
:1006F000F2E73C4B1C7801231C40EDE70124394B09
:100700001B789C42A4416442E6E7364B1C78E3E741
:100710000F2A5FD0334B1D7B1C1D954202D00C3439
:100720009200A41803224243891888784A78013835
:10073000A218052850D8147803F010FB0327CE2BFD
:100740003F0D5178937809042406D2781B020C439C
:100750001C431443C0E75078917800042406090232
:1007600004430C43FC2194331868D2780368144383
:100770005B68FF31A40898470007ADD5E121200050
:10078000090103F075F90400A6E7537824021C431D
:10079000A2E75278FF21A218192494331868544311
:1007A0000368114A5B684900A418984743B20A20BD
:1007B00058430019FFF74EFFE5E75378002C01D1AD
:1007C000012B0BD0094824021C430521604303F090
:1007D0004FF9EFE7012496E7022494E7044C7BE706
:1007E0008C4100007800001030F8FFFFE02300008B
:1007F000FF8700007047006970470069013070474B
:1008000000690230704700690330704700690430A6
:10081000704700690530704700690630704700690D
:100820000730704700690830704700690930704729
:1008300000690A30704700690B30704700690C305E
:10084000704700690D30704700690E3070470069CD
:100850000F307047006910307047006911307047E1
:100860000069123070470069133070470069143016
:10087000704700691530704700691630704700698D
:10088000173070470069193070470069FF307047B2
:1008900000696230704700696330704760207047BC
:1008A0006120704700487047644100001220704783
:1008B00070B50379002B01D1002070BD836EC06E2E
:1008C0001C7D5D7D03689B6C9847092300781C4064
:1008D000082CF1D1012DEFD1FF3843425841C0B26D
:1008E000EBE78182704700207047E0239B0099422C
:1008F00002D101234C30037000207047172070474D
:100900000022836A9A607047BFF34F8F024B034AFD
:10091000DA60BFF34F8FFEE700ED00E00400FA0558
:1009200070B50400006D0D000368DB6E9847067813
:10093000206D36020368DB6E9847437833439D424F
:1009400011D0206D0368DB6E98472B0A0370206D71
:100950000368DB6E984701234570226D1375034BC6
:100960001B6A32339361A58270BDC046F800001047
:1009700070B50500006D0C000368DB68984700281F
:1009800005D0286D036821001B68984770BD686B0F
:1009900021000368DB6898470028F7D0686BF1E70F
:1009A00037B51400F0220125C06B92000A406D4259
:1009B00001680095CD682100A84701203EBDC023F5
:1009C000F7B5089C05009B00994269D00BD88020A0
:1009D0000E00013BFF3B86439E4220D0803B994264
:1009E0000ED00020FEBD4B4B99426DD04A4B994230
:1009F00000D185E0E0239B009942F2D14C356AE0BA
:100A00006421D379127A61716339A17141390B4341
:100A1000E371002322726372A3720120E2E70F23C5
:100A2000D679107A1E40537A1B020343A0205BBA8A
:100A30009BB2019380002B6881421AD022002B6860
:100A400028005B6C01991F000A323300B847431E2F
:100A50009841404206403300633363710223A3711F
:100A60003E333343E371019B1B0A2372019B637284
:100A7000D3E71B6C28001F00019933000A32B847E6
:100A80000028AED02B6828009B6B98471F28A8D958
:100A9000686B03685B69984703785B07A1D5CDE76E
:100AA000D3799B069DD163236371603BA3713D3372
:100AB000E37103689B6B9847000A20722B6828003B
:100AC0009B6B98476072A8E7537A127A4C35072AD5
:100AD00001D1FF2B02D001232B7082E764236371C5
:100AE000613BA3719E33E371002323726372013370
:100AF000A3728023094A5B051A6002232B708CE7DE
:100B0000622363715F3BA371CF33E37100232372D0
:100B100083E7C04681030000D103000055B01F5E8B
:100B2000010030B56A310B889BB20361C36C002BA6
:100B30000FD000248025C46402680B882B40551D0B
:100B4000EC77941DE57F012D10D15A4253415B0093
:100B5000E377002301220B80427502000363836464
:100B600083636C326E301380037030BD0732D47FE4
:100B7000012CEED15C4263415B00D377E9E7036867
:100B800070B59B6804000D00984743780020052B42
:100B900004D92368290020005B68984770BD03686A
:100BA00070B505005B680E0098472B6804001B6851
:100BB0003100280098470219531E1878A41A1A19F0
:100BC000002A00DC70BD013B1A7800021043F6E7F2
:100BD000F7B50193036805001B680E0017009847DE
:100BE000041E1BD02B6831005B6828009847431C0B
:100BF00014D02018031B002B11DC2B6828005B6924
:100C0000984700280AD07310C2180F21C35CF6075A
:100C100009D50B40019909010B431370F7BD2770EB
:100C20003F0A0134E6E78B430199F5E710B503234A
:100C3000FFF7CEFF10BD30B504000D0085B00A22CD
:100C40000B4901A803F0DBF8236829009B6820000A
:100C5000984743780120052B05DD0F2B05DC01AA01
:100C6000D318063B187805B030BD01204042FAE7A2
:100C700069410000436810B50400186D0368DB6D1E
:100C800098470178081E06D06068036D5B68C91834
:100C900089B2FFF76DFE10BD036810B51B69040033
:100CA0009847002803D041786068FFF761FE10BDC7
:100CB000036810B51B690C009847002803D0032176
:100CC00061430231401810BD10B50400FFF7F0FF7A
:100CD000031E0BD05B78017860689B0603D5036D1B
:100CE0005B68C91889B2FFF743FE0300180010BD06
:100CF00010B5FFF7DDFF013010BD0023421D437129
:100D0000D377821DD377C21DD3770122524202814D
:100D100002320271024AC380C3609384D384704755
:100D2000F80000100222431D10B5DA770F23816905
:100D30004A791A40036807329B6A984710BD10B57C
:100D4000436B1B7DDB0710D5C02905D080235B00DA
:100D500099420CD0002010BD517A137A0902194330
:100D6000036849BADB6889B298470120F3E7431D5D
:100D7000DA7FD1B2002AFBD10132DA778369B0245D
:100D8000D9701971E1219A713F321C705971DA7171
:100D9000FFF7C8FFE9E7F0B585B003930368029158
:100DA0001B68040017009847029906002000FFF70F
:100DB000E6FE63685A1DD17FCDB2AC460029FAD158
:100DC0000131D1779B69BC22B9B21F710F271A700C
:100DD0000A0ADA70421C1740202252423A435A71E2
:100DE000039A8027002A00D0403F00281FD01A0015
:100DF000013E0832002815DC624600263A439E7107
:100E0000DA71029822680090D76820008022B847E3
:100E10006068FFF787FF029BE36063689B6A5E750B
:100E200005B0F0BD355C013815700132E2E732786B
:100E30009446E1E7F0B589B0069343680400986BE7
:100E40000491036805929B68984763680578019050
:100E5000986B049903681B6898470390002808DB87
:100E60006B000793019B5F1C019B079AFB1A9A4238
:100E700001DA09B0F0BD3B78039A934238D17D780E
:100E80000E9B9D4234D0236829009B682000984720
:100E90004022059E0378403E964332D12C3A1340BF
:100EA000934225D12368290020001B6898470290AF
:100EB00000281DD029002000FFF761FE002819DD61
:100EC000069AC31DD31872429A5C02998A5501365C
:100ED0008642F8D1236820005B699847002807D034
:100EE0008022EB0700D4783A6D10435D13434355DD
:100EF0000237B9E73F22069BDB791340029A137051
:100F0000E8E7059A002AF3D10C3213409342EFD15F
:100F1000012329002000049AFFF73DFFE8E7F8B518
:100F20000C00411DCD7F002DFCD140260135CD7731
:100F3000170A8569D2B2344203D0990021430E4387
:100F4000F4B2B0232B70503BEF702A716B71AC710F
:100F5000FFF7E8FEF8BD0B4A10B5938C040001338F
:100F600093844379002B01D0002343718121200019
:100F7000E2880023FFF7D3FF23682000DB6998474E
:100F800010BDC046F80000100023821D0730D37743
:100F9000C3777047426803000020914203D39B68E7
:100FA0008B424041C0B27047030010B5002091420F
:100FB00006D85C68A14203D39B6893424041C0B20B
:100FC00010BD43680069C91A4018704742680300A1
:100FD000891AC2680020013A8A4201D31B69585C11
:100FE0007047426810B5891AC2684C1C013A030068
:100FF0000020944204D81A69535C105D1B02184308
:1010000010BD43680069C91A401870474268030060
:10101000891AC2680020013A8A4201D31B69585CD0
:101020007047426810B5891AC2684C1C013A030027
:101030000020944204D81A69535C105D1B021843C7
:1010400010BDC26883689A4203D08368C018007ECE
:10105000704701204042FBE7C3688068181A00D53A
:101060008030704710B5064B002A01D1984710BD5B
:10107000BFF34F8FBFF36F8F72B6984762B6F6E734
:10108000F11FFF1F322330B58BB00093030901938A
:1010900005000B090C000122684605A90293FFF721
:1010A000E1FF059BDBB20593002B0FD1FA213B3307
:1010B0000093084B890018680195029402F0D8FC4F
:1010C0000122039005A96846FFF7CCFF0598C0B23E
:1010D0000BB030BD20000010F0B5C3171B051B0D71
:1010E000C31804000E0015008BB01B13BFF34F8F05
:1010F000BFF36F8F72B632226846009205A90022B4
:1011000001930293FFF7AEFF059FFFB20597002FF3
:1011100004D062B60598C0B20BB0F0BD3323FA21FB
:1011200000930D4B8900186801940296039502F014
:101130009FFC3A00049005A96846FFF793FF059AC3
:10114000002AE6D13823684605A900930194029647
:101150000395FFF787FFDCE72000001030B50C4D4A
:101160008BB0A86A002811D13523022400930122F4
:10117000684605A901940294FFF774FF059B072BAD
:1011800002D00234802CF2D12003A8620BB030BD13
:10119000F8000010F8B50400FFF7E0FF0C4FC51988
:1011A000FFF7DCFFC7198020E6694001310002F03B
:1011B0005FFC013870433818A84201D20020F8BD06
:1011C000E368C318013B1B78FF2BF8D1801BF3E7C2
:1011D00000F0FFFFF8B505000C0000268F18BC4298
:1011E00001D13000F8BD2B68217828005B68984752
:1011F00001343618F3E70200FF32527E0300101E5E
:101200000DD018695A6990420AD10C4A506980067B
:1012100006D511600223012051680B4353607047CB
:101220007F205A690132024018698242FCD0586915
:101230001818983001705A61004AEBE700800040AE
:101240000300FF335B7E002B03D0026943699A429F
:10125000FBD17047194B30B55A69920607D5016921
:101260004269914209D102215A688A435A60012495
:101270007F215A6922420DD130BD7F210269821837
:10128000983212781A6002690132026102690A40DA
:101290000261ECE7C268856801320A40AA420AD0BE
:1012A0001D68C26882181576C2680132C260C268C1
:1012B0000A40C260DDE71A68DBE7C04600800040F4
:1012C000030070B5FF335B7E002B28D07F25C368F9
:1012D0008168C468826801332B4094421CD08268C4
:1012E0008218147E82680132826082682A4082609D
:1012F0008B420FD10B4B5B69DB070BD5BFF34F8FD5
:10130000BFF36F8F8025084BAD03DD67FFF7A2FFAA
:10131000064B1D60200070BD01246442E8E70124F3
:101320006442F7E70080004004E100E000E100E0F3
:1013300010B50248FFF78EFF10BDC04664010010D3
:1013400001230279064907329340002210B5CC6F81
:101350002343CB670368DA635A619A6210BDC046C3
:1013600004800440024A136A013313627047C04686
:10137000F8000010036870B55B680C009847030024
:10138000021E00D00278012021120333E4B282420F
:1013900002DA0120404270BD1D788D4202D15D7895
:1013A000A542F8D001300233F1E7436810B5D86E9A
:1013B00003689B6E984710BD436810B5D86E0368EC
:1013C00004699B6D98470078201810BD036810B51C
:1013D0005B689847007810BD10B50A4C2000FFF7F5
:1013E0002FFFBFF34F8FBFF36F8F8022064B920307
:1013F000DA67064A0649D36FFF340B40D3670023F0
:10140000637610BD6401001004E100E00480044034
:10141000FFEFFFFF0323594310B589B2DB18802A81
:1014200000D1043B07248C408B40826AA243826235
:10143000826A1343836210BD032330B507254B43F3
:101440009D409A4044694900AC4344614469224349
:10145000426130228A40C36B9343C363C36BC3634F
:1014600030BD70B5836A1868808A040A4C70887031
:10147000FF24002085B2AA421FD88C54D964BFF340
:101480004F8FBFF36F8F72B61A002C321178C8B22B
:10149000012910D105311170DA1D9B69D17F1C68BB
:1014A0008A00230018339B18186003222000FFF7DE
:1014B000C3FF0023A36062B670BD0D5C01306C40B9
:1014C000D8E770B50400836981221D68431DD97F68
:1014D0002800FFF79FFFE31DDE7F28003100022276
:1014E000FFF7AAFF1835084BB600AE193360A31DED
:1014F000DB7F01229B00ED18044B2B6023002C3373
:101500001A700023A36270BDFEFF0000FFFF000001
:101510001021F0B5431DDB7F8269994012680400F9
:10152000106887B0014223D0980013002C331B1899
:101530001868E31DDD7F1300AD0018335B19E56902
:101540001E686F06BA4BBF0FBF00DB195F6C1F230D
:101550001D401B3BAB401D00EB59002B02D011601E
:1015600007B0F0BD936898421BD81B1A022BF3D921
:1015700027002C373B78D8B20E2B01D900F085FC20
:1015800002F000FC110023002C00380089013B020E
:101590006B02D102070316036503EE031104430433
:1015A0005604F318E1E7A3691A68631DD87F102376
:1015B00083401168194201D100F067FC0023936059
:1015C000FF22A3691B681A60CAE7A3691B681A682F
:1015D000631DD97F10238B401A42F1D022000023D3
:1015E0006F322364073AD3711380FF22A362013361
:1015F00062662366631D0293DB7F0193A3690198F2
:101600001D6810231A0082402968114200D015E19C
:10161000656E266C002D3BD1236E002B3ED100233E
:10162000A36206333B70236C012B00D0F0E0230053
:101630006C331A78002A00D1EAE000221A702200E6
:101640001021683213888B431380E26D002A03D087
:10165000636CCC2B00D1BCE0216B636B994200DB47
:10166000B7E0A16BE36B994200DBB2E023002000FE
:1016700021006A336D306E31002A00D0BBE00422B5
:101680001D882A431A800023037001330B7035E054
:101690002200683211880B431380C0E70623A5623D
:1016A0003B70072EBFDD2C22236D1B789343902BBC
:1016B00000D0ADE0206803685B6B9847B042B2DBB6
:1016C000236D1979DA78090211435B7949BA2268E6
:1016D00089B27F2B14D94E424E41906BF6B2051E53
:1016E00004D003681B689847C543ED0F3543236852
:1016F0005B6B1B7D5B0706D5002D04D14D4E46E08C
:10170000938A9942F3D12020216D0B78034213D0A4
:10171000A368002B4FD1CC22A262226C216D934290
:1017200052DBA2602200683213889BB2E360002380
:1017300013800133237515E0626815786B4083438D
:10174000E6D1206C01380133834204DACE5CD55CEB
:10175000AE42F8D0DCE78342DAD1A368002B2AD16D
:10176000CC33A362236840215B6B1A7D01235208AE
:101770009343226D12780A40134301D00023A362E1
:10178000A36A002BBAD00523B6263B70F600E31DF2
:10179000DF7FA36939001D6803222800FFF74CFE94
:1017A000029B2800BF0018358122D97FED19FFF771
:1017B00031FE2E6004E700232200A3626832118804
:1017C00040330B431380CDE7C95C6268D1540133C9
:1017D000A3E7226B636B9A4203DAA26BE36B9A4234
:1017E00005DB220080236A3211880B43138020001E
:1017F000FFF796F982E7626CC02A00D03FE71D88A8
:10180000B03A2A431A8001230B4E03700B70BEE7D7
:1018100023006F331A78002A02D000221A706DE775
:1018200022008023683211880B43138066E7C0468C
:101830008C410000E8130000883C0000019BA86870
:101840009A002B002C339B18E21DD17F2A001B68C5
:101850008E001832921983421AD2C31A022001262E
:101860001B1868606E60AB608F23DB00136028007C
:101870000322FFF7E1FD812228000199FFF7CAFD4D
:1018800004233B70002366656364A365E66597E601
:1018900016688019E1E70121E51DE87FA369814011
:1018A0001B681A680A40511E8A4104A9D2B2CA7044
:1018B000CA780331002A27D0183380001B181B6810
:1018C0000593A36D059A1800443090427ADA683384
:1018D000A36580235B009C46059AA36D1000626D92
:1018E000560001961E00443686425CDA624511DCE1
:1018F000666C683332436264E26DA365564272419E
:10190000019BE2656365E7E7621DD27F2C3392009D
:101910009B18D4E7059B019B63650B78002B5FD078
:10192000636C266CDAB26264002E08D19B0706D085
:1019300022008023683211885B000B4313802068EB
:1019400003685B6B9847864243DA236C226D616CB7
:10195000581C2064D154636E626C53406366E36D1F
:10196000002B05D1210008226831088802430A8033
:10197000226E1340236603233B70A369E97F1D6831
:101980008A002B0018339B189A2252001A60343AAE
:101990002800FF3AFFF750FD631D81222800D97F00
:1019A000FFF738FD0CE6059E2133B342B3DA8023FE
:1019B0005B009A42AFDC220068321688FC3B33435E
:1019C0001380A8E7220004236832108803431380A1
:1019D000A3E722002023683211880B431380BEE75F
:1019E0008223059ADB009A4200DCE9E5220001230C
:1019F000683211880B431380E2E5A3691D68631DFB
:101A0000DB7F2A6801931023019916008B401E404A
:101A10001A4203D00023A36202237AE12A0068213C
:101A2000A664A31DDB7F18329B00D3181960E31D49
:101A3000D97F28008B00D2188B2313600322FFF775
:101A4000FBFC812228000199FFF7E4FC23006A33A4
:101A500026641E8007233B70B2E5651DEB7F812263
:101A60000193A36901991E683000FFF7D3FC10238E
:101A7000019932688B401A42CED1226B636B9A4235
:101A800003DAA26BE36B9A4208DB220080236A32FE
:101A9000118820000B431380FFF742F8E16C002906
:101AA00000D1F2E10F224B7913400833A3642300E5
:101AB0006E331B78002B0BD020230A781A4207D0F4
:101AC0009A430A70A26CE16C013A885C43408B54E3
:101AD0002422E36C1B781340934222D1D0235B0075
:101AE0000593A36905991E68A31D3200DB7F183298
:101AF0009B00D3181960E31DD97F05988B00D3187C
:101B00002330186003223000FFF796FC812230005A
:101B1000E97FFFF77FFC220000236A3223641380F1
:101B200098E76823DCE71020631DDA7FA369904003
:101B30001B6819001D68183105421BD092002C3318
:101B40009B18A21DD27F186892008A181168073965
:101B5000814202D9A16A002907D019681368103B95
:101B60008B4205D9A36A002B02D0CA4B136053E7FE
:101B7000082370E71A68E31DD97F01238B401A42BE
:101B800007D0082322003B706A32118818330B43B8
:101B90001380A36A002B32D0A36A802163640123DF
:101BA0004900626CFF2B30DD0123636508333B7015
:101BB00068238022616C05935200636D5D0065654A
:101BC0000B4201D0934226DDA26980261068621D77
:101BD000D17F0200059B1832B6000192682B1EDDF2
:101BE0000A2381223B70FFF715FCB5421EDCA31DC2
:101BF000DB7F059A01999B00233ACB181CE0236CEC
:101C0000E26C591C2164D35CC7E71A4201D04A40F8
:101C100062645B00C5E7059B68330593CDE78022CE
:101C2000FFF7F8FBB542E2DD0B233B70A31DDB7F22
:101C3000019A9B00D318974A1A60A369E21D1B689A
:101C4000D27F0599183392009B181960B8E4631D80
:101C5000D97FA3691D6810238B402A681A4279D066
:101C60008B0029002C31C9180E686821300001F062
:101C700085FF3D2900D8A3E4A11DCB7F18359B002B
:101C8000ED182B68073BB34262D9230001222000E4
:101C90006F331A7040236A3005882B43038023007A
:101CA000002068331880FF236366A36A2266E2651A
:101CB000834230D0A062A3691B6802931833039358
:101CC000CD7F6821AD005D1928682130801B01F0AF
:101CD000CFFE636D3200013003410A20683AA265ED
:101CE000626C591E0A406365019262645B10002BAE
:101CF00023D1E31DD97F6823434303988A009B19AE
:101D00008218136002980322FFF796FB614B2B6049
:101D100004233B702CE420006E300270226C013AE8
:101D20002264226C9A42C6DDE26CD05C226DD054F3
:101D3000626E013342406266F3E7019A0138134252
:101D400004D0E16D0A0051425141E1655B10CEE7DC
:101D5000092380E60B23802228003B70FFF75AFB03
:101D6000A369216C1A68A36C1832994202DAA36A3B
:101D7000002B0AD00C233B7039330593E31DDB7F26
:101D800005999B00D21811601AE49C235B0005930F
:101D9000313BFF3B3B70A31DDB7F05999B00233943
:101DA000D3181960EAE7E21DD57FA36AA269166815
:101DB000002B0CD00023A36206333B70364B0593F7
:101DC000059B1836AD0070190360FFF7F9FB23007F
:101DD00001226C331A70314B290005930D2330001A
:101DE0003B70FFF729FB23006E331B78002BE7D0F5
:101DF00023006D331B78002B03D0A36B0133A36347
:101E0000DEE7236B01332363DAE70E233B70A3691C
:101E100081221D68631D2800D97FFFF7FBFAE31DAF
:101E2000DB7F18359B00ED181D4B2B60FFF7C8FBBF
:101E3000A3691D68631DD97F10232A688B40100099
:101E400018401A4200D0E7E5230001226E331A70D1
:101E50002200023B187008236A3210880343138063
:101E600006233B70E31DDE7F2B00B20018339B1866
:101E7000094A28001A608122FFF7CCFA03223100B8
:101E80002800FFF7D9FAFFF79BFB2000FFF719FBAB
:101E9000FFF796FBFFFF0000E8130000AF0500000E
:101EA0009A06000010B5024BD86AFFF731FB10BD4F
:101EB000F8000010802301385B0498420DD2C02145
:101EC000064A090650600648036A1B021B0A0B43B8
:101ED00003620023936007331360704710E000E053
:101EE00000ED00E0802070B54004FFF7E3FF00F054
:101EF00049FB1F2101220B4B80241B680A4D19400E
:101F00008A405B0609499B0F9B00C918496CE40392
:101F10009000AB6823405E4273415B4213404350E4
:101F2000F7E7C0461400001010E000E08C4100000C
:101F3000F0B5430685B09B0F01937D4BF0250393CD
:101F4000019B039A9B00D3185A6C1F2303400293F2
:101F500001231E009C46029BC0279E4080230C0547
:101F60002D020D40240D8914B6B2FF011B02002979
:101F700011D16146BD421DD1D5583543D550C30559
:101F800000D5CAE043121F221D001540A94200D00F
:101F9000C8E0002345E009B2BD420BD1D558354316
:101FA000D5500C2900D070E0624B98425DD1624B55
:101FB000002277E0E027FF01BD4204D1D158314330
:101FC000D1500621DBE7D758B743D75080239B0178
:101FD0009D4236D1594B984209D100220721584BD6
:101FE0001A60584B5A04D20E914248D15BE0564BCE
:101FF000984205D10122524B07211A60534BF1E759
:10200000534B984205D10022524B07211A60524B84
:10201000E8E7524B07219842B1D14E4B01221A609A
:1020200001230C220198039942430298643112184B
:102030005200525A4A49234352189200136005B085
:10204000F0BDC0239B019D426AD00F29A9D1002376
:10205000444A9D00AD58A84202D1434A13608EE71E
:102060000133042BF5D1FFF73DFF404B984200D0E0
:1020700085E70122304B1A6080231C433C4B1B0335
:10208000DB0E8B42EFD10323CBE70D290DD1394B6A
:10209000984201D1384B8BE7384B984200D06EE71D
:1020A0000122354B1A600223BBE70E291DD1344BA8
:1020B000984201D1334B7BE7334B984201D1314BEE
:1020C000ACE7324B984202D102222E4BEAE7304B6A
:1020D000984201D12F4B6BE72F4B984200D04EE72F
:1020E00001222C4B1A602D4BC9E70B290FD1114B44
:1020F000984204D100222A4B9A612A4BBFE72A4B0F
:10210000984200D03BE70122254B9A61CBE7C305FB
:1021100000D437E7022900D134E780231C4331E79C
:1021200002212FE780131040884200D05AE777E75A
:102130008C41000042426500C840044002C23A009F
:10214000C0400440611D000063823D00C11E0000CC
:1021500025423C00D0400440211E000049C201003D
:1021600000100110E0410000D44004402A83300CEC
:102170004118060043826D00CC400440298269006A
:102180000A4A7006B04004404B823B0006027000D1
:1021900041C27400C44004406242350EA11A0700D7
:1021A00000400440A13200004482590070B50E493D
:1021B0000E48FFF7BDFEA0228023D2059B01D55813
:1021C00080212C00631E9C4108484901E4B2FFF7BE
:1021D000AFFE002D05D0064B9A68002A01D00022E0
:1021E0009A60200070BDC046081000000B41100628
:1021F0000000025070B50600FFF7D8FF002818D085
:10220000104D02212800FEF7F6FF00243178002946
:1022100010D10D4E2309F15C2800FEF7ECFF0F23CF
:102220001C40315D2800FEF7E6FF03212800FEF781
:10223000E2FF70BD0C192800FEF7DDFFE4B20136A5
:10224000E4E7C0466401001050420000FF22F0B5F0
:10225000C54C85B0236B1A602200C44B38321D79FF
:102260000093013DEDB21D711378002B14D0013B9A
:10227000DBB21370002B0FD1220039321378FF2B01
:102280000AD00133DBB21370042B05D90220B84BFE
:102290001B781843FEF7CDF901231D4200D0E8E07A
:1022A000B34D2B7A002B00D112E1EE7A002E00D133
:1022B000E1E0013EF6B2EE72002E11D12F00983708
:1022C0003B6804200193FEF7F1F90421020033007A
:1022D0000198FEF77DFC31002A7A3868FEF7A6FCEB
:1022E000A34E737A002B2AD03700FC21943738682C
:1022F000FF3103685B689847800620D59D4B9D4A57
:102300001B78013BDBB21370002B18D1F821386821
:10231000FF3103685B689847FC21964BFF311870CA
:10232000386803685B6898470223184202D07278C5
:102330001343737020238E4A51780B435370009BD4
:102340001B799B0721D127003C373A78002A1CD003
:102350002100874E3D310978337A0B43717A0B4364
:1023600013D123003E331B78002B0ED10D2A00D948
:10237000CFE027003C373B78063B072B00D8E4E052
:1023800022003C321378013B1370009B1F793B07FE
:102390006FD120003F300378002B35D025007449E1
:1023A0003D352D780A7A2A434D7A2A432CD12200D2
:1023B0003E321278002A27D1220038321278002AC1
:1023C00022D1013BDBB20370206C00281CDA032B06
:1023D00000D1CA6105214B43674A684E9D5CFFF7F7
:1023E000E5FE00280CD044362B09F35C03A80370EB
:1023F0000F231D40735D437000238370FFF7FAFEC7
:102400002300062238331A70002F32D17823009A25
:10241000574D1371230022003D333E321B78127852
:102420001343012B03D0AB7A002B00D0AF722300F3
:102430003F331A78002A01D106321A70FC219435F4
:102440002868FF3103685B689847C00611D52600ED
:1024500044363378013BDBB23370002B09D1FA21CB
:102460002868FF3103683C345B6898471523307057
:10247000237005B0F0BD2E00FC2194363068FF318A
:1024800003685B689847400600D429E727003A377D
:102490003B78013BDBB23B70002B00D020E7FD21F5
:1024A0003068490003685B689847FC2138703068E1
:1024B000FF3103685B689847400703D501226B78BA
:1024C00013436B7008232A4A51780B43537007E774
:1024D0002E00FC2194363068FF3103685B68984712
:1024E0000123184200D1FBE627003A373B78013B35
:1024F000DBB23B70002B00D0F2E6FD2130684900D2
:1025000003685B68984708236A78387013436B70D8
:10251000E6E63300FE2194331868FF3103685B68F8
:102520009847174B3A789B1A5B7D034200D120E70E
:10253000230007203C331B78114AD9080136034099
:10254000D35C725C134373541AE7FE2194352868F8
:10255000490003685B689847094B3A789B1A5B7B94
:102560000342E5D10CE7C046F8000010140000104B
:102570007800001033010010694200000C42000096
:1025800061420000C02110B5054CC9012068FFF769
:10259000CFFC8021A0684901FFF7CAFC10BDC046EE
:1025A0001400001070B50D4C0600A5680120ADB2F6
:1025B000022E06D90A4B0B49186801F059FA023E5F
:1025C0007043002800DC70BDA3689AB2AB1A01D535
:1025D00061685B181500C01AF3E7C04610E000E020
:1025E0002000001040420F00F0B507000C008DB035
:1025F000B86AFEF70FF80028FAD0B86D002803D0AB
:10260000036821001B6898473D6D2B7D002B69D026
:10261000BFF34F8FBFF36F8F72B62800FEF7BAFD7E
:102620000400FEF79BFD514BEE69C318802031007A
:102630004001019301F01CFA01387043019B181806
:1026400084423ED1FEF78AFD484BC418FEF786FD52
:10265000464BC018844238D13223E6173605360D72
:10266000A6193613012207A902A80293039604961D
:10267000FEF7F8FC079BDBB20793002B1BD1FA2176
:10268000343302933A4B890018680396049601F09C
:10269000EFF90122059007A902A8FEF7E3FC079BCA
:1026A000002B08D13533012207A902A80293039613
:1026B0000496FEF7D7FC079BDBB2002B05D0FFF793
:1026C00011FC002CBED0A419C0E700262B69EA68D3
:1026D0009B18013B1E70EA68964235D300232B7588
:1026E000AB6162B67C6D002C2BD0224D635D002B5C
:1026F0000FD0A0680100FEF7C5FC0028DFD18022C2
:102700002100606852001431FEF7E6FC0028D6D1A3
:102710006055194D635D002B13D08526B600A05976
:102720000100FEF7AFFC0028C9D121008022A0598A
:10273000153100025200FF31FEF7CEFC0028BED159
:10274000605501200DB0F0BD8023921BDB009A4242
:1027500000DD1A002969A0198919FEF7BDFC0028BF
:10276000ADD18023DB00F618B5E7C04600F0FFFFCF
:10277000200000102202000021020000012110B5FB
:10278000FFF732FFBFF34F8F024B034ADA60BFF30C
:102790004F8FFEE700ED00E00400FA05802070B5E1
:1027A0004004FFF787FBFFF7EDFE1F2101220B4BD3
:1027B00080241B680A4D19408A405B0609499B0F1B
:1027C0009B00C918496CA4039000AB6823405E428B
:1027D00073415B4213404350F7E7C04614000010BA
:1027E00010E000E08C410000F0B5B54F85B0380036
:1027F000FEF732FC002849D03800FEF761FD0028C2
:1028000044DBB04DC4B22B6C002B04DA022CF3D1A4
:1028100001332B64F0E75E10032C00D034E1FFF7A6
:10282000C5FC002803D006213800FEF7E4FCF6B210
:10283000012E27D92B00002238331A702B00393390
:102840001978013EF6B2914206D01A709E4B187864
:1028500002239843FDF7EDFE2A00453213780F213D
:1028600018008843C02869D10B40042B10D0092BD5
:1028700053D00B2B53D00C2B0BD00D2B51D0052448
:102880000E2B06D001228F4B52421A6405B0F0BDC8
:1028900000248D4FA200BB181B6945357B600023C7
:1028A000190001950133D8B286423CD80F233B73FF
:1028B0000A3B6343BA181161844AD3180193019B00
:1028C0005C78FF2CDED03E00200098363568FDF79E
:1028D000EDFE0023020021002800FEF779F907220F
:1028E0007B4B22409B5C7D1C0293E3080393029A7E
:1028F000EB5C13420ED020003668FDF7D7FE2100B6
:1029000002003000FEF792F9039B029AEB5C9343BE
:10291000039AAB54019B0133D0E70124B9E70224A9
:10292000B7E70424B5E7DD00AC4608256D42AC44AA
:1029300065460198185CA8400143B3E7822BA1D1FA
:10294000042E9FD953789578102201931A400C23B6
:102950002B401A431600FC21731E9E415D4F0292CC
:102960003868FF310368584C5B68F6B29847000638
:102970007FD5029B002B7CD0FC213868490003687E
:102980005B6898472300E072983304201F68FDF7C6
:102990008DFE0023020004213800FEF719F9237A86
:1029A000B34206D023009833320003211868FEF7A3
:1029B0003DF960232B405A1E9341627A2672DEB2A3
:1029C0009A420BD027009837320001213868FEF771
:1029D0002DF9320005213868FEF728F901233E4A17
:1029E00066722909374E194011703200E9093E32EA
:1029F00011702A00207842401A4214D01D4098439A
:102A00002843FDF716FE0C252300E8B298331F6813
:102A1000FDF74CFE29000200002338000135FEF7C7
:102A2000D7F80F2DF0D1019B1B070ED532004B328A
:102A30001378002B02D000231370E37233004C3361
:102A40001A78002A01D000221A70019B9B0700D43B
:102A500018E70322207845363379104001321342BB
:102A600000D01043DB0601D508231843FDF7E1FD34
:102A700008E7237AB3429CD0230098333200002128
:102A80001868FEF7D3F88AE70B2B00DDFEE622007C
:102A9000303AD2B2092A06D92200413A052A00D991
:102AA000F4E6373CE2B201210B4205D02900453162
:102AB000895D09010A43D2B2290045318A55A7E64A
:102AC00064010010F8000010780000106942000056
:102AD000614200000C01001035010010F0B585B016
:102AE0000190FEF70AF9019B4C4E9C6A03232200D9
:102AF0006363E363002368322100A360A362138051
:102B000001226F31E360053922754B710B8023611F
:102B1000E3640B80627522002C322363A364A363F9
:102B20004B800B711370A7693D4A3E4B974259D1B8
:102B3000C422FF219200B3588B43B3503800FEF7F4
:102B4000FFFB0122A31DDB7F3D68039303996B6F9D
:102B50008A40134302926B67631DD97F812228004C
:102B6000FEF758FC01226B682F4913436B603B79D9
:102B70001E32103313401E3A9A402C4B32601868B4
:102B800000F076FF02222E000138E8606B681836EC
:102B900013436B606B68280093436B60E31DD97F20
:102BA000234A8B00F3181A600322FEF745FC039BAF
:102BB0009B00F6181F4B3360AB60EB6B029E029AD2
:102BC0001E401342F9D1E021206AC901FFF7B0F994
:102BD0001949E069FFF7ACF90123019A53641664BF
:102BE00005B0F0BD1A005832974205D1C4229200B8
:102BF000B35812490B40A0E71A003032974204D173
:102C0000C4229200B3580E49F4E760339F4295D135
:102C1000C4229200B3581B021B0A8EE700E100E0B9
:102C200048010010F800001040420F002000001082
:102C300050140000FFFF000020200000FF00FFFFF5
:102C4000FFFF00FF10B5838A0400002B03D1036847
:102C50000749DB6898472000FFF740FF2300012267
:102C60005C331A70034B1B6A63662323236610BD13
:102C7000FFFF0000F8000010F7B50193036804009F
:102C8000DB68006D009303681500DB6E0E0098474B
:102C90000778206D3F020368DB6E98474178009B00
:102CA0003943200098472E22636B00271A75606B0A
:102CB00003685B69984701220770636B5A75206D42
:102CC00003689B6C9847FF230370206D03685B6C5F
:102CD00098470770206D03681B6A9847331203708A
:102CE000206D03685B6A98470670206D03689B6AD5
:102CF00098472B120370206D0368DB6A98470570B4
:102D0000206D03681B6B9847019B0370236D1F7533
:102D10009F61F7BD10B50400FFF7AEFF2000FFF77D
:102D200091FF10BD10B50400782101F07FF820005C
:102D300010BD10B50400431DDA7F002AFCD101321A
:102D4000DA770F23E169A0694A791A40073201F066
:102D500056F82000FDF7E6FF10BD70B503790400BA
:102D6000002B39D04379002B36D01D4DC2682B6A19
:102D70009B1A1C4A934201D9FEF7EDF86379012BA7
:102D800013D1A31DDA7F022A26D1DA7FD1B2022A1B
:102D900022D1013261712000DA77FFF7CAFF0023E8
:102DA000A3722B6A23612B6AE3606379022B13D130
:102DB00022692B6A9B1A0C4A93420DD90A23E356C7
:102DC0002000022B09DCFFF7B4FFA37A0133A372C2
:102DD0002B6A23612B6AE36070BDFEF7BCF8FBE74A
:102DE000F80000106F170000B70B0000F0B50400EA
:102DF00085B0FFF7B2FFA36A1A002C3299681078E9
:102E0000012802D01278062A38D1DA6C002A35D18E
:102E1000002933D0626B127D52072FD5C0205D6828
:102E20009B682A79DBB20293EB7812021A43AB79E2
:102E3000EE791902800001400E43F021A02789009D
:102E40003140BF00B9420AD000DD72E0080080279F
:102E50008138FF38B84380B2002800D06CE08EB2D1
:102E6000002A00D06AE023682A009F693100200010
:102E7000029BB847236820005B6A9847E06A0028F5
:102E80003ED0C249FFF754F8E16AC14D4B069B0F93
:102E90009B00EB18586C1F230B40042199400958E4
:102EA000A06C4B1E9941BB4B626C1B6A814200D1E6
:102EB00085E12364A164636C002B06D1002A04D051
:102EC000626B7F3B117D4B401375C021E06AC901E5
:102ED000FFF72EF801201F230100E26A13409940FA
:102EE000636B52061B7D920F0340206B92001B1AEE
:102EF000581E8341AD186A6C5B420B4089008B50B1
:102F0000A36ADB6C002B12D122004C321278002A0B
:102F10000DD06279002A06D0E288002A03D08121F0
:102F20002000FDF7FCFF236820001B6B984705B0CD
:102F3000F0BD814200D192E7B6B291E7697952BA09
:102F400092B27F2908D90299236800915F69310004
:102F50002B002000B8478DE7A18A914200D089E775
:102F60003C2218009043AA78697812020A4357BAA3
:102F700042B2B9B2002A00DB8FE0802816D0812847
:102F80003AD0DA0765D46279012A00D872E7E2887C
:102F90008A4200D06EE708210F2061569B0803404B
:102FA0008B423DD02000FDF7D6FF63E76579002D09
:102FB00012D0013D012D00D95CE7E3888B4200D19E
:102FC00058E7744A2000938C013393840A0000234D
:102FD0008121FDF7A4FF4DE723682000DB699847B6
:102FE0006C4BE7801B6A2581E3606379012B00D17C
:102FF00040E7012363713DE763792068013B012BC2
:1030000000D937E7E3888B4200D033E70023614AD9
:103010006371938C01339384C3692000984729E737
:1030200000265C4B01311B6A0140A71D2172E36041
:10303000E51DFE77EB7FB342DBD0216A4A7902407F
:103040000732E06900F0DBFEEB7FDBB2FB77EE7767
:10305000CBE7FF2B00D10DE76279002A00D109E709
:10306000082020569B061B0F834200D002E7E3880E
:103070008B4200D0FEE60A23E3562000022B92DCAE
:10308000022A90D1FFF755FEA37A0133A372414B78
:103090001A6A1B6A2261E360ECE6032B21D8671DE4
:1030A000FB7F002BFCD10C220133FB772878A3692E
:1030B00010405C3A02431A700A0A1971DA702268E9
:1030C0000093136A31009C462A0020006546029B4B
:1030D000A847002803D02000FDF724FECAE6F877B1
:1030E000C8E6E2888A4200D0C4E66179002900D1AE
:1030F000C0E69B08092118000F27615638400300DD
:10310000884249D1C2212000FDF709FF637A0133CB
:103110003B4063721F4B1B6AE360A31DDB7F002BE8
:103120002DD12300E769253303930123039A31004E
:103130001370236800971B6A2A009C46200066468D
:10314000029BB04700281ED00C232A781A405C3B13
:1031500013433B70E3881A0A3B710823FA70E26953
:10316000E356974202D00F22013313403C21BA7933
:103170009B008A43134340221343BB717AE623002A
:10318000276A2633D0E7039B187073E610100000FF
:103190008C410000F800001001390F4D3940884281
:1031A00008D1C2212000FDF7BAFEEB8C0133EB847D
:1031B0002B6A70E7C3212000FDF7B1FEF8E7206C11
:1031C000002800D177E61B1A322B00D573E60023C6
:1031D000616423646FE6C046F8000010F0B503791F
:1031E000050087B0002B00D1DAE0FFF7FFFDAB6AE6
:1031F000DB6C002B00D0D3E02B005C331B78002B62
:1032000000D1B7E02B682800DB6A9847002800D17E
:10321000B0E0674B6A6E1B6A9B1A2A6E934200D21B
:103220009CE0EC6B236820005B69984700900028C5
:1032300000D193E0236820001B699847037801932D
:10324000002B00D18AE02069190000F081FD216186
:103250008FB2BBB20393019BBAB2934203D82369E6
:10326000013323617AE0236839009B682000984786
:10327000037802936368986B03689B68984706001D
:10328000037801365B00C3180493049BB3421DD935
:1032900073789F421CD13378013305936368986B30
:1032A0000368DB689847059B834211D86368986B75
:1032B00003685B68984733785B00C018827843786E
:1032C00012021A4352BA92B2002A03D10137C0E760
:1032D0000236DAE74421029B0B408B42F6D10120F3
:1032E000039B00995B08C91802910099C95C039B74
:1032F000034200D00909CB439B07E7D104200B0010
:10330000034001424ED06368591DC87FC6B20028F1
:10331000FBD10130C877BC219B6919701A71110A61
:10332000E122D9705A719E71DE716068FDF7FAFC76
:103330006368E7609B6A1E7504230721BA001A4080
:103340009140029B01371B788B4301219140029AE7
:103350000B431370164B27611B6A6B66FA21144AE4
:103360006B6E126AC900D21A8A4203D3FA22920003
:103370009B186B662B6D1B7D002B11D0AC6A200057
:10338000FDF748F900280BD0A368002B08D16B7912
:10339000002B05D1064B022128001B6AFFF724F9F8
:1033A00007B0F0BD39002000FDF7F5FCC4E7C046CA
:1033B000F8000010F7B51F0003680D00DB6904007A
:1033C00016009847A84204D1012F02D13378237503
:1033D000F7BD63682000ED1A2368DB699847A842AF
:1033E00008D37B19019323682000DB6998477B1978
:1033F000834210D220693A003100401900F0FFFCEE
:10340000E6E723682000DB6998473378A84206D1B5
:10341000237501360135019BAB42F2D1D8E7226911
:103420005355F6E7F0B585B0019303680E00DB69EC
:10343000040017009847B04206D1019B012B03D12D
:10344000237D3B7005B0F0BD63682000F51A03933F
:103450002368DB699847A84209D3019B20005B19C8
:1034600002932368DB699847029B834212D2216949
:103470003800019A491900F0C2FCE3E723682000F4
:10348000DB699847A84209D1227D039B9B1BFB184F
:103490005A550135029BAB42F0D1D3E723695A5DFF
:1034A000F3E7F0B589B006000C001D00181E069267
:1034B00051D04B1E5B190020049399424BD8706D7C
:1034C00000280CD0036821009B6898470590706D18
:1034D000049903689B689847059B002B1DD1069BA8
:1034E000039301230593306D21000368049A1B693F
:1034F0009847002864D021003000049DFDF738FA79
:103500000E9B01351B782D1B2A00002B4DD001008E
:10351000039800F074FC01201DE000280BD1270067
:103520002B190793069B1B1BDB190393079BBB42BD
:1035300019D11C00D7E70E9A706D12780368002A23
:103540000BD0002200925E6821002B00069AB04743
:1035500043425841C0B209B0F0BD1E6821002B00A3
:10356000069AB047F4E7706D390003689B68984786
:1035700000280ED00E9A706D12780368002A0ED0C3
:10358000002200925D6839000123039AA8470028B1
:1035900001D03C00A7E7002301370593C2E71D686F
:1035A00039000123039AA847F1E7039900F027FCAB
:1035B0000123326D1375434B1B6A32339361AAE7C3
:1035C000306D21000368DB689847002816D0336D02
:1035D000210030009D68FDF7CBF90E9B01351B786B
:1035E0002F1B3A00002B1ED00100039800F007FCAF
:1035F000039B2C00DB19039300230593706B2100C0
:103600000368049A1B699847002817D00E9A049BF8
:1036100012780133706B1B1B002A3DD12100039AE5
:10362000FFF7C8FE77E7039900F0E9FB0123326D4D
:103630001375244B1B6A32339361D9E7706B0368AF
:10364000DB699847844206D1706B0368DB69984751
:10365000049B8342DAD0706B21000368DB689847D3
:10366000002824D0706B85686B1C05931F1B0E9B74
:103670001B78002B15D03B002100039AFFF7D2FEE8
:10368000039B059CDB190393049B5D1B049BA342D6
:1036900013D3039B069312E72100039AFFF7C2FEA0
:1036A00039E73B002100039AFFF784FEE8E7049B1B
:1036B0005D1C059B2D1B002BE8D06B425D41E8B2E1
:1036C00049E7C046F800001030B50F24002585B04A
:1036D0006C4425700094FFF7E4FE05B030BD30B5B2
:1036E0000F24012585B06C4425700094FFF7D9FEA6
:1036F00005B030BD80B500AF014B1800BD4680BDA0
:1037000000000010F0B50024984A994B1471994AB2
:1037100001211A651A0058321171974A49189A65A1
:103720001A0030321171954A01311A631A00603261
:103730001171934A85B01A66FA22924B92005A6030
:10374000914A92491A609248FF335C76FEF7F0FB8B
:1037500090499148FEF7ECFB1C2000F06BFB8123A5
:103760005B0083604460060004208C4BFF303360B4
:10377000F0608B4D00F070FB0300021DFF321C70E7
:1037800001339A42FBD10323B3612B0050333061E4
:10379000B48233602020802400F04CFB814B640015
:1037A0007C3583604460C46005600700200000F041
:1037B00053FB0022030001191A7001339942FBD117
:1037C00038613A75BA613800FC61FDF7E3FCFA68CC
:1037D000011E386900D1C1E000F011FB0025724BD9
:1037E00018203B603D75BD6100F024FB6F4B0190DC
:1037F00003936F4B039A836001235B42C3606D4B5D
:10380000426003600561456108206B4C00F012FBCB
:103810006A4B039903606A4B0290A36201234160E3
:103820005B4217202386E5628D726563A56300F015
:1038300013FB0200030017321D7001339342FBD1CA
:103840002064172000F008FB02000300002117325B
:10385000197001339342FBD16064172000F0FCFA29
:103860000200030000211732197001339A42FBD184
:10387000544BA0647020A36200F0DCFA283404608A
:103880000500172000F0E8FA0100030000221731BC
:103890001A7001339942FBD14B4B6860AB614B4BC3
:1038A0002868EB614A4BAA842B6203685B6B9847DC
:1038B000040000F0D1FA00220300013C002C50DA91
:1038C00003222865AB1DDB7F424902331340EA1D0A
:1038D000D3772B0000222C331A70374B8C46596556
:1038E0000121180099650299283019661900039082
:1038F00060461F4C74310A701D653749E5622D6AB8
:1039000008608D60191DCA67190084319A66DA67EC
:103910000A701A002321883211601A00216A8C3241
:103920001160019ADE655A662C4A9F679A621A00F6
:10393000903216601A00943217601A00019998327A
:103940001160029A9C331A602549264A039800F0B8
:103950004FFAFFF7CFFEA06605B0F0BD00F01CFAED
:103960003CE71A70013C0133A8E7C046480100104B
:10397000F800001000C0004000000140004001407D
:1039800000800140640100109042000000103C00E3
:10399000478279000060400048828100B042000008
:1039A0008C420000FF01000080440000A0000010D5
:1039B000E11000008043000078000010A0430000E8
:1039C000B8430000EC4300005001001028C2010081
:1039D0002982690040825C00140000102C44000021
:1039E000F5070000240000108E2120201A4B8900CA
:1039F0005A5882435A50002271391A62FF39C04620
:103A000001390029FBD101221A645A6459645A64AD
:103A1000596C1142FCD023228E2180209A608900AB
:103A20005A5882435A500122D9681142FCD00321CE
:103A3000196700215A6759675A670122596F114265
:103A4000FCD09A670549064BD967064B1A60064BAE
:103A50001A60064B1A607047008004405F00010046
:103A60000480044094800440988004409C8004407A
:103A7000002243088B4274D303098B425FD3030AAD
:103A80008B4244D3030B8B4228D3030C8B420DD3C0
:103A9000FF22090212BA030C8B4202D3121209024E
:103AA00065D0030B8B4219D300E0090AC30B8B428C
:103AB00001D3CB03C01A5241830B8B4201D38B033A
:103AC000C01A5241430B8B4201D34B03C01A5241DF
:103AD000030B8B4201D30B03C01A5241C30A8B4222
:103AE00001D3CB02C01A5241830A8B4201D38B020D
:103AF000C01A5241430A8B4201D34B02C01A5241B1
:103B0000030A8B4201D30B02C01A5241CDD2C30922
:103B10008B4201D3CB01C01A524183098B4201D39E
:103B20008B01C01A524143098B4201D34B01C01A89
:103B3000524103098B4201D30B01C01A5241C30801
:103B40008B4201D3CB00C01A524183088B4201D370
:103B50008B00C01A524143088B4201D34B00C01A5C
:103B60005241411A00D20146524110467047FFE7C8
:103B700001B5002000F0F0F802BDC0460029F7D0E2
:103B800076E7704703460B437FD4002243088B42FD
:103B900074D303098B425FD3030A8B4244D3030BD4
:103BA0008B4228D3030C8B420DD3FF22090212BA99
:103BB000030C8B4202D31212090265D0030B8B4215
:103BC00019D300E0090AC30B8B4201D3CB03C01AFF
:103BD0005241830B8B4201D38B03C01A5241430BDA
:103BE0008B4201D34B03C01A5241030B8B4201D3CA
:103BF0000B03C01A5241C30A8B4201D3CB02C01A35
:103C00005241830A8B4201D38B02C01A5241430AAC
:103C10008B4201D34B02C01A5241030A8B4201D39B
:103C20000B02C01A5241CDD2C3098B4201D3CB0142
:103C3000C01A524183098B4201D38B01C01A5241F1
:103C400043098B4201D34B01C01A524103098B42F5
:103C500001D30B01C01A5241C3088B4201D3CB00E0
:103C6000C01A524183088B4201D38B00C01A5241C3
:103C700043088B4201D34B00C01A5241411A00D273
:103C800001465241104670475DE0CA0F00D04942DC
:103C9000031000D34042534000229C4603098B424C
:103CA0002DD3030A8B4212D3FC22890112BA030AD4
:103CB0008B420CD3890192118B4208D38901921156
:103CC0008B4204D389013AD0921100E08909C309DB
:103CD0008B4201D3CB01C01A524183098B4201D3DD
:103CE0008B01C01A524143098B4201D34B01C01AC8
:103CF000524103098B4201D30B01C01A5241C30840
:103D00008B4201D3CB00C01A524183088B4201D3AE
:103D10008B00C01A5241D9D243088B4201D34B00C9
:103D2000C01A5241411A00D20146634652415B100B
:103D3000104601D34042002B00D5494270476346EC
:103D40005B1000D3404201B5002000F005F802BD31
:103D50000029F8D016E770477047C04602B4714694
:103D600049084900095649008E4402BC7047C046C4
:103D700002B4714649084900095C49008E4402BCFE
:103D80007047C04603B47146490840004900095ACB
:103D900049008E4403BC704703008218934200D14F
:103DA000704719700133F9E770B500260C4C0D4DC2
:103DB000641BA410A64209D1002600F09FFB0A4C08
:103DC0000A4D641BA410A64205D170BDB300EB5888
:103DD00098470136EEE7B300EB5898470136F2E713
:103DE0000845000008450000104500000845000097
:103DF000030010B50800190000F00AF810BD0023F8
:103E000010B59A4200D110BDCC5CC4540133F8E720
:103E100010B5040004481300002804D00A00022052
:103E2000210000E000BF10BD0000000010B500F050
:103E300017F810BD10B5041E00D10134200000F0A9
:103E400041F8002800D010BD00F00EF8002801D184
:103E500000F010F88047F1E710B5FFF7EBFF10BD59
:103E600010B500F039F810BD014B18687047C04616
:103E700080020010FEE7FFFF06480749091A8B1071
:103E8000C90FC91810B5491003D0044B002B00D03E
:103E9000984710BD78000010780000100000000066
:103EA000054B10B5002B03D00449054800E000BFC6
:103EB000FFF7E2FF10BDC0460000000084020010C2
:103EC0001C45000010B5034B0100186800F030F8E5
:103ED00010BDC0462800001010B5034B0100186843
:103EE00000F0C4F810BDC0462800001070B50F4E99
:103EF0000D0031680400002902D100F0A3F8306001
:103F00002900200000F09EF8431C03D101256D42DA
:103F1000280070BD0323C51C9D43A842F8D0291A70
:103F2000200000F08FF80130F2D1EFE79C02001082
:103F30000323F7B5CD1C9D43083506000C2D34D264
:103F40000C25A94233D8300000F06CF8344F3B68A0
:103F50001C00002C2FD129003000FFF7C7FF040000
:103F6000431C58D13C682100002949D1002C4CD079
:103F700023683000E318019300F064F8019B83424A
:103F800043D123683000ED1A2900FFF7AFFF01305D
:103F90003BD023685B1923603B68002B3DD05A68F7
:103FA000A24230D100225A6012E0002DC9DA0C235F
:103FB00033600020FEBD2168491B1ED40B2917D990
:103FC00062192560A34211D13A60636811605360A1
:103FD000300000F02FF8200007220B30231D904303
:103FE000C21A9842E6D01B1AA350E3E75A60ECE7E6
:103FF0006268A342D7D13A60EAE723006468A8E781
:104000000C004968B0E71300C7E70C2330003360A9
:1040100000F010F8CDE70560DAE75B60FFDEC04630
:10402000A002001010B5024800F01EF810BDC046F6
:10403000A402001010B5024800F017F810BDC046E9
:10404000A4020010002370B5064D040008002B6088
:1040500000F056F8431C03D12B68002B00D02360DE
:1040600070BDC046A80200107047704770B50500CB
:104070000C1E10D0043C2368002B00DAE418280042
:10408000FFF7D0FF1D4A1368002B05D16360146051
:104090002800FFF7CFFF70BDA34208D92068211880
:1040A0008B42F3D119685B6809182160EEE71A00AA
:1040B0005B68002B01D0A342F9D911685018A042C7
:1040C0000BD120680918501811608342E0D118689C
:1040D0005B68411811605360DAE7A04202D90C23F3
:1040E0002B60D5E7206821188B4203D119685B68E3
:1040F0000918216063605460CAE7C046A00200103E
:1041000070B50D4D04002B68002B01D10B4B2B60BB
:1041100003232E6803349C433419200000F010F868
:10412000002802D12C60300070BD00F015F8012687
:104130000C2376420360F6E7AC020010B0020010D8
:1041400003000448002803D000228342524110009B
:104150007047C04600000000014B18687047C04619
:1041600028000010424355310001010203040608F3
:104170000A0E0E00303330323130003033303238F6
:10418000300030333032303000FFFFFF0E007F0E42
:10419000007F0E007F0E007F0E007F0E007F00006C
:1041A00001010006020002020303030005030204EA
:1041B0000E007F0E007F0E007F0202030400030446
:1041C00001030402030403030500030501030000C7
:1041D0000000005000000150000002500000035099
:1041E00026C233004782790061C2340F64C279006D
:1041F0000300040007000B000C000D001300140066
:10420000180019001A001D001E001F0020002400C5
:104210002500280029002A0005000E001B002600AA
:1042200002000A001700230010001100000008001F
:104230000900150016001C002100220027002B0099
:104240000F0012000000000000000000000000004D
:1042500030313233343536373839414243444546BC
:104260000001020408102040800406FFFFFF090738
:10427000FFFFFF0B08090FFF0C0A0BFFFF0D1011CA
:1042800012130E1415FFFF000000000000000000D4
:10429000D5110000F7110000C1120000431000000A
:1042A0005910000041120000000000000000000052
:1042B000031000000D10000023100000950F0000F7
:1042C000A90F000000000000000000000000000036
:1042D00000000000000000000000000003100000CB
:1042E0000D10000023100000950F0000A90F000022
:1042F00091080000970800009D080000A108000038
:104300000000000000000000C30F0000CD0F0000FF
:10431000E30F0000950F0000A90F0000000000004F
:10432000000000000000000000000000000000008D
:10433000000000000000000000000000000000007D
:10434000000000000000000000000000000000006D
:10435000000000000000000000000000000000005D
:10436000000000000000000000000000000000004D
:10437000000000000000000000000000000000003D
:10438000C90C0000370C0000F10C0000350E0000D5
:10439000750C0000990C00000000000000000000F7
:1043A00075130000AB130000B9130000CD1300001B
:1043B00000000000000000000000000000000000FD
:1043C0005B2D0000E3080000FB0C00000000000073
:1043D00000000000890F0000E70800000000000056
:1043E00000000000000000000000000000000000CD
:1043F00000000000ED2D0000E3080000DD2A0000B1
:104400000000000000000000890F0000EB08000021
:104410000109000063140000000000000909000009
:10442000FD0800000000000000000000F50700008B
:10443000252D0000DD31000021090000452C000081
:10444000A10900003F0D0000890F0000BF09000016
:104450000109000063140000B10800007D2700007E
:10446000FD080000AD080000A5080000C9360000E6
:10447000DF360000152D00000000000000000000E5
:10448000C30F0000CD0F0000E30F0000950F0000E8
:10449000A90F0000F7070000FB070000010800005B
:1044A000070800000D0800001308000019080000AC
:1044B0001F080000250800002B080000310800003C
:1044C000370800003D0800004308000049080000CC
:1044D0004F080000550800005B080000610800005C
:1044E000670800006D080000790800007F080000E0
:1044F00073080000850800008B080000F8B5C0466E
:10450000F8BC08BC9E46704705370000A13E00007D
:0C451000F8B5C046F8BC08BC9E467047D9
:10451C002141565021403A535F524D5F483620316D
:10452C002E30330040825C00780000002982690044
:10453C00006CDC02000000002C00001000000000E9
:10454C000000000068000000D00000000000000027
:10455C00000000000000000000000000000000004F
:10456C00000000000000000000000000000000003F
:10457C00000000000000000000000000000000002F
:08458C00000000000000000027
:04000003000000DD1C
:00000001FF
