:1030000000200010DD300000D73000004D590000D6
:1030100000000000000000000000000021AFFFEFF2
:10302000000000000000000000000000D930000097
:103030000000000000000000DB300000DD47000061
:10304000D5300000D5300000D5300000D53000006C
:10305000D5300000D5300000D5300000D53000005C
:10306000D5300000D5300000D5300000D53000004C
:10307000D5300000D5300000D5300000D53000003C
:10308000D530000039530000F5660000D53000004F
:10309000D5300000A947000000000000000000003B
:1030A000D5300000D5300000D53000000000000011
:1030B000D5300000D5300000D5300000D5300000FC
:1030C00018770000C00000108400000044010010C8
:1030D000A0010000FEE7FEE7FEE7FEE7F0B5A94B22
:1030E000A94F85B0BB420BD30020A84EB34218D2E3
:1030F00000221C685D68A11895420FD80833F5E7D7
:1031000000221C685D689E68A918A018964201D824
:103110000C33E7E7006804320860F5E70860043222
:10312000E9E703F093FD03F069FFFA210025984BCE
:103130008900186803F0CEFD02F006F9954B98203F
:103140001D6003F0A4FF07001C2003F0A0FF8123F3
:10315000914C5B00020083604560019023000420D5
:103160001033FF301360D06003F0A3FF0300021D93
:10317000FF321D7001339342FBD1019B019A18610C
:103180009D820323936123003C331360202080251C
:1031900003F07DFF814B6D00683483604560C5603E
:1031A00004600600280003F084FF00220300411998
:1031B0001A7001339942FBD130613275B26130002F
:1031C000F56101F0E3F9F268011E306976D003F091
:1031D00039FF0024724B182033603475B46103F05A
:1031E00056FF704D704B2A008360012360325B42B2
:1031F000C36002600290476004614461082003F0EC
:1032000046FF02008035A0C2684D01232A005B42C0
:10321000183203903A603B8117207C60BC72FC60DE
:103220003C6103F046FF0200030017321C700133BB
:103230009A42FBD1B861172003F03BFF0200030064
:1032400000211732197001339A42FBD1F86117201F
:1032500003F02FFF02000300002117321970013321
:103260009A42FBD14C3538623D60702003F00FFF6D
:1032700007600400172003F01CFF01000300002278
:1032800017311A7001339942FBD1424B60601833F9
:10329000A361474B2068E361464BA2842362036825
:1032A0005B6B9847050003F004FF00220300013D1B
:1032B000002D06DB1A70013D0133F9E703F0CBFE68
:1032C00087E703222065A31DDB7F0125023313401E
:1032D000E21DD377002325321370019A36497A63B1
:1032E000039ABC62BA633A004C32F9623B643D63B4
:1032F0001370284A3E65D460304A7B651160216AAC
:10330000BB6551603A005C32137023333B66214B3E
:1033100004201B687B66029BFB63294B0C333B60DC
:10332000019BBB66029BFE663B67039B7B6703F0CA
:10333000AEFEFB6EB8670360042003F0A8FE3B6F8F
:10334000144E0360443633780400BFF35B8F2B4286
:103350000BD1300003F08BFE002806D016220D4B57
:10336000300048331A7003F08FFE0025094B4833B4
:103370001E78E9B28E4225D00022200000F0EEFD3A
:103380000135F6E7C0300000CC300000D43000003A
:10339000DC000010440100106C740000FF0100000C
:1033A0007C760000EC740000E11000006C750000F9
:1033B00028C201002982690040825C00D40000100C
:1033C000EC750000FC671420002403F060FEBE6F63
:1033D000FB6F0500436006608460848184733068FD
:1033E00002F0EEFAE873306802F0EAFAF821287485
:1033F0003068FF3103683E005B6898473B1D687486
:10340000AC74DD67082003F042FEFB6F08360470E1
:103410004360F067202003F03AFE3B1DD96FD54B87
:10342000F26F60330360BB6F05004360FB6FC160E8
:1034300083600261402003F02AFE1122CE4906007B
:1034400003F000FE01235B4233623300C0212833C6
:10345000756174623463B463F4636E611C705C7391
:10346000EC61C648C90101F0ABFFC54BC5495C60C2
:10347000C54801F0A5FF3B0088331D60AC61EC61DD
:103480003D0006223E0090352C6096365A73043378
:10349000380034701C7000F0BBFAF0239B013380BD
:1034A000BA4B38009F634C212423B94A02F056F9E5
:1034B000B88A40BA1D2380B2FB21584303F07AFD3D
:1034C000C900A14221D129603B6838009B68984718
:1034D0003B683800DB6A9847AC4B9B6B002800D1F7
:1034E0005FE21800903001930368002B11D1019B1B
:1034F00088331C68A06905283DD803F075FD1600C7
:1035000034004F006A008A000601280000F090FA9B
:10351000DAE700F06EFA0028E9D1019B986A00F022
:1035200059FA0028D0D030BFCEE7C0219948C90150
:1035300001F046FF0022C021974B98481A62C9014A
:1035400001F03EFF0222964B40219A602069013A29
:1035500000F024FD01232000FA21A3611C30490062
:1035600000F066FA07E020001C3000F042FA022367
:10357000002800D0C7E0019D88352B68586903F00A
:1035800060FA019B0433DB6F1A7B002A00D12DE126
:103590005B7A002B00D030E101247BE1A022802364
:1035A000D2059B01D55880212B005A1E9341744AA5
:1035B0009B0153606A426A412069D2B200F0EEFC7E
:1035C000002DD8D003232000FA21A3611C308900EC
:1035D000C6E725001C35280000F00BFA0028CAD0E9
:1035E000C0216C48C90101F0EBFE0822C0216A4BE2
:1035F0006A481A62C90101F0E3FE0022684B4021CB
:1036000020699A6000F0CAFC042328006549A36180
:10361000A6E720001C3000F0ECF90028ABD0C02158
:103620006148C90101F0CCFE0022604B604DDA67B1
:103630002B00FF335B7E934201D001F009F95D4915
:103640005D4801F0BDFE2B00FF335B7E002B01D0F7
:1036500001F0FEF859495A4801F0B2FEFF355949C8
:10366000554801F0ADFE6B7E002B01D001F0F0F863
:10367000BFF34F8FBFF36F8F8022534B9203DA67F4
:103680008023524A5B01D16F01260B43D36783220B
:103690004F4D504B1E60EA604F4A926F19684F4B76
:1036A0001868504303F016FB96210009890103F0C6
:1036B00011FB030A6B600323C0B22860EB60043384
:1036C000AB6000232B616A68394832436A608360CB
:1036D000C3600361436100F0EFFF6B69334201D0C7
:1036E0002B68FAE7C5203E4B80001A583D4911402F
:1036F000C02212020A431A50802292031A602C4BF5
:10370000FF335E760523A36135E76469200030301E
:1037100000F06FF9002809D0250028352B7820000B
:10372000002B23D000F09CFF00232B7020002430BE
:1037300000F05FF9002805D0200000F07DFF200098
:1037400000F082F92000383000F053F9002800D151
:1037500011E70621164800F04AFF012320005B42D2
:10376000214923623C3000F063F904E700F06CF972
:10377000DCE7C046EC750000D9730000468201000A
:10378000FC000250081000000B411006440100101C
:10379000F203000063823D000000035041C2740048
:1037A000000002508813000065C28100040003502D
:1037B0009401001000103C0061C2340F0060400012
:1037C0006082341010103C0004E100E004800440EA
:1037D000008000409880044000800440DC0000101D
:1037E00000E100E0FF00FFFFDC0500005C7B002C37
:1037F00049D0DB7A0224002B4CD00126019B1C6FA0
:10380000236820005B699847051E74D02368200058
:103810001B69984703789C46002B6CD0002161619E
:1038200008204B089BB2EA180292EA5C1040314231
:1038300002D010007F2398434B1C9BB2002856D027
:1038400082430298027063610229D7D8019BCDB2EE
:103850000433DC6F002900D082E06368186800F050
:1038600036FB3040207308D1237A002B05D0A37C8F
:10387000002B02D1200002F0AAF8A37B002BBDD0C0
:1038800000232373BAE75A7A002A03D1DB7A1400A3
:10389000002BB2D02B685D692B6A002BADDA2E00AD
:1038A00028363378002BA8D1EB6B002B06D1012CE6
:1038B0000BD0022C16D007223D4908E028003C30EE
:1038C00000F097F80028F2D197E707223949300035
:1038D00003F0B8FB2B000022353328001A7000F0EB
:1038E000BFFE8AE707223449F1E7190098E79C45B3
:1038F000FBD801236361019D8C352B78002B00D010
:103900000BE6019B88331B689B69052B00D004E6FE
:1039100080232A4C2A48DB022360203000F04CFF31
:10392000C42189006358274A1A408023DB031343CC
:103930006350254BD831186803F0CCF9204A431E58
:10394000106A01210322C36000F0B2FF01211C4B69
:103950001E4A1B6ADA615A680A435A602970DCE51C
:10396000012D17D163683100186800F0B0FA0540E6
:10397000657308D1A37A002B05D06368320031004B
:10398000186802F007F8A37B002B00D136E700236C
:10399000637333E700212000A181A67300F0F4FADD
:1039A0002CE788331B68586903F04BF88CE5C04658
:1039B000D2730000C4730000CB73000000E100E08C
:1039C00044010010FFFF00FFDC000010E7030000CF
:1039D0001720704702002C3211780300012903D010
:1039E00000201278824203D1D86C43425841C0B2C1
:1039F0007047030001680020814206D0034A126824
:103A0000521A824201DB18600130704744010010F5
:103A1000FA2110B50400836FFF31186803685B68F2
:103A2000984723009433187006239534237010BDF3
:103A3000044B1B685918002901D00160704701230D
:103A40000360FBE74401001010B504004069616B9E
:103A5000036835345B6898470023237010BD006904
:103A60007047006901307047006902307047006993
:103A700003307047006904307047006905307047B3
:103A800000690630704700690730704700690830E8
:103A9000704700690930704700690A307047006953
:103AA0000B30704700690C30704700690D3070476B
:103AB00000690E30704700690F30704700691030A0
:103AC0007047006911307047006912307047006913
:103AD0001330704700691430704700691530704723
:103AE0000069163070470069173070470069193057
:103AF00070470069FF3070470069623070470069A5
:103B000063307047602070476120704700487047FD
:103B1000B47300001220704770B50479002C0FD0E8
:103B2000836EC06E1D7D5E7D03689B6C9847092384
:103B30001D40082D04D1012E02D10378FF2B00D0A7
:103B40000024200070BD70478182704700207047BC
:103B5000E0239B00994202D101234C3003700020E6
:103B600070470022836A9A607047BFF34F8F034B00
:103B7000034ADA60BFF34F8FFEE7C04600ED00E076
:103B80000400FA05F7B5019303680400DB68006DD3
:103B9000009303681500DB6E0E0098470778206DD0
:103BA0003F020368DB6E98474178009B3943200051
:103BB00098472E23626B00271375606B03685B695F
:103BC000984701230770626B5375206D03689B6CE7
:103BD0009847FF230370206D03685B6C984707705C
:103BE000206D03681B6A984733120370206D0368C9
:103BF0005B6A98470670206D03689B6A98472B1292
:103C00000370206D0368DB6A98470570206D0368B8
:103C10001B6B9847019B0370236D1F759F61F7BD58
:103C200070B50400006D0D000368DB6E98470678E0
:103C3000206D36020368DB6E9847437833439D421C
:103C400011D0206D0368DB6E98472B0A0370206D3E
:103C50000368DB6E984701234570226D1375034B93
:103C60001B6832339361A58270BDC04644010010C9
:103C700070B50500006D0C000368DB6898470028EC
:103C800005D0286D036821001B68984770BD686BDC
:103C900021000368DB6898470028F7D0686BF1E7DC
:103CA00037B51400F0220125C06B92000A406D4226
:103CB00001680095CD682100A84701203EBDC023C2
:103CC000F7B5089C05009B00994200D171E00CD823
:103CD00080200E00013B8643FF3B30009E4222D0F5
:103CE000803B994211D000201CE04E4B994200D1FC
:103CF00073E04D4B994200D18AE0E0239B0099424A
:103D0000F1D14C3501232B70EDE76421D379127A80
:103D10006171A4390B430120E3710023A071227269
:103D20006372A372FEBD0F23D6791E40137A9C46A0
:103D30006746537A1B023B435BBA9BB20193A023B5
:103D40009B00994232D12B6828001B6C01991F00FF
:103D50000A323300B8470028C5D02B6828009B6B77
:103D600098471F28BFD9686B03685B699847037839
:103D70005B07B8D522002B6828005B6C01991F00F7
:103D80000A323300B847431E984140420640330090
:103D9000633363710223A3713E331E43019BE671BB
:103DA0001B0A2372019B63720120BBE781429AD1F7
:103DB000E0E7D3799B0696D163236371603BA371DF
:103DC0003D33E37103689B6B9847000A20722B68B0
:103DD00028009B6B98476072E6E7137A4C35072BF7
:103DE00000D08FE7537AFF2B00D08BE79B3B6371AA
:103DF000613BA3719E33E3710023237263728023BE
:103E000001200A4A5B05A0721A6002232B7089E721
:103E1000622363715F3BA371CF33E371002323728D
:103E2000C2E7C04681030000D103000055B01F5E09
:103E3000010030B56A310B889BB20361C36C002B63
:103E40000FD000248023C4640D8802682B40551DC8
:103E5000EC77941DE57F012D10D15A4253415B0050
:103E6000E377002301220B80427502000363836421
:103E700083636C326E301380037030BD0732D47FA1
:103E8000012CEED15C4263415B00D377E9E7036824
:103E900070B59B6804000D00984743780020052BFF
:103EA00004D92368290020005B68984770BD036827
:103EB00070B55B690C0015009847002806D0E30731
:103EC00000D52D016410025D1543055570BD0368D2
:103ED00070B505005B680E0098472B6804001B68EE
:103EE0003100280098470219531E1878A41A1A198D
:103EF000002A04DD013B1A7800021043F7E770BD89
:103F0000F7B50193036805001B680E00170098477A
:103F1000041E1FD02B6831005B6828009847431CA3
:103F200018D02018031B002B03DD27703F0A013433
:103F3000F8E72B6828005B69984700280AD07310BF
:103F4000C2180F21C35CF00705D50B400199090188
:103F50000B431370F7BD8B430199F9E710B50023AC
:103F60000068FFF7CDFF10BD70B5040000681600B3
:103F70000D00FFF7ACFFB04205D00323320029004B
:103F80002068FFF7BDFF70BD0A0010B5531E9A41AF
:103F9000817404214068FFF7E7FF10BD70B504008D
:103FA000007803008B43002A01D003000B43012556
:103FB0001A00237060680C21FFF7D6FF2278606832
:103FC0002A400D21FFF7D0FF22780E21AA43531E6D
:103FD0009A416068FFF7C8FF70BD30B504000D005E
:103FE00085B00A220B4901A803F02CF823682900A8
:103FF0009B682000984743780120052B05DD0F2B97
:1040000005DC01AAD318063B187805B030BD0120A5
:104010004042FAE7B9730000436810B50400186D18
:104020000368DB6D98470178081E06D06068036D51
:104030005B68C91889B2FFF71BFE10BD036810B595
:104040001B6904009847002803D041786068FFF797
:104050000FFE10BD036810B51B690C0098470028BF
:1040600003D0032161430231401810BD10B5040094
:10407000FFF7F0FF031E0BD05B78017860689B06AA
:1040800003D5036D5B68C91889B2FFF7F1FD030022
:10409000180010BD10B5FFF7DDFF013010BD802303
:1040A000DB04C118104B020099421AD80023984231
:1040B00006DB802109018A4210DB52100133FAE746
:1040C0000A498A4202DA52100133FAE75005400DDC
:1040D000DB0203430648184380B27047D8021043FE
:1040E000FAE70448F9E7C0460080FF0700F8FFFF41
:1040F0000080FFFFFF7F00000023421D4371D37744
:10410000821DD377C21DD37701225242028102322F
:104110000271034AC380C3609380D3807047C04656
:1041200044010010022210B5431DDA7783698169CA
:104130005A790F231A40036807329B6A984710BDCB
:1041400070B5436B1D7D01232C001C401D4225D002
:10415000C02905D0FF3399420CD00024200070BD47
:10416000517A157A09020368294349BADB6889B292
:104170009847F3E7431DDA7FD1B2002AFBD1013221
:10418000DA778369B025D9701971E1219A713F32CC
:104190001D705971DA71FFF7C5FFDFE71C00DDE71D
:1041A000F0B585B00393036802911B680400170003
:1041B0009847029906002000FFF769FE63685A1DC0
:1041C000D17FCDB2AC460029FAD10131D1779B69BC
:1041D000BC22B9B21F710F271A700A0ADA70421C8A
:1041E0001740202252423A435A71039A4027002A2C
:1041F00000D1FF19002809D01A00013E083200281A
:1042000006DD355C013815700132F8E732789446E6
:10421000624600263A439E71DA7102982268009045
:10422000D76820008022B8476068FFF77BFF029BB9
:10423000E36063689B6A5E7505B0F0BDF0B589B058
:10424000069343680400986B0491036805929B6889
:104250009847636805780190986B049903681B6818
:1042600098470390002853DB6B000793019B5F1C6A
:10427000019B079AFB1A9A424ADB3B78039A9342C6
:104280002FD17E780E9B9E422BD0236831009B68F5
:10429000200098474022059D0378403D954329D151
:1042A0002C3A134093421CD12368310020001B6834
:1042B00098470290002814D031002000FFF7E7FD56
:1042C000002810DD069AC31DD3186A429A5C029931
:1042D0004A5501358542F8D1082231002000FFF708
:1042E000E6FD0237C4E73F22069BDB791340029AC2
:1042F0001370F1E7059A002AF3D10C321340934270
:10430000EFD1012331002000049AFFF749FFE8E7CD
:1043100009B0F0BD70B5441DE57F002DFCD101351D
:10432000E5778469AF3525702271150A60226271C4
:10433000203AE570114203D1A171FFF7F3FE70BD81
:104340009B0019431143F7E70A4A10B5938804000C
:10435000013393804379002B01D0002343718121E5
:104360002000E2880023FFF7D5FF23682000DB69E7
:10437000984710BD440100100023821D0730D377F9
:10438000C377704703005A680020914203D39B68AB
:104390008B424041C0B27047030010B500209142EB
:1043A00006D85C68A14203D39B6893424041C0B2E7
:1043B00010BD43680069C91A40187047426803007D
:1043C000891AC2680020013A8A4201D31B69585CED
:1043D0007047426810B5891AC2684C1C013A030044
:1043E0000020944204D81A69535C105D1B021843E4
:1043F00010BD43680069C91A40187047426803003D
:10440000891AC2680020013A8A4201D31B69585CAC
:104410007047426810B5891AC2684C1C013A030003
:104420000020944204D81A69535C105D1B021843A3
:1044300010BDC26883689A4203D08368C018007EAA
:10444000704701204042FBE7C3688068181A00D516
:104450008030704710B5141E04D0BFF34F8FBFF3E8
:104460006F8F72B6024B9847002C00D062B610BD19
:10447000F11FFF1F322330B58DB002930309039360
:1044800005000B090C00012207A902A80493FFF7FD
:10449000E1FF079B01936B461B790793002B0FD11C
:1044A000FA213B330293084B890018680395049462
:1044B00002F010FC0122059007A902A8FFF7CAFF2D
:1044C0000798C0B20DB030BDDC000010F0B5C317C6
:1044D0001B051B0DC31804000E0015008DB01B1327
:1044E000BFF34F8FBFF36F8F72B6322207A90292CC
:1044F00002A8002203930493FFF7ACFF079B0193EC
:104500006B461F790797002F04D062B60798C0B298
:104510000DB0F0BD3323FA2102930D4B89001868CA
:1045200003940496059502F0D5FB3A00069007A97E
:1045300002A8FFF78FFF079A002AE6D1382307A9C0
:1045400002A80293039404960595FFF783FFDCE726
:10455000DC00001030B50C4D8BB0A868002811D1DC
:104560003523022400930122684605A90194029490
:10457000FFF770FF059B072B02D00234802CF2D18D
:104580002003A8600BB030BD44010010F8B5040052
:10459000FFF7E0FF0C4FC619FFF7DCFFC7198020BB
:1045A000E5694001290002F095FB0138684338189D
:1045B000B04207D3E368C318013B1B78FF2B02D13D
:1045C000401BF5E70020F8BD00F0FFFFF8B505003F
:1045D0000C0000268F18BC4207D02B6821782800D9
:1045E0005B68984701343618F5E73000F8BD0200E3
:1045F000FF32527E0300101E0DD018695A69904296
:104600000AD10C4A5069800606D5116002230120A8
:1046100051680B43536070477F205A690132024052
:1046200018698242FCD058691818983001705A6194
:10463000004AEBE70080004010B504001521064851
:10464000FFF7D5FF012320005B42044923623C3081
:10465000FFF7EEF910BDC04694010010DC05000024
:10466000F8B5144E0700040002213000FFF7BFFF29
:10467000002528373978002906D04D193000FFF77A
:10468000B6FFEDB20137F5E72B09E15C3000FFF72B
:10469000AEFF0F231D40615D3000FFF7A8FF300023
:1046A0000321FFF7A4FF2000FA2130304900FFF773
:1046B000BFF9F8BD940100100300FF335B7E002BAF
:1046C00003D0026943699A42FBD17047194B30B558
:1046D0005A69920607D501694269914219D10221AE
:1046E0005A688A435A6001247F215A6922421FD0A6
:1046F000C268856801320A40AA4217D01D68C268A4
:1047000082181576C2680132C260C2680A40C2606F
:10471000EBE77F2102698218983212781A600269E9
:104720000132026102690A400261DCE71A68DCE7D3
:1047300030BDC04600800040030070B5FF335B7E93
:10474000002B28D07F26C3688568C1688268013342
:10475000334091421CD0816841180C7E8168013140
:104760008160826832408260AB420FD10B4B5B6943
:10477000DB070BD5BFF34F8FBFF36F8F8025084B3F
:10478000AD03DD67FFF7A2FF064B1D60200070BD83
:1047900001246442E8E701246442F7E70080004016
:1047A00004E100E000E100E010B50248FFF78EFFF1
:1047B00010BDC0469401001001230279064907325A
:1047C0009340002210B5CC6F2343CB670368DA63B4
:1047D0005A619A6210BDC04604800440024A1368C0
:1047E000013313607047C04644010010036870B580
:1047F0005B680C0098470300021E00D0027801207D
:1048000021120333E4B2824208DB1D788D4202D1CB
:104810005D78A54204D001300233F4E70120404224
:1048200070BD436810B5D86E03689B6E984710BD85
:10483000436810B5D86E036804699B6D984700788B
:10484000201810BD036810B55B689847007810BD4C
:1048500010B50A4C2000FFF72FFFBFF34F8FBFF3B7
:104860006F8F8022064B9203DA67064A0649D36FA0
:10487000FF340B40D3670023637610BD9401001012
:1048800004E100E004800440FFEFFFFF03235943ED
:1048900010B589B2013B802A00D0043307248C4034
:1048A0008B40826AA2438262826A1343836210BD94
:1048B000032330B507254B439D409A404469490086
:1048C000AC43446144692243426130228A40C36B55
:1048D0009343C363C36BC36330BD70B5846A2368FD
:1048E0009B8A180A48708B70FF2000239DB2AA4251
:1048F00003D9CD5C01336840F8E78854E164BFF325
:104900004F8FBFF36F8F72B623002C331A78D5B256
:10491000012A11D105321A70E31DD97FA3698A00DB
:104920001868030018339B181D600322FFF7C0FFAF
:104930000022A3691B689A6062B670BD70B504005E
:10494000431DD97F836981221868FFF79FFFA36900
:10495000E51DE97F18680222FFF7AAFFA369EA7F35
:104960001B680949183392009A181160A21DD27F62
:1049700092009B18054A1A60230001222C331A70FA
:104980000023A36270BDC046FEFF0000FFFF0000D1
:104990001021F0B5431DDB7F826999401268040045
:1049A000106887B0014222D0980013002C331B18E6
:1049B0001868E31DDD7F1300AD0018335B19E5694E
:1049C0001E686B06B94F9B0F9B00DF591F231D40CC
:1049D0001B3BAB401D00EB59002B02D0116007B010
:1049E000F0BD936898421BD81B1A022BF3D92700FD
:1049F0002C373B78D8B20E2B01D900F090FC02F096
:104A0000F3FA110023002C0038008B013A026902EE
:104A1000D002060324036803FA031E044D04610454
:104A2000F318E1E7A3691A68631DD87F1023834058
:104A30001168194201D100F072FC00239360FF223B
:104A4000A3691B681A60CAE7A3691B681A68631D1B
:104A5000D97F10238B401A42F1D0220000236F32FD
:104A60002364073AD3711380FF22A3620133626685
:104A70002366A269651D106810221100EB7F06688D
:104A800099400E4200D017E1636E002B04D0210044
:104A90006831088802430A800021206E0A0088429B
:104AA00002D05A425341DAB20623A1623B70266C0F
:104AB000072E2DDD002A2ED02C22236D1B78934348
:104AC000902B28D1206803685B6B984786421FDCD7
:104AD000236D22681979D878090201435B7949BAB4
:104AE00089B27F2B20D94E424E41906BF6B2031E05
:104AF00004D003681B689847C343DB0F3343226825
:104B0000526B127D520713D5002B11D1684E4EE027
:104B1000236C012B78D023006F331A78002A00D140
:104B2000BDE000221A70F1E7928A00239142E6D19B
:104B3000216D20260A78130033400193324201D0C0
:104B4000002314E0606803785A40B243019B0ED101
:104B5000236C013B0132934205DD8E5CB446865CDA
:104B6000B445F7D0ECE79B1A5A425341DBB2A26836
:104B7000002A31D000232200A3626832118840331A
:104B80000B431380236840215B6B1A7D012352087D
:104B90009343226D12780A40134301D00023A3628D
:104BA000A36A002BB2D00523B6263B70F600A3699A
:104BB000E71D18680322F97FFFF77AFEA3698122B7
:104BC0001868E97FFFF762FEA369FA7F1B6892000D
:104BD00018339B181E6032E7CC21A162002BD1D183
:104BE000236C216D934204DD8B5C61688B54013230
:104BF000F6E72200A360683213889BB2E3600023CB
:104C0000138001332375BDE723006C331A78002A23
:104C100000D180E700221A70220010216832138828
:104C20008B431380E26D002A02D0636CCC2B18D02A
:104C3000216B636B994214DAA16BE36B994210DA32
:104C40002300200021006A336D306E31002A1AD112
:104C500004221E8832431A800023037001330B7034
:104C600054E7226B636B9A4203DAA26BE36B9A42BE
:104C700005DB220080236A3211880B431380200059
:104C8000FFF7D6F842E7626CC02AE1D11E88B03A3D
:104C900032431A800123074E03700B7087E722000E
:104CA0008023683211880B4313802FE7EC730000D8
:104CB000E8130000883C00009A0003002C339B1886
:104CC000E21DD27F866801929200944602001B6822
:104CD00018326244B3421BD2F31A022602334660F2
:104CE000013E466083608F23DB001360019903223D
:104CF000FFF7DEFDA36981221868E97FFFF7C6FD93
:104D000004233B70002366656364A365E66596E64D
:104D100011688C466644DFE70121E51DE87FA36941
:104D200081401B681A680A40511E8A4104A9D2B208
:104D3000CA70CA780331002A26D0183380001818A8
:104D400003680593A36D059A18004430904277DA02
:104D50006833A3654426B446059AA36D0192019E6B
:104D6000626D9C445000B44515DA80267600B2424C
:104D700011DC666C68333243E66D626472427241E4
:104D8000A365E2656065E5E7621DD27F2C33920082
:104D90009B181B68D5E7059E2133B34209DA8023AF
:104DA0005B009A4205DC220068321688FC3B3343E4
:104DB000138060650B78002B50D0636C266CDAB2E0
:104DC0006264002E08D19B0706D02200802368323F
:104DD00011885B000B431380206803685B6B984766
:104DE000864234DA236C216D5A1C2264626CCA54E8
:104DF000636E626C53406366E36D002B05D1210046
:104E000008226831088802430A80226E1340236614
:104E100003233B70A369E97F18688A0003001833F5
:104E20009B189A2252001A60343AFF3AFFF740FD6D
:104E3000631DD97FA36981221868FFF727FDFEE56E
:104E4000220004236832108803431380B2E7220053
:104E50002023683211880B431380CDE78223059A03
:104E6000DB009A4200DCEAE5220001236832118867
:104E70000B431380E3E51021A369661D1868F37FD7
:104E80000268994015000D400A4204D00023A36235
:104E900002333B70ABE502006821A564A31DDB7FF4
:104EA00018329B00D3181960E31DD97F8B00D218EC
:104EB0008B2313600322FFF7FBFCA3698122186890
:104EC000F17FFFF7E3FC23006A3325641D8007238D
:104ED0003B70B4E5A369651D8122E97F1868FFF77F
:104EE000D5FC1021A3691B681A68EB7F99400A4220
:104EF00001D00223CDE7226B636B9A4203DAA26BE7
:104F0000E36B9A4208DB220080236A32118820007A
:104F10000B431380FEF78CFFE26C002A00D1FEE108
:104F20000F2153790B400833A36423006E331B78A1
:104F3000002B0BD020231178194207D09943117010
:104F4000A26CE16C013A885C43408B542422E36CF0
:104F50001B781340934222D1D0235B000593A369B1
:104F600005991868A31D0200DB7F18329B00D31837
:104F70001960E31DD97F059B8E00233392191360BE
:104F80000322FFF795FCA36981221868E97FFFF7E8
:104F90007DFC220000236A322364138097E7682394
:104FA000DCE71022631DD97FA3698A401B6818685B
:104FB00010421DD01A00A01DC07F890080002C3235
:104FC000183352181B18116818680738884202D91C
:104FD000A16A002907D011681A68103A8A4205D9D7
:104FE000A26A002A02D0D04A1A6082E708236FE73B
:104FF0001A68E31DD97F01238B401A4207D008238A
:1050000022003B706A32118818330B431380A36A65
:10501000002B10D0A36A80216364012349006365DB
:10502000636D626CFF2B0CDC1A4201D04A40626453
:105030005B006365F4E7236C5A1C2264E26CD35C6A
:10504000E9E70123636508333B7068238021626CC4
:1050500005934900636D5D006565134205D08B4281
:1050600003DC059B68330593F4E7A269059B106890
:10507000621DD17FA61D682B11DD0A2381223B70A2
:10508000FFF704FC80239B009D4212DCA369F17FA3
:105090001B68059A18338900233A5B1810E08022B8
:1050A000FFF7F4FB80239B009D42EFDDF63BFF3BC7
:1050B0003B70A369F27F1B68920018339B189A4AD1
:1050C0001A60A369E21D1B680599D27F183392000C
:1050D000A3E0631DD97FA3691D6810238B402A6854
:1050E0001A4200D181E08B0029002C31C9180E68CA
:1050F0006821300001F074FE3D2900D89FE4A31D13
:105100000393DB7F18359B00ED182B68073BB342F8
:1051100069D92300012221006F331A7040236A31BC
:10512000088803430B802300002168331980FF2384
:105130006366A36A2266E2658B422AD0A162A369F4
:1051400068211D682B0018330293039B029ADB7FB2
:105150009B00D31818682130801B01F0BBFD636DE4
:105160000130320003410A20616C683AA2655A1E80
:105170000A406365019262645B10002B1BD0019AA8
:105180000138134203D0E26D51425141E1655B1099
:10519000F3E721006E310A70226C013A2264226C1E
:1051A0009A42CCDDE26C216DD25CCA54616E01334F
:1051B0004A406266F3E7E31DD97F68234343029ABE
:1051C0009E198B00D3181E6003222800FFF770FB86
:1051D000A369039A1B68D27F183392009B18524A26
:1051E0001A60042355E6092372E60B238022280067
:1051F0003B70FFF74BFBA369A16C1A68236C183254
:105200008B4202DAA36A002B0BD00C233B7039339C
:105210000593E31DDB7F05999B009B181960FFF741
:105220000EFC9C235B000593313BFF3B3B70A31DB1
:10523000DB7F05999B002339D3181960E9E7A36A3E
:10524000E51D002B0BD00023A36206333B70374BC8
:105250000593A36905991B68EA7F183337E7A369AB
:105260000122186823006C33E97F1A70304B0593D4
:105270000D233B70FFF71CFB23006E331B78002BC4
:10528000E7D023006D331B78002B03D0A36B0133D1
:10529000A363DEE7236B01332363DAE70E233B705E
:1052A000631DD97FA36981221868FFF7EFFAA3690C
:1052B000E21D1B68D27F183392009B181D4A1A60AA
:1052C000FFF7BDFBA3691868631DD97F102305682C
:1052D0008B402A001A401D4200D00AE62300012517
:1052E0006E331D70023B1A70220008236A32158843
:1052F0002B43138006233B700300E51DEA7F183320
:1053000092009B18094A1A608122FFF7BFFAA3692D
:105310000322E97F1868FFF7CBFAFFF790FB200024
:10532000FFF70CFBFFF78BFBFFFF0000E81300000B
:10533000AF0500009A06000010B5024BD868FFF7D1
:1053400027FB10BD44010010802301385B04984204
:105350000DD2C021064A090650600648036A1B02A6
:105360001B0A0B43036200239360073313607047EB
:1053700010E000E000ED00E0802070B54004FFF791
:10538000E3FF00F0F3F91F2101228025094B0A4CAD
:105390001B68ED0319405B068A409B0F07499B0081
:1053A0005958A3682B4203D1130090004350F8E7EB
:1053B0000023FAE7D400001010E000E0EC730000D6
:1053C000F0B5430685B09B0F9A000293634B8DB2F4
:1053D000D6581F230340039301231F00039A2C0B6D
:1053E00097400A05120D24030192891400D1190077
:1053F0006A0B80250BB2BFB22D02032A08D1725965
:1054000017437751E025ED01AC4243D1062314E068
:105410007259BA43725180260025B601B44224D194
:105420004F4B984202D14F4B1D6005E04E4B9842C6
:105430000FD101214B4B19600723C20505D5022B63
:1054400003D08021019A0A43019200211F244012B7
:105450006FE0464B984201D1454BE5E745490723AC
:105460008842EAD1424901242BE0C026B601B44269
:1054700059D00F290ED139491031AC006458A042DF
:1054800003D13D490F230D60D7E70135042DF4D139
:10549000FFF772FF0C290DD1384B984204D100243C
:1054A000374B1C600B00C8E7364C0B00A042C4D140
:1054B0003349D8E70D2B0BD13349884203D1334907
:1054C00000240C60B9E732498842B6D12F49CAE7B7
:1054D0000E2B19D12F49884201D12F49F0E72F49CE
:1054E000884201D12C49BEE72D49884202D10224CD
:1054F0002949E6E72B49884201D12B49E0E72B49AE
:1055000088429AD12849AEE70B2B96D11B49884295
:1055100003D1002426498C618FE7264988428CD12B
:1055200001242349F7E7022387E7013140110429C9
:10553000AED0050025409D42F7D10C23029A0748C2
:105540005343039A9B185B00C3181B8C1A4A9B1881
:10555000019A9B000A431A6005B0F0BDEC7300008D
:1055600002C23A00C040044063823D0025423C0034
:10557000D040044049C20100D4400440424265008A
:10558000C84004402A83300C43826D00CC40044064
:10559000298269000A4A7006B04004404B823B00F1
:1055A0000602700041C27400C44004406242350EDD
:1055B000004004404482590000100110F8B5070073
:1055C000FEF79AFD0323BC6A4E4E22006363E36339
:1055D000002368322100A360A362138001226F318F
:1055E000E360053922754B710B802361E3640B8006
:1055F000627522002C322363A364A3634B800B717A
:105600001370414BA0691A00103290425CD1C42241
:10561000FF219200B3588B43B350FFF7CDF801211F
:10562000A3691868A31DDB7F426F99400B001343E9
:105630004367631DD97F8122FFF728F90121A26901
:1056400015686B680B436B6013791F22103313408E
:105650000A009A402D4B326018682D4901F03AFB40
:1056600002220138E8606B68280013436B606B68A6
:1056700093436B60E31DD97F2B008A0018339B187E
:10568000244A1A600322FFF713F9A31DD97FA369E7
:1056900088001A68130018331B181F48186001236C
:1056A0008B4090601D00D16B0D400B42FAD1E02180
:1056B000206AC901FFF784FE1849E069FFF780FE00
:1056C00001233D647B64F8BD1A001832904205D175
:1056D000C4229200B35812490B409DE71A002032B1
:1056E000904204D1C4229200B3580E49F4E7283303
:1056F000984200D091E7C4229200B3581B021B0AC3
:105700008AE7C04600E100E044010010DC00001020
:1057100040420F0050140000FFFF00002020000056
:10572000FF00FFFFFFFF00FF10B5838A0400002B7E
:1057300003D103680749DB6898472000FFF73EFF65
:10574000230001225C331A70034B1B68636623231A
:10575000236610BDFFFF00004401001010B50400D7
:10576000FEF710FA2000FFF7DFFF10BDC02110B5D3
:10577000054CC9012068FFF723FE802160684901BC
:10578000FFF71EFE10BDC046D400001010B5FFF795
:10579000F3FDF0B507000C008DB0B86AFEF71AF9FA
:1057A0000028FAD0B86D002803D0036821001B68D8
:1057B00098473D6D2B7D002B7DD0BFF34F8FBFF3FE
:1057C0006F8F72B62800FEF7E1FE0400FEF7C2FEFE
:1057D000524BEE69C318802031004001019301F063
:1057E00079FA01387043019B1818844241D1FEF7C1
:1057F000B1FE4A4BC418FEF7ADFE484BC0188442B8
:105800003BD13223E6173605360DA6193613012291
:1058100007A902A8029303960496FEF71BFE079BB6
:1058200001936B461B790793002B1CD1FA2134336B
:1058300002933B4B890018680396049601F04AFADC
:105840000122059007A902A8FEF704FE079B019319
:10585000002B08D13533012207A902A80293039631
:105860000496FEF7F7FD079BDBB2002B05D0FFF790
:1058700083FD002CBBD0A419BDE700262B69EA6884
:105880009B18013B1E70EA68964210D28023921B3F
:10589000DB009A4200DD1A002B69A0199919FEF766
:1058A00015FE0028E3D18023DB00F618EBE7002388
:1058B0002B75AB6162B67C6D002C2BD0194D635DEE
:1058C000002B0FD0A1680800FEF7D4FD0028CED130
:1058D00080222100606852001431FEF7F7FD002895
:1058E000C5D16055104D635D002B13D08526B600E1
:1058F000A1590800FEF7BEFD0028B8D12100802282
:10590000A059153100025200FF31FEF7DFFD0028DB
:10591000ADD1605501200DB0F0BDC04600F0FFFFD5
:10592000DC0000102202000021020000012110B55D
:10593000FFF72FFFBFF34F8F024B034ADA60BFF32D
:105940004F8FFEE700ED00E00400FA05802070B5FF
:105950004004FFF7F9FCFFF709FF1F210122802512
:10596000094B0A4C1B68AD0319405B068A409B0F2C
:1059700007499B005958A3682B4203D1130090009C
:105980004350F8E70023FAE7D400001010E000E0ED
:10599000EC73000010B50323FEF7B2FA10BDF82136
:1059A000036810B504001868FF3103685B68984706
:1059B000636860740521A27A1868FFF7EBFF10BDD9
:1059C000FD2110B5036849005B68984710BD036866
:1059D00010B504001868FFF7F3FF6368E073002157
:1059E000227A1868FFF7D6FF10BD036810B50400CF
:1059F0001868FFF7E5FF636820740321227A1868AE
:105A0000FFF7C8FF10BDF0B50F00040015000069D6
:105A10000022022185B0FEF7C1FA3878822818D01A
:105A20000F2302009A43C02A44D10F2318400C3B95
:105A30000E2800D002339D423CD102380C2839D8C0
:105A400001F0C8FAA238093838383817383A53887C
:105A50009A00C220E9E7B9787A78FB780902114305
:105A60003A791B04194312060A43062112BAA068A8
:105A70001EE0FC21B8787D78FB78000228431B04E7
:105A80003D79184363682D06054318682DBA0368ED
:105A9000FF315B68A668AD089847030705D5E1218B
:105AA0002800090101F016F905002A00072130003D
:105AB000FEF754FA05B0F0BDA523B8787A78000255
:105AC000104340BA5B0080B258438012FEF7E7FAF9
:105AD00008210200A068FEF741FA0F21FA78A068B9
:105AE000FEF73CFA09213A79C1E77A78A568BB78D4
:105AF000002A01D1012B2AD0B8787A78000210430D
:105B00006F4B40BA80B20521584301F06DF9FEF7A2
:105B1000C6FA0A2102002800FEF720FA3879FE783A
:105B2000FF21361819204643664B4900F618636872
:105B3000A568186803685B68984743B20A20584311
:105B40008019FEF7ACFA0B2102002800B0E7012013
:105B50004042DCE710217A78A068FEF7FFF91121B6
:105B6000BA78A068FEF7FAF91221FA78A068FEF771
:105B7000F5F913213A797AE714217A78A068FEF7CB
:105B8000EDF91521BA7872E77B7860260093BB782F
:105B9000009A0193102313400C22019901980A40A6
:105BA00013431A000640701E8641511E8A41019817
:105BB000E568C006C00F02900198D1B2C0090390F9
:105BC000287AF6B2904219D02972002B6FD0FC21AE
:105BD0002B68FF31186803685B689847030666D531
:105BE000FC212B684900186803685B68984701002E
:105BF0002800FEF7C9F92800FFF7F7FEAB7AB34299
:105C000009D06B68320018680121AE72FFF7C2FE3E
:105C10002800FFF7C4FE029B6B72039BEB72009B94
:105C20001B0713D5E5682B7B002B02D16B7B002B68
:105C30000CD0002101262800A981AE73FEF7A4F93B
:105C40006B68320002211868FFF7A4FE0123019A55
:105C500019001A402069FEF7A1F90223009D00995E
:105C60001D402E002A0019420AD03D79013BAA08A6
:105C70002E091A401E4009331D406B1E9D41EDB296
:105C800020690421FEF78AF9320020690821FEF715
:105C900085F92A0020692021FEF780F90122009B66
:105CA000102113401A002069FEF778F902E7280056
:105CB0000021FEF769F92800FFF789FE9BE7C0463F
:105CC000E023000030F8FFFF10B50400431DDA7F29
:105CD000002AFCD10132DA77E369E1695A790F23AE
:105CE0001A400732A06901F0ADF92000FEF71AFA58
:105CF00010BD70B503790400002B39D04379002B17
:105D000036D01D4DC2682B689B1A1C4A934201D99C
:105D1000FEF71AFB6379012B13D1A31DDA7F022A48
:105D200026D1DA7FD1B2022A22D10132617120005C
:105D3000DA77FFF7C9FF0023A3722B6823612B6872
:105D4000E3606379022B13D122692B689B1A0C4AFA
:105D500093420DD90A23E3562000022B09DCFFF7FA
:105D6000B3FFA37A0133A3722B6823612B68E3602E
:105D700070BDFEF7E9FAFBE7440100106F17000061
:105D8000B70B0000F0B5040085B0FFF7B2FFA36ABF
:105D90001A002C3299681078012802D01278062A4D
:105DA00037D1DA6C002A34D1002932D0626B127DEF
:105DB00052072ED5C0205D689B682A79E9781202C7
:105DC0000A43A979DBB2EE79029380000B0203400B
:105DD0003343F026A02752BAB60092B21E40BF004D
:105DE000BE4209D000D96DE0300080278138FF38ED
:105DF000B84380B2002867D1002A67D123682A00FF
:105E00009F6931002000029BB847236820005B6A2D
:105E10009847E06A00283CD0C349FFF7D1FAE26A0C
:105E2000C24D53069B0F9B0058591F231340042259
:105E30009A401358A06C5A1E9341BD4A616C126877
:105E4000834200D18CE12264A364636C002B06D1F1
:105E5000002904D0626B7F3B117D4B401375C0213C
:105E6000E06AC901FFF7ACFA01211F220800E36ACA
:105E7000266B1A4090400200606B007D08400021B4
:105E8000B04200D011005B069B0F9B00EB589200C4
:105E9000D150A36ADB6C002B12D122004C32127855
:105EA000002A0DD06279002A06D0E288002A03D0A9
:105EB00081212000FEF72EFA236820001B6B9847F3
:105EC00005B0F0BD864297D01E0095E76B797F2B19
:105ED00008D90299236800915F6931002B002000E6
:105EE000B84792E7A38A9A4200D08EE73C230A0083
:105EF0009A431300AF7868783F0207437FBA58B2DD
:105F0000BAB2002800DB93E0802B32D0812B55D031
:105F10003D230800984300D177E76379C80761D42F
:105F2000012B00D871E7E388934200D06DE7082386
:105F30000F22E356890820001140994275D10026AE
:105F40007B4B01311B681140A71D2172E360E51DE9
:105F5000FE77EB7FB3422ED0236A216A5B79E0693A
:105F60001A40073201F06EF8EB7FDBB2FB77EE7779
:105F70001DE06579002D11D0013D012D00D944E7C8
:105F8000E388934200D140E7694920008B880133C0
:105F90008B8000238121FEF7BDF936E723682000BE
:105FA000DB699847624BE7801B682581E360637972
:105FB000012B00D129E70123637126E76379013BB7
:105FC000012B00D921E7E388934200D01DE700238D
:105FD000574A637193882168013393802000CB690D
:105FE000984712E7FF2900D10FE78906090F002B18
:105FF00000D10AE708202056814200D005E7E18859
:10600000914200D001E70A22A2562000022A0CDCAD
:10601000022B0AD1FFF758FEA37A0133A372444B37
:106020001A681B682261E360EFE6FEF78DF9ECE683
:1060300003230800984322D1671DFB7F002BFCD16E
:106040000C200133FB772978A3690840502149428D
:1060500001431970110AD9701A7122680093136AEA
:1060600031009C462A0020006546029BA847002874
:1060700003D02000FEF756F8C7E6F877C5E6FF29FB
:1060800001D08906090FE388934200D0BDE6637909
:10609000002B00D1B9E609202056254F4BB2814292
:1060A0004BD1C2212000FEF735F90F22637A01336C
:1060B000134063723B68E360A31DDB7F002B2ED18E
:1060C0002300E769253303930123039A31001370FA
:1060D000236800971B6A2A009C4620006646029BA4
:1060E000B047002826D00C222B781A4050235B4260
:1060F00013433B70E3881A0A3B710823FA70E26984
:10610000E356974202D00F22013313403C21BA7963
:106110009B008A43134340221343BB7175E623005F
:10612000276A2633CFE7C04610100000EC7300004A
:1061300044010010039B187067E60F2501382840C2
:10614000814208D1C2212000FEF7E4F8FB88013328
:10615000FB803B6867E7C3212000FEF7DBF8F8E728
:10616000206C002800D170E6121A322A00D56CE6A5
:1061700000226364226468E6F0B50379040087B006
:10618000002B00D1DFE0FFF7FDFDA36ADB6C002BE5
:1061900000D0D8E023005C331B78002B00D1B4E0A2
:1061A00023682000DB6A9847002800D1ADE06B4BE4
:1061B000626E1B689B1A226E934200D299E0E56BD7
:1061C0002B6828005B6998470090002800D190E078
:1061D0002B6828001B69984701788BB2039300292C
:1061E00000D186E0286900F0E5FE29618FB2BBB2DC
:1061F0000293039BBAB2934200D8ABE02B683900FC
:106200009B6828009847037801936B68986B036834
:106210009B6898470600037801365B00C318049317
:10622000049BB3421DD973789F421CD1337801334C
:1062300005936B68986B0368DB689847059B8342FE
:1062400011D86B68986B03685B68984733785B007C
:10625000C0188278417812020A4352BA92B2002AD8
:1062600003D10137C3E70236DAE74421019B0B4033
:106270008B42F6D10120029B00995B08C91801915D
:106280000099C95C029B034200D00909CB439B07DC
:10629000E7D104200B000340014256D06B68591D22
:1062A000C87FC6B20028FBD10130C877BC219B69EA
:1062B00019701A71110AE122D9705A719E71DE713A
:1062C0006868FDF72FFF6B68EF609B6A1E750423FB
:1062D0000721BA001A409140019B01371B788B437C
:1062E00001219140019A0B4313701C4B2F611B68D5
:1062F0006366FA21194A636E1268C900D21A8A428B
:1063000003D3FA2292009B186366236D1B7D002B3A
:1063100019D0A06AFDF75EFB002814D0A36A9B6821
:10632000002B10D16379002B0DD1226D0B4B91699D
:106330001B685B1A002B02DC137D002B03D00221AB
:106340002000FFF726FA07B0F0BD39002800FDF75E
:1063500027FFBCE72B6901332B61CAE7440100101A
:10636000F7B51F0003680D00DB69040016009847AD
:10637000A84204D1012F02D133782375F7BD636899
:106380002000ED1A2368DB699847A84208D37B19DF
:10639000019323682000DB6998477B19834206D26A
:1063A00020693A003100401900F04CFEE6E7019BFD
:1063B000AB42E3D023682000DB6998473378A842DA
:1063C00003D1237501360135F1E722695355F9E709
:1063D000F0B51F00036885B0DB6901910400160069
:1063E0009847019B984205D1012F03D1237D33703B
:1063F00005B0F0BD636820000293029A019B9D1ACC
:106400002368DB699847A84208D37B190393236864
:106410002000DB6998477B19834206D221693A0044
:106420003000491900F00EFEE2E7039BAB42DFD0DB
:1064300023682000DB699847A84207D1227D029B90
:1064400001995B1AF3185A550135EEE723695A5D35
:10645000F5E7F0B589B007930B000692079A013B68
:106460009B180493049A040000250391914250D88C
:10647000606D00285DD0036803999B68984705907C
:10648000606D049903689B689847059B002B50D06A
:1064900000282ED1039A079B944617006344079364
:1064A000069B039A9E1A079BF619BB4245D0606D66
:1064B000390003689B68984700283ED00E9A606DAB
:1064C00012780368002A2DD0002200925B68320007
:1064D0001D0039000123A84700282ED100230137D1
:1064E0000593DDE7049BBB4200D2B9E00696039713
:1064F000BEE70E9A606D12780368002A0CD0002265
:1065000000925C68069A079B0399A0474342584152
:10651000C5B2280009B0F0BD1C68069A079B039914
:10652000A047F3E71B6832001D0039000123A8478C
:10653000D2E70123069E039F0593206D390003686F
:10654000049A1B699847069000281DD0049B3900C7
:106550000133DB1B20000393FDF78AFB0E9B039A9C
:106560001D78002D04D00100300000F06BFDD0E755
:10657000310000F067FD0123226D069D1375404B2D
:106580001B6832339361C4E7206D39000368DB6810
:106590009847002815D0236D39009D6820006B1C9A
:1065A000DD1B0393FDF764FB0E9B2A001B78002B79
:1065B0001DD00100300000F045FD0023039F761937
:1065C0000593606B39000368049A1B69984700289B
:1065D00018D00E9B606B1D78049B0133DB1B002DD4
:1065E00043D132003900FFF7BBFE012591E73100AE
:1065F00000F028FD0123226D1375214B1B683233F7
:106600009361DAE7606B0368DB699847874206D1DC
:10661000606B0368DB699847049B8342D9D0606B49
:1066200039000368DB689847002811D0606B8368E5
:1066300001330393DD1B0E9B1B78002B1AD02B001C
:1066400032003900FFF7C4FE0023039F761905933B
:10665000049B0133DB1B0793059B002B00D141E713
:10666000079E73425E41F5B253E732003900FFF7EF
:10667000AFFE4EE72B0032003900FFF771FEE3E773
:106680004401001030B50F250400012085B06D4491
:106690002870181E03D020000095FFF7DAFE05B021
:1066A00030BD30B50F250400002085B06D44287042
:1066B000181E03D020000095FFF7CBFE05B030BDBB
:1066C00070B50B4C250030352B78BFF35B8FDB07A3
:1066D0000BD4280000F0CBFC002806D023000722B2
:1066E000343328001A7000F0CFFC3434207870BDA9
:1066F00044010010FF22F0B5A24E85B0336AB46B9E
:106700001A602300973301931B78019A013B1370A1
:10671000271DFD6F2A682B7A1068002B00D116E127
:10672000FC210368FF315B689847430608D52B7C42
:10673000013BDBB22B74002B02D12800FFF755F987
:10674000A97C002900D1F3E001392800C9B2FDF786
:106750001BFCAB7C002B02D12800FFF738F9AB7A89
:10676000002B20D0FC212B68FF31186803685B6880
:106770009847830617D56B7C013BDBB26B74002B0B
:1067800011D1FC212B68FF31186803685B689847BA
:10679000830705D56B680121AA7A1868FFF7FAF814
:1067A0002800FFF7FCF8FA6F517A137A0B43917ABD
:1067B000D27A0B4313430393019B1A7801231A42A5
:1067C0003DD135003C352A78BFF35B8F1A420BD19F
:1067D000280000F04CFC002806D03300162240337D
:1067E00028001A7000F050FC2300403695331D78C5
:1067F00002933378AB4222D0039B002B1FD123009E
:1068000096331B78022B1AD9AB1F0F2B12D8FE21FF
:10681000A36F4900186803689B68984715235D1BA0
:106820002841C30706D5029B03221978E36F186835
:10683000FDF73DFB22009532137801331370019B65
:106840001B785B073FD1FFF73BFF23009633029392
:106850001B78C0B2984236D0039A002A33D1022660
:10686000062B01D8484AD65C484BFF335B7E002B91
:1068700029D0230088331B685D692B6A002B22DA3C
:106880002B00283303931B78002B1CD1EB6B002BC0
:1068900000D06FE03309EB5C039A280013700F23DC
:1068A0002A003340EB5C293213702B0000222A337C
:1068B0001A700132DA729E72FDF7D2FE029B029AC2
:1068C0001B7801331370019B1A78002A2ED13C23C8
:1068D00001990B70FB6F597AD87A0143012907D0CF
:1068E000997B002904D0022158689A73FDF736FB82
:1068F000FFF7E6FE230096331A78C0B2824201D138
:1069000000221A70FC21A36FFF31186803685B68CE
:106910009847C3060AD5220094321378013BDBB2B4
:106920001370002B02D12000FDF772F805B0F0BD06
:10693000FC212B68FF31186803685B6898474307A0
:1069400000D40CE7EB7B013BDBB2EB7302E7FC21ED
:106950000368FF315B689847C30700D4FFE62B7CD0
:10696000013BDBB22B74002B00D0F8E62800FFF7C8
:106970003CF8F4E628003C30FDF73BF8002800D056
:1069800088E7A0E7440100106C7400009401001037
:1069900037B501AD29800400012202210069FDF70D
:1069A000FDFA6B78002B10D0287804380A280CD810
:1069B00000F010FB060B0B0B0B0C0B0F1F273D0001
:1069C00000220621A068FDF7C9FA37BD0022072181
:1069D000F8E701220821A0685242FDF7BFFA012220
:1069E0000F215242A068FDF7B9FA01220921524253
:1069F000E8E700220A21A068FDF7B0FA00220B2187
:106A0000E0E701221021A0685242FDF7A7FA012217
:106A10001121A0685242FDF7A1FA0122122152422F
:106A2000A068FDF79BFA012213215242CAE7012216
:106A300014215242A068FDF791FA01221521524219
:106A4000C0E7F7B5040055480300FF335B7E002B19
:106A500000D1A1E0FDF7F8FC002800D19CE0012561
:106A60004E48FDF769FE031E00DA95E0FF20226A1A
:106A700018405110062806DC07D800F0A1FAF106EC
:106A8000232B06060E0015280DD0002AE8DB0B2A62
:106A900068DD2000FDF7D0FDE2E722000023283268
:106AA00023631370DCE7002726002763283633783A
:106AB0002000BB4203D0FDF7D3FD3770D0E7FCF7D1
:106AC000C3FFCDE700232000FA2123622430FCF726
:106AD000AFFFC5E7002A41DB13002B402A423DD11E
:106AE000CAB2012A3AD9FF2001400F190139009199
:106AF0000F2126008C460136BE420BD0F07D0109E5
:106B00000191614608400199205C615C09185B189D
:106B1000DBB2F0E700996118097E99421ED121008D
:106B200034314B78013AD2B2002B09D00F20237EAA
:106B300009780340994203D12300002135331970AD
:106B400021006069183103681B6898472000FA210A
:106B50003830FCF76DFF0023636281E72000FDF70A
:106B60006BFDF8E7DBB218003038C0B2092805D950
:106B70001800413805288CD8373BD8B2FF2319407C
:106B800061182A4206D00B7E1B0103430B760132AB
:106B9000226265E70876FAE7F7BDC0469401001067
:106BA00010B50400782100F05EFA200010BD80B519
:106BB00000AF024B1800BD4680BDC046C0000010AB
:106BC00070B5174B174C0222236101232377164B14
:106BD0000021A361631DDA77144B01322362230085
:106BE00028331A71FA22124D92006A60114A124B30
:106BF00070322A60FF352175697610481049A3620A
:106C0000FEF7DEFB6B7E002B01D0FDF721FE0D4968
:106C10000D48FEF7D5FBFFF7CAFFE06470BDC04624
:106C200000C000404401001000000140004001404D
:106C300094010010EC75000000800140478279004B
:106C400000103C0000604000488281008E2120201E
:106C50001A4B89005A5882435A50002271391A62DD
:106C6000FF39C04601390029FBD101221A645A6458
:106C700059645A64596C1142FCD023228E21802021
:106C80009A6089005A5882435A500122D9681142A9
:106C9000FCD00321196700215A6759675A670122FE
:106CA000596F1142FCD09A670549064BD967064BCC
:106CB0001A60064B1A60064B1A6070470080044049
:106CC0005F000100048004409480044098800440E8
:106CD0009C800440002243088B4274D303098B42FA
:106CE0005FD3030A8B4244D3030B8B4228D3030C9C
:106CF0008B420DD3FF22090212BA030C8B4202D33E
:106D00001212090265D0030B8B4219D300E0090A65
:106D1000C30B8B4201D3CB03C01A5241830B8B426E
:106D200001D38B03C01A5241430B8B4201D34B0357
:106D3000C01A5241030B8B4201D30B03C01A5241BC
:106D4000C30A8B4201D3CB02C01A5241830A8B4241
:106D500001D38B02C01A5241430A8B4201D34B022A
:106D6000C01A5241030A8B4201D30B02C01A52418E
:106D7000CDD2C3098B4201D3CB01C01A5241830942
:106D80008B4201D38B01C01A524143098B4201D37C
:106D90004B01C01A524103098B4201D30B01C01AA7
:106DA0005241C3088B4201D3CB00C01A5241830821
:106DB0008B4201D38B00C01A524143088B4201D34E
:106DC0004B00C01A5241411A00D2014652411046AE
:106DD0007047FFE701B5002000F0F0F802BDC046A3
:106DE0000029F7D076E7704703460B437FD4002293
:106DF00043088B4274D303098B425FD3030A8B424F
:106E000044D3030B8B4228D3030C8B420DD3FF22B8
:106E1000090212BA030C8B4202D31212090265D086
:106E2000030B8B4219D300E0090AC30B8B4201D339
:106E3000CB03C01A5241830B8B4201D38B03C01A80
:106E40005241430B8B4201D34B03C01A5241030BF7
:106E50008B4201D30B03C01A5241C30A8B4201D3A8
:106E6000CB02C01A5241830A8B4201D38B02C01A53
:106E70005241430A8B4201D34B02C01A5241030ACA
:106E80008B4201D30B02C01A5241CDD2C3098B42AF
:106E900001D3CB01C01A524183098B4201D38B012C
:106EA000C01A524143098B4201D34B01C01A5241CF
:106EB00003098B4201D30B01C01A5241C3088B4214
:106EC00001D3CB00C01A524183088B4201D38B00FF
:106ED000C01A524143088B4201D34B00C01A5241A1
:106EE000411A00D201465241104670475DE0CA0F78
:106EF00000D04942031000D34042534000229C4638
:106F000003098B422DD3030A8B4212D3FC22890141
:106F100012BA030A8B420CD3890192118B4208D317
:106F2000890192118B4204D389013AD0921100E079
:106F30008909C3098B4201D3CB01C01A524183098D
:106F40008B4201D38B01C01A524143098B4201D3BA
:106F50004B01C01A524103098B4201D30B01C01AE5
:106F60005241C3088B4201D3CB00C01A524183085F
:106F70008B4201D38B00C01A5241D9D243088B42B5
:106F800001D34B00C01A5241411A00D20146634658
:106F900052415B10104601D34042002B00D54942BC
:106FA000704763465B1000D3404201B5002000F0FB
:106FB00005F802BD0029F8D016E770477047C046B3
:106FC00002B4714649084900095649008E4402BC82
:106FD0007047C04602B4714649084900095C49003F
:106FE0008E4402BC7047C04603B471464908400055
:106FF0004900095A49008E4403BC704770B5002609
:107000000C4D0D4C641BA410A64209D1002600F0C3
:1070100073FB0A4D0A4C641BA410A64205D170BD37
:10702000B300EB5898470136EEE7B300EB589847AA
:107030000136F2E7047700000477000004770000CF
:107040000C770000002310B59A4200D110BDCC5C33
:10705000C4540133F8E703008218934200D170470B
:1070600019700133F9E710B500F027F810BD0300DF
:1070700001201A68024205D15A78002A00D0FFDEAA
:10708000587070470020FCE701230360704710B57B
:10709000041E00D10134200000F040F8002807D180
:1070A00000F010F8002801D100F012F88047F2E754
:1070B00010BD10B5FFF7EBFF10BD10B500F038F8AC
:1070C00010BDFFFF014B18687047C046B0020010AA
:1070D000FEE7FFFF10B5064C2378002B07D1054BC8
:1070E000002B02D0044800E000BF0123237010BD34
:1070F000B40200100000000018770000044B10B527
:10710000002B03D00349044800E000BF10BDC04677
:1071100000000000B80200101877000010B5034B03
:107120000100186800F07AF810BDC046E0000010B9
:1071300010B5034B0100186800F004F810BDC046FC
:10714000E000001070B50500002910D00C1F236866
:10715000002B00DAE418280000F0E8F81D4A136854
:10716000002B05D163601460280000F0E7F870BDC3
:10717000A34208D9216860188342F3D118685B687C
:1071800041182160EEE71A005B68002B01D0A34292
:10719000F9D911685018A0420BD12068091850186D
:1071A00011608342E0D118685B6841181160536038
:1071B000DAE7A04202D90C232B60D5E721686018DA
:1071C000834203D118685B68411821606360546092
:1071D000CAE7C046D002001070B50F4E0D003168EE
:1071E0000400002902D100F08FF83060290020004F
:1071F00000F08AF8431C0AD00323C51C9D43A84213
:1072000007D0291A200000F07FF8431C01D1012586
:107210006D42280070BDC046D4020010F7B50322AD
:10722000CB1C9343083306001F000C2B32D20C27D3
:10723000B94231D8300000F079F8324D2B681C008B
:10724000002C2ED139003000FFF7C6FF0400431C8C
:107250001ED12C682500002D4AD123682900E3188F
:107260003000019300F050F8019B834243D1236822
:107270000337FF1A03239F4308370C2F00D20C2734
:1072800039003000FFF7A8FF431C34D02368DF1912
:10729000276013E0002BCBDA0C2300253360280095
:1072A000FEBD2268D11B20D40B2917D9E219276013
:1072B000A34211D12A606368116053603000250039
:1072C00000F03CF807220B35231D9543EA1A9D4236
:1072D000E5D05B1BA350E2E75A60ECE76268A3428B
:1072E00001D12A60EAE75A60E8E723006468A7E76B
:1072F0002C006D68AFE70C233000336000F01EF8FF
:10730000CDE7C046D0020010002370B5064D040042
:1073100008002B6000F01CF8431C03D12B68002BE5
:1073200000D0236070BDC046D802001010B50248DE
:1073300000F00CF810BDC046DC02001010B5024889
:1073400000F005F810BDC046DC0200107047704721
:1073500070B50D4D04002B68002B01D10B4B2B6039
:1073600003232E6803349C433419200000F010F8E6
:10737000002802D12C60300070BD00F015F8012605
:107380000C2376420360F6E7E0020010E4020010EE
:1073900003000448002803D0002283425241100019
:1073A0007047C04600000000014B18687047C04697
:1073B000E0000010424355310001010203040608B9
:1073C0000A0E0E0030333032313000303330323874
:1073D00030003033303230300030313233343536F3
:1073E00037383941424344454600FFFF0000005012
:1073F00000000150000002500000035026C233007C
:107400004782790061C2340F64C27900030004002E
:1074100007000B000C000D001300140018001900E9
:107420001A001D001E001F00200024002500280057
:1074300029002A0005000E001B00260002000A0099
:1074400017002300100011000000080009001500BB
:1074500016001C002100220027002B000F00120044
:1074600000000000000000000000000004090B0CF8
:107470000D0E02000000000000000000F3430000B9
:10748000FD430000134400008543000099430000C1
:107490008D5700008D5700008D5700008D5700005C
:1074A0000000000000000000F3430000FD43000066
:1074B000134400008543000099430000F93A00009E
:1074C000FF3A0000053B0000093B000000000000FF
:1074D00000000000B3430000BD430000D3430000A0
:1074E00085430000994300008D5700008D57000030
:1074F0008D5700008D5700008D5700008D570000FC
:107500008D5700008D5700008D5700008D570000EB
:107510008D5700008D5700008D5700008D570000DB
:107520008D5700008D5700008D5700008D570000CB
:107530008D5700008D5700008D5700008D570000BB
:107540008D57000000000000000000006D400000AA
:10755000DB3F0000954000003D4200001940000064
:107560003D4000000000000000000000ED4700006A
:10757000234800003148000045480000000000009A
:10758000000000000000000000000000F35C0000AC
:10759000493B0000F94000008D5700008D57000066
:1075A000794300004D3B00008D5700008D570000CF
:1075B00000000000000000000000000000000000CB
:1075C000855D0000493B0000BD5500008D5700005F
:1075D0008D57000079430000513B0000633B0000E1
:1075E000DB4800008D5700006B3B0000D1390000E4
:1075F0000000000000000000473B0000A16B0000FD
:1076000079610000213C000029570000A13C0000E6
:107610004141000079430000BF3C0000633B000093
:10762000DB480000193B00002D590000D139000053
:10763000153B00000D3B0000A366000085660000BE
:107640005D5700000000000000000000075A000025
:10765000916900000000000000000000CD4500001E
:10766000EF45000039470000334400004944000062
:10767000B94600000000000000000000B343000015
:10768000BD430000D3430000854300009943000040
:107690005F3A0000633A0000693A00006F3A000068
:1076A000753A00007B3A0000813A0000873A0000FA
:1076B0008D3A0000933A0000993A00009F3A00008A
:1076C000A53A0000AB3A0000B13A0000B73A00001A
:1076D000BD3A0000C33A0000C93A0000CF3A0000AA
:1076E000D53A0000E13A0000E73A0000DB3A00003A
:1076F000ED3A0000F33A0000F8B5C046F8BC08BC0B
:107700009E467047C16B0000FD700000F8B5C04692
:08771000F8BC08BC9E4670475E
:107718002141565021403A535F524D5F483620333D
:107728002E30300040825C0029826900006CDC0247
:10773800E40000100000000000000000000000004D
:107748000000000000000000000000000000000031
:107758000000000000000000000000000000000021
:107768000000000000000000000000000000000011
:107778000000000000000000000000000000000001
:1077880000000000000000000000000000000000F1
:0477980000000000ED
:04000003000030DDEC
:00000001FF
